:020000040800F2
:1000000060590120DD010008D54B0008D74B0008DE
:10001000DB4B0008DF4B0008E34B0008000000004A
:10002000000000000000000000000000E74B000896
:10003000E94B000800000000EB4B0008EF4B000804
:10004000F7010008F7010008F7010008F7010008B0
:10005000F7010008F7010008F7010008F7010008A0
:10006000F7010008F7010008F7010008394A000805
:10007000454A0008514A00085D4A0008694A0008DC
:10008000754A0008814A0008F7010008F7010008D6
:10009000F7010008F7010008F7010008F701000860
:1000A000F7010008F7010008F7010008F701000850
:1000B000F7010008F7010008F7010008F701000840
:1000C000F7010008F7010008F7010008F701000830
:1000D000F7010008F7010008F7010008F701000820
:1000E000F7010008F7010008F7010008F701000810
:1000F000F7010008F7010008F70100088D4A000821
:10010000F701000813A90008F7010008F70100082B
:10011000F7010008F7010008F7010008F7010008DF
:10012000994A0008A34A0008AF4A0008FBA8000843
:10013000BB4A0008F7010008F7010008F7010008B2
:10014000F7010008F7010008F7010008F7010008AF
:10015000C74A000807A90008D34A0008F7010008A9
:10016000F7010008F7010008F7010008F70100088F
:10017000F7010008F7010008F7010008000000007F
:10018000F7010008F7010008F7010008F70100086F
:10019000F7010008F7010008F7010008F70100085F
:1001A000F7010008F7010008F7010008F70100084F
:1001B000F7010008F7010008F7010008F70100083F
:1001C000F7010008F7010008DFF80CD00AF026FD5F
:1001D00000480047F54A000860590120064880475A
:1001E00006480047FEE7FEE7FEE7FEE7FEE7FEE71C
:1001F000FEE7FEE7FEE7FEE7F94B0008C90100084D
:1002000008B50020009000BF08BD70B5044601F09D
:100210002DFC4FF47A71B0FBF1F5284600F05EF941
:1002200000222146501E00F0E3F8002070BD10B5FA
:100230005848006840F4007056490860032000F0F8
:10024000C5F80F20FFF7E1FFFFF7DAFF002010BD30
:1002500008B50020009000BF08BD10B54FF0FF307A
:100260004D49086000200860401E091D08600020FC
:100270000860401E48491039086000200860401E90
:10028000091D086000200860401E091D086000204C
:100290000860FFF7DDFF002010BD40480068401CEB
:1002A0003E49086070473D480068704731B50024FA
:1002B00004F0E6F8044600BF04F0E2F8001B0099E1
:1002C0008842F9D338BD4FF0E020006920F00200E9
:1002D0004FF0E021086170474FF0E020006940F0E6
:1002E00002004FF0E021086170472D4870472D480B
:1002F0000068000C70472B480068C0F30B00704783
:100300002848406840F00100264948607047254869
:10031000406820F001002349486070472148406848
:1003200040F002001F49486070471E48406820F0B6
:1003300002001C49486070471A48406840F00400B9
:100340001849486070471748406820F00400154974
:10035000486070471448006840F001001249086086
:1003600070471148006820F001000F49086070478D
:100370000D482038006840F480600B49203908603F
:10038000704709482038006820F440600649203949
:1003900008607047003C0240203802400000012005
:1003A00000030001002004E02038014010B50028BF
:1003B00007DA0A07140EC14A00F00F031B1FD454BA
:1003C00003E00A07130EBE4A135410BD00BF00F02D
:1003D0000702BA4B0C3B19684FF6FF031940B94BA3
:1003E0000B4343EA0221B54B0C3B196000BF704739
:1003F0002DE9F05F80460D461646002700F058F9BB
:10040000074639462A46334601F00700C0F1070A7D
:10041000BAF1040F02D94FF0040A01E0C0F1070A53
:10042000D14600F1040ABAF1070F02D24FF0000AD8
:1004300001E0A0F1030AD4464FF0010A0AFA09FAD2
:10044000AAF1010A0AEA020A0AFA0CFA4FF0010BB1
:100450000BFA0CFBABF1010B0BEA030B4AEA0B04A2
:1004600021464046FFF7A2FFBDE8F09F00BF00F025
:100470001F02012191404209920002F1E022C2F8DC
:10048000001100BF704700BF00F01F020121914022
:100490008D4A430942F8231000BF704700BF00BFD8
:1004A00000BF00BF00BFBFF34F8F00BF00BF00BF42
:1004B00082480C38006800F4E06082490843001D5F
:1004C0007E490C39086000BF00BF00BFBFF34F8FEB
:1004D00000BF00BF00BF00E000BFFDE770B50446ED
:1004E0002546681EB0F1807F01D301200FE0681E11
:1004F0004FF0E02148610F214FF0FF30FFF756FF2A
:1005000000204FF0E021886107200861002070BDC5
:1005100041786A4A803211600178F9B1121D416850
:100520001160017B0907C27A41EA0261827A41EADD
:10053000C241427B41EA8241827B41EA4241C27B25
:1005400041EA0241427A41EA0221027A41EA420149
:1005500002781143594A8832116005E00021574A58
:1005600084321160121D1160704710B500F0A0F8C0
:1005700010BD2DE9F04304462046002808DA4F4F0D
:1005800000F00F0CACF1040C17F80C703F0902E0FE
:100590004B4F3F5C3F093D460E4606F00700C0F159
:1005A0000708B8F1040F02D94FF0040801E0C0F1C8
:1005B0000708C44600F10408B8F1070F02D24FF053
:1005C000000801E0A0F10308474625FA07F84FF0BC
:1005D000010909FA0CF9A9F1010908EA0908C2F8A8
:1005E00000804FF0010808FA07F8A8F1010808EAAE
:1005F0000508C3F8008000BFBDE8F08300BF00F02D
:100600001F0201219140304A8032430942F82310F1
:1006100000BF704710B5014608462B4A8032430997
:1006200052F8232000F01F040123A3401A400AB10E
:10063000012200E00022104610BD00BF00F01F02A2
:1006400001219140214A430942F8231000BF70471D
:1006500010B5014608461D4A8032430952F823204E
:1006600000F01F040123A3401A400AB1012200E058
:100670000022104610BD042808D14FF0E02109697E
:1006800041F004014FF0E022116107E04FF0E0215A
:10069000096921F004014FF0E0221161704708B5AB
:1006A0000020009000BF08BD10B5FFF7F8FF10BD97
:1006B00002480C380068C0F30220704718ED00E0D3
:1006C00000E400E00000FA0580E100E080E200E0E4
:1006D00030B50468246824F4802405682C6004681C
:1006E00063608468402C04D10468A2600468E160FF
:1006F00003E00468A1600468E26030BD0146087848
:1007000010381823B0FBF3F2FE48805C4865032ADA
:1007100005D908686FF30900001D086503E0086843
:100720006FF309000865086D704770B50446002531
:100730000CB9012070BD606A00B100BF022084F8CE
:10074000350020680568F0480540D4E901010843F8
:10075000E16808432169084361690843A1690843C6
:10076000E1690843216A08430543606A042803D10C
:10077000D4E90B01084305432068056020684569FA
:1007800025F00705606A0543606A042801D1A06A64
:100790000543206845612046FFF7B0FF0020E06474
:1007A000012084F835000020C4E770B504460CB978
:1007B000012070BD94F83500022801D10120F8E72E
:1007C0002068006820F0010021680860002021688E
:1007D000086021684860216888602168C8602168D5
:1007E00008612120216848612046FFF787FF054600
:1007F00094F854103F208840A8600020E06484F8FA
:10080000350000BF84F8340000BF00BFD1E72DE9F8
:10081000F04104460D4616461F4600BF94F83400CA
:10082000012802D10220BDE8F081012084F83400C3
:1008300000BF022084F835002068006820F0010025
:10084000216808603B46324629462046FFF740FFB4
:100850002068006840F00100216808600020E2E79D
:100860002DE9F04104460D4616461F4600BF94F898
:100870003400012802D10220BDE8F081012084F873
:10088000340000BF022084F835002068006820F0A2
:100890000100216808603B46324629462046FFF7A2
:1008A00017FF2068006840F01E002168086020687B
:1008B000406940F08000216848612068006840F08D
:1008C0000100216808600020D6E770B504460025C5
:1008D0002068006820F001002168086003F0D0FD66
:1008E000054612E003F0CCFD401BB0F57A7F0CD931
:1008F000E06C40F02000E06400BF002084F8340089
:1009000000BF032084F8350070BD2068006800F047
:1009100001000028E6D100BF84F8340000BF0120A8
:1009200084F835000020EFE72DE9F84F04460F4624
:10093000164600200090256D2FB994F85410202001
:1009400000FA01F804E094F85410102000FA01F8BD
:1009500003F096FD009064E0286814F8542F0821F5
:10096000914000EA0109286822786849914000EA2C
:10097000010A286814F854296449C91C914000EA06
:10098000010BB9F1000F05D1BAF1000F02D1BBF193
:10099000000F2FD0B9F1000F08D0E06C40F001003B
:1009A000E06494F8541008208840A860BAF1000F61
:1009B00008D0E06C40F00200E06494F85410534812
:1009C0008840A860BBF1000F09D0E06C40F0040043
:1009D000E06494F854104D48C01C8840A86004207E
:1009E00084F8350000BF002084F8340000BF0120E7
:1009F000BDE8F88F701CA0B12EB103F041FD009945
:100A0000401AB0420DD9E06C40F02000E0640320B1
:100A100084F8350000BF002084F8340000BF0320B4
:100A2000E6E7286800EA0800002895D01FBB94F884
:100A3000541030208840A8602068006800F48020AE
:100A400088B12068006800F4002018B9112084F8EB
:100A500035000BE02068006800F4002030B1212050
:100A600084F8350002E0112084F8350000BF002032
:100A700084F834001EE094F8541010208840A860D8
:100A80002068006800F4802088B12068006800F4C5
:100A9000002018B9312084F835000BE02068006888
:100AA00000F4002030B1412084F8350002E031200C
:100AB00084F8350000209BE770B50446256D286852
:100AC00094F8542008219140084038B32068006809
:100AD00000F0040010B32068006820F004002168D2
:100AE000086094F8541008208840A860E06C40F03A
:100AF0000100E064042084F8350000BF002084F881
:100B0000340005E008AF00083F8010F001008000CD
:100B100000BFA06C10B12046A16C8847286894F8EB
:100B2000542071499140084000B32068406900F0AA
:100B30008000D8B12068406920F0800021684861B9
:100B400094F8541068488840A860E06C40F00200B7
:100B5000E064042084F8350000BF002084F83400ED
:100B600000BFA06C10B12046A16C8847286894F89B
:100B700054205D49C91C9140084008B320680068B2
:100B800000F00200E0B12068006820F00200216857
:100B9000086094F854105448C01C8840A860E06C69
:100BA00040F00400E064042084F8350000BF002019
:100BB00084F8340000BFA06C10B12046A16C8847B7
:100BC000286894F85420102191400840C0B3206850
:100BD000006800F0080098B32068006800F48020E6
:100BE000B0B194F8541010208840A86020680068C4
:100BF00000F4002018B9312084F835001BE020688B
:100C0000006800F40020B0B1412084F8350012E003
:100C10002068006800F4807028B92068006820F01F
:100C200008002168086094F8541010208840A860DB
:100C3000312084F83500206C10B12046216C8847A3
:100C4000286894F8542020219140084018B3206867
:100C5000006800F01000F0B12068006800F4802007
:100C6000D0B194F8541020208840A8602068006813
:100C700000F4002028B9606C68B12046616C884798
:100C800029E02068006800F4002020B1E06B10B17A
:100C90002046E16B88471EE02068006800F4807001
:100CA00028B92068006820F010002168086094F8D6
:100CB000541020208840A860E06CE064112084F883
:100CC000350000BF002084F8340000BFE06B10B195
:100CD0002046E16B884770BD014691F835007047AA
:100CE0000146C86C7047000001008000F8B502465C
:100CF0000B46002100250024002000BFE6E001266D
:100D000006FA01F51E6806EA0504AC4273D15E6876
:100D1000022E02D05E68122E13D1CF0802F12006F7
:100D200056F827004E07F70E0F26BE40B0434F0778
:100D3000FF0E1E69BE403043CF0802F1200646F880
:100D4000270010684F000326BE40B0431E7906F00E
:100D500003064F00BE40304310605E68012E08D08D
:100D60005E68022E05D05E68112E02D05E68122EDB
:100D700013D190684F000326BE40B0434F00DE6899
:100D8000BE4030439060506801268E40B0431E79CB
:100D9000C6F300168E4030435060D0684F000326E3
:100DA000BE40B0434F009E68BE403043D0605E6896
:100DB00006F08056B6F1805FA8D100BF00260096ED
:100DC000B64E366846F48046B44F3E603E463668BE
:100DD00006F48046009600BF00BFB14E8F0856F85B
:100DE00027008E07370F0F26BE40B043AD4EB242EC
:100DF00002D100262EE068E0AB4EB24201D10126BE
:100E000028E0AA4EB24201D1022623E0A84EB24207
:100E100001D103261EE0A74EB24201D1042619E0FB
:100E2000A54EB24201D1052614E0A44EB24201D132
:100E300006260FE0A24EB24201D107260AE0A14EDB
:100E4000B24201D1082605E09F4EB24201D10926E7
:100E500000E00A268F073F0FBE403043904E8F08B8
:100E600046F82700994E3068A0435E6806F4803645
:100E7000B6F5803F00D12043944E3060361D306877
:100E8000A0435E6806F40036B6F5003F00D120436B
:100E90008E4E361D3060361D3068A0435E6806F405
:100EA0008016B6F5801F00D12043884E083630608A
:100EB000361D3068A0435E6806F40016B6F5001FC4
:100EC00000D12043814E0C363060491C1029FFF4BC
:100ED00016AFF8BDF0B50C46002500220023002116
:100EE0009CE0012606FA01F504EA0502AA427DD13A
:100EF00006684FEA410C032707FA0CF7BE43066069
:100F0000CF0800F1200656F827604F074FEAD76C4C
:100F10000F2707FA0CF7BE434FEAD10C00F1200768
:100F200047F82C6086684FEA410C032707FA0CF754
:100F3000BE438660476801268E40B7434760C66857
:100F40004FEA410C032707FA0CF7BE43C660544E24
:100F50008F0856F827308E07370F0F26BE403340D4
:100F6000504EB04201D100262DE04F4EB04201D18B
:100F7000012628E04D4EB04201D1022623E04C4E1E
:100F8000B04201D103261EE04A4EB04201D10426F0
:100F900019E0494EB04201D1052614E0474EB04257
:100FA00001D106260FE0464EB04201D107260AE0E5
:100FB000444EB04201D1082605E0434EB04201D173
:100FC000092600E00A268F073F0FBE409E4224D12B
:100FD0008E07370F0F2606FA07F3314E8F0856F8A3
:100FE00027609E432E4F4FEA910C00E015E047F832
:100FF0002C60364E36689643344F3E603E1D366850
:1010000096433F1D3E603E1D366896433F1D3E6041
:101010003E1D366896433F1D3E60491C1029FFF473
:1010200060AFF0BD024613690B400BB1012000E038
:10103000002070470AB1816101E00B0483617047B1
:1010400042694A404261704708B502464FF4803019
:1010500000900098084300900098D061D1610098FA
:10106000D061D0690090D06900F4803008B10020D0
:1010700008BD0120FCE708B50021009100BF08BDB4
:1010800010B50446114814300068204028B10F48BC
:10109000143004602046FFF7EEFF10BD44380240D4
:1010A00008380140000002400004024000080240ED
:1010B000000C0240001002400014024000180240E0
:1010C000001C02400020024000240240003C01407D
:1010D000F948006840F08100F74908600020F649AF
:1010E00008310860F4480068F4490840F249086093
:1010F0000020091D086008460068F1490843EE49D0
:10110000091D08600020EC49843108600846006829
:10111000EC490843E84984310860E748006820F456
:101120008020E54908600020E3490C3108607047E1
:1011300038B504460025207800F0010000287DD055
:10114000DD480830006800F00C0004280ED0DA48B2
:101150000830006800F00C00082812D1D648001DA5
:10116000006800F48000B0F5800F0AD1D248006812
:10117000C0F340400028E2D0606800285ED1012022
:1011800038BD00BFCC48006820F48030CA490860F0
:101190000846006820F4802008600846006820F4B3
:1011A0008030086000BF03F06BF9054608E003F0EB
:1011B00067F9401B41F28831884201D90320DFE7FB
:1011C000BD480068C0F340400028F0D100BFBA48D5
:1011D000006820F48030B84908606068B0F5803F4E
:1011E0000AD10846006820F480200860084600689C
:1011F00040F4803008601AE06068B0F5A02F0BD191
:10120000AD48006840F48020AB490860084600689B
:1012100040F4803008600AE0A748006820F480208D
:10122000A54908600846006820F48030086000BFC7
:101230006068A0B103F024F9054609E022E003F05C
:101240001FF9401B41F28831884201D9032097E7FA
:1012500099480068C0F340400028F0D012E003F045
:101260000FF9054608E003F00BF9401B41F2883105
:10127000884201D9032083E78F480068C0F34040CB
:101280000028F0D1207800F0020002286AD18A48B4
:101290000830006800F00C0060B187480830006832
:1012A00000F00C0008281ED18348001D006800F4DF
:1012B0008000C0B980480068C0F3400020B1E068F9
:1012C000012801D001205BE77B48006820F0F8008E
:1012D000F82292FAA2F2B2FA82F22169914008430E
:1012E000754908603EE0E06828B37348006840F044
:1012F00001007149086003F0C3F8054606E003F0F9
:10130000BFF8401B642801D9032039E76A48006808
:10131000C0F340000028F2D06748006820F0F800D1
:10132000F82292FAA2F2B2FA82F2216991400843BD
:101330006149086016E06048006820F001005E49DD
:10134000086003F09DF8054606E003F099F8401B9D
:10135000642801D9032013E757480068C0F3400010
:101360000028F2D1207800F00800082836D1606902
:10137000D0B151487430006840F001004E497431DA
:10138000086003F07DF8054606E003F079F8401B9D
:10139000642801D90320F3E6474874300068C0F39D
:1013A00040000028F1D019E043487430006820F074
:1013B000010041497431086003F062F8054606E017
:1013C00003F05EF8401B642801D90320D8E63A48B0
:1013D00074300068C0F340000028F1D1207800F09C
:1013E0000400042867D100BF00200090324840303C
:1013F000006840F08050304940310860084600687D
:1014000000F08050009000BF00BF2F48006840F4FB
:1014100080702D49086003F033F8054606E003F0BC
:101420002FF8401B642801D90320A9E6264800684C
:1014300000F480700028F2D000BF1F4870300068B0
:1014400020F001001C49703108600846006820F057
:10145000040008600846006820F00100086000BF32
:1014600003F00EF8054608E003F00AF8401B41F2CD
:101470008831884201D9032082E60F487030006825
:10148000C0F340000028EFD100BF0B487030006867
:1014900020F00100084970310860A068012815D1CA
:1014A0000846006820F0040008600846006840F024
:1014B0000100086024E04DE000380240FFFFF6FA2A
:1014C000103000040030002000700040A0680528A3
:1014D0000BD1FE48006840F00400FC490860084653
:1014E000006840F0010008600AE0F848006820F059
:1014F0000400F64908600846006820F00100086012
:1015000000BFA06898B102F0BBFF054608E002F0FA
:10151000B7FF401B41F28831884201D903202FE6F2
:10152000EA480068C0F340000028F0D012E002F062
:10153000A7FF054608E002F0A3FF401B41F28831F7
:10154000884201D903201BE6E0480068C0F3400050
:101550000028F0D1A069E8B3DC486838006800F0E2
:101560000C00082879D0A06902285AD1D7487038D1
:10157000006820F08070D5497039086002F080FF63
:10158000054606E002F07CFF401B642801D90320D9
:10159000F6E5CE4870380068C0F340600028F1D10D
:1015A000206A40F0005047F6C07292FAA2F2B2FAF6
:1015B00082F2616A914008430122A16AC2EB5101A3
:1015C0004FF4403292FAA2F2B2FA82F2914008430A
:1015D000E16900E043E008434FF0706292FAA2F242
:1015E000B2FA82F2E16A91400843B8496C39086066
:1015F000081F006840F08070091F086002F040FF7B
:10160000054606E002F03CFF401B642801D9032098
:10161000B6E5AE4870380068C0F340600028F1D0ED
:101620001DE0AA487038006820F08070A749703922
:10163000086002F025FF054607E002F021FF401B8D
:10164000642802D903209BE507E0A04870380068B1
:10165000C0F340600028F0D101E0012090E50020B7
:101660008EE570B504460D4600269948006800F0E6
:101670000F00A8426FD29648006820F00F00284360
:10168000934908600846006800F00F00A84201D0A6
:10169000012070BD207800F00200022809D18B489B
:1016A0006838006820F0F000A1680843874968396D
:1016B0000860207800F0010000283ED06068012812
:1016C00007D1824870380068C0F34040A0B90120BB
:1016D000DFE76068022807D17C4870380068C0F3F3
:1016E000406048B90120D4E7784870380068C0F3FA
:1016F000400008B90120CCE774486838006820F041
:1017000003006168084371496839086002F0B8FE57
:1017100006466068012811D108E002F0B1FE801B86
:1017200041F28831884201D90320B2E7674868381E
:10173000006800F00C000428EFD1B0E060680228D7
:1017400012D109E002F09CFE801B41F288318842F0
:1017500002D903209DE719E05C486838006800F072
:101760000C000828EED19AE008E002F089FE801B08
:1017700041F28831884201D903208AE7534868380A
:10178000006800F00C000028EFD188E0207800F01D
:101790000200022809D14D486838006820F0F000A6
:1017A000A1680843494968390860207800F00100C1
:1017B000002865D06068012807D144487038006867
:1017C000C0F34040A0B9012063E76068022807D158
:1017D0003E4870380068C0F3406048B9012058E7BF
:1017E0003A4870380068C0F3400008B9012050E75B
:1017F00036486838006820F00300616808433349C0
:101800006839086002F03CFE06466068012811D184
:1018100008E002F035FE801B41F28831884201D990
:10182000032036E729486838006800F00C000428D7
:10183000EFD125E06068022811D108E002F020FE17
:10184000801B41F28831884201D9032021E71F48DB
:101850006838006800F00C000828EFD110E008E0BC
:1018600002F00EFE801B41F28831884201D903202C
:101870000FE716486838006800F00C000028EFD128
:101880001348006820F00F002843114908600846FB
:10189000006800F00F00A84201D00120F9E620788E
:1018A00000F00400042809D108486838006820F4D2
:1018B000E050E1680843054968390860207800F085
:1018C000080008280ED10148683803E0703802404B
:1018D000003C0240006820F46040216940EAC100F9
:1018E000E24908600F20FEF790FC0020D1E670B5B9
:1018F00086B006460C46154646BB00BF0020009049
:10190000DA482830006840F00100D84928310860E2
:101910000846006800F00100009000BF00BF881575
:101920000190022002900320049000200390059073
:1019300001A9CF48FFF7DAF9CC48006820F0EC6045
:1019400044EA05010843C949086027E000BF0020B8
:101950000090C6482830006840F00400C349283190
:1019600008600846006800F00400009000BF00BF57
:10197000481501900220029003200490002003905B
:10198000059001A9BB48FFF7B1F9B848006820F0FD
:10199000784044EAC5010843B449086006B070BD08
:1019A000B2480838006840F40020B049083908609F
:1019B0007047AE480838006820F40020AB49083969
:1019C0000860704770B50021002200230020A74C5A
:1019D000246804F00C0424B1042C04D0082C41D158
:1019E00003E0A54840E0A5483EE0A04C241F246841
:1019F00004F03F019D4C241F246804F4800484B14A
:101A00009E4CB4FBF1F5994C241F246847F6C07630
:101A1000344096FAA6F6B6FA86F6F44005FB04F2D0
:101A20000FE0954CB4FBF1F5904C241F246847F669
:101A3000C076344096FAA6F6B6FA86F6F44005FB70
:101A400004F28A4C241F246804F440344FF44035D7
:101A500095FAA5F5B5FA85F5EC40641C6300B2FB78
:101A6000F3F001E0844800BF00BF70BD00B5FFF790
:101A7000A9FF7E49096801F0F001F02292FAA2F272
:101A8000B2FA82F2D1407E4A515CC8407D4908607A
:101A90000846006800BD00B5FFF7E8FF7349096814
:101AA00001F4E0514FF4E05292FAA2F2B2FA82F25B
:101AB000D140734A515CC84000BD00B5FFF7D6FF66
:101AC0006A49096801F460414FF4604292FAA2F257
:101AD000B2FA82F2D1406A4A515CC84000BD0F217F
:101AE000016062490839096801F48021B1F5802F4D
:101AF00003D14FF4A02141600DE05C490839096829
:101B000001F48031B1F5803F03D14FF48031416061
:101B100001E00021416055490839096801F00101DF
:101B200011B10121C16001E00021C1604F490839B4
:101B3000096801F0F801F82292FAA2F2B2FA82F2F0
:101B4000D140016149496831096801F00401042963
:101B500002D1052181600AE044496831096801F039
:101B6000010111B10121816001E0002181603F4943
:101B70006C31096801F0010111B10121416101E0FD
:101B80000021416139490839096801F08071B1F1DA
:101B9000807F02D10221816101E00121816133490D
:101BA000091F096801F48002C2613049091F0968F0
:101BB00001F03F0202622D49091F096847F6C07211
:101BC000114092FAA2F2B2FA82F2D1404162274960
:101BD000091F096801F4403101F5803149004FF4D3
:101BE000403292FAA2F2B2FA82F2D14081621F49E7
:101BF000091F096801F070614FF0706292FAA2F259
:101C0000B2FA82F2D140C16270470F220260174AD5
:101C1000126802F003024260144A126802F0F002F5
:101C20008260124A126802F4E052C2600F4A1268DF
:101C300002F46042D2080261134A126802F00F02F5
:101C40000A60704708B50020009000BF08BD10B5BD
:101C50000648001D006800F08000802805D1FFF7CD
:101C6000F1FF80200149891D087010BD083802402D
:101C700000000240000802400024F40040787D018A
:101C800010AF00081C000120003C02402DE9F0418B
:101C900005460E46002700BF2868406B00F045004F
:101CA0000028F9D02868406B00F0040030B1032709
:101CB0000420296888633846BDE8F0812868406BB5
:101CC00000F0010028B10127012029688863384607
:101CD000F2E7286801F074FEB04202D010273846BF
:101CE000EAE740F2FF50296888630021286801F084
:101CF0006BFE0446FE48204008B93846DCE704F095
:101D00000040B0F1004F01D11C20D5E704F0804025
:101D1000B0F1804F01D10920CEE704F00050B0F1BE
:101D2000005F01D10A20C7E704F08050B0F1805F66
:101D300001D10B20C0E704F00060B0F1006F01D1C9
:101D40000C20B9E704F08060B0F1806F01D10D2064
:101D5000B2E704F08070B0F1807F01D10E20ABE7D4
:101D600004F40000B0F5000F01D10F20A4E704F443
:101D70008000B0F5800F01D110209DE704F4001021
:101D8000B0F5001F01D1112096E704F48010B0F5E2
:101D9000801F01D112208FE704F40020B0F5002F3E
:101DA00001D1132088E704F48020B0F5802F01D101
:101DB000142081E704F40030B0F5003F01D1152074
:101DC0007AE704F48030B0F5803F01D1162073E744
:101DD00004F40040B0F5004F01D117206CE704F483
:101DE0008040B0F5804F01D1182065E704F4005021
:101DF000B0F5005F01D119205EE704F00800082863
:101E000001D11A2058E7384656E7F0B585B00646A6
:101E100014461D46002700940720019040200290A0
:101E2000002003904FF4806004906946306801F010
:101E3000B3FD07213046FFF729FF0746384605B0B6
:101E4000F0BD2DE9F04103460020002293F8204028
:101E500081F856409C8CA1F854409C6A220E94094B
:101E60000C70C2F383044C7002F003048C709C6A03
:101E7000C4F30742CA701C8DC4F307220A7193F899
:101E800028204A71DC6A220E4FF6FF7404EA02141D
:101E9000CC80DC6AC4F30742CC8844EA1214CC80BC
:101EA00002F00F040C729C8DC4F30722D4094C720B
:101EB000C2F380148C72C2F34014CC72C2F30014CB
:101EC0000C7300244C731C6A14B11C6A012C4DD194
:101ED0009407240D0C612C24E25C0C6944EA820412
:101EE0000C611C6B220E0C6944EA92140C61C2F363
:101EF000C2040C7502F007044C751C6BC4F3074256
:101F000054098C75C2F38204CC759407640F0C7667
:101F10001C8EC4F307220C7E44EAD2140C760C69A2
:101F2000641C0025C1E912450C7ED1E91267A41C8E
:101F3000012505FA04F44FEAE47CA6FB045807FBEC
:101F4000048406FB0C44C1E912540D7A0124AC4010
:101F50000C650026D1E912570C6DA5FB04C807FBE0
:101F6000048405FB0644C1E912C435E01C6A022C56
:101F700031D12C24E25C9406A40A0C611C6B220E65
:101F80000C6944EA02240C611C6BC4F307420C691F
:101F900014430C611C8EC4F307220C690025641CD9
:101FA00045EB050C4FF400770026A4FB07580CFB0B
:101FB000078704FB067C4FF480672C466546B446D1
:101FC000A4FB076805FB078504FB0C54C1E91264F8
:101FD0007C100C6500E02920C2F3801401F8194F31
:101FE0009406640E4C703024E25C4C7844EAD214BF
:101FF0004C7002F07F048C705C6B220ED409CC70A4
:10200000C2F341140C71C2F382044C719407240F83
:102010008C715C6BC4F307428C7944EA92148C7126
:10202000C2F34014CC7100240C7202F001044C7213
:102030009C8EC4F30722D4098C72C2F38014CC7234
:10204000C2F340140C73C2F300144C73C2F3810446
:102050008C7302F00304CC733424E25C54080C74D7
:1020600001244C749C6B220ECA7419399C6BC4F306
:1020700007424FF6FF7404EA0225CD851C8FC4F396
:102080000722CC8D1443CC8593F8382015060D63B8
:10209000DC6B220E0C6B44EA02450D63DC6BC4F36F
:1020A00007420C6B44EA02250D639C8FC4F30722A0
:1020B0000C6B14430C633C24E25C342462541C6CAF
:1020C000220E352462541C6CC4F3074215068D633E
:1020D0004024E45AC4F307228C6B44EA02458D6322
:1020E0004024E25C8C6B44EA02258D635C6C01E069
:1020F00008E0FFFD220E8C6B14438C635C6CC4F310
:1021000007423C24645C44EA12143C256C541407D6
:10211000250DCD874424E45AC4F30722CC8F144301
:10212000CC874424E25C55084024655401254124B1
:102130006554BDE8F0810146002000BF0A68526B7B
:1021400002F04502002AF9D00A68526B02F004023C
:1021500022B1032004220B689A6370470A68526B0D
:1021600002F0010222B1012001220B689A63F4E718
:1021700040F2FF520B689A6300BFEEE72DE9F04191
:1021800004460E4617464FF0000800BF2068406B1B
:1021900000F045000028F9D02068406B00F00400F2
:1021A00038B14FF003080420216888634046BDE839
:1021B000F0812068406B00F0010030B14FF0010861
:1021C0000120216888634046F1E7206801F0F8FBB0
:1021D000B04203D04FF010084046E8E740F2FF500D
:1021E000216888630021206801F0EEFB054605F4B4
:1021F000604018B9280C38804046D8E705F40050F4
:10220000B0F5005F01D11320D1E705F48040B0F5AF
:10221000804F01D11020CAE705F40040B0F5004F0F
:1022200001D10F20C3E74046C1E730B587B004466F
:10223000002501200190206801F0A9FB18B925258F
:10224000284607B030BD206A042829D0002002901B
:1022500002200390C0200490002005904FF480607D
:10226000069002A9206801F097FB2046FFF763FF64
:1022700005460DB12846E4E70021206801F0A4FBE3
:10228000A0630421206801F09FFBE063082120681F
:1022900001F09AFB20640C21206801F095FB60643A
:1022A000206A40B1206A012805D0206A062802D0A1
:1022B000206A022810D1032003904020049002A934
:1022C000206801F069FB01AA03212046FFF756FFB1
:1022D00005460DB12846B4E7206A042828D0BDF889
:1022E00004006062A08C0004029009200390C020CA
:1022F000049002A9206801F04FFB2046FFF71BFF66
:1023000005460DB128469CE70021206801F05CFBE2
:10231000A0620421206801F057FBE06208212068D8
:1023200001F052FB20630C21206801F04DFB60633B
:10233000284686E70146002000BF0A68526B02F07B
:102340004502002AF9D00A68526B02F0040222B159
:10235000032004220B689A63704740F2FF520B6817
:102360009A6300BFF8E730B5014629204FF4803268
:102370000C68646B04F045040CB1012400E00024F7
:10238000234609E00C68646B04F045040CB1012499
:1023900000E000242346521E0BB9002AF2D10C683B
:1023A000646BC4F3800302B123B1032004240D68DD
:1023B000AC6330BD0C68646B04F0400424B10020B1
:1023C00040240D68AC63F4E700BFF2E730B5014686
:1023D00000204FF480320C68646BC4F3C01304E037
:1023E0000C68646BC4F3C013521E0AB1002BF7D003
:1023F0000AB9032030BD40F2FF540D68AC6300BF42
:10240000F8E72DE9F04186B0044600200090002650
:102410000025002780462068406820F480702168ED
:102420004860206801F0AAFA012002F02CF8206828
:10243000406840F48070216848600020019002905C
:10244000039004904FF48060059001A9206801F08A
:10245000A3FA2046FFF7BAFF00909DF8000020B1D4
:102460009DF8000006B0BDE8F0814FF4D5700190F2
:10247000082002904020039001A9206801F08CFA06
:102480002046FFF770FF00909DF8000018B901206A
:1024900020624FF08048002001903720029001A96F
:1024A000206801F079FA37212046FFF7EFFB009012
:1024B0009DF80000002855D13FE000200190372012
:1024C000029040200390002004904FF4806005901B
:1024D00001A9206801F060FA37212046FFF7D6FBFA
:1024E00000909DF8000010B19DF80000BAE7FA488E
:1024F00048EA00000190292002904020039000202B
:1025000004904FF48060059001A9206801F044FA1E
:102510002046FFF70FFF00909DF8000010B19DF8D6
:1025200000009FE70021206801F04EFA06460120D6
:1025300080EAD67080F001076D1C1FB94FF6FF705E
:102540008542BAD34FF6FF70854204D31B2000901A
:102550009DF8000086E706F08040B0F1804F01D181
:10256000022020629DF800007CE7704730B58BB0F8
:1025700004460D4600200A9020772046FFF7F5FF1D
:10258000002004900590069007900890762009900E
:1025900007A807C88DE80700206804A90EC901F044
:1025A000C9F92046FFF72DFF0A909DF8280018B1C1
:1025B0009DF828000BB030BD2046FFF736FE0A908C
:1025C0009DF8280010B19DF82800F3E72946204621
:1025D000FFF737FC0A909DF8280040B9B5F8540081
:1025E00001040A4600232046FFF70FFC0A90D4E9B5
:1025F0000412A069CDE90012029094E80F0001F0E6
:1026000099F99DF82800D5E7704770B50446002574
:10261000206801F0B8F9284670BD10B50446204680
:10262000FFF7F3FF2046FFF7EFFF002010BD30B5A6
:1026300085B004460025002000900C200190402029
:102640000290002003904FF4806004906946206857
:1026500001F0A2F90C212046FFF718FB0546284699
:1026600005B030BD2DE9FF5F8CB004461746984693
:10267000DDE91AB94FF0000A00250D9E00202168FF
:10268000C862206A022809D14FF4007B02020023AD
:102690003846414608F044F907468846CDF81CB054
:1026A000102008904020099000200A904FF480608C
:1026B0000B9007A9206801F06FF910212046FFF761
:1026C000E5FA8246BAF1000F03D0504610B0BDE8DB
:1026D000F09F4FF0FF30019009FB0BF0029090202B
:1026E000039002200490002005900120069001A98B
:1026F000206801F074F9B9F1010F02D91220089095
:1027000001E011200890079707A9206801F044F91B
:10271000B9F1010F21D912212046FFF7B7FA8246FD
:10272000BAF1000F01D05046D0E70FE02068406BAF
:1027300000F4004050B1002505E0206801F014F9D4
:1027400046F825006D1C082DF7D320362068406B15
:1027500000F495700028E9D021E011212046FFF710
:1027600095FA8246BAF1000F01D05046AEE70FE06D
:102770002068406B00F4004050B1002505E020685F
:1027800001F0F2F846F825006D1C082DF7D320362D
:102790002068406B40F22A4108400028E8D02068B9
:1027A000406B00F4807070B1B9F1010F0BD9206A51
:1027B00028B1206A012802D0206A022803D12046CD
:1027C000FFF735FF82462068406B00F0080030B10B
:1027D0000820216888634FF0040A504676E7206895
:1027E000406B00F0020028B1022021688863824615
:1027F00050466BE72068406B00F0200030B120208D
:10280000216888634FF0060A50465FE74FF0FF35B6
:1028100005E0206801F0A8F83060361D6D1E2068C4
:10282000406B00F4001008B1002DF2D140F2FF50CF
:1028300021688863504649E770B586B004460D4666
:10284000002600200090A08C000401900D20029032
:1028500040200390002004904FF48060059001A96F
:10286000206801F099F800BF2068406B00F0450037
:102870000028F9D02068406B00F0040030B1032636
:10288000042021688863304606B070BD2068406B24
:1028900000F0010028B1012601202168886330463C
:1028A000F2E7206801F08CF80D2802D0102630469F
:1028B000EAE740F2FF50216888630021206801F0B8
:1028C00083F800900098C0F34320287003490098D3
:1028D000084028B93046D7E70000108008E0FFFD27
:1028E000009800F00040B0F1004F01D11C20CBE770
:1028F000009800F08040B0F1804F01D10920C3E77B
:10290000009800F00050B0F1005F01D10A20BBE751
:10291000009800F08050B0F1805F01D10B20B3E748
:10292000009800F00060B0F1006F01D10C20ABE71F
:10293000009800F08060B0F1806F01D10D20A3E716
:10294000009800F08070B0F1807F01D10E209BE7ED
:10295000009800F40000B0F5000F01D10F2093E7BC
:10296000009800F48000B0F5800F01D110208BE7B3
:10297000009800F40010B0F5001F01D1112083E78A
:10298000009800F48010B0F5801F01D112207BE781
:10299000009800F40020B0F5002F01D1132073E758
:1029A000009800F48020B0F5802F01D114206BE74F
:1029B000009800F40030B0F5003F01D1152063E726
:1029C000009800F48030B0F5803F01D116205BE71D
:1029D000009800F40040B0F5004F01D1172053E7F4
:1029E000009800F48040B0F5804F01D118204BE7EB
:1029F000009800F40050B0F5005F01D1192043E7C2
:102A0000009800F00800082801D11A203CE7304661
:102A10003AE72DE9FF5F8EB0044617469846DDF889
:102A200074B0002002908146002500260190DDF858
:102A30003CA000902168C862206A022809D10002E7
:102A40001C90024600233846414607F069FF0746BE
:102A500088461C98099010200A9040200B90002076
:102A60000C904FF480600D9009A9206800F094FF4D
:102A700010212046FFF70AF90290029818B1029837
:102A800012B0BDE8F09FBBF1010F02D919200A90E6
:102A900001E018200A90099709A9206800F07CFF3E
:102AA000BBF1010F05D919212046FFF7EFF802907D
:102AB00004E018212046FFF7E9F80290029808B1D7
:102AC0000298DDE71C980BFB00F94FF0FF300390F4
:102AD0001C980BFB00F004909020059000200690BD
:102AE00007900120089003A9206800F078FFBBF14F
:102AF000010F39D931E02068406B00F4804060B3A9
:102B0000A9EB050020281BD2A9EB050000F003006B
:102B100018B9A9EB0500800803E0A9EB05008008BF
:102B2000401C0190002607E05146206800F020FF7D
:102B30000AF1040A2D1D761C019886420DD2F3E796
:102B4000002605E00AEB8601206800F011FF761CE4
:102B5000082EF7D30AF1200A20352068406B00F4D4
:102B60008D700028C7D039E031E02068406B00F458
:102B7000804060B3A9EB050020281BD2A9EB05001B
:102B800000F0030018B9A9EB0500800803E0A9EBE9
:102B900005008008401C0190002607E0514620688F
:102BA00000F0E6FE0AF1040A2D1D761C019886420B
:102BB0000DD2F3E7002605E00AEB8601206800F05D
:102BC000D7FE761C082EF7D30AF1200A203520689C
:102BD000406B40F21A4108400028C6D02068406B84
:102BE00000F4807070B1BBF1010F0BD9206A28B1DD
:102BF000206A012802D0206A022803D12046FFF76C
:102C000016FD02902068406B00F0080030B10820EB
:102C10002168886304200290029831E72068406BA5
:102C200000F0020028B10220216888630290029817
:102C300026E72068406B00F0100030B110202168BA
:102C400088630520029002981AE740F2FF5021683D
:102C5000886369462046FFF7EFFD029004E069466D
:102C60002046FFF7E9FD0290029838B99DF8000070
:102C70000728F4D09DF800000628F0D00298FFE65F
:102C8000704770B50446A56BA86DFFF7F9FF70BDDE
:102C9000704770B50546AC6B0120206500BFA06C85
:102CA0000028FCD02846FDF710FEA06DFFF7F0FFCE
:102CB00070BD2DE9F0478CB004468A4616461F4683
:102CC000DDE914854FF0000900202168C862A06486
:102CD0002065E064012D02D90120606501E000203B
:102CE00060652068C06B40F495702168C8632068F7
:102CF000C06A40F008002168C862FE48A16DC86340
:102D0000FD48A16D886408FB05F29308226802F172
:102D100080015246A06DFDF7A3FD206A022809D16B
:102D20004FF40078020200233046394607F0F8FDE0
:102D300006460F46CDF81C801020089040200990D0
:102D400000200A904FF480600B9007A9206800F0E3
:102D500023FE10212046FEF799FF8146B9F1000FAE
:102D600003D048460CB0BDE8F0874FF0FF3001902B
:102D700008FB05F0029090200390022004900020B0
:102D800005900120069001A9206800F028FE012D81
:102D900002D91220089001E011200890079607A997
:102DA000206800F0F9FD012D05D912212046FEF71B
:102DB0006DFF814604E011212046FEF767FF814642
:102DC000C4F84C904846CDE7704770B50446A56BF3
:102DD000E86DFFF7F9FF70BD704770B50546AC6B45
:102DE0000120206500BFA06C0028FCD02846FDF71C
:102DF0006CFDE06DFFF7F0FF70BD2DE9F0478CB082
:102E000004468A4617469846DDE9149500260020B8
:102E10002168C862A0642065E064012D02D9032006
:102E2000606501E0022060652068C06B40F48D7031
:102E30002168C863B148E16DC863B148E16D886439
:102E400009FB05F18B08216801F180025146E06D14
:102E5000FDF706FD2068C06A40F008002168C862DE
:102E6000206A022809D14FF4007902020023384673
:102E7000414607F055FD07468846CDF81C901020C6
:102E800008904020099000200A904FF480600B9039
:102E900007A9206800F080FD10212046FEF7F6FE0D
:102EA00006461EB130460CB0BDE8F087012D02D8B1
:102EB0001820089001E019200890079707A92068BA
:102EC00000F06AFD012D05D919212046FEF7DEFE2E
:102ED000064604E018212046FEF7D8FE06460EB14D
:102EE0003046E0E74FF0FF30019009FB05F002901B
:102EF000902003900020049005900120069001A9E5
:102F0000206800F06CFDE6643046CCE72DE9F04720
:102F100004460E4600273546D4F85080D4F8489031
:102F2000E06C00F0FF0A07E0D4F85080D4F8489035
:102F3000E06C00F0FF0A6D1E08EA090020B9BAF142
:102F4000000F01D1002DEFD1354600E06D1E206845
:102F5000406B00F4005008B1002DF7D1606D0128DE
:102F600003D12046FFF763FB07460DB907B90427D5
:102F700040F2FF5021688863E06C18B1E06CC0B289
:102F8000BDE8F0873846FBE770B586B004460D46CD
:102F900000261DB92626304606B070BDA08C000460
:102FA00001900D20029040200390002004904FF4E7
:102FB0008060059001A9206800F0EEFC0D212046FC
:102FC000FEF764FE06460EB13046E5E700212068B4
:102FD00000F0FAFC28603046DEE738B504460020F1
:102FE000009069462046FFF7CFFF08B1FF2038BDAB
:102FF0000098C0F34320FAE770B50546042428463C
:10300000FFF7EBFF0446042C01D1002070BDFF2C1C
:1030100001D10220FAE70120F8E72DE9F047044644
:103020000E4600273546D4F85080D4F84890E06C1E
:1030300000F0FF0A07E0D4F85080D4F84890E06C24
:1030400000F0FF0A6D1E08EA090020B9BAF1000F6E
:1030500001D1002DEFD1354600E06D1E2068406B98
:1030600000F4805008B1002DF7D1606D032803D122
:103070002046FFF7DCFA07460DB907B9042740F2EE
:10308000FF5021688863E06C18B1E06CC0B2BDE805
:10309000F08700BF2046FFF7AFFF0028FAD138467F
:1030A000F5E72DE9F04788B0044615461E46DDE9F0
:1030B00010784FF00009CA460020029001902021AC
:1030C000E06A01EA105028B94FF02509484608B0D7
:1030D000BDE8F08720684068C0B2801C0949B1FB98
:1030E000F0F002900021206800F06EFC00F000700B
:1030F0000AE00000932C0008832C0008DB2D000858
:10310000CB2D0008C0D40100B0F1007F03D14FF0F7
:103110000E094846DBE7206A022810D1020200238C
:103120002846314607F0FCFB05460E464FF4007278
:1031300000233846414607F0F3FB07468846206ADD
:1031400028B1206A012802D0206A022828D10395DC
:103150002020049040200590002006904FF48060CD
:10316000079003A9206800F017FC20212046FEF7F5
:103170008DFD8146B9F1000F01D04846A7E70397BE
:103180002120049003A9206800F006FC212120469C
:10319000FEF77CFD8146B9F1000F01D0484696E765
:1031A000002003902620049003A9206800F0F4FB7F
:1031B00026212046FEF76AFD8146B9F1000F01D0B5
:1031C000484684E701E00AF1010A02988245FAD3F1
:1031D00001A92046FFF730FB81464FF0FF3A06E099
:1031E00001A92046FFF728FB8146AAF1010ABAF19E
:1031F000000F0AD0B9F1000F07D19DF8040007288D
:10320000EED09DF804000628EAD048465FE77047F4
:10321000704710B504462068406B00F4807058B1C8
:103220004FF48070216888630120A0640020E0646E
:103230002046FFF7EDFF35E02068406B00F002000C
:1032400038B1022021688863E0642046FFF7DFFF81
:1032500028E02068406B00F0080040B10820216899
:1032600088630420E0642046FFF7D1FF1AE020685D
:10327000406B00F0200040B12020216888630620C8
:10328000E0642046FFF7C3FF0CE02068406B00F0CD
:10329000100038B11020216888630520E0642046C2
:1032A000FFF7B5FF2068C06B4CF23A1188432168E4
:1032B000C86310BDF0B58DB004460E46002500274A
:1032C00000200090019008200890102009904020D4
:1032D0000A9000200B904FF480600C9008A92068A1
:1032E00000F05AFB10212046FEF7D0FC054615B130
:1032F00028460DB0F0BDA08C00040890372009903E
:1033000008A9206800F048FB37212046FEF7BEFCE4
:1033100005460DB12846ECE74FF0FF30029008203B
:103320000390302004900220059000200690012098
:10333000079002A9206800F052FB0020089033207B
:10334000099008A9206800F027FB33212046FEF7EA
:103350009DFC05460DB12846CBE70AE02068406B8E
:1033600000F4001028B1206800F0FEFA4DF82700A4
:103370007F1C2068406B40F22A4108400028EDD0B5
:103380002068406B00F0080028B10820216888639D
:1033900004252846ADE72068406B00F0020028B104
:1033A00002202168886302252846A2E72068406B36
:1033B00000F0200028B120202168886306252846D7
:1033C00097E740F2FF502168886300980006009953
:1033D00001F47F4140EA0120009901F47F0140EAB5
:1033E0001120009940EA116070600198000601996F
:1033F00001F47F4140EA0120019901F47F0140EA94
:103400001120019940EA11603060284671E730B51B
:1034100087B004460025002000900190002120681C
:1034200000F0D2FA00F00070B0F1007F03D10E2559
:10343000284607B030BD69462046FFF73BFF0546EA
:103440000DB12846F5E7019800F4803048B3A08C10
:103450000004029037200390402004900020059043
:103460004FF48060069002A9206800F095FA372199
:103470002046FEF70BFC05460DB12846D9E7002093
:1034800002900620039002A9206800F085FA062128
:103490002046FEF7FBFB05460DB12846C9E7284646
:1034A000C7E725252846C4E730B587B00446002580
:1034B0000020009001900021206800F085FA00F0C3
:1034C0000070B0F1007F03D10E25284607B030BD53
:1034D00069462046FFF7EEFE05460DB12846F5E7A2
:1034E000019800F4802048B3A08C0004029037209B
:1034F000039040200490002005904FF480600690D7
:1035000002A9206800F048FA37212046FEF7BEFBEA
:1035100005460DB12846D9E7022002900620039007
:1035200002A9206800F038FA06212046FEF7AEFB1B
:1035300005460DB12846C9E72846C7E72525284690
:10354000C4E770B58AB004460D460026206A0328F9
:1035500003D1272630460AB070BD206A28B1206A00
:10356000012802D0206A022828D1B5F5805F01D158
:1035700027260EE0B5F5006F04D12046FFF794FF33
:10358000064606E025B92046FFF741FF064600E063
:1035900026269EB960680490A0680590E0680690B1
:1035A000079560690890A069099007A807C88DE889
:1035B0000700206804A90EC900F0BCF93046CAE72C
:1035C0002DE9F0419EB004460026402103A807F0F3
:1035D000DFF90020019002908046002503AF2168AA
:1035E000C86201A92046FFF765FE06461EB13046B7
:1035F0001EB0BDE8F081029800F08070029901F0E1
:10360000007140EA0108B8F1000F70D04020199015
:1036100010201A9040201B9000201C904FF48060D6
:103620001D9019A9206800F0B7F910212046FEF777
:103630002DFB06460EB13046DAE74FF0FF3013900F
:1036400040201490602015900220169000201790C2
:103650000120189013A9206800F0C1F9B44819900E
:1036600006201A9019A9206800F096F90621204634
:10367000FEF70CFB06460EB13046B9E70FE02068B6
:10368000406B00F4004050B1002505E0206800F0D8
:103690006BF947F825006D1C082DF7D320372068FB
:1036A000406B40F22A4108400028E8D02068406B77
:1036B00000F0080028B108202168886304263046FD
:1036C00096E72068406B00F0020028B102202168D4
:1036D0008863022630468BE72068406B00F02000AC
:1036E00030B12020216888630626304680E71AE042
:1036F0004FF0FF3505E0206800F036F938603F1DD7
:103700006D1E2068406B00F4001008B1002DF2D14E
:1037100040F2FF50216888639DF8190000F0020014
:10372000022800D02726304662E7F0B58BB0044669
:103730000D46002700260021206800F045F900F022
:103740000070B0F1007F03D10E2738460BB0F0BDFA
:1037500040200690102007904020089000200990FB
:103760004FF480600A9006A9206800F015F9102136
:103770002046FEF78BFA07460FB13846E6E7A08CE5
:10378000000406903720079006A9206800F004F98D
:1037900037212046FEF77AFA07460FB13846D5E7BB
:1037A0004FF0FF30009040200190602002900220F6
:1037B000039000200490012005906946206800F0E5
:1037C0000EF9002006900D20079006A9206800F051
:1037D000E3F80D212046FEF759FA07460FB13846A7
:1037E000B4E70FE02068406B00F4004050B10026C1
:1037F00005E0206800F0B8F845F82600761C082E91
:10380000F7D320352068406B40F22A410840002859
:10381000E8D02068406B00F0080028B1082021683B
:1038200088630427384691E72068406B00F0020067
:1038300028B10220216888630227384686E720687D
:10384000406B00F0200028B1202021688863062703
:1038500038467BE74FF0FF3605E0206800F084F83B
:1038600028602D1D761E2068406B00F4001008B102
:10387000002EF2D140F2FF5021688863384665E798
:10388000F0B591B007460D460026002401A9384640
:10389000FFF74BFF064616B1304611B0F0BD019858
:1038A000C0F381142C700198C0F340146C7003981D
:1038B000C4B22002C0B268800498C4B268882043B1
:1038C00068800598C4B22006C0B268600698C4B289
:1038D00068682104C9B2084368600798C4B2686880
:1038E0002102C9B2084368600898C4B268682043DE
:1038F00068600998C4B22C720A98C4B26C720B98B2
:10390000C0F30314AC720C98C4B22002C0B2A881F8
:103910000D98C4B2A8892043A8810E98C0F38504ED
:10392000AC730E9800F00304EC733046B5E700006A
:1039300001FFFF800FB410B504460021DDE903024A
:103940001043059A1043069A1043079A1043089AA9
:1039500010430143606847F6FF629043084360608C
:10396000002010BC5DF814FB0146D1F880007047C0
:1039700002460868C2F88000002070470146032014
:10398000086000207047014600200860704701462B
:10399000086800F00300704710B50246002308686D
:1039A0009060D1E901042043CC6820430C69204396
:1039B0000343D0686FF30B001843D060002010BDA4
:1039C00001460869C0B2704708B502460020009061
:1039D00002F11400084400900098006808BD10B57A
:1039E000024600230868506248689062D1E90204E8
:1039F00020430C6920434C6920430343D06A20F0E4
:103A0000F7001843D062002010BD0146086B7047D4
:103A10000146D1F8800070470246D06A20F48060E9
:103A20000843D0620020704710B50024D948406890
:103A300040F40070D749486000F022FD044607E0DA
:103A400000F01EFD001BB0F57A7F01D9032010BDE8
:103A5000D0484068C0F3C0000028F1D00020F6E74D
:103A600010B50024CB48406820F40070C949486074
:103A700000F006FD044607E000F002FD001BB0F573
:103A80007A7F01D9032010BDC2484068C0F3C0004E
:103A90000028F1D100BFF6E7BE48006840F400708E
:103AA000BC4908607047BB48006820F40070B94901
:103AB00008607047B748006840F40060B549086086
:103AC0007047B448006820F40060B249086070474D
:103AD000B048006840F48060AE4908607047AD4867
:103AE000006820F48060AB490860704738B5002456
:103AF00000BF00200090A848006840F08050A64910
:103B000008600846006800F08050009000BF00BFC9
:103B1000A048006840F480309E49086000F0B0FC86
:103B2000044607E000F0ACFC001BB0F57A7F01D939
:103B3000032038BD9748406800F48030B0F5803FDE
:103B4000F0D19448006840F400309249086000F0D9
:103B500097FC044607E000F093FC001BB0F57A7F69
:103B600001D90320E5E78B48406800F40030B0F548
:103B7000003FF0D10020DCE738B5002400BF002072
:103B800000908548006840F08050834908600846EE
:103B9000006800F08050009000BF00BF7D480068C2
:103BA00020F400307B49086000F06AFC044607E01E
:103BB00000F066FC001BB0F57A7F01D9032038BD08
:103BC0007448406800F40030B0F5003FF0D0714810
:103BD000006820F480306F49086000F051FC044612
:103BE00007E000F04DFC001BB0F57A7F01D90320FF
:103BF000E5E76848406800F48030B0F5803FF0D0D9
:103C00000020DCE7F8B505460E460024002700BF7B
:103C1000002000906048006840F080505E490860D5
:103C20000846006800F08050009000BF00BF59486F
:103C3000406840F44020574948600846006840F416
:103C40004020086000F01CFC074607E000F018FC6C
:103C5000C01BB0F57A7F01D90320F8BD4D484068FC
:103C600000F44020B0F5402FF0D04A48046840F6F8
:103C7000034084432C43474804604848006840F0B0
:103C8000040046490860012E01D130BF00E020BF8A
:103C90004248006820F00400404908600020DCE74A
:103CA0003C48006800F44040704738B505460024A1
:103CB00000BF002000903848006840F0805036492E
:103CC00008600846006800F08050009000BF00BF08
:103CD00031483838006800F00C00082856D02E48CB
:103CE0004038006820F080702B494039086000F0AF
:103CF000C7FB044606E000F0C3FB001B642801D9A3
:103D0000032038BD244840380068C0F340600028D4
:103D1000F1D100BF00901F48006820F440402843C4
:103D20001C4908600846006800F44040009000BF4D
:103D300000BF19484038006840F08070164940398B
:103D4000086000F09DFB044606E000F099FB001BB4
:103D5000642801D90320D4E70F4840380068C0F335
:103D600040600028F1D000F08BFB044607E000F033
:103D700087FB001BB0F57A7F01D90320C1E7054816
:103D80004068C0F380300028F1D001E00120B8E79E
:103D90000020B6E7007000404038024010ED00E01F
:103DA00000B593B000BF00BF00BF00BF00BFBFF3AE
:103DB0004F8F00BF00BF00BF00BF00BF00BFBFF3F9
:103DC0006F8F00BF00BF00BF0020604908606048DF
:103DD000006840F400305E49086000BF00BF00BFCB
:103DE000BFF34F8F00BF00BF00BF00BF00BF00BFC9
:103DF000BFF36F8F00BF00BF00BF00BF00F059F8D6
:103E000000BF002001905348006840F080505149A5
:103E100008600846006800F08050019000BF00BFB5
:103E200000BF002001904C48006840F440404A49DF
:103E300008600846006800F44040019000BF00BFE1
:103E40000120029000040390002005904FF48001AF
:103E500009910220089019210A914FF4D8710B9111
:103E600002210C9109210D9102A8FDF761F910B111
:103E7000012013B000BDFFF739FE08B10120F8E7BB
:103E800002200F900020109007200E900E9840F016
:103E900008000E904FF4A05011904FF480501290F3
:103EA00006210EA8FDF7DDFB08B10120E1E70020A7
:103EB000DFE7F0B50024264F70373C603C1F2068D8
:103EC000C0F34E3200F00704251DC0F3C903B3FA56
:103ED00083F404F01F0600BF00BF00BFBFF34F8F85
:103EE00000BF00BF00BF00BF1C4600BF04FA06F7BA
:103EF00002FA05FC47EA0C01144F10373960271EFF
:103F0000A4F10104F2D1141EA2F10102ECD100BF10
:103F100000BF00BFBFF34F8F00BF00BF00BF0C4CFE
:103F2000246844F480340A4F3C6000BF00BF00BFE7
:103F3000BFF34F8F00BF00BF00BF00BF00BF00BF77
:103F4000BFF36F8F00BF00BF00BFF0BD50EF00E0B8
:103F500014ED00E0403802400070004001464FF48C
:103F60000030081AC0F38F2070472DE9F043044653
:103F70000E461546DDE907892046FFF7EFFFC7B279
:103F8000002243E001209040304000B93CE0B148BD
:103F900030F81700012191400843AE4921F817007D
:103FA000E0684FEA420C032101FA0CF1884351000A
:103FB00008FA01F10843E06020684FEA420C03214F
:103FC00001FA0CF18843510005FA01F10843206021
:103FD000012D01D0022D16D161680120904080B2E0
:103FE00021EA000003FA02F189B208436060A06888
:103FF0004FEA420C032101FA0CF18843510009FAFF
:1040000001F10843A06000BF501CC2B2102AB9DB06
:10401000BDE8F08300B502461046FFF79FFF01217F
:1040200001FA00F08C49096808438B49086000BD1B
:104030002DE9FC4305460C4616461F46DDE9098975
:104040000CB9BDE8FC832846FFF7E4FF3B46324647
:1040500021462846CDE90089FFF787FF00BFF0E73A
:104060002DE9FC4705460E4617469846DDE90A9AB3
:104070000EB9BDE8FC872846FFF7CCFF00241AE004
:104080000120A040304000B914E0E10805F1200013
:1040900050F821006107CA0E0F2191408843610743
:1040A000C90E0AFA01F10843E20805F1200141F8BE
:1040B000220000BF641C102CE2D33B460222314692
:1040C0002846CDE90089FFF750FF00BFD1E770B562
:1040D00003460C461846FFF741FFC5B2002214E024
:1040E00001209040204070B1186856000321B14073
:1040F00008431860574830F8150001219140884363
:10410000544921F81500501CC2B2102AE8DB70BDDA
:1041100030B5024600200BE0012383400B402BB159
:10412000136845000324AC40A3431360431CD8B27A
:104130001028F1DB30BD30B5024600200FE001232E
:1041400083400B404BB1136845000324AC40A343AC
:1041500045000124AC4023431360431CD8B210280F
:10416000EDDB30BD30B5024600200BE0012383407B
:104170000B402BB1136845000324AC40234313606C
:10418000431CD8B21028F1DB30BD30B50246002008
:1041900011E0012383400B4003B90AE01368450096
:1041A0000324AC40A34345000224AC4023431360E6
:1041B00000BF431CD8B21028EBDB30BD70B50346FE
:1041C000002011E0012484400C4004B90AE0DC68BE
:1041D00046000325B540AC43450002FA05F52C43E3
:1041E000DC6000BF441CE0B21028EBDB70BD41F482
:1041F0008032C261C161C261C369C369704701464F
:10420000002002E0421C90B249100129FADC7047FC
:1042100000B502461046FFF7A1FE012181400E487D
:10422000006888430C49086000BD00B5024610468E
:10423000FFF794FE074931F8100000BD00B50246B3
:104240001046FFF78BFE034931F81000C04380B2DF
:1042500000BD0000E00001203038024097480068AF
:1042600020F08070954A10601046006840F0807021
:1042700010609348006820F00100914A10601046D9
:10428000006840F001001060002050601046416856
:1042900000BF00BF8A484068401A70472DE9F047C8
:1042A00005460E4617469846DDF82090854800786A
:1042B000052802DB0020BDE8F087142006F0EEFDA3
:1042C00004460CB90020F6E765606068A0602078BD
:1042D00066F300002070207867F341002070C4F876
:1042E0000C80C4F81090774801780078401C754A1B
:1042F0001070101D40F821402046DCE72DE9F04108
:104300000646002408E06F48001D50F82400B04223
:1043100000D105E0601CC4B26A480078A042F2DC1B
:1043200000BF68480078A04201D1BDE8F08165482F
:10433000001D50F8247000BFEFF31080054672B6E0
:1043400008E06048001D611C50F8211040F824105E
:10435000601CC4B25B480078401EA042F1DC5948A2
:104360000078401E57490870384606F06FFD05B9C1
:1043700062B600BFD9E7017821F0020101707047F1
:10438000017821F00201891C017070474168816049
:10439000704709B1012200E00022037862F30003B4
:1043A0000370704741607047704710B54648006819
:1043B000401C454908604548006820B143480068F2
:1043C000401E42490860002453E03E48001D50F85A
:1043D000240000284BD03B48001D50F824000078F2
:1043E000C0F34000F0B33748001D50F82400806847
:1043F00050B13448001D50F824008068401E3149F7
:10440000091D51F8241088602E48001D50F8240022
:10441000806838BB2B4B1B1D53F824301969294B7E
:104420001B1D53F8240053F82430DA6890472548C0
:10443000001D50F8240041682248001D50F8240057
:1044400081602048001D50F82400007800F0010031
:1044500040B91C48001D50F82400007820F00201EB
:10446000184800E003E0001D50F824000170601CB3
:10447000C4B214480078A042A7DCFFF795FF10BD36
:1044800011480068704700B5014600BFEFF3058092
:1044900048B9FFF7F5FF024600BFFFF7F1FF801AAA
:1044A0008842FAD309E006E04FF0E020006900F40A
:1044B000803000B1491E0029F6D100BDFCED00E0BE
:1044C000001000E0FC000120080001200400012091
:1044D0001CB5032000210B460122CDE9001002216A
:1044E0001D48FFF7A5FD4FF400301B4988611CBD36
:1044F0001CB50020022103460246CDE900108902C6
:104500001548FFF795FD1CBD13480069C0F3C02096
:1045100080F0010030B91148007830B901200F490E
:104520000870704700200D4908700020F9E70A481C
:104530000069C0F3C02080F0010038B1074800785E
:1045400038B1002005490870012070470120034957
:1045500008700020F9E70000002002400C00012054
:1045600070B52DED048B82B006460C4601AA694653
:10457000304603F0B9FF051E04D0284602B0BDEC5A
:10458000048B70BD0199C96A891E019A528901FB89
:1045900002F006F08AFA41EC190B9FED930B53ECF5
:1045A000102B06F010FA41EC180B06F08BFA206085
:1045B00001994989009A01FB02F006F076FA41EC74
:1045C000190B9FED890B53EC102B06F0FCF941EC15
:1045D000180B06F077FA60600020CFE72DE9F04F66
:1045E000C3B082460D46DAF810802E464FF000091F
:1045F000A8EB0607BB4615B1B8F1000F03D10020A8
:1046000043B0BDE8F08F45450CD900221346504613
:1046100003F00AFD04460CB12046F1E7504604F0D1
:1046200016F8EDE733E0B7F5807F02D94FF48070DC
:1046300000E03846029032460023504603F0F4FC76
:1046400004460CB12046DBE701AB03A95046029AB1
:1046500003F0A4F804460CB12046D1E74A460023F3
:10466000504603F0E1FC04460CB12046C8E76B4617
:1046700003A95046029A03F098F904460CB120466B
:10468000BEE702983F1A0198064400988144002F23
:10469000C9D15A460023504603F0C6FC04460CB16B
:1046A0002046ADE7504603F0D2FF044600221346F1
:1046B000504603F0B9FCA3E70120704703460120F0
:1046C00070472DE9F04796B00646894614463146B4
:1046D000684603F0E1FD071E53D1304606F063F94A
:1046E000054640E04248807E2E2800D13BE0DFF8BE
:1046F000008108F11A08404606F055F92844401C8C
:10470000484501D3112738E07019424639A106F017
:1047100097FA3748007B00F0100098B12068401CE1
:104720002060224600213046FFF7C8FF8246BAF1DA
:10473000000F10D0224649463046FFF7C2FF074619
:104740004FB11AE06068401C60602246012130468B
:10475000FFF7B4FF824600207055BAF1000F00D079
:1047600007B10AE000BF2249684603F025FE071E94
:1047700003D11F48807E0028B4D100BF684603F0F3
:1047800008FE384616B0BDE8F0872DE9F0478046B0
:104790000C4615461E464FF0000900207060306040
:1047A0003CB9284606F07AFB044614B91120BDE84E
:1047B000F087404606F0F7F8A8420CD2002020709F
:1047C0004146204606F0F6F8324629462046FFF7D5
:1047D00078FF074600E01127B9F1000F02D020460C
:1047E00006F034FB3846E2E7000000000000E03F3E
:1047F000180101202F25730030B502460B46B84C36
:10480000A24207D2B749B74C0834141B1825B4FB91
:10481000F5F006E0B2490839B14C141B1825B4FB79
:10482000F5F0042801D3091D001F03F03D04AE4D2F
:104830002D5CAC400C6030BD10B504463D212046D7
:10484000FFF7DAFF10BD70B502460C4600210023C9
:104850000020A34DAA4208D2A24B083BA14D083527
:10486000551B1826B5FBF6F106E09D4B103B9C4D01
:10487000551B1826B5FBF6F1042901D31B1D091F92
:104880001868994D6D5CE84000F03D0070BD2DE961
:10489000F04104463D212046FFF7AEFF9048844298
:1048A00009D290480830201A1821B0FBF1F50127F1
:1048B0008E48465708E08A48201A1821B0FBF1F5C7
:1048C00001278A48083046573046FBF7DCFD2A4668
:1048D00039463046FBF78CFD3046FBF7C7FD2068B4
:1048E00040F01E002060606940F080006061BDE81B
:1048F000F08170B504463D212046FFF77DFF7848E2
:10490000844208D277480830201A1821B0FBF1F011
:1049100076490D5606E07248201A1821B0FBF1F0D6
:1049200072490D562846FBF7AEFD206820F01E00A8
:104930002060606900F08000606170BD70B5054660
:104940000C464CB100BF002084F8340000BF256045
:104950002046FBF7EAFE0FE06148854206D3644833
:10496000006840F480006249086005E06048006823
:1049700040F400105E49086070BD10B596B0044662
:1049800000946846FBF711FF16B010BD2DE9F04109
:1049900004460D4616461F4600BF002084F834002A
:1049A00000BF3B46324629462046FBF730FFBDE8B4
:1049B000F0817047704770477047704770B5044684
:1049C0003D212046FFF73FFF85B23D212046FFF7FE
:1049D00013FF05F0200030B1206800F0100010B186
:1049E0002046FFF7E6FF05F0100030B1206800F028
:1049F000080010B12046FFF7DDFF05F0080030B1D8
:104A0000206800F0040010B12046FFF7D4FF05F045
:104A1000040030B1206800F0020010B12046FFF71A
:104A2000CBFF05F0010030B1606900F0800010B1EB
:104A30002046FFF7C2FF70BD10B52A480830FFF7C7
:104A4000BDFF10BD10B527482030FFF7B7FF10BDE0
:104A500010B524483830FFF7B1FF10BD10B521481C
:104A60005030FFF7ABFF10BD10B51E486830FFF7A0
:104A7000A5FF10BD10B51B488030FFF79FFF10BD8C
:104A800010B518489830FFF799FF10BD10B51548BC
:104A9000B030FFF793FF10BD10B51148FFF78EFF40
:104AA00010BD10B50E481830FFF788FF10BD10B5C7
:104AB0000B483030FFF782FF10BD10B5084860305A
:104AC000FFF77CFF10BD10B505487830FFF776FF83
:104AD00010BD10B50248A830FFF770FF10BD0000F0
:104AE000106402400860024020AF000824AF0008B4
:104AF00030380240FFF754F9FBF799FBFFF7E8FC69
:104B000001221AA11A4802F031FC00282BD11322ED
:104B100018A11D4802F058FC1C49087000281DD13E
:104B20001B4912A0FFF71CFD19481AA10268204872
:104B300006F086F814491E4805F0E4FA14481DA151
:104B400042681B4806F07CF80F49194805F0DAFA6C
:104B50000D4803F031F902201D498861012203A1AB
:104B6000002002F003FC00BFFEE7000053443A00BF
:104B70003802012053443A66697273745F66696C47
:104B8000652E74787400000080040120100001205C
:104B900014000120546F74616C206361726420738F
:104BA000697A653A202575206B42797465730A002D
:104BB000D0060120467265652063617264207369C6
:104BC0007A653A20202575206B42797465730A0056
:104BD00000200240704700BFFEE700BFFEE700BFB5
:104BE000FEE700BFFEE7704770477047704710B59B
:104BF000FFF7DBFB10BD00003F48006840F4700089
:104C00003D4908603D48006840F001003B490860AC
:104C100000203A490831086038480068384908409F
:104C2000364908603748091D0860081F006820F4ED
:104C30008020091F0860002030490C3108604FF0C7
:104C400000602D4980390860704770B5002000224F
:104C5000022300240221294D08352D6805F00C009F
:104C600020B1042806D0082834D107E0264D274E6D
:104C7000356033E0264D254E35602FE01F4D2D1D4C
:104C80002D68C5F380541D4D2D1D2D6805F03F0185
:104C900054B11F4DB5FBF1F5184E361D3668C6F3FD
:104CA000881605FB06F209E0174DB5FBF1F5134E2A
:104CB000361D3668C6F3881605FB06F20F4D2D1D0E
:104CC0002D68C5F301456D1C6B00B2FBF3F50F4E6B
:104CD000356003E00C4D0D4E356000BF00BF074D41
:104CE00008352D68C5F303150A4E705D074D2D6814
:104CF000C540064E356070BD88ED00E000380240CA
:104D0000FFFFF6FE103000240024F4001C000120F8
:104D100040787D0134AF000810B5072902D008297A
:104D200000D010BD01EB8103704C026844F82320D1
:104D300001EB810304EB830342685A6001EB8103BA
:104D400004EB830382689A6001EB810304EB830325
:104D500002691A6101EB810304EB8303C268DA6024
:104D600000BFDEE710B5044604EB84005F4951F84C
:104D7000200030B104EB84015C4A52F821008047E6
:104D800010BD0420FCE710B5044604EB840057492D
:104D900001EB8000406838B104EB8401534A02EB18
:104DA00081014868804710BD0420FCE72DE9F041EF
:104DB00004460E4617461D4615B90420BDE8F0818D
:104DC00004EB8400494901EB8000006948B104EB21
:104DD000840001EB80002A46394603693046984733
:104DE000ECE70420EAE72DE9F04104460E461746B9
:104DF0001D4615B90420BDE8F08104EB84003B4951
:104E000001EB8000C06848B104EB840001EB800036
:104E10002A463946C36830469847ECE70420EAE75B
:104E200070B504460D46164604EB84002F4901EB8D
:104E30008000806840B104EB840001EB80003146C3
:104E400082682846904770BD0420FCE728487047D8
:104E500001207047012070470120704701207047F2
:104E600001207047012070470120704701207047E2
:104E700001207047012070470120704701207047D2
:104E80000246012070470246012070470246012079
:104E900070470246012070470246012070470246D3
:104EA00001207047034601207047034601207047E8
:104EB0000346012070470346012070470346012046
:104EC00070470346012070470346012070470346A0
:104ED00001207047034601207047034601207047B8
:104EE000034601207047034601207047200001203F
:104EF0000000FC42014648780A7842EA00207047E8
:104F00000146C8788A7842EA00204A7842EA0020BE
:104F10000A7842EA0020704770B50246D37900242F
:104F2000250245EA1364907940EA0323250245EA05
:104F30001364507940EA0323250245EA136410798B
:104F400040EA0323250245EA1364D07840EA0323AC
:104F5000200240EA1364917841EA0323210241EAE6
:104F60001364507840EA0323250245EA136411785C
:104F700041EA03231846214670BD00F8011B0912BF
:104F800000F8011B704700F8011B090A00F8011B1B
:104F9000090A00F8011B090A00F8011B704730B527
:104FA00000F8012B110A41EA03621B0A00F8012BE9
:104FB000110A41EA03621B0A00F8012B110A41EAB7
:104FC00003621B0A00F8012B110A41EA03621B0A63
:104FD00000F8012B110A41EA03621B0A00F8012BB9
:104FE000110A41EA03621B0A00F8012B110A41EA87
:104FF00003621B0A00F8012B30BD30B503460C4696
:105000003AB100BF14F8015B03F8015B551E2A1E7C
:10501000F8D130BD10B5034600BF03F8011B541E84
:10502000221EFAD110BDF0B503461D460C460020E5
:1050300000BF15F8017B14F801CBA7EB0C00561E3E
:10504000321E01D00028F4D0F0BD024600E0521C10
:10505000107810B110788842F9D11078704730B5C7
:1050600002460B460020044601461CE0FA4800EBCD
:1050700001100068A8B1F84800EB0110006815683D
:10508000A8420FD1F44800EB011040689568A8428F
:1050900008D1F14800EB01108068156BA84201D1DE
:1050A00003E00124491C0A29E0D300BF0A2906D1E4
:1050B0000CB9022B01D1002030BD1220FCE733B91E
:1050C000E54800EB01108089B0F5807F01D1102008
:1050D000F2E70020F0E7002100E0491C0A2905D290
:1050E000DD4800EB011000680028F6D10A2901D044
:1050F000012070470020FCE710B502460B46002156
:1051000016E0D54800EB011000681468A0420ED1EB
:10511000D14800EB011040689468A04207D1CE4806
:1051200000EB01108068146BA04200D102E0491C22
:105130000A29E6D300BF0A2922D1002100E0491C38
:105140000A2905D2C44800EB011000680028F6D1F6
:105150000A2901D1002010BDBF4C04EB01141068D6
:105160002060BD4C04EB011490686060BA4C04EB05
:105170000114106BA0600020B74C04EB0114A08157
:1051800033B1B54800EB0110808908B10020E2E797
:1051900013B14FF4807004E0AF4800EB0110808938
:1051A000401CAD4C04EB0114A081481CD3E710B5A2
:1051B0000246531E1A460A2B17D2A74B03EB0213C3
:1051C0009989B1F5807F00D10021002901DD4B1EB6
:1051D00099B2A14B03EB0213998121B900239E4C94
:1051E00004EB02142360002000E0022010BD014601
:1051F00000200BE0984A02EB001212688A4204D1A8
:105200000022954B03EB00131A60401C0A28F1D3CF
:1052100070472DE9F04104460027E078F8B1656C4D
:10522000607801232A4604F14801FFF7DCFD08B14C
:10523000012714E00020E070A06B281A216B88423F
:105240000DD2A67809E0206B0544607801232A4638
:1052500004F14801FFF7C7FD761E022EF3D238464F
:10526000BDE8F08170B504460D460026606CA8428A
:1052700010D02046FFF7CDFF06465EB960780123C7
:105280002A4604F14801FFF791FD10B14FF0FF35B8
:1052900001266564304670BD70B504462046FFF7B0
:1052A000B8FF0546002D38D1207803282ED120796B
:1052B00001282BD14202002104F14800FFF7AAFE89
:1052C0004AF6552104F24620FFF757FE634904F1E0
:1052D0004800FFF758FE624904F50B70FFF753FED4
:1052E00004F50C70A169FFF74EFE04F50D706169BD
:1052F000FFF749FE606B401C60646078012304F195
:105300004801626CFFF76FFD002020716078002279
:105310001146FFF785FD00B10125284670BD024604
:10532000891ED06A801E884201D8002070475389A8
:10533000106C01FB0300F9E72DE9FC5F06460C4603
:105340003568022C02D3E86AA04202D84FF0010966
:10535000B2E04FF0FF392878012806D0022830D07B
:10536000032841D004287DD152E0274607EB570798
:10537000A86B00EB57212846FFF774FF00B19AE0B5
:1053800038467F1CC0F3080105F1480010F8018081
:10539000A86B00EB57212846FFF764FF00B18AE0B5
:1053A000C7F3080105F14800405C48EA002804F012
:1053B000010010B14FEA181001E0C8F30B0081465C
:1053C00079E0A86B00EB14212846FFF74BFF00B1F2
:1053D00071E040F2FF1101EA440205F14801501862
:1053E000FFF788FD814666E0A86B00EBD4112846E4
:1053F000FFF738FF00B15EE040F2FF1101EA8402DE
:1054000005F148015018FFF77BFD20F0704952E08C
:105410000023D6E9041059405840014347D0B068F2
:10542000A4EB000AD6E90420521E60F10000CDE989
:1054300000204FF40072DDE9000105F071FA69897E
:10544000B0FBF1FBF079022810D1DA450ED8DA452D
:1054500009D16FF0004007E0580701205252614126
:105460007272416124E0601C814624E0F0790328D7
:1054700005D1B069504502D904F101091BE0F0796A
:10548000022813D0A86B00EBD4112846FFF7EAFEE0
:1054900000B110E040F2FF1101EA840205F1480179
:1054A0005018FFF72DFD20F0004904E000BF00BFB9
:1054B0004FF0010900BF00BF4846BDE8FC9F2DE941
:1054C000F04704460D4616464FF00209022D77D3E9
:1054D000E06AA84274D92078012806D002284BD06F
:1054E000032861D004280DD15FE02F4607EB570752
:1054F000A06B00EB57212046FFF7B4FE8146B9F1BF
:10550000000F00D079E038467F1CC0F3080104F199
:10551000480001EB000805F0010028B1F1B298F84D
:10552000000061F31F1000E0304688F80000012001
:10553000E070A06B00EB57212046FFF793FE8146F9
:10554000B9F1000F00D058E0C7F3080104F148009A
:1055500001EB000805F0010010B1C6F3071006E0EA
:1055600098F8000000F0F000C6F30321084388F823
:1055700000000120E07040E0A06B00EB1521204608
:10558000FFF770FE8146B9F1000F00D035E0B1B2EF
:1055900040F2FF1202EA450304F148029818FFF7AF
:1055A000ECFC0120E07028E000BFA06B00EBD511FF
:1055B0002046FFF757FE8146B9F1000F01D01CE0ED
:1055C0001CE0207804280BD040F2FF1101EA85028C
:1055D00004F148015018FFF793FC66F31B000646E0
:1055E00040F2FF1101EA850204F1480150183146EA
:1055F000FFF7C9FC0120E07000BF00BF4846BDE8CE
:10560000F0872DE9F74F05460E46B61EE86A801E64
:10561000B04200D800263446A2464FF0000B00BF2F
:10562000286C00EB14312846FFF71CFE18B14FF030
:10563000FF30BDE8FE8FC4F3C80904F00701012064
:105640008840C7B200BF00BF05F1480010F809004C
:1056500000EA07087806070E601C0446E96A891EFE
:10566000884203D3002400274FF48059B8F1000F7B
:1056700008D10BF1010083460299884205D10AF155
:105680000200D6E7A2464FF0000BB44201D1002041
:10569000CFE7002FD8D1012709F101008146B0F5ED
:1056A000007FD0D3BCE72DE9F04704460D46904675
:1056B0009946AD1E206C00EB153AC5F3C80605F0FF
:1056C000070101208840C7B200BF51460AF1010A14
:1056D0002046FFF7C7FD10B10120BDE8F08700BFED
:1056E00000BF04F14800805D384008B1012000E0AF
:1056F0000020484501D10220EFE704F14800805D19
:10570000784004F1480188550120E070A8F10100BB
:10571000B0F1000800D1E0E77806000E071EE0D1E6
:105720000127701C0646B0F5007FD9D3CDE72DE9DF
:10573000F0410446E079032812D1A568A7690BE07F
:105740006A1C29462068FFF7BAFE064616B13046A5
:10575000BDE8F0816D1C7F1E002FF1D10020E071AB
:105760000020F5E72DE9F05F06460F4690464FF022
:1057700000093468BA46BB46022F02D3E06AB84239
:1057800002D80220BDE8F09FB8F1000F11D02078B8
:10579000042802D1F07902280BD04FF0FF324146A5
:1057A0002046FFF78CFE8146B9F1000F01D0484634
:1057B000E8E700BF39463046FFF7BEFD054605B9AC
:1057C0003CE0012D01D10220DCE7681C08B9012072
:1057D000D8E7207804280AD0002239462046FFF76F
:1057E0006EFE8146B9F1000F01D04846CAE7A069B4
:1057F000401C30B1A069401CA061207940F001003C
:1058000020710BF10100A84201D1AB4612E02078D3
:1058100004280DD1ABEB0A00421C00235146204660
:10582000FFF741FF8146B9F1000F01D04846A9E7D3
:10583000AB46AA462F46E06AB842BBD800BF2078E4
:10584000042812D1B8F1000F02D10020F0710CE051
:10585000F079032809D1B068404506D8B169B0682D
:105860000844404501D30220F07100208AE72DE969
:10587000F04707468A463C68BAF1000F06D16669D0
:1058800016B1E06AB04217D8012615E051463846F5
:10589000FFF752FD8046B8F1020F02D20120BDE8A9
:1058A000F08708F1010008B94046F8E7E06A404592
:1058B00001D94046F3E75646207804282ED101222C
:1058C00031462046FFF79DFE05460DB1681C08B91C
:1058D0002846E4E701231A4629462046FFF7E3FE5F
:1058E0008146B9F1020F01D10120D8E7B9F1010FCA
:1058F00002D14FF0FF30D2E7BAF1000F02D10220FF
:10590000F8712CE0F879022829D1701C854226D044
:10591000B868301AB8610320F87120E0354600BF3E
:105920006D1CE06AA84204D80225B54201D90020C6
:10593000B5E729463846FFF7FFFC8046B8F1000F6F
:1059400000D10BE0B8F1010F02D008F1010008B955
:105950004046A4E7B542E3D10020A0E700BF20788D
:10596000042805D1F879022802D14FF0000912E08D
:105970004FF0FF3229462046FFF7A1FD8146B9F1DD
:10598000000F08D1BAF1000F05D02A465146204633
:10599000FFF795FD8146B9F1000F0DD16561E06A11
:1059A000801EA169814202D2A069401EA0612079B7
:1059B00040F00100207107E0B9F1010F02D14FF072
:1059C000FF3000E001200546284668E72DE9F04158
:1059D00004460D4626683078042801D1800601E08F
:1059E0004FF40010A84202D905F01F0010B10220A8
:1059F000BDE8F0812563A7682FB93078032802DB62
:105A0000F76B0020E07147B93089B0EB551F01D822
:105A10000220EDE7F06BA0631CE070894FEA40289C
:105A200011E039462046FFF787FC0746781C08B985
:105A30000120DDE7022F02D3F06AB84201D802202C
:105A4000D6E7A5EB08054545EBD239463046FFF7CA
:105A500066FCA0636763A06B08B90220C8E7A06B6F
:105A600000EB5520A063C5F3080106F14800084487
:105A7000E0630020BCE72DE9F0470446894625682D
:105A8000206B00F12007A06B40B12878042801D1D9
:105A9000800601E04FF40010B84202D80420BDE8AF
:105AA000F087C7F3080000286CD1A06B401CA063EE
:105AB000606B38B92889B0EB571F63D80020A0630A
:105AC0000420ECE76889401E00EA5720002859D1DD
:105AD0002046616BFFF730FC0646012E01D80220FC
