:020000040800F2
:10000000D0160020AD0100083D4300083F43000822
:1000100043430008474300084B430008000000002A
:100020000000000000000000000000004F43000836
:1000300051430008000000005343000857430008E4
:10004000C7010008C7010008C7010008C701000870
:10005000C7010008C7010008C7010008C701000860
:10006000C7010008C7010008C7010008C701000850
:10007000C7010008C7010008C7010008C701000840
:10008000C7010008C7010008C70100080000000000
:10009000000000000000000000000000C701000890
:1000A000C7010008C7010008C7010008C701000810
:1000B000C7010008C7010008C7010008C701000800
:1000C000C7010008C7010008C7010008C7010008F0
:1000D000C7010008C7010008C701000800000000B0
:1000E000C7010008C7010008C701000800000000A0
:1000F000000000000000000000000000C701000830
:1001000000000000C7010008C7010008C70100087F
:1001100000000000000000000000000000000000DF
:10012000C7010008C7010008C7010008C70100088F
:10013000C7010008000000000000000000000000EF
:10014000000000000000000000000000C33C0008A8
:10015000C7010008C7010008C7010008C70100085F
:10016000C7010008C70100080000000000000000EF
:10017000000000000000000000000000000000007F
:1001800000000000C701000800000000000000009F
:10019000C7010008C7010008DFF80CD005F034FAE9
:1001A0000048004781420008D016002006488047DA
:1001B00006480047FEE7FEE7FEE7FEE7FEE7FEE74C
:1001C000FEE7FEE7FEE7FEE761430008990100084D
:1001D000704770B5044601F041FE4FF47A71B0FBF0
:1001E000F1F5284600F05CF900222146501E00F08F
:1001F000E1F8002070BD10B55748006840F4007069
:10020000554908600846006840F480600860084668
:10021000006840F480700860032000F0B9F80F20F7
:10022000FFF7D7FF00F0B4FB002010BD704710B5FA
:100230004FF0FF304949086000200860401E091D4A
:10024000086000200860401E444910390860002002
:100250000860401E091D086000200860401E091D3E
:1002600008600020086000F094FB002010BD3C48AE
:100270000068401C3A490860704739480068704778
:1002800031B5002403F06CFC044600BF03F068FCA9
:10029000001B00998842F9D338BD4FF0E020006977
:1002A00020F002004FF0E021086170474FF0E0209D
:1002B000006940F002004FF0E021086170472948D2
:1002C000704729480068000C704727480068C0F351
:1002D0000B0070472448406840F001002249486004
:1002E00070472148406820F001001F49486070476E
:1002F0001D48406840F002001B49486070471A489A
:10030000406820F00200184948607047164840686D
:1003100040F004001449486070471348406820F0DA
:100320000400114948607047012090FAA0F1B1FA29
:1003300081F10E4A02EB8101C1F8000470470020F0
:10034000012191FAA1F1B1FA81F1084A02EB810190
:10035000C1F8000470470000003C02402038024011
:100360000000002000020301002004E000002742FA
:1003700010B5002807DA0A07140EA94A00F00F0387
:100380001B1FD45403E00A07130EA64A135410BDD2
:1003900000BF00F00702A24B0C3B19684FF6FF03A9
:1003A0001940A14B0B4343EA02219D4B0C3B1960C2
:1003B00000BF70472DE9F05F80460D4616460027C6
:1003C00000F027F9074639462A46334601F0070070
:1003D000C0F1070ABAF1040F02D94FF0040A01E094
:1003E000C0F1070AD14600F1040ABAF1070F02D2A0
:1003F0004FF0000A01E0A0F1030AD4464FF0010AD1
:100400000AFA09FAAAF1010A0AEA020A0AFA0CFA35
:100410004FF0010B0BFA0CFBABF1010B0BEA030BDA
:100420004AEA0B0421464046FFF7A2FFBDE8F09FD1
:1004300000BF00F01F02012191404209920002F129
:10044000E022C2F8001100BF704700BF00F01F0299
:1004500001219140754A430942F8231000BF7047BB
:1004600000BF00BF00BF00BF00BFBFF34F8F00BF82
:1004700000BF00BF6A480C38006800F4E0606A49B9
:100480000843001D66490C39086000BF00BF00BF6B
:10049000BFF34F8F00BF00BF00BF00E000BFFDE70C
:1004A00070B504462546681EB0F1807F01D3012057
:1004B0000FE0681E4FF0E02148610F214FF0FF3040
:1004C000FFF756FF00204FF0E02188610720086108
:1004D000002070BD10B500F09CF810BD2DE9F04370
:1004E00004462046002808DA4D4F00F00F0CACF10E
:1004F000040C17F80C703F0902E04A4F3F5C3F09BB
:100500003D460E4606F00700C0F10708B8F1040F9B
:1005100002D94FF0040801E0C0F10708C44600F119
:100520000408B8F1070F02D24FF0000801E0A0F173
:100530000308474625FA07F84FF0010909FA0CF9B4
:10054000A9F1010908EA0908C2F800804FF0010882
:1005500008FA07F8A8F1010808EA0508C3F80080BE
:1005600000BFBDE8F08300BF00F01F0201219140F1
:100570002E4A8032430942F8231000BF704710B55D
:1005800001460846294A8032430952F8232000F0E8
:100590001F040123A3401A400AB1012200E00022F7
:1005A000104610BD00BF00F01F0201219140204AFB
:1005B000430942F8231000BF704710B501460846B2
:1005C0001B4A8032430952F8232000F01F04012304
:1005D000A3401A400AB1012200E00022104610BDDB
:1005E000042808D14FF0E021096941F004014FF0DF
:1005F000E022116107E04FF0E021096921F00401D8
:100600004FF0E02211617047704710B5FFF7FCFF13
:1006100010BD03480C380068C0F30220704700008A
:1006200018ED00E000E400E00000FA0580E100E0E1
:1006300080E200E0F8B503460A46002500240020C9
:100640000021CBE0012606FA01F5166806EA05044A
:10065000AC4271D15668022E02D05668122E13D1C8
:10066000CF0803F1200656F827004E07F70E0F2695
:10067000BE40B0434F07FF0E1669BE403043CF085F
:1006800003F1200646F8270018684F000326BE40F5
:10069000B043167906F003064F00BE4030431860A1
:1006A0005668012E08D05668022E05D05668112EC5
:1006B00002D05668122E13D198684F000326BE4010
:1006C000B0434F00D668BE4030439860586801265A
:1006D0008E40B0431679C6F300168E403043586002
:1006E000D8684F000326BE40B0434F009668BE4016
:1006F0003043D860566806F08056B6F1805F6CD102
:1007000000BF9B4E366846F48046994F3E603E4699
:10071000366806F48046009600BF00BF954E8F08ED
:1007200056F827008E07370F0F26BE40B043924E73
:10073000B34202D1002615E04FE0904EB34201D102
:1007400001260FE08E4EB34201D102260AE08D4E03
:10075000B34201D1032605E08B4EB34201D10426FA
:1007600000E005268F073F0FBE403043814E8F08C3
:1007700046F82700854E3068A043566806F4803658
:10078000B6F5803F00D12043804E3060361D306882
:10079000A043566806F40036B6F5003F00D120436A
:1007A0007A4E361D3060361D3068A043566806F418
:1007B0008016B6F5801F00D12043744E0836306095
:1007C000361D3068A043566806F40016B6F5001FC3
:1007D00000D120436D4E0C363060491C1029FFF4C7
:1007E00031AFF8BDF0B50C460025002200230021F2
:1007F00081E0012606FA01F504EA0502AA4279D150
:1008000006684FEA410C032707FA0CF7BE4306605F
:10081000CF0800F1200656F827604F074FEAD76C43
:100820000F2707FA0CF7BE434FEAD10C00F120075F
:1008300047F82C6086684FEA410C032707FA0CF74B
:10084000BE438660476801268E40B7434760C6684E
:100850004FEA410C032707FA0CF7BE43C660454E2A
:100860008F0856F827308E07370F0F26BE403340CB
:10087000414EB04201D1002614E0404EB04201D1B9
:1008800001260FE03E4EB04201D102260AE03D4E65
:10089000B04201D1032605E03B4EB04201D104260F
:1008A00000E005268F073F0FBE409E4222D18E07F3
:1008B000370F0F2606FA07F32E4E8F0856F82760DB
:1008C0009E432C4F4FEA910C47F82C602F4E366810
:1008D00096432E4F3E603E1D366896433F1D3E6058
:1008E0003E1D366896433F1D3E603E1D366896436A
:1008F0003F1D3E60491C1029FFF47BAFF0BD02464E
:1009000013690B400BB1012000E0002070470AB1D1
:10091000816101E00B048361704742694A40426192
:10092000704708B502464FF48030009000980843A5
:1009300000900098D061D1610098D061D06900909A
:10094000D06900F4803008B1002008BD0120FCE728
:10095000704710B504460D4814300068204028B197
:100960000A48143004602046FFF7F2FF10BD000073
:1009700044380240083801400000024000040240B0
:1009800000080240000C024000100240003C014000
:100990007047704770477047704730B589B004465C
:1009A000002514B9012009B030BD032084F87D036F
:1009B000204603F065FD206801F0B8FB242204F115
:1009C0001001684604F006FE94E80F0001F071FB88
:1009D0000021206801F0B1FB002530E00121C5EBCA
:1009E000C50204F1340000EB82004170C5EBC50282
:1009F00004F1340000F82250C5EBC50200EB820080
:100A0000C5800021C5EBC50204F1340000EB820073
:100A1000C170C5EBC50204F1340000EB82008160B7
:100A2000C5EBC50204F1340000EB8200C160C5EBE8
:100A3000C50204F1340000EB820041616D1C0F2DF2
:100A4000CCD3002536E00021C5EBC50204F5EC70DF
:100A500000EB82004170C5EBC50204F5EC7000F8B4
:100A60002250C5EBC50204F1340000EB8200C580C2
:100A7000C5EBC50204F5EC7000EB8200C170C5EB5C
:100A8000C50204F5EC7000EB82008160C5EBC50285
:100A900004F5EC7000EB8200C160C5EBC50204F503
:100AA000EC7000EB82004161206800F5827040F834
:100AB00025106D1C0F2DC6D3242204F110016846A9
:100AC00004F088FD94E80F0001F080FB012084F819
:100AD0007D03206802F02DF9002064E7704710B50F
:100AE000044600BF94F87C03012801D1022010BD08
:100AF000012084F87C0300BF206801F017FB206808
:100B000002F0CBF8206802F014F900BF002084F84E
:100B10007C0300BF00BFEAE710B504460CB9012012
:100B200010BD032084F87D032046FFF7D8FF204640
:100B300003F0AFFC002084F87D0300BFF0E710B5A0
:100B4000044600BF94F87C03012801D1022010BDA7
:100B5000012084F87C0300BF206802F0DBF82068E5
:100B600001F0DDFA00BF002084F87C0300BF00BF65
:100B7000EDE77047704770477047704770477047A0
:100B800070472DE9F84F07460E46D7F8008000253C
:100B9000AA46C6EBC60107F1340000EB8104D4E994
:100BA0000501451AA068A84200D2A568E81CC11733
:100BB00000EB91714FEAA1091AE0D4E90501451A49
:100BC000A068A84200D2A568E81CC11700EB91718B
:100BD0004FEAA109387CABB2F2B200904046E1681E
:100BE00001F05DFDE0682844E060A0692844A06150
:100BF00008F5106000EB4610806980B2484506D9C0
:100C0000D4E90510884202D260690028D5D1002DB0
:100C10000CDC012000FA06FA40F6340050F8080017
:100C200020EA0A0040F6340141F808000020BDE83F
:100C3000F88F7047704770472DE9F84F04462668D3
:100C40004FF0000AD346D046002500200090002730
:100C5000206802F0BAF8002867D1206802F078F81E
:100C600008B9BDE8F88F206802F072F800F00200C1
:100C7000022801D121684861206802F069F800F477
:100C80000020B0F5002F7CD10025206802F066F826
:100C9000834673E00BF0010000286CD0E9B22068B5
:100CA00002F06EF8804608F00100E8B3012106F575
:100CB000306000EB45108160206901282BD1C5EB25
:100CC000C50104F5EC7000EB8100816806F5306029
:100CD00000EB45100069C0F31200091AC5EBC5020C
:100CE00004F5EC7000EB82008161C5EBC50104F5F1
:100CF000EC7000EB8100C5EBC502C16804F5EC7037
:100D000000EB820080680144C5EBC50204F5EC707D
:100D100000EB8200C160E9B2204603F0DDFB2069F0
:100D2000012811D105B901E00EE01DE2C5EBC501B6
:100D300004F5EC7000EB8100406928B904F560729D
:100D40000121206802F068F808F00800082808D19E
:100D5000204603F0B8FB082106F5306000EB451093
:100D6000816008F01000102805D1102106F53060D0
:100D700000EB451081606D1C4FEA5B0BBBF1000F6F
:100D800088D1206801F0E4FF00F48020B0F5802FC6
:100D90007ED1206801F0EBFF8346002583E00BF055
:100DA000010000287CD0E9B2206801F0F4FF804601
:100DB00008F00100F0B30120A840009040F6340094
:100DC00080590099884340F634018851012106F585
:100DD000106000EB451081602069012815D1C5EB3A
:100DE000C50104F1340000EB8100C5EBC502C16808
:100DF00004F1340000EB820080680144C5EBC502B9
:100E000004F1340000EB8200C160E9B2204603F037
:100E100073FB2069012810D165B9C5EBC50104F148
:100E2000340000EB8100406920B904F560720121B3
:100E3000206800E001E001F0EFFF08F0080008285A
:100E400005D1082106F5106000EB4510816008F01F
:100E50001000102805D1102106F5106000EB451098
:100E6000816008F04000402805D1402106F510605F
:100E700000EB4510816008F00200022805D1022134
:100E800006F5106000EB4510816008F0800001E07D
:100E90000DE005E0802803D129462046FFF771FECA
:100EA0006D1C4FEA5B0BBBF1000F7FF478AF20683D
:100EB00001F04EFF00F00040B0F1004F0ED140F6BF
:100EC0000400805920F0010140F6040081512046C1
:100ED00003F049FB4FF0004021684861206801F0B1
:100EE00037FF00F40060B0F5006F0CD140F6080049
:100EF000805900F0010010B1204603F02DFB4FF4A3
:100F0000006021684861206801F022FF00F48050F1
:100F1000B0F5805F5AD140F60400805920F00101FD
:100F200040F6040081510021206801F031F94FF0B2
:100F3000000A0CE0FF2106F5106000EB4A1081600A
:100F400006F5306000EB4A1081600AF1010A606822
:100F50005045EFD84FF0FF3140F618008151001D89
:100F6000805940F0011140F61C008151E06A70B1D7
:100F7000D6F8840840F00B01C6F8841840F6440007
:100F8000805940F00B0140F6440081510EE040F6DC
:100F90001400805940F00B0140F614008151001FED
:100FA000805940F00B014FF401608151D6F80008E0
:100FB00020F4FE60C6F80008217C04F56072206809
:100FC00001F02AFF4FF4805021684861206801F049
:100FD000BFFE00F40050B0F5005F29D1206801F099
:100FE000F9FE2068C06820F470502168C86020684D
:100FF00001F0B2F958B90021E1604FF4007161616C
:101000002068C06840F410502168C86009E00321DE
:10101000E160402161612068C06840F4A05021680F
:10102000C860204603F07FFA4FF400502168486101
:10103000206801F08DFE00F01000102843D12068D8
:10104000806920F0100021688861376A07F00F007E
:10105000C0EBC00104F5EC7000EB8109C7F343401D
:10106000022819D147F6F070384030B3C7F30A129E
:101070003046D9F80C1001F072FDC7F30A11D9F807
:101080000C000844C9F80C00C7F30A11D9F818007D
:101090000844C9F8180010E0C7F3434006280CD1F3
:1010A000082204F56071304601F059FDC7F30A11BA
:1010B000D9F818000844C9F818002068806940F081
:1010C000100021688861206801F042FE00F00800ED
:1010D000082805D1204603F01FFA0820216848613E
:1010E000206801F035FE00F48010B0F5801F07D1B4
:1010F000E9B2204603F047FA4FF4801021684861B6
:10110000206801F025FE00F40010B0F5001F07D1A3
:10111000E9B2204603F02EFA4FF40010216848612E
:10112000206801F015FE00F08040B0F1804F06D13C
:10113000204603F031FA4FF0804021684861206872
:1011400001F006FE00F0040004280DD12068476875
:1011500007F00400042802D1204603F024FA206896
:10116000406838432168486000BF7AE510B50446FE
:1011700000BF94F87C03012801D1022010BD01209A
:1011800084F87C0300BF206801F0C4FD00BF00208C
:1011900084F87C0300BF00BFF0E710B5044600BF31
:1011A00094F87C03012801D1022010BD012084F8AD
:1011B0007C0300BF206801F0BCFD00BF002084F864
:1011C0007C0300BF00BFF0E770B504460D4600BFCA
:1011D00094F87C03012801D1022070BD012084F81D
:1011E0007C0300BF2946206801F082FD00BF00207B
:1011F00084F87C0300BF00BFEFE72DE9F047054608
:101200000E4690461F464FF0000906F080008028E9
:1012100008D106F07F00C0EBC00105F1340000EBFF
:10122000810407E006F07F00C0EBC00105F5EC701B
:1012300000EB810406F07F00207006F08000C009FA
:101240006070C4F80880E770607808B12078E080AA
:10125000022F01D10020207100BF95F87C030128E6
:1012600002D10220BDE8F087012085F87C0300BF91
:101270002146286801F092F800BF002085F87C0321
:1012800000BF4846EEE770B504460D4605F0800005
:10129000802808D105F07F00C0EBC00104F13400C4
:1012A00000EB810607E005F07F00C0EBC00104F50C
:1012B000EC7000EB810605F07F00307005F08000D7
:1012C000C009707000BF94F87C03012801D102208E
:1012D00070BD012084F87C0300BF3146206801F016
:1012E00055F900BF002084F87C0300BF00BFEFE782
:1012F0002DE9F04104460E461746984606F07F0059
:10130000C0EBC00104F5EC7000EB8105EF60C5F89F
:1013100014800020A861687006F07F0028702069A2
:10132000012800D12F6100BF94F87C03012802D16D
:101330000220BDE8F081012084F87C0300BF06F0A4
:101340007F0028B9227C2946206801F030FB04E0A8
:10135000227C2946206801F0BFF900BF002084F8F4
:101360007C0300BF00BFE4E7024601F07F00C0EB52
:10137000C00302F5EC7000EB8300008B80B2704775
:101380002DE9F04104460E461746984606F07F00C8
:10139000C0EBC00104F1340000EB8105EF60C5F83B
:1013A00014800020A8610120687006F07F0028707A
:1013B0002069012800D12F6100BF94F87C03012827
:1013C00002D10220BDE8F081012084F87C0300BF37
:1013D00006F07F0028B9227C2946206801F0E7FA50
:1013E00004E0227C2946206801F076F900BF002045
:1013F00084F87C0300BF00BFE4E770B504460D46E7
:1014000005F08000802808D105F07F00C0EBC00106
:1014100004F1340000EB810605E0C5EBC50104F5DD
:10142000EC7000EB81060120B07005F07F00307099
:10143000C5F3C010707000BF94F87C03012801D17F
:10144000022070BD012084F87C0300BF3146206873
:1014500001F099FB05F07F0028B9217C04F560724A
:10146000206801F0D9FC00BF002084F87C0300BF95
:1014700000BFE6E770B504460D4605F08000802801
:1014800008D105F07F00C0EBC00104F1340000EB8F
:10149000810605E0C5EBC50104F5EC7000EB8106A3
:1014A0000020B07005F07F003070C5F3C010707080
:1014B00000BF94F87C03012801D1022070BD0120F7
:1014C00084F87C0300BF3146206801F0A2FB00BF16
:1014D000002084F87C0300BF00BFEFE770B504462E
:1014E0000D4600BF94F87C03012801D1022070BD95
:1014F000012084F87C0300BF05F08000802805D11E
:1015000005F07F01206800F043FE02E0206800F053
:101510002CFE00BF002084F87C0300BF00BFE6E77C
:101520000246116840F60800405800F0010038B14A
:1015300040F60400405840F0010340F604004350D8
:101540000020704701460A6840F60400805820F0E9
:10155000010340F60400835000207047014691F8D3
:101560007D037047F0B50346144600250022186835
:10157000426A21B942EA04401E68B06219E0186864
:10158000806A02EB1042002508E0186800F58270BE
:1015900050F8250002EB1042681CC5B2481EA84254
:1015A000F3DC42EA0447186800F582704E1E40F8EA
:1015B00026700020F0BD024610684162002070478E
:1015C000FC48006840F08100FA4908600020F949B1
:1015D00008310860F7480068F7490840F549086095
:1015E0000020091D086008460068F4490843F149D5
:1015F000091D08600020EF49843108600846006832
:10160000EF490843EB4984310860EA48006820F458
:101610008020E84908600020E6490C3108607047E6
:1016200038B504460025207800F00100002864D079
:10163000E0480830006800F00C0004280ED0DD48B7
:101640000830006800F00C00082812D1D948001DAD
:10165000006800F48000B0F5800F0AD1D54800681A
:10166000C0F34040002848D06068002845D10120E0
:1016700038BD0020CF49891C087002F071FA054678
:1016800008E002F06DFA401B41F28831884201D92E
:101690000320EDE7C7480068C0F340400028F0D1C0
:1016A0002079C449891C0870606898B102F058FA22
:1016B000054608E002F054FA401B41F288318842A6
:1016C00001D90320D4E7BB480068C0F3404000289C
:1016D000F0D012E002F044FA054608E002F040FAC9
:1016E000401B41F28831884201D90320C0E7B1484C
:1016F0000068C0F340400028F0D1207800F00200DC
:10170000022864D1AB480830006800F00C0060B1DA
:10171000A8480830006800F00C0008281ED1A54831
:10172000001D006800F48000C0B9A2480068C0F342
:10173000400020B1E068012801D0012098E79D48D1
:10174000006820F0F800F82292FAA2F2B2FA82F2CF
:101750002169914008439749086038E0E06810B378
:1017600001209849086002F0FBF9054606E002F006
:10177000F7F9401B642801D9032079E78D480068F8
:10178000C0F340000028F2D08A48006820F0F8003A
:10179000F82292FAA2F2B2FA82F221699140084349
:1017A0008449086013E000208649086002F0D8F9F7
:1017B000054606E002F0D4F9401B642801D9032055
:1017C00056E77C480068C0F340000028F2D120783A
:1017D00000F0080008282CD16069A8B101207A49DE
:1017E000086002F0BDF9054606E002F0B9F9401BB9
:1017F000642801D903203BE76E4874300068C0F3C9
:1018000040000028F1D014E000206F49086002F089
:10181000A7F9054606E002F0A3F9401B642801D9A8
:10182000032025E7634874300068C0F340000028B7
:10183000F1D1207800F0040004286DD100BF5D488C
:101840004030006840F080505A49403108600846F6
:10185000006800F08050009000BF00BF5B48006847
:1018600040F480705949086002F07AF9054606E0B4
:1018700002F076F9401B642801D90320F8E65348AA
:10188000006800F480700028F2D0002049497031CF
:10189000087002F065F9054608E002F061F9401BA6
:1018A00041F28831884201D90320E1E64148703095
:1018B0000068C0F340000028EFD1207A3D49703124
:1018C0000870A068A0B102F04BF9054608E002F0EC
:1018D00047F9401B41F28831884201D90320C7E60D
:1018E000344870300068C0F340000028EFD013E0A7
:1018F00002F036F9054608E002F032F9401B41F2E9
:101900008831884201D90320B2E62A487030006845
:10191000C0F340000028EFD1A069E8B325480830A3
:10192000006800F00C00082876D0A06902285DD17C
:1019300000202449086602F013F9054606E002F08B
:101940000FF9401B642801D9032091E6194800686B
:10195000C0F340600028F2D1D4E90701084347F6FC
:10196000C07292FAA2F2B2FA82F2616A914008431E
:101970000122A16AC2EB51014FF4403292FAA2F265
:10198000B2FA82F2914008434FF0706292FAA2F2EA
:10199000B2FA82F2E16A00E040E091400843054972
:1019A000091D086001200749086602F0D9F80546BC
:1019B00015E0000000380240FFFFF6FA1030000486
:1019C0000030002000004742800E47420070004077
:1019D00002F0C6F8401B642801D9032048E6FA4803
:1019E0000068C0F340600028F2D017E00020F749FB
:1019F000086602F0B5F8054606E002F0B1F8401BB3
:101A0000642801D9032033E6EF480068C0F3406042
:101A10000028F2D102E0FFE7012029E6002027E6B6
:101A200070B504460E460025E948006800F00F0036
:101A3000B04272D2E6490E700846006800F00F000E
:101A4000B04201D0012070BD207800F002000228D1
:101A500009D1DD480830006820F0F000A168084393
:101A6000D94908310860207800F0010000283ED0F4
:101A70006068012806D1D4480068C0F34040A8B986
:101A80000120E0E76068022802D06068032806D1E0
:101A9000CD480068C0F3406040B90120D3E7CA4890
:101AA0000068C0F3400008B90120CCE7C648083000
:101AB000006820F0030061680843C34908310860EA
:101AC00002F04EF805466068012811D108E002F0E6
:101AD00047F8401B41F28831884201D90320B2E720
:101AE000B9480830006800F00C000428EFD1D5E0B8
:101AF0006068022812D108E002F032F8401B41F27F
:101B00008831884201D903209DE7AF48083000683A
:101B100000F00C000828EFD1C0E026E06068032840
:101B200011D108E002F01CF8401B41F288318842D4
:101B300001D9032087E7A4480830006800F00C00B2
:101B40000328EFD1AAE008E002F00AF8401B41F2B6
:101B50008831884201D9032075E79B480830006826
:101B600000F00C000028EFD198E0207800F002008F
:101B7000022809D194480830006820F0F000A168DC
:101B80000843914908310860207800F001000028DE
:101B90007AD06068012806D18B480068C0F34040C5
:101BA000A8B901204FE76068022802D060680328C6
:101BB00006D185480068C0F3406040B9012042E783
:101BC00081480068C0F3400008B901203BE77E4827
:101BD0000830006820F00300616808437A49083142
:101BE000086001F0BDFF05466068012811D108E0DA
:101BF00001F0B6FF401B41F28831884201D9032031
:101C000021E771480830006800F00C000428EFD18B
:101C10003AE06068022811D108E001F0A1FF401B02
:101C200041F28831884201D903200CE76648083028
:101C3000006800F00C000828EFD125E06068032858
:101C400011D108E001F08CFF401B41F2883188423D
:101C500001D90320F7E65C480830006800F00C006A
:101C60000328EFD110E008E001F07AFF401B41F2B9
:101C70008831884201D90320E5E6534808300068DE
:101C800000F00C000028EFD151490E7008460068A2
:101C900000F00F00B04201D00120D4E6207800F01F
:101CA0000400042809D148480830006820F4E050B6
:101CB000E1680843444908310860207800F00800D2
:101CC00008280AD140480830006820F460402169A3
:101CD00040EAC1003C49083108600F20FEF779FA5C
:101CE0000020B0E670B586B006460C46154646BBE9
:101CF00000BF35483030006840F0010032493031D3
:101D000008600846006800F00100009000BF00BFB6
:101D10008815019002200290032004900020039077
:101D2000059001A92B48FEF785FC2748083000687C
:101D300020F0EC6044EA05010843234908310860BB
:101D400027E000BF20483030006840F004001E4902
:101D5000303108600846006800F00400009000BFC1
:101D600000BF48150190022002900320049000203B
:101D70000390059001A91848FEF75CFC1248083052
:101D8000006820F0784044EAC50108430E49083154
:101D9000086006B070BD01200C49C864704700207F
:101DA0000A49C864704770B5002100220023002052
:101DB000054C0834246804F00C047CB1042C0FD0CA
:101DC000082C47D10EE000000038024000004742D6
:101DD000003C024000000240000802409D483BE0F9
:101DE0009D4839E09D4C246804F03F019B4C2468D9
:101DF00004F480047CB1984CB4FBF1F5974C246852
:101E000047F6C076344096FAA6F6B6FA86F6F4405F
:101E100005FB04F20EE08F4CB4FBF1F58F4C246807
:101E200047F6C076344096FAA6F6B6FA86F6F4403F
:101E300005FB04F2894C246804F440344FF4403527
:101E400095FAA5F5B5FA85F5EC40641C6300B2FB84
:101E5000F3F001E07F4800BF00BF70BD10B5FFF791
:101E6000A2FF7E49091D096801F0F001F02292FAF3
:101E7000A2F2B2FA82F2D140794A515CC840794963
:101E800008600846006810BD10B5FFF7E7FF73490A
:101E9000091D096801F4E0514FF4E05292FAA2F2F0
:101EA000B2FA82F2D1406E4A515CC84010BD10B502
:101EB000FFF7D4FF6949091D096801F460414FF437
:101EC000604292FAA2F2B2FA82F2D140644A515CC4
:101ED000C84010BD0F2101606049091F096801F465
:101EE0008021B1F5802F02D1052141600CE05B49D2
:101EF000091F096801F48031B1F5803F02D1012149
:101F0000416001E0002141605449091F096801F066
:101F1000010111B10121C16001E00021C1604F49FF
:101F2000091F096801F0F801F82292FAA2F2B2FA48
:101F300082F2D140016149496C31096801F0040124
:101F4000042902D1052181600AE044496C31096805
:101F500001F0010111B10121816001E000218160E6
:101F60003E497031096801F0010111B1012141615F
:101F700001E0002141613949091F096801F08071C0
:101F8000B1F1807F02D10221816101E001218161F3
:101F90003249096801F48002C2613049096801F0E0
:101FA0003F0202622D49096847F6C072114092FA59
:101FB000A2F2B2FA82F2D14041622849096801F4E2
:101FC000403101F5803149004FF4403292FAA2F2DB
:101FD000B2FA82F2D14081622049096801F0706151
:101FE0004FF0706292FAA2F2B2FA82F2D140C1626C
:101FF00070470F220260194A121D126802F0030294
:102000004260164A121D126802F0F0028260134A02
:10201000121D126802F4E052C260104A121D1268CA
:1020200002F46042D20802610F4A126802F00F0205
:102030000A607047704710B508480830006800F023
:102040008000802805D1FFF7F5FF802003490A3181
:10205000087010BD0024F40000127A000438024019
:10206000A45700087C000020003C024001460022EA
:1020700000BF501C0246F94B984201D9032070471B
:10208000086900F000400028F3D00022086940F001
:102090000100086100BF501C0246F04B984201D974
:1020A0000320ECE7086900F001000028F3D100BF2D
:1020B000E5E70FB410B504460898012816D1A06BC7
:1020C00020F48030A063E068E5490840E060E06803
:1020D00020F44010E0600E98012803D1E06840F43D
:1020E0008010E0602046FFF7C1FF09E0E06840F0A3
:1020F0004000E0602046FFF7B9FF4FF48030A06356
:102100000698012807D1A06840F00C00A060A068E4
:1021100040F02000A060002010BC5DF814FB0146D8
:10212000886840F001008860002070470146886898
:1021300020F0010088600020704770B504460D460D
:10214000E06820F0C040E060012D04D1E06840F07C
:102150000050E06004E01DB9E06840F08040E060BD
:10216000322001F000FD002070BD01460022102049
:10217000086100BF501C0246B84B984201D90320A9
:102180007047086900F010001028F3D00020F7E72E
:1021900010B502460023202040EA8110106100BFE4
:1021A000581C0346AD4CA04201D9032010BD106954
:1021B00000F020002028F3D00020F7E70246D2F8F4
:1021C00000080843C2F80008002070470FB430B57B
:1021D00004460025A06B40F40020A0630D9818B9B8
:1021E000A06B40F40010A0630020C4F8000ED4F8E7
:1021F0000008C4F80008099801280BD1069820B9F6
:1022000000212046FFF7DAFF08E001212046FFF712
:10221000D5FF03E003212046FFF7D0FF1021204621
:10222000FFF7B6FF2046FFF7A0FF00214FF4016043
:102230000151001D0151491E001D01510021001DC9
:102240000151002524E004F5106000EB4510006802
:1022500000F00040B0F1004F07D14FF0904104F57D
:10226000106000EB4510016005E0002104F51060EE
:1022700000EB45100160002104F5106000EB4510F3
:102280000161FF2104F5106000EB451081606D1CB9
:102290000498A842D7D8002524E004F5306000EB6C
:1022A0004510006800F00040B0F1004F07D14FF03A
:1022B000904104F5306000EB4510016005E000211D
:1022C00004F5306000EB45100160002104F530603A
:1022D00000EB45100161FF2104F5306000EB451073
:1022E00081606D1C0498A842D7D84FF40160005952
:1022F00020F480714FF401600151079801280BD13F
:1023000058494FF4036001510059574908434FF4AD
:1023100003610851084605590020A0616FF0804014
:102320006061079818B9A06940F01000A061A06929
:102330004E490843A0610A9818B1A06940F008000E
:10234000A0610D98012803D1A06949490843A06103
:10235000002030BC5DF814FB0146002040F6080266
:10236000525802F0060202B917E040F6080252582D
:1023700002F00602022A06D040F60802525802F085
:102380000602062A01D1032007E040F6080252584F
:1023900002F00602042A00D10220704710B502465E
:1023A000487801282BD140F61C0080580C78012376
:1023B000A3409BB2184340F61C039850087802F5DE
:1023C000106303EB4010006800F40040F0BB088984
:1023D000C0F30A00CB7840EA83400B7840EA835090
:1023E00040F0805040F4004002F5106404EB4313C9
:1023F0001B6818430B7804EB431318602CE040F67D
:102400001C0080580C780123A3401A4C04EA0343B3
:10241000184340F61C039850087802F5306303EB2C
:102420004010006800F4004080B90889C0F30A0039
:10243000CB7840EA834040F0805040F400400B7875
:1024400002F5306404EB43131B6800E004E018431A
:102450000B7804EB43131860002010BD400D0300FF
:10246000BFFFBDFF000180000300010000383C8079
:10247000040000400000FFFF10B502464878012824
:102480003DD1087802F5106303EB4010006800F4BA
:102490000040B0B90889C0F30A00CB7840EA834015
:1024A0000B7840EA835040F0805040F4004002F541
:1024B000106404EB43131B6818430B7804EB4313BD
:1024C00018600889C0F30A00CB7840EA83400B7893
:1024D00040EA835040F0805040F40040FE4B1B68BF
:1024E0001843FD4B186040F63C0080580C780123DF
:1024F000A3409BB2184340F63C03985044E0087850
:1025000002F5306303EB4010006800F4004070BB3C
:102510000889C0F30A00CB7840EA83400B7840EA90
:10252000835040F40043087802F5306404EB401017
:10253000006818430B7804EB431318602046E64B01
:1025400018600878234603EB4010E34B18600889B5
:10255000C0F30A00CB7840EA83400B7840EA83500E
:1025600040F40040DC4B1B681843DB4B186040F61E
:102570003C0080580C780123A340D84C04EA034364
:10258000184340F63C039850002010BD10B5024699
:102590004878012822D140F63C0080580C7801236D
:1025A000A3409BB2984340F63C03985040F61C0071
:1025B00080580C780123A3409BB2984340F61C033B
:1025C0009850087802F5106303EB4010006820F47F
:1025D0000044087803EB4010046026E040F63C001D
:1025E00080580C780123A340BC4C04EA0343984371
:1025F00040F63C03985040F61C0083580C780120AC
:10260000A040B64C04EA004023EA000040F61C0358
:102610009850087802F5306303EB4010006820F40E
:102620000044087803EB40100460002010BD10B592
:1026300002464878012817D1087802F5106303EBA9
:102640004010006820F40044087803EB4010046058
:1026500040F61C0083580C780120A04080B28343D0
:1026600040F61C00835018E0087802F5306303EB55
:102670004010006820F40044087803EB4010046028
:1026800040F61C0080580C780123A340934C04EAC8
:102690000343984340F61C039850002010BDF0B54A
:1026A0000446059E00270025A6B9D81C4FEAE07C09
:1026B00000EB9C7C4FEAAC0700BF09E0D1F800C0FA
:1026C00004F5805000EB0230C0F800C06D1C091DFD
:1026D000BD42F3D30020F0BDF8B505460C461646C2
:1026E0000027607801287DD1606918BB207805F546
:1026F000106101EB4010006979490840217805F527
:10270000106202EB411108612078114601EB401084
:10271000006940F40022207801EB4010026120782B
:1027200001EB40100069C20CD204207801EB40108C
:1027300002614FE0207805F5106101EB401000695F
:10274000C20CD204207801EB40100261207801EB2A
:102750004010006962490840217805F5106202EBDB
:1027600041110861A16860690844401EB0FBF1F0A6
:102770005B49C94301EAC040217802EB4111096974
:102780000843217802EB411108612078114601EBE2
:10279000401001696069C0F312000143207802EB28
:1027A00040100161E078012814D12078114601EB36
:1027B0004010006920F0C042207801EB4010026117
:1027C000207801EB4010006940F00052207801EBC6
:1027D00040100261012E09D1207805F5106101EB4E
:1027E000401000E04BE0226942610EE0E0780128F1
:1027F0000BD0606948B140F634004059227801217D
:102800009140084340F634014851E07801281ED138
:1028100040F60800405900F4807060B9207805F552
:10282000106101EB4010006840F00052207801EB8D
:10283000401002600BE0207805F5106101EB4010BC
:10284000006840F08052207801EB40100260207850
:1028500005F5106101EB4010006840F0044220785B
:1028600001EB40100260E078012807D10096A08AB1
:1028700083B222782846E168FFF711FF95E02078BF
:1028800005F5306101EB40100069C20CD2042078DC
:1028900001EB40100261207801EB40100169104803
:1028A0000140207805F5306202EB4010016160695B
:1028B000F8B92078114601EB40100069A168C1F316
:1028C00012010843217802EB41110861207811467A
:1028D00001EB4010006905E0040000200000FFFF4C
:1028E000FFFF07E040F40022207801EB4010026176
:1028F00024E0A16860690844401EB0FBF1F087B293
:10290000207805F5306101EB40100069F74901EAD4
:10291000C7410843217805F5306202EB4111086197
:102920002078114601EB40100169A0687843C0F39C
:1029300012000843217802EB41110861012E06D1F3
:10294000207805F5306101EB4010E2684261E078E3
:1029500001281ED140F60800405900F4807060B98B
:10296000207805F5306101EB4010006840F000521E
:10297000207801EB401002600BE0207805F5306113
:1029800001EB4010006840F08052207801EB4010CD
:102990000260207805F5306101EB4010006840F0DE
:1029A0000442207801EB401002600020F8BD30B5F1
:1029B0000346487801287CD1486920BB087803F594
:1029C000106404EB40100069C84CE44320400C78CC
:1029D00003F5106505EB4414206108782C4604EBE0
:1029E0004010006940F40025087804EB40100561B0
:1029F000087804EB40100069C50CED04087804EB7E
:102A00004010056138E0087803F5106404EB4010CD
:102A10000069C50CED04087804EB401005610878E6
:102A200004EB40100469B148C0430440087803F542
:102A3000106505EB401004618C684869A04201D91B
:102A400088684861087803F5106404EB4010006959
:102A500040F40025087804EB40100561087804EB89
:102A6000401004694869C0F312000443087803F574
:102A7000106505EB40100461012A07D1087803F5C1
:102A8000106404EB40100D6945610BE0486948B1E2
:102A900040F63400C0580D780124AC40204340F685
:102AA0003404E050087803F5106404EB401000682B
:102AB00000E006E040F00445087804EB40100560B3
:102AC0004BE0087803F5306404EB40100069C50C56
:102AD000ED04087804EB40100561087804EB401021
:102AE0000069824CE44320400C7803F5306505EB27
:102AF00044142061486908B188684861087803F582
:102B0000306404EB4010006940F40025087804EBC1
:102B100040100561087804EB401000698C68C4F32C
:102B2000120420430C7803F5306505EB4414206152
:102B3000012A06D1087803F5306404EB4010CD6813
:102B40004561087803F5306404EB4010006840F0FC
:102B50000445087804EB40100560002030BD70B5D6
:102B600003460024D01CC61700EB9676B51000BFB4
:102B700005E04FF48050C0580860641C091DAC4249
:102B8000F7D3084670BD10B50246487801281FD11A
:102B9000087802F5106303EB4010006800F0004075
:102BA00048B9087803EB4010006820F080440878AA
:102BB00003EB40100460087802F5106303EB40104B
:102BC000006840F40014087803EB401004601EE035
:102BD000087802F5306303EB4010006800F0004015
:102BE00048B9087803EB4010006820F0804408786A
:102BF00003EB40100460087802F5306303EB4010EB
:102C0000006840F40014087803EB401004600020D2
:102C100010BD10B50246487801281ED1087802F58B
:102C2000106303EB4010006820F40014087803EBF5
:102C300040100460C878032802D0C87802282AD13E
:102C4000087802F5106303EB4010006840F08054F0
:102C5000087803EB401004601DE0087802F530634B
:102C600003EB4010006820F40014087803EB4010D8
:102C70000460C878032802D0C87802280BD10878ED
:102C800002F5306303EB4010006840F08054087890
:102C900003EB40100460002010BD30B50446002551
:102CA0000BE0FF2104F5106000EB4510816004F596
:102CB000306000EB451081606D1C0F2DF1D34FF09B
:102CC000FF3140F61800015100214FF4016001511D
:102CD000001D015140F61C0001512046FFF745FA46
:102CE00010212046FFF754FA002030BD0000F81FE5
:102CF0000246D2F8000820F4FE60C2F80008D2F8BC
:102D000000084FF4FE6303EA01131843C2F80008F9
:102D10000020704710B5044640F60400005920F02A
:102D2000020140F604000151032000F01CFF0020C6
:102D300010BD10B5044640F60400005940F00201F1
:102D400040F604000151032000F00DFF002010BDEB
:102D50000146002048698A6910407047014640F6E4
:102D600018004258001D40580240100C70470146A0
:102D700040F618004258001D4058024090B270477B
:102D8000024602F5306303EB4113986840F61403E2
:102D90009B581840704730B502464FF40165AB5858
:102DA00040F63405AC5824FA01F505F0010543EA74
:102DB000C51302F5106505EB4115AD6805EA030082
:102DC00030BD42690A43426170470146486900F0DC
:102DD0000100704701464FF410604058C20AD20209
:102DE0004FF41060425040F60800405800F00600D2
:102DF000042807D14FF41060405840F003024FF40C
:102E00001060425040F60400405840F4807240F692
:102E1000040042500020704710B503460024C3F858
:102E2000104BD3F8100B40F40024C3F8104BD3F828
:102E3000100B40F01804C3F8104BD3F8100B40F0FF
:102E4000C044C3F8104B012906D1C3F8142B4FF02E
:102E500080244FF43060C450002010BD08B50246F5
:102E6000D2F840040090009820F02E0000900098C6
:102E700000F4805030B9012904D1009840F480500A
:102E8000C2F84004009800F48050B0F5805F05D18E
:102E900021B9009820F48050C2F84004002008BDF9
:102EA0000FB470B504460020C4F8000EA06B20F4E7
:102EB0008020A063A06B20F40020A063A06B40F4EE
:102EC0000010A0630798032809D1B4F1A04F06D0E1
:102ED000D4F8000440F00400C4F8000405E0D4F87D
:102EE000000420F00400C4F8000410212046FFF77D
:102EF0004FF92046FFF739F900250DE04FF0FF317B
:102F000004F5A06000EB45108160002104F5A0608D
:102F100000EB4510C1606D1C0698A842EED8012157
:102F20002046FFF79BFFC82000F01DFE0020A06197
:102F3000401E6061B4F1A04F07D180206062FC4860
:102F4000A062FC48C4F8000107E04FF40070606222
:102F5000F948A062F948C4F80001089818B9A069B6
:102F600040F01000A061A069F5490843A06100206D
:102F700070BC5DF814FB0246D2F8000420F0030098
:102F8000C2F80004D2F8000401F003031843C2F8A9
:102F90000004012905D14BF6803340F204408350F0
:102FA00006E0022904D141F2707340F204408350DC
:102FB0000020704738B50446D4F8400400900098CB
:102FC00020F02E000090009840F48070C4F8400477
:102FD0000A2000F0C8FD009820F48070C4F8400476
:102FE000002038BD08B50146D1F840040090009893
:102FF000C0F3414008BD01464FF48160405880B2A3
:1030000070472DE9F0410446DDE90757069E4FF071
:10301000FF3C04F5A06000EB4110C0F808C035B1DA
:10302000012D48D0022D03D0032D5DD12AE000BF31
:1030300040F29D4C04F5A06000EB4110C0F80CC0BC
:1030400002F0800068B104F5A06000EB4110C06898
:1030500040F4807C04F5A06000EB4110C0F80CC087
:103060000FE0B4F1A04F0CD004F5A06000EB4110CC
:10307000C06840F0600C04F5A06000EB4110C0F89F
:103080000CC031E040F29D6C04F5A06000EB4110F3
:10309000C0F80CC002F0800060B104F5A06000EB45
:1030A0004110C06840F4807C04F5A06000EB411042
:1030B000C0F80CC018E040F2252C04F5A06000EB2D
:1030C0004110C0F80CC002F0800060B104F5A060AF
:1030D00000EB4110C06840F4C07C04F5A06000EB38
:1030E0004110C0F80CC000BF00BF4FF4836000590E
:1030F0004FF0010C0CFA01FC40EA0C00C4F8180473
:10310000A06940F00070A0614FF0FE5000EA8350CB
:103110004FF4F04C0CEAC22C40EA0C00C2F3C01C85
:103120004FF4004808EACC3C40EA0C00022E02D1E1
:103130004FF0010C01E04FF0000C4FF4003808EAAA
:103140004C4C40EA0C004FF4402C0CEA854C40EA11
:103150000C00C7F30A0C40EA0C0004F5A06C0CEB61
:10316000411CCCF80000032D0CD104F5A06000EB4D
:103170004110006840F0005C04F5A06000EB4110D5
:10318000C0F800C00020BDE8F08130B5024601243F
:1031900000236C4800EAC44040F0004502F5A060FE
:1031A00000EB4110056102F5A06000EB41100368DF
:1031B00023F0804343F0004302F5A06000EB411090
:1031C0000360002030BD2DE9F84F05460C46164639
:1031D0004FF0000BDA4600274FF48078B946B5F17E
:1031E000A04F1CD02079D0B94EB96079012806D102
:1031F00061782846FFF7C9FF0020BDE8F88F012E4F
:103200000DD1607805F5A06101EB4010C06820F099
:103210006002607801EB4010C2600020607120699C
:1032200068B1218920690844401EB0FBF1F087B2E3
:10323000474505DD474620897843206100E00127A6
:10324000E07810B12089784320612069C0F3120032
:103250003C4901EAC7410843A17A4FF0C04202EA63
:1032600041710843617805F5A06202EB41110861E4
:1032700036B1607805F5A06101EB4010E26842616B
:103280004FF48160405900F0010080F0010B60783C
:1032900005F5A06101EB4010006820F00052607855
:1032A00001EB40100260607801EB4010006840EADA
:1032B0004B72607801EB40100260607801EB4010C7
:1032C000D0F8009029F0804949F00049607801EB7E
:1032D0004010C0F8009056BBE07840BB206930B386
:1032E000E07930B1012813D0022803D003282BD174
:1032F0000DE000BF2069C01CC0F38F0AE86A80B2ED
:10330000504503D2A86940F02000A8611DE000BF2D
:103310002069C01CC0F38F0A4FF48260405980B20C
:10332000504503D2A86940F08060A8610DE016E026
:1033300080006000E0004000000200010003E000A7
:10334000080020A30000F81F00BF00BF002000906D
:10335000208A83B262782846E168FFF7A0F900204E
:103360004BE7014640F21440405880B2704710B518
:103370000246002302F5A06000EB41100068002027
:1033800038B902F5A06000EB4110006800F400209D
:10339000C8B302F5A06000EB4110006840F0804423
:1033A00002F5A06000EB41100460D06A80B258BB07
:1033B00002F5A06000EB4110006820F0004402F527
:1033C000A06000EB4110046002F5A06000EB41102A
:1033D000006840F0004402F5A06000EB411004607A
:1033E00002F5A06000EB4110006820F4004402F5F3
:1033F000A06000EB4110046000BF581C0346B0F50C
:103400007A7F02D90BE018E00AE002F5A06000EB39
:103410004110006800F00040B0F1004FEDD060E0D6
:1034200002F5A06000EB4110006840F0004402F596
:10343000A06000EB4110046053E002F5A06000EBD7
:103440004110006840F0804402F5A06000EB41109C
:1034500004604FF48260805880B2A8BB02F5A0607F
:1034600000EB4110006820F0004402F5A06000EB82
:103470004110046002F5A06000EB4110006840F0CC
:10348000004402F5A06000EB4110046002F5A0606A
:1034900000EB4110006820F4004402F5A06000EB4E
:1034A0004110046000BF581C0346B0F57A7F00D974
:1034B00009E002F5A06000EB4110006800F0004058
:1034C000B0F1004FEFD00CE0FFE702F5A06000EB99
:1034D0004110006840F0004402F5A06000EB41108C
:1034E0000460002010BDF0B5054600272846FEF711
:1034F0001DFE10212846FEF74BFE2846FEF735FE3E
:10350000002411E005F5A06000EB4410066846F0C9
:10351000804626F0004626F4004605F5A06000EB44
:1035200044100660601CC4B20F2CEBDD002423E0C5
:1035300005F5A06000EB4410066846F0804646F0B2
:10354000004626F4004605F5A06000EB4410066036
:1035500000BF781C0746B0F57A7F00D909E005F571
:10356000A06000EB4410006800F00040B0F1004F94
:10357000EFD000BF601CC4B20F2CD9DD4FF0FF317B
:1035800040F214404151084668612846FEF7C7FDE5
:103590000020F0BD00B593B000BF2648006840F0A1
:1035A0008050244908600846006800F0805001906F
:1035B00000BF00BF00BF2048006840F440401E49E3
:1035C00008600846006800F44040019000BF00BF5A
:1035D000012002900390002005904FF48001099192
:1035E0000220089008210A914FF4C0710B91042128
:1035F0000C9107210D9102A8FEF712F810B10120DD
:1036000013B000BD02200F900020109007200E90F4
:103610000E9840F008000E904FF48050119000205A
:10362000129006210EA8FEF7FBF908B10120E7E78A
:103630000020E5E7403802400070004001464FF4AA
:103640000030081AC0F38F2070472DE9F04304467C
:103650000E461546DDE907892046FFF7EFFFC7B2A2
:10366000002243E001209040304000B93CE0B148E6
:1036700030F81700012191400843AE4921F81700A6
:10368000E0684FEA420C032101FA0CF18843510033
:1036900008FA01F10843E06020684FEA420C032178
:1036A00001FA0CF18843510005FA01F1084320604A
:1036B000012D01D0022D16D161680120904080B209
:1036C00021EA000003FA02F189B208436060A068B1
:1036D0004FEA420C032101FA0CF18843510009FA28
:1036E00001F10843A06000BF501CC2B2102AB9DB30
:1036F000BDE8F08300B502461046FFF79FFF0121A9
:1037000001FA00F08C49096808438B49086000BD44
:103710002DE9FC4305460C4616461F46DDE909899E
:103720000CB9BDE8FC832846FFF7E4FF3B46324670
:1037300021462846CDE90089FFF787FF00BFF0E763
:103740002DE9FC4705460E4617469846DDE90A9ADC
:103750000EB9BDE8FC872846FFF7CCFF00241AE02D
:103760000120A040304000B914E0E10805F120003C
:1037700050F821006107CA0E0F219140884361076C
:10378000C90E0AFA01F10843E20805F1200141F8E7
:10379000220000BF641C102CE2D33B4602223146BB
:1037A0002846CDE90089FFF750FF00BFD1E770B58B
:1037B00003460C461846FFF741FFC5B2002214E04D
:1037C00001209040204070B1186856000321B1409C
:1037D00008431860574830F815000121914088438C
:1037E000544921F81500501CC2B2102AE8DB70BD04
:1037F00030B5024600200BE0012383400B402BB183
:10380000136845000324AC40A3431360431CD8B2A3
:103810001028F1DB30BD30B5024600200FE0012357
:1038200083400B404BB1136845000324AC40A343D5
:1038300045000124AC4023431360431CD8B2102838
:10384000EDDB30BD30B5024600200BE001238340A4
:103850000B402BB1136845000324AC402343136095
:10386000431CD8B21028F1DB30BD30B50246002031
:1038700011E0012383400B4003B90AE013684500BF
:103880000324AC40A34345000224AC40234313600F
:1038900000BF431CD8B21028EBDB30BD70B5034627
:1038A000002011E0012484400C4004B90AE0DC68E7
:1038B00046000325B540AC43450002FA05F52C430C
:1038C000DC6000BF441CE0B21028EBDB70BD41F4AB
:1038D0008032C261C161C261C369C3697047014678
:1038E000002002E0421C90B249100129FADC704726
:1038F00000B502461046FFF7A1FE012181400E48A7
:10390000006888430C49086000BD00B502461046B7
:10391000FFF794FE074931F8100000BD00B50246DC
:103920001046FFF78BFE034931F81000C04380B208
:1039300000BD0000D00100203038024097480068E8
:1039400020F08070954A10601046006840F080704A
:1039500010609348006820F00100914A1060104602
:10396000006840F00100106000205060104641687F
:1039700000BF00BF8A484068401A70472DE9F047F1
:1039800005460E4617469846DDF820908548007893
:10399000052802DB0020BDE8F087142001F0CCFEF2
:1039A00004460CB90020F6E765606068A0602078E6
:1039B00066F300002070207867F341002070C4F89F
:1039C0000C80C4F81090774801780078401C754A44
:1039D0001070101D40F821402046DCE72DE9F04131
:1039E0000646002408E06F48001D50F82400B0424D
:1039F00000D105E0601CC4B26A480078A042F2DC45
:103A000000BF68480078A04201D1BDE8F081654858
:103A1000001D50F8247000BFEFF31080054672B609
:103A200008E06048001D611C50F8211040F8241087
:103A3000601CC4B25B480078401EA042F1DC5948CB
:103A40000078401E57490870384601F04DFE05B910
:103A500062B600BFD9E7017821F00201017070471A
:103A6000017821F00201891C017070474168816072
:103A7000704709B1012200E00022037862F30003DD
:103A80000370704741607047704710B54648006842
:103A9000401C454908604548006820B1434800681B
:103AA000401E42490860002453E03E48001D50F883
:103AB000240000284BD03B48001D50F8240000781B
:103AC000C0F34000F0B33748001D50F82400806870
:103AD00050B13448001D50F824008068401E314920
:103AE000091D51F8241088602E48001D50F824004C
:103AF000806838BB2B4B1B1D53F824301969294BA8
:103B00001B1D53F8240053F82430DA6890472548E9
:103B1000001D50F8240041682248001D50F8240080
:103B200081602048001D50F82400007800F001005A
:103B300040B91C48001D50F82400007820F0020114
:103B4000184800E003E0001D50F824000170601CDC
:103B5000C4B214480078A042A7DCFFF795FF10BD5F
:103B600011480068704700B5014600BFEFF30580BB
:103B700048B9FFF7F5FF024600BFFFF7F1FF801AD3
:103B80008842FAD309E006E04FF0E020006900F433
:103B9000803000B1491E0029F6D100BDFCED00E0E7
:103BA000001000E0EC0100200C00002008000020C4
:103BB0001CB5032000210B460122CDE900104FF473
:103BC00070411E48FFF7A4FD4FF070401B491831AB
:103BD00008601CBD1CB50020022103460246CDE949
:103BE000001001211648FFF793FD1CBD1448006921
:103BF00000F0010080F0010030B91248007830B9BF
:103C0000012010490870704700200E4908700020FC
:103C1000F9E70B48006900F0010080F0010038B1BD
:103C20000848007838B10020064908700120704724
:103C30000120044908700020F9E70000000C024050
:103C40000000024010000020002070471CB50A2030
:103C5000032100231A46CDE900104FF4D0511B4830
:103C6000FFF76EFD0A20032101231A46CDE900105B
:103C700099021648FFF764FD00BF1548006840F040
:103C800080001349086000BF11481030006840F4FC
:103C900080400F49103108600846006800F48040F9
:103CA000019000BF00BF00BF002206214320FCF7A7
:103CB00081FB4320FCF7BCFB00201CBD01207047AA
:103CC000704710B50348FCF7B7FF10BD0000024075
:103CD000343802406808002010B504460CB1022CAC
:103CE00002D1114800F08BFD002010BD10B5044634
:103CF0000CB1022C02D10C4800F088FD002010BD50
:103D000001460A4850F82100704700B5034618469E
:103D1000FFF7F6FF02462AB192F8FC01032801D111
:103D2000002000BD0120FCE7040200201400002058
:103D300010B504460CB1022C1AD10022B049B1488A
:103D400000F014FDB049AF4800F045FDAF49AD4863
:103D500001F070FB0023AE4A4FF48071AD4800F0D3
:103D6000A9F90023AC4A4FF48071AC4800F0A2F9E5
:103D7000002010BD2DE9F04105460DB1022D19D1ED
:103D80000020FFF7BDFF0646D6F81872D7F81402D8
:103D900078B94FF48072A249A04800F0E6F90446D1
:103DA0003CB122469E49304601F04BFB304601F0C3
:103DB00059FB00BFBDE8F0812DE9F04105460E46F4
:103DC000002705B9954F304601F016FC1FFA80F820
:103DD00042463146384600F0A2F9044614B128465E
:103DE000FFF7C8FF2046BDE8F0812DE9F041054608
:103DF0000E4617464FF000080DB9DFF820823A460C
:103E00003146404600F08BF9044614B12846FFF7CE
:103E1000B1FF2046BDE8F08173B50446002504B922
:103E20007E4D012201A9284600F079F920B12046F3
:103E3000FFF7A0FF01207CBD0020FCE770B5044621
:103E40000D46002604B9734E01222946304600F083
:103E50008CF908B1012070BD0020FCE72DE9F0418C
:103E600004460D461646002704B96A4F32462946D5
:103E7000384600F0D1F9BDE8F0812DE9F041044663
:103E80000D461646002704B9624F32462946384689
:103E900000F06BF9BDE8F08110B5024602B9614847
:103EA000D0B10B680468A3420BD14B798479A3424B
:103EB00007D18B794479A34203D10B790479A342CA
:103EC0000AD003680B6083794B7143798B71037956
:103ED0000B710123CB7101E00023CB7110BD70B5D4
:103EE00004460D461646207820B9324629464948F0
:103EF00000F015F970BD0246122008804A4870474C
:103F00000246042008804948704770B505460C46B3
:103F10002DB92246464947A001F0F6F804E02246B2
:103F200043494DA001F0F0F8414870BD70B5054619
:103F30000C4622463E4951A001F0E6F83C4870BDCF
:103F400030B50B46002100BF16E00A24B4EB107F09
:103F500005D9302404EB107403F8114005E0412426
:103F600004EB10740A3C03F81140000100254C00DA
:103F7000641C1D554C1CE1B29142E6DB30BD70B5AE
:103F800043480468001D0568001D0668344454B1A8
:103F9000082240492046FFF7D3FF04223D49103153
:103FA0002846FFF7CDFF70BD70B505460C461A20B8
:103FB0002080FFF7E4FF3748801E70BD70B50546CE
:103FC0000C462DB922461A4933A001F09DF804E0B1
:103FD0002246174930A001F097F8154870BD70B51A
:103FE00005460C462DB9224611492EA001F08CF849
:103FF00004E022460E492BA001F086F80C4870BD63
:1040000020000020040200209000002094010020E5
:10401000480500202805002048060020380500201B
:1040200048070020B40100203C0000205000002080
:104030002804002053544D33322056697274756140
:104040006C20436F6D506F727420696E204853204E
:104050004D6F64650000000053544D3332205669A3
:10406000727475616C20436F6D506F727420696E4D
:10407000204653204D6F64650000000053544D6985
:1040800063726F656C656374726F6E696373000051
:10409000107AFF1F5600002056435020436F6E6673
:1040A0006967000056435020496E7465726661630B
:1040B000650000002DE9F04104460D4616461F46F6
:1040C00000206080A080E08025802073A6600A2008
:1040D000607377B1284601F02FFBA060A06820B97B
:1040E000002020800120BDE8F081207B40F002000C
:1040F0002073207B40F0010020730020F3E710B50F
:10410000044604B910BD207B00F0020010B1A06885
:1041100001F0EAFA00202073208000BFF2E770B5BA
:1041200003460C460BB9002070BD002118E0D8886A
:104130001D88A84211DA58881D88A84201DB00209A
:10414000588014F8010B5E889D68A8555888401C5B
:104150005880D888401CD88000E003E0481C81B219
:104160009142E4DB00BF0846DEE730B503460C466B
:104170000BB9002030BD002117E0D888002811DDE0
:1041800098881D88A84201DB002098809D88986847
:10419000405D04F8010B9888401C9880D888401E28
:1041A000D88000E003E0481C81B29142E5DB00BF0B
:1041B0000846DFE7014609B9002070470888CA8829
:1041C000801A80B2F9E7014609B900207047C88813
:1041D000FCE700B97047002141808180C18000BFA9
:1041E000F8E710B502460C460AB9002010BDD38886
:1041F00091880DE01088884200D100219068405CD1
:10420000A04201D10120F1E7481C81B2581E83B2BF
:10421000002BEFDC0020E9E7F8B504460E46174610
:1042200000250CB90020F8BDE08858B10A212046CD
:10423000FFF7D7FF40B9E0882188884204D0E088A2
:10424000B84201DA0020EEE70EE00122694620467E
:10425000FFF78BFF9DF800007055705D617B884211
:1042600000D104E0681C85B2781EA842EDDC00BFD6
:104270000021681C80B2054631542846D3E700006F
:10428000FFF788F9FBF7B7FFFFF792FCFFF756FB44
:10429000FFF7DAFC0020FFF74BFD0120FFF748FD98
:1042A0000020FFF719FD0120FFF716FD2EE0022088
:1042B000FFF760FD0020FFF728FD20B94FF4805084
:1042C0001349086003E04FF080501149086011491C
:1042D0000020FFF7E1FD0F48C07918B10EA10020C2
:1042E000FFF76AFD13490020FFF7A8FD20B1114830
:1042F00001780020FFF790FD1E220F490120FFF7F3
:10430000ADFD18B10C490120FFF756FDCFE70000C5
:10431000180C024070000020555342204653207371
:10432000657474696E6773206368616E6765642184
:104330000A0000007800002048080020704700BFF5
:10434000FEE700BFFEE700BFFEE700BFFEE77047E5
:1043500070477047704710B5FFF797FB10BD00001E
:104360003F48006840F470003D4908603D480068DF
:1043700040F001003B49086000203A4908310860DC
:104380003848006838490840364908603748091DF0
:104390000860081F006820F48020091F08600020C2
:1043A00030490C3108604FF000602D4980390860B9
:1043B000704770B500200022022300240221294DFD
:1043C00008352D6805F00C0020B1042806D0082817
:1043D00034D107E0264D274E356033E0264D254E7B
:1043E00035602FE01F4D2D1D2D68C5F380541D4DE8
:1043F0002D1D2D6805F03F0154B11F4DB5FBF1F5A2
:10440000184E361D3668C6F3881605FB06F209E01D
:10441000174DB5FBF1F5134E361D3668C6F38816F9
:1044200005FB06F20F4D2D1D2D68C5F301456D1CD2
:104430006B00B2FBF3F50F4E356003E00C4D0D4EF3
:10444000356000BF00BF074D08352D68C5F3031563
:104450000A4E705D074D2D68C540064E356070BD33
:1044600088ED00E000380240FFFFF6FE1030002427
:104470000024F4007C00002000127A00B4570008E9
:1044800010B504462068B0F1A04F01D1FFF7DEFB64
:1044900010BD0168B1F1A04F14D100BFB149096846
:1044A00021F08001AF4A1160AE491031096821F452
:1044B0008041AC4A1032116000BF1146096821F4F6
:1044C00080411160704710B5044604F56071D4F85E
:1044D000B00300F0C7F910BD70B504460D46C5EB3A
:1044E000C50304F5EC7101EB8301CA682946D4F8D1
:1044F000B00300F0EEF970BD70B504460D46C5EB93
:10450000C50304F1340101EB8301CA682946D4F8DC
:10451000B00300F021FA70BD10B50446D4F8B00322
:1045200000F0BEFA10BD70B504460125E06810B178
:10453000022804D101E0002503E0012501E0012566
:1045400000BF00BFD4F8B00300F073FA2946D4F8D6
:10455000B00300F090FA70BD10B50446D4F8B00373
:1045600000F08DFA10BD10B50446D4F8B00300F089
:1045700090FA10BD70B504460D462946D4F8B00334
:1045800000F0A2FA70BD70B504460D462946D4F875
:10459000B00300F096FA70BD10B50446D4F8B0032D
:1045A00000F095FA10BD10B50446D4F8B00300F041
:1045B00091FA10BD10B50446207800282AD14FF09A
:1045C000A040694908600420486000216648C16233
:1045D00040214161002101610162022181610021CC
:1045E000C1610221C160002181624162C0F8B04313
:1045F000C4F82002FCF7D1F980215B48FCF7DBFF0F
:10460000402200215848FCF7ADFF80220121564886
:10461000FCF7A8FF002010BD10B50446D4F8200216
:10462000FCF77AFA002010BD10B50446D4F8200239
:10463000FCF785FA002010BD10B50446D4F820021E
:10464000FCF74DFA002010BD2DE9F04104460F465D
:1046500015461E462B4632463946D4F82002FCF752
:10466000CCFD0020BDE8F08170B504460D4629461A
:10467000D4F82002FCF707FE002070BD70B5044698
:104680000D462946D4F82002FCF728FF002070BD13
:1046900070B504460D462946D4F82002FCF7ADFE5D
:1046A000002070BD70B504460D462946D4F820029E
:1046B000FCF7E0FE002070BD10B50246D2F82032B3
:1046C00001F08000802809D101F07F00C0EBC00418
:1046D00003F1340000EB8400807810BD01F07F000E
:1046E000C0EBC00403F5EC7000EB84008078F4E7C5
:1046F00070B504460D462946D4F82002FCF764FD47
:10470000002070BD2DE9F04104460D4616461F46B7
:104710003B4632462946D4F82002FCF731FE002001
:10472000BDE8F0812DE9F04104460D4616461F46CE
:104730003B4632462946D4F82002FCF7D9FD00203A
:10474000BDE8F08170B504460D462946D4F8200234
:10475000FCF70AFE70BD10B504462046FFF703FAC9
:1047600010BD0000343802406808002070B50446CF
:104770000D46164654B9DEA000F084FFDEA000F01E
:1047800081FFE3A000F07EFF022070BDD4F8140288
:1047900010B10020C4F814020DB1C4F81052012069
:1047A00084F8FC0126702046FFF704FF0020ECE7A8
:1047B00010B50446012084F8FC012179D4F81402D4
:1047C0004268204690472046FFF736FF2046FFF715
:1047D00023FF002010BD70B505460C46002614B11D
:1047E000C5F8144209E0C2A000F04CFFC9A000F0D7
:1047F00049FFC7A000F046FF0226304670BD10B545
:1048000004462046FFF710FF002010BD10B50446F7
:104810002179D4F814024268204690472046FFF7D9
:104820000BFF002010BD01460020704770B5044604
:104830000D460226D4F8140238B1D4F814022946E1
:1048400002682046904700B90026304670BD70B51A
:1048500004460D46D4F81402294642682046904783
:10486000002070BD70B504460D46294604F502705F
:1048700000F02CFC0120C4F8F40140F20E20005B93
:10488000C4F8F80194F8080200F01F0020B10128D4
:1048900008D0022812D10BE004F50271204600F086
:1048A0000AFB13E004F50271204600F03DFB0DE029
:1048B00004F50271204600F05CFB07E094F8080262
:1048C00000F080012046FFF7E3FE00BF00BF00209C
:1048D00070BD2DE9F04105460E4617465EBB05F555
:1048E0008274D5F8F401032833D1D4E90201884257
:1048F00010D9D4E90201401AA060D4E9020188422B
:1049000001D2A06800E0E06882B23946284600F093
:1049100055FC1EE0D5F81402006940B195F8FC0181
:10492000032804D1D5F8140201692846884728468F
:1049300000F050FC0DE0D5F81402806948B195F8FC
:10494000FC01032805D1D5F81402314682692846B6
:1049500090470020BDE8F0812DE9F04104460E4665
:104960001746002E54D104F11405D4F8F40102289E
:1049700043D1D5E90201884210D9D5E90201401A94
:10498000A860288982B23946204600F0F7FB002350
:104990001A4619462046FFF7C5FE2EE0E96868680A
:1049A000B0FBF1F201FB1200B8B9E968686888420F
:1049B00013D36868D4F8F81188420ED20022114649
:1049C000204600F0DBFB0020C4F8F80100231A4663
:1049D00019462046FFF7A6FE0FE0D4F81402C0687F
:1049E00040B194F8FC01032804D1D4F81402C16842
:1049F00020468847204600F0FAFB94F80002012880
:104A000014D12046FFF70FFF002084F800020DE0CC
:104A1000D4F81402406948B194F8FC01032805D188
:104A2000D4F8140231464269204690470020BDE880
:104A3000F08110B504464023002211462046FFF7BE
:104A400003FE40214FF48870015140230022802151
:104A50002046FFF7F9FD40212162012084F8FC0186
:104A6000D4F8180228B12179D4F8140242682046FB
:104A70009047002010BD0246117400207047014687
:104A800091F8FC0181F8FD01042081F8FC0100206F
:104A90007047014691F8FD0181F8FC010020704744
:104AA00010B5044694F8FC01032808D1D4F8140288
:104AB000C06920B1D4F81402C1692046884700209B
:104AC00010BD024600207047024600207047014694
:104AD0000020704710B50446012084F8FC012179BC
:104AE000D4F81402426820469047002010BD000010
:104AF0004552524F523A2000496E76616C696420EB
:104B00004465766963652068616E646C65000000C9
:104B10000A000000496E76616C696420436C617321
:104B2000732068616E646C650000000070B5044617
:104B30000D4680212046FFF7ABFD00212046FFF700
:104B4000A7FD70BD70B504460D4694F8FC0102281F
:104B500002D0032811D100E000BF688801280BD1E2
:104B60000020C4F80402D4F81402294682682046C2
:104B70009047204600F02EFB04E029462046FFF730
:104B8000D5FF00BF00BF70BD70B504460D466888F4
:104B900001280AD1C4F80402D4F814022946826814
:104BA00020469047204600F015FB70BD70B50446C6
:104BB0000D4694F8FC01022802D0032811D100E030
:104BC00000BF0120E060D4F8040218B1E06840F0B2
:104BD0000200E060022204F10C01204600F0BDFA60
:104BE00004E029462046FFF7A1FF00BF00BF70BDCB
:104BF00070B504460D46E888012804D029462046B1
:104C0000FFF794FF1BE094F8FC01022802D0032870
:104C10000FD108E00020A060012204F10801204625
:104C200000F09BFA0AE00122211D204600F095FACF
:104C300004E029462046FFF779FF00BF00BF70BDA2
:104C400070B504460D46A878FD49087008460078FE
:104C5000012804DD29462046FFF768FF5BE094F851
:104C6000FC01022802D003284FD11CE0F448007850
:104C7000A8B1F34800786060032084F8FC01F04894
:104C800001782046FFF7D2FD022804D129462046AC
:104C9000FFF74CFF70BD204600F09CFA02E0204672
:104CA00000F098FA36E0E648007870B9022084F8FF
:104CB000FC01E34800786060E14801782046FFF796
:104CC000C6FD204600F086FA1EE0DD4909786068DE
:104CD000884216D021792046FFF7B9FDD8480078E0
:104CE0006060D74801782046FFF7A0FD022804D174
:104CF00029462046FFF71AFFCCE7204600F06AFA63
:104D000002E0204600F066FA04E029462046FFF75C
:104D10000DFF00BF00BF00BFBCE770B504460D46E5
:104D2000A888F8B9E888E8B9A87800F07F0694F870
:104D3000FC01032804D129462046FFF7F7FE15E0C1
:104D400084F8FE6131462046FFF7D2FC204600F091
:104D500041FA1EB1022084F8FC0107E0012084F82A
:104D6000FC0103E029462046FFF7E0FE70BDF8B5E0
:104D700004460E467088001208287FD2DFE800F053
:104D80007E040C207E7E5F6E207CD4F810120A68B0
:104D900069469047054676E0207C40B9D4F8140275
:104DA000816A6846884705460221697007E0D4F8A1
:104DB0001402C16A6846884705460221697062E0AC
:104DC000B078062834D2DFE800F0030B131B232B46
:104DD000207CD4F810124A686946904705462CE0BA
:104DE000207CD4F810128A6869469047054624E072
:104DF000207CD4F81012CA686946904705461CE02A
:104E0000207CD4F810120A6969469047054614E0E0
:104E1000207CD4F810124A696946904705460CE098
:104E2000207CD4F810128A6969469047054604E050
:104E300031462046FFF77AFEF8BD00BF23E0207C14
:104E400030B9D4F81402416B6846884705461AE029
:104E500031462046FFF76AFEEEE70FE0207C40B9BE
:104E6000D4F81402016B684688470546072169702B
:104E700009E031462046FFF759FEDDE7314620467E
:104E8000FFF754FED8E700BFBDF8000088B1F088F6
:104E900078B1F088BDF80010884202DDBDF800004E
:104EA00000E0F0880090BDF800202946204600F080
:104EB00054F900BFC0E770B505460C46002660787F
:104EC0000A2829D2DFE800F01923281E280A05281D
:104ED000140F21462846FFF74AFF22E021462846C4
:104EE000FFF71BFF1DE021462846FFF7A9FE18E04B
:104EF00021462846FFF77CFE13E021462846FFF7AF
:104F000055FE0EE021462846FFF73EFE09E0214609
:104F10002846FFF717FE04E021462846FFF706FE65
:104F200000BF00BF304670BD70B504460D46002678
:104F300094F8FC01032814D1287901280CDCD4F85A
:104F400014022946826820469047E88840B93EB955
:104F5000204600F03FF903E029462046FFF7E6FD32
:104F600004E029462046FFF7E1FD00BF00BF002016
:104F700070BD2DE9F04105460E464FF0000834792A
:104F8000307800F06000202808D1D5F814023146AE
:104F90008268284690470020BDE8F081707800289C
:104FA00057D001282AD003287CD195F8FC0102288B
:104FB00002D003281BD107E02CB1802C03D021465E
:104FC0002846FFF765FB17E0708830B92CB1802CBC
:104FD00003D021462846FFF75BFBD5F81402314683
:104FE000826828469047284600F0F4F804E03146ED
:104FF0002846FFF79BFD00BF00BF64E095F8FC0169
:10500000022802D003281DD107E02CB1802C03D048
:1050100021462846FFF73CFB19E0708878B904F078
:105020007F0048B121462846FFF73CFBD5F8140223
:105030003146826828469047284600F0CBF806E0C3
:105040008000002031462846FFF770FD00BF00BFFA
:1050500039E095F8FC01022802D003282BD107E0A3
:1050600004F07F0018B121462846FFF711FB27E026
:1050700004F08000802806D104F07F0105F11400BF
:1050800000EB011005E004F07F0105F5827000EBF4
:105090000110074621462846FFF70EFB18B10120F4
:1050A000386002E00EE000203860022239462846CF
:1050B00000F053F804E031462846FFF737FD00BF03
:1050C00000BF00E000BF00BF404665E70A780270FD
:1050D0004A7842708B78CA7803EB022242800B79BF
:1050E0004A7903EB022282808B79CA7903EB022290
:1050F000C28070470146002002E0421CD0B2491C29
:105100000A78002AF9D170472DE9F04104460D468E
:1051100017460026FCB12046FFF7ECFF022101EB09
:10512000400038803A783046711CCEB22A540322AF
:105130003046711CCEB22A540AE014F8012B3046D6
:10514000711CCEB22A5400223046711CCEB22A54B1
:1051500020780028F1D1BDE8F08170B504460E46F4
:1051600015460220C4F8F401A561E5612B463246DC
:1051700000212046FFF7C6FA002070BD70B5064634
:105180000C4615462B46224600213046FFF7BAFA58
:10519000002070BD70B504460E4615460320C4F8C5
:1051A000F4014FF484700551001D05512B46324621
:1051B00000212046FFF7B6FA002070BD70B5064604
:1051C0000C4615462B46224600213046FFF7AAFA28
:1051D000002070BD10B504460420C4F8F40100237B
:1051E0001A4619462046FFF78DFA002010BD10B56B
:1051F00004460520C4F8F40100231A461946204647
:10520000FFF790FA002010BD70B504460D46294600
:105210002046FFF797FA80B270BD00002DE9F041FB
:1052200004460F460026207C70B94FF4007302221A
:1052300081212046FFF708FA4FF400730222012172
:105240002046FFF701FA0BE040230222812120468D
:10525000FFF7FAF94023022201212046FFF7F4F973
:105260000823032282212046FFF7EEF94FF407704E
:1052700000F062FAC4F81802D4F8180208B901263E
:105280001CE0D4F81852D4F81C120868804700209B
:10529000C5F81402C5F81802207C40B94FF4007319
:1052A00001212046D5F80422FFF73CFA06E040230E
:1052B00001212046D5F80422FFF734FA3046BDE834
:1052C000F08170B504460E46002581212046FFF787
:1052D000CBF901212046FFF7C7F982212046FFF7CD
:1052E000C3F9D4F8180250B1D4F81C1248688047AA
:1052F000D4F8180200F0F8F90020C4F81802284683
:1053000070BD70B505460C46D5F81862207800F0DF
:10531000600040B3202835D1E088E0B1207800F06B
:10532000800060B1E2886078D5F81C128B68314645
:105330009847E28831462846FFF70FFF12E0607871
:1053400086F80002A07986F80102E28831462846F4
:10535000FFF720FF06E06078D5F81C1200228B686A
:10536000214698470FE060780A2802D00B2807D121
:1053700005E0012258492846FFF7EFFE00E000BF94
:1053800000BF00BF00BF00BF002070BD02460B463B
:10539000D2F81812D2F8180218B10020C1F814027D
:1053A00070470220FCE770B504460E46D4F8185248
:1053B00031462046FFF7C6F9C5F80C02D4F81802AA
:1053C00048B1D5F80402D4F81C12CA6805F5037177
:1053D0009047002070BD0220FCE770B50546D5F867
:1053E0001842D5F81C0278B194F80002FF280BD0BF
:1053F00094F8012294F80002D5F81C128B6821461B
:105400009847FF2084F80002002070BD0146432029
:105410000880324870470146432008803048704772
:105420000146432008802F48704701460A20088023
:105430002D4870470246022011B1C2F81C1200200C
:10544000704710B50346D3F81842C4F80812C4F8E0
:105450001022002010BD0246D2F81832C3F8041200
:105460000020704770B50546D5F81842D5F81802E7
:1054700090B1D4F8140268B90120C4F81402B4F849
:10548000100283B281212846D4F80822FFF73AF9A6
:10549000002070BD0120FCE70220FAE770B5044649
:1054A000D4F81852D4F8180298B1207C40B94FF4BF
:1054B000007301212046D5F80422FFF733F906E0F6
:1054C000402301212046D5F80422FFF72BF90020C4
:1054D00070BD0220FCE70000930100200C010020B9
:1054E000C8000020500100208400002010B50446B0
:1054F000207818B934492046FFF7ADFF002010BDD1
:1055000010B53248FFF7F2FF10BD0146002070478A
:1055100010B52E48FFF7F9FF10BD30B50446042939
:1055200015D007DC79B101290ED002290DD003294D
:1055300022D10BE020290BD0212912D0222919D009
:10554000232919D117E018E017E016E015E014E060
:1055500020781F4D05EBC000156805605568456053
:105560000BE020781A4D05EBC00005681560406817
:10557000506002E001E000E000BF00BF002030BD4D
:1055800070B504460D46164633462A4621460F4856
:10559000FFF7C3FF70BD70B505460E461446208860
:1055A00082B231462846FEF79AFC2846FFF776FF7E
:1055B000002070BD70B504460D462A4621460348BA
:1055C000FFF7E9FF70BD0000D00F002004020020AB
:1055D000B401002040EA01039B0703D009E008C999
:1055E000121F08C0042AFAD203E011F8013B00F8A8
:1055F000013B521EF9D27047421C10F8011B0029D2
:10560000FBD1801A70470000064C074D06E0E068A9
:1056100040F0010394E8070098471034AC42F6D3F9
:10562000FAF7BEFDC4570008E457000870B58C189F
:1056300010F8015B15F0070301D110F8013B2A11A6
:1056400006D110F8012B03E010F8016B01F8016B93
:105650005B1EF9D12B0705D40023521E0DD401F88F
:10566000013BFAE710F8013BCB1A921C03E013F858
:10567000015B01F8015B521EF9D5A142D8D300208D
:1056800070BD0000014A024900F013B8D556000869
:10569000C401002002E008C8121F08C1002AFAD184
:1056A00070477047002001E001C1121F002AFBD1A2
:1056B00070472DE9F04116460F460446002503E0E9
:1056C0003946B047641C6D1C20780028F8D1284664
:1056D000BDE8F08138B504468DF800006946032026
:1056E000ABBE204638BD000010B5002821D0114BBC
:1056F0000022001F196803E0814203D80A46496866
:105700000029F9D152B11368841A9C4204D100686F
:1057100018441060104602E0506000E0186039B193
:1057200002680B1A934203D10B681A44026049685D
:10573000416010BDC8010020F0B50B30154D20F0C0
:1057400007010024144A0FE003688B420BD38B42FD
:1057500005D95E1A43184768C3E9006700E043684B
:10576000136002C004E0021D10680028ECD120463E
:10577000002802D1286808B10020F0BD064A074879
:105780001060074A121A22F00702C0E90024012023
:105790002860D7E7CC010020C8010020D4100020E9
:1057A000D0120020000000000102030401020304E3
:1057B00006070809000000000000000001020304C1
:1057C00006070809E457000800000020D001000087
:1057D0002C560008B4580008D00100200015000025
:1057E000A45600080114130402822013F73E140883
:1057F000013F1B082D041A0B041AA9041ABD041A30
:10580000DF0413120132021640830440571E0201C6
:105810000203013C06270309041A035324F44B0A2C
:105820000648193F11131D521B08C30413035342AA
:10583000081ADB081A8D045AA710811317541B0885
:105840000D041A21041A2B041C090243831125C0DC
:105850003209041B01020B13052416100105240153
:10586000100901042402020524061701070582031A
:10587000081C100904B9320A1D070501027B2C0718
:10588000058107110937442A40072A8107112B098E
:1058900007440A2204440A16FF441301551B081149
:1058A000041A81041AB504011133C20119176908D9
:0458B000B100000043
:040000050800019955
:00000001FF
