:020000040800F2
:1000000040060020C101000889050008810500089C
:10001000850500082D0200084D13000800000000AF
:10002000000000000000000000000000C7050008FC
:100030003102000800000000C5050008C9050008DD
:10004000DB010008DB010008DB010008DB01000820
:10005000DB010008DB010008DB010008DB01000810
:10006000DB010008DB010008DB010008DB01000800
:10007000DB010008DB010008DB010008DB010008F0
:10008000DB010008DB010008DB010008DB010008E0
:10009000DB010008DB010008DB010008DB010008D0
:1000A000DB010008DB010008DB010008DB010008C0
:1000B000DB010008DB010008DB010008DB010008B0
:1000C000DB010008DB010008DB010008DB010008A0
:1000D000DB0100089D120008C9120008F512000893
:1000E000DB010008DB010008DB010008DB01000880
:1000F000DB010008DB010008DB010008DB01000870
:10010000DB010008DB010008DB010008DB0100085F
:10011000C90F0008F50F0008DB010008DB0100082B
:10012000DB010008DB010008DB010008DB0100083F
:10013000DB010008DB010008DB010008DB0100082F
:10014000DB010008DB010008DB010008DB0100081F
:10015000DB010008DB010008DB01000821130008B7
:10016000DB010008DB010008DB010008DB010008FF
:10017000DB010008DB010008DB01000800000000D3
:10018000DB010008DB010008211000084D10000809
:10019000DB010008DB010008DB010008DB010008CF
:1001A000DB010008DB010008DB010008DFF80CD0F0
:1001B00000F02AF8004800477113000840060020AC
:1001C0000648804706480047FEE7FEE7FEE7FEE7F1
:1001D000FEE7FEE7FEE7FEE7FEE7FEE7D1050008E3
:1001E000AD01000840EA01039B0703D009E008C9FC
:1001F000121F08C0042AFAD203E011F8013B00F8EC
:10020000013B521EF9D27047064C074D06E0E068EC
:1002100040F0010394E8070098471034AC42F6D34D
:10022000FFF7C8FF9C130008BC13000800BFFEE7DF
:100230007047000010B52E480068401C2C4908602B
:100240002C48006820B12B480068401E29490860EE
:10025000002444E0284850F8240000283DD02648D7
:1002600050F824000078C0F34000B0B3224850F8A2
:100270002400806840B1204850F824008068401E67
:100280001D4951F8241088601B4850F824008068EC
:1002900018BB194B53F824301969174B53F8240035
:1002A00053F82430DA689047134850F82400416826
:1002B000114850F8240081600F4850F8240000785D
:1002C00000F0010048B90C4850F82400007820F0F4
:1002D0000201094850F824000170601CC4B20648AD
:1002E000001F0078A042B5DC00F0FBF910BD000053
:1002F0000400002000000020EC00002000BF00F0FF
:100300001F0201219140034A430942F8231000BF14
:100310007047000080E200E000BF00F01F020121F2
:100320009140034A430942F8231000BF7047000080
:1003300080E100E000BF00F01F020121914042096E
:10034000920002F1E022C2F8001100BF70472DE9CF
:10035000F05F80460D461646002700F017F9074665
:1003600039462A46334601F00700C0F1070ABAF1C0
:10037000040F02D94FF0040A01E0C0F1070AD14688
:1003800000F1040ABAF1070F02D24FF0000A01E0AF
:10039000A0F1030AD4464FF0010A0AFA09FAAAF1B9
:1003A000010A0AEA020A0AFA0CFA4FF0010B0BFAE8
:1003B0000CFBABF1010B0BEA030B4AEA0B042146E1
:1003C000404600F0EBF8BDE8F09F000010B500F0EB
:1003D00045F80949096801F0F001F02292FAA2F209
:1003E000B2FA82F2D140054A515CC8400449086023
:1003F0000846006810BD0000083802408C13000851
:10040000C800002010B5FFF7E1FF0749096801F4B3
:10041000E0514FF4E05292FAA2F2B2FA82F2D140E5
:10042000024A515CC84010BD083802408C130008D5
:1004300010B5FFF7CBFF0749096801F460414FF49D
:10044000604292FAA2F2B2FA82F2D140024A515CC0
:10045000C84010BD083802408C13000870B5002158
:10046000002200230020274C246804F00C0424B14F
:10047000042C04D0082C41D103E0234840E0234859
:100480003EE0204C241F246804F03F011D4C241F33
:10049000246804F4800484B11C4CB4FBF1F5194CBD
:1004A000241F246847F6C076344096FAA6F6B6FABA
:1004B00086F6F44005FB04F20FE0134CB4FBF1F5B3
:1004C000104C241F246847F6C076344096FAA6F6EE
:1004D000B6FA86F6F44005FB04F20A4C241F2468A1
:1004E00004F440344FF4403595FAA5F5B5FA85F596
:1004F000EC40641C6300B2FBF3F001E0024800BF73
:1005000000BF70BD083802400024F40000127A00D9
:1005100010B504460CB9012010BDA06900B100E07F
:1005200000BF94F8390028B9002084F8380020462C
:1005300000F025F8022084F839002068C06820F413
:1005400000502168C860204600F096FD20680069D0
:1005500020F49040216808612068406920F02A005A
:10056000216848612068C06840F400502168C86074
:100570000020E063012084F839000020CCE77047B8
:1005800000BFFEE700BFFEE77047000002480068BA
:10059000C0F30220704700000CED00E010B5002809
:1005A00007DA0A07140E054A00F00F031B1FD45484
:1005B00003E00A07130E024A135410BD18ED00E0C1
:1005C00000E400E07047704710B5FFF733FE10BD40
:1005D0001448006840F4700012490860124800682E
:1005E00040F001001049086000200F490831086000
:1005F0000D4800680D4908400B4908600C48091D6A
:100600000860081F006820F48020091F086000208F
:1006100005490C3108604FF00060024980390860DC
:100620007047000088ED00E000380240FFFFF6FE52
:100630001030002430B5014609B9002030BD4A68A9
:100640008B689A4200D10C68934200D99C1A9A4256
:1006500002D9D51A0868441B601EEFE72DE9F04760
:100660000446894615464FF0000804B115B900202C
:10067000BDE8F087D4E90010884201D30020606013
:100680002046FFF7D7FF0746AF4203D20FB900203D
:10069000EEE73D46D4E90001461AAE4200D92E46A7
:1006A0006268E168881832464946FFF79BFDB0440E
:1006B000606830446060AD1B55B1002060606368C5
:1006C000E268D01809EB08012A46FFF78BFD656048
:1006D000D4E90010884201D30020606008EB0500D7
:1006E000C6E770470F48006820F080700D4A106020
:1006F0001046006840F0807010600B48006820F0E1
:100700000100094A10601046006840F001001060C6
:10071000002050601046416800BF00BF024840689A
:10072000401A7047FCED00E0001000E001464FF475
:100730000030081AC0F38F207047000000B5024651
:100740001046FFF7F3FF012101FA00F002490968A2
:1007500008430149086000BD303802402DE9F043EC
:1007600004460E461546DDE907892046FFF7DEFF01
:10077000C7B2002243E001209040304000B93CE085
:10078000214830F817000121914008431E4921F803
:100790001700E0684FEA420C032101FA0CF188438C
:1007A000510008FA01F10843E06020684FEA420C6A
:1007B000032101FA0CF18843510005FA01F10843C5
:1007C0002060012D01D0022D16D1616801209040DA
:1007D00080B221EA000003FA02F189B208436060A6
:1007E000A0684FEA420C032101FA0CF18843510042
:1007F00009FA01F10843A06000BF501CC2B2102AE0
:10080000B9DBBDE8F0830000CC0000202DE9FC47F7
:1008100005460E4617469846DDE90A9A0EB9BDE828
:10082000FC872846FFF78AFF00241AE00120A04039
:10083000304000B914E0E10805F1200050F8210033
:100840006107CA0E0F21914088436107C90E0AFA59
:1008500001F10843E20805F1200141F8220000BF40
:10086000641C102CE2D33B46022231462846CDE9D7
:100870000089FFF773FF00BFD1E700001CB50446F5
:1008800044B90820032101230022CDE900100B48C0
:10089000FFF7BCFF012C09D108200321012300220E
:1008A000CDE9001089020648FFF7B0FF032C03D101
:1008B0000821044800F086FB1CBD00000000024037
:1008C00000080240004C00401CB504469CB90820BA
:1008D000032101230022CDE9001041020948FFF75E
:1008E00095FF0820032101230022CDE900100421F7
:1008F0000548FFF78BFF032C03D10821034800F0C4
:1009000061FB1CBD00080240000C0240005000408A
:100910001CB504464CB90820032101230022CDE96F
:100920000010C9010A48FFF771FF012C09D1082006
:10093000032101230022CDE90010C0210548FFF763
:1009400065FF032C03D10821034800F03BFB1CBDCD
:100950000010024000140240007800401CB504461C
:1009600044B90820032101230022CDE900100548E5
:10097000FFF74CFF032C03D10821034800F022FBB2
:100980001CBD000000100240007C00401CB5044665
:100990004CB90720032101230022CDE900104902B0
:1009A0000A48FFF733FF012C09D107200321012357
:1009B0000022CDE90010C0210548FFF727FF032CD6
:1009C00003D10721034800F0FDFA1CBD00000240DE
:1009D00000040240001001401CB504464CB9072039
:1009E000032101230022CDE900100C210A48FFF762
:1009F0000DFF012C09D10720032101230022CDE99D
:100A0000001060210548FFF701FF032C03D10721E7
:100A1000034800F0D7FA1CBD00000240000C024061
:100A2000004400401CB504464CB9072003210123B3
:100A30000022CDE9001089021048FFF7E7FE012CE3
:100A400009D10720032101230022CDE900108902EA
:100A50000B48FFF7DBFE022C09D1072003210123FD
:100A60000022CDE9001009020648FFF7CFFE032C53
:100A700003D10721044800F0A5FA1CBD0004024080
:100A800000080240000C0240004800401CB504462B
:100A90004CB90820032101230022CDE90010C02118
:100AA0000B48FFF7B3FE012C0AD1082003210123D4
:100AB0000022CDE900104FF484410648FFF7A6FE5E
:100AC000032C03D10821044800F07CFA1CBD00006F
:100AD00000080240001802400014014038B50546E5
:100AE0000C461E48056000BF0068006800901B4867
:100AF00000684068009000BF00BF00BF1748006852
:100B000000680090154800684068009000BF00BF72
:100B100000BF1248006800680090104800684068F4
:100B2000009000BF00BF00BF0C4800680068009044
:100B30000A4800684068009000BF00BF00BF074837
:100B4000006800680090054800684068009000BF99
:100B500000BF2046FFF7D2FB38BD00000002002096
:100B60000146104A914200D100200F4A914200D123
:100B700001200E4A914200D102200D4A914200D13B
:100B800004200C4A914200D105200B4A914200D129
:100B900006200A4A914200D10720094A914200D119
:100BA0000820704700100140004400400048004009
:100BB000004C00400050004000140140007800400C
:100BC000007C00402DE9F04F91B004460D461646DA
:100BD0001F46DDE91BABDDF86890A64884421FD1B3
:100BE00000BFA548006840F01000A349086008460F
:100BF000006800F01000009000BF00BF9E48203841
:100C0000006840F010009C492039086008460068E0
:100C100020F0100008602846FFF7B8FE4FF02508C6
:100C20009648844221D100BF9348001F006840F4D9
:100C300000309149091F08600846006800F4003040
:100C4000009000BF00BF8C482438006840F400309A
:100C50008949243908600846006820F4003008609B
:100C60002846FFF7B9FE4FF026088548844221D177
:100C700000BF8148001F006840F480207E49091FA2
:100C800008600846006800F48020009000BF00BFA4
:100C900079482438006840F4802077492439086076
:100CA0000846006820F4802008602846FFF7BAFE56
:100CB0004FF027087348844221D100BF6E48001FBF
:100CC000006840F400206C49091F0860084600686D
:100CD00000F40020009000BF00BF6748243800687F
:100CE00040F400206449243908600846006820F474
:100CF000002008602846FFF7C1FD4FF03408624825
:100D0000844221D100BF5C48001F006840F480107D
:100D10005949091F08600846006800F480100090D7
:100D200000BF00BF54482438006840F48010524986
:100D3000243908600846006820F4801008602846BE
:100D4000FFF7C2FD4FF03508504884421FD100BF65
:100D50004948006840F0200047490860084600689C
:100D600000F02000009000BF00BF4348203800681A
:100D700040F020004049203908600846006820F013
:100D8000200008602846FFF781FE4FF047084048E2
:100D9000844221D100BF3848001F006840F08040E5
:100DA0003549091F08600846006800F0804000903F
:100DB00000BF00BF30482438006840F080402E4912
:100DC000243908600846006820F080400860284602
:100DD000FFF79EFD4FF052082E48844221D100BFFC
:100DE0002548001F006840F000402349091F0860A3
:100DF0000846006800F00040009000BF00BF1E4899
:100E00002438006840F000401B4924390860084637
:100E1000006820F0004008602846FFF79FFD4FF073
:100E20005308019402960797CDF81890CDF814A0B6
:100E3000CDF810B01D980390002108914046FFF7AF
:100E40006BFA2046FFF78CFE0246062100904046D2
:100E5000FFF77DFA4046FFF76DFA4046FFF74EFA7E
:100E600001A8FFF755FBE06840F02000E06011B0FA
:100E7000BDE8F08F001001404438024000440040BB
:100E800000480040004C0040005000400014014069
:100E900000780040007C004013B50446012201A9FF
:100EA0002046FFF7DBFB1CBD7FB504460D4616460A
:100EB0003C4884420BD100200C23CDE90030029045
:100EC00003463246294603902046FFF77BFE36480C
:100ED00084420BD100200C23CDE900300290034660
:100EE0003246294603902046FFF76CFE2F48844285
:100EF0000BD100200C23CDE900300290034632468E
:100F0000294603902046FFF75DFE294884420BD115
:100F100000200C23CDE900300290034632462946DA
:100F200003902046FFF74EFE224884420BD100205A
:100F30000C23CDE900300290034632462946039047
:100F40002046FFF73FFE1C4884420BD100200C23B3
:100F5000CDE90030029003463246294603902046F0
:100F6000FFF730FE154884420BD100200C23CDE959
:100F70000030029003463246294603902046FFF790
:100F800021FE0F4884420BD100200C23CDE9003014
:100F9000029003463246294603902046FFF712FE90
:100FA0007FBD0000001001400044004000480040A8
:100FB000004C004000500040001401400078004008
:100FC000007C00407047000010B50848006800F041
:100FD000200030B10548001D0068C1B20448FFF789
:100FE0005BFF34210148FFF779FD10BD004C004044
:100FF0005000002010B50848006800F0200028B11B
:1010000005484068C1B20548FFF746FF3521024850
:10101000FFF764FD10BD0000005000406800002094
:1010200010B50848006800F0200030B10548001DE8
:101030000068C1B20448FFF72FFF52210148FFF7B3
:101040004DFD10BD007800409800002010B5084804
:10105000006800F0200030B10548001D0068C1B2F2
:101060000448FFF719FF53210148FFF737FD10BD72
:10107000007C0040B00000202DE9F041044600252E
:101080002068056925F44055E0680543206805613E
:101090002068C56849F20C6085432169A06808434F
:1010A00061690843E169084305432068C560206819
:1010B000456925F44075A069054320684561E069EC
:1010C000B0F5004F72D173492068884203D072494D
:1010D0002068884234D1FFF7ABF900EBC00101EB87
:1010E000001061684900B0FBF1F06421B0FBF1F63B
:1010F000FFF79EF900EBC00101EB001061684900A9
:10110000B0FBF1F7FFF794F900EBC00101EB001021
:1011100061684900B0FBF1F06421B0FBF1F000EB35
:10112000C00101EB0010A7EB8000322101EB0010A1
:101130006421B0FBF1F066F31F1021688860A6E01F
:10114000FFF760F900EBC00101EB00106168490096
:10115000B0FBF1F06421B0FBF1F6FFF753F900EBBF
:10116000C00101EB001061684900B0FBF1F7FFF727
:1011700049F900EBC00101EB001061684900B0FBC8
:10118000F1F06421B0FBF1F000EBC00101EB0010C5
:10119000A7EB8000322101EB00106421B0FBF1F0DD
:1011A00066F31F102168886071E0FFE73949206805
:1011B000884203D038492068884234D1FFF738F993
:1011C00000EBC00101EB001061688900B0FBF1F099
:1011D0006421B0FBF1F6FFF72BF900EBC00101EB46
:1011E000001061688900B0FBF1F7FFF721F900EB0F
:1011F000C00101EB001061688900B0FBF1F06421CF
:10120000B0FBF1F000EBC00101EB0010A7EB800098
:10121000322101EB00106421B0FBF1F066F31F10E6
:101220002168886033E0FFF7EDF800EBC00101EBC7
:10123000001061688900B0FBF1F06421B0FBF1F6A9
:10124000FFF7E0F800EBC00101EB001061688900D6
:10125000B0FBF1F7FFF7D6F800EBC00101EB00108F
:1012600061688900B0FBF1F06421B0FBF1F000EBA4
:10127000C00101EB0010A7EB8000322101EB001050
:101280006421B0FBF1F066F31F1021688860BDE8AF
:10129000F0810000001001400014014010B5084822
:1012A000006800F0200028B105484068C1B2054838
:1012B000FFF7F2FD25210248FFF710FC10BD0000EA
:1012C000001001400800002010B50848006800F038
:1012D000200030B10548001D0068C1B20448FFF786
:1012E000DBFD26210148FFF7F9FB10BD004400405B
:1012F0002000002010B50848006800F0200030B140
:101300000548001D0068C1B20448FFF7C5FD27214C
:101310000148FFF7E3FB10BD004800403800002003
:1013200010B50848006800F0200030B10548001DE5
:101330000068C1B20448FFF7AFFD47210148FFF73D
:10134000CDFB10BD001401408000002000BFFEE76F
:1013500002E008C8121F08C1002AFAD1704770477E
:10136000002001E001C1121F002AFBD170470000DC
:10137000FFF72EF9FFF7B6F94FF46122002102487A
:10138000FFF792FD00BFFEE70044004000000000B0
:10139000010203040102030406070809BC13000844
:1013A00000000020CC000000501300088814000842
:1013B000CC0000207405000060130008000000004D
:1013C00000000000200000000000000000000000FD
:1013D00000010020000A00000000000020000000C2
:1013E000000000000000000020010020000A0000B2
:1013F00000000000200000000000000000000000CD
:1014000040010020000A0000000000002000000051
:10141000000000000000000060010020000A000041
:10142000000000002000000000000000000000009C
:1014300080010020000A00000000000020000000E1
:101440000000000000000000A0010020000A0000D1
:10145000000000002000000000000000000000006C
:10146000C0010020000A0000000000002000000071
:101470000000000000000000E0010020000A000061
:08148000000000000024F4004C
:04000005080001AD41
:00000001FF
