:020000040800F2
:10000000A02F0120DD010008B9000108BB00010894
:10001000BF000108C3000108C7000108000000007C
:10002000000000000000000000000000CB000108FC
:10003000CD00010800000000CF000108D300010836
:10004000F7010008F7010008F7010008F7010008B0
:10005000F7010008F7010008F7010008F7010008A0
:10006000F7010008F7010008F7010008F701000890
:10007000F7010008F7010008F7010008F701000880
:10008000F7010008F7010008F7010008F701000870
:10009000F7010008F7010008F7010008F701000860
:1000A000F7010008F7010008F7010008F701000850
:1000B000F7010008F7010008F7010008F701000840
:1000C000F7010008F7010008F7010008F701000830
:1000D000F7010008F7010008F7010008F701000820
:1000E000F7010008F7010008F7010008F701000810
:1000F000F7010008F7010008F7010008F701000800
:10010000F7010008F7010008F7010008F7010008EF
:10011000F7010008F7010008F7010008F7010008DF
:10012000F7010008F7010008F7010008F7010008CF
:10013000F7010008F7010008F7010008F7010008BF
:10014000F7010008F7010008F7010008C5DB000807
:10015000F7010008F7010008F7010008F70100089F
:10016000F7010008F7010008F7010008F70100088F
:10017000F7010008D5DB0008F701000800000000C7
:10018000F7010008F7010008F7010008F70100086F
:10019000F7010008F7010008F7010008F70100085F
:1001A000F7010008F7010008F7010008F70100084F
:1001B000F7010008F7010008F7010008F70100083F
:1001C000F7010008F7010008DFF80CD012F06EFE0E
:1001D0000048004729FE0008A02F0120064880475C
:1001E00006480047FEE7FEE7FEE7FEE7FEE7FEE71C
:1001F000FEE7FEE7FEE7FEE7DD000108C9010008B3
:10020000704770B504460AF06FFA4FF47A71B0FB8C
:10021000F1F5284600F05AF900222146501E00F060
:10022000DFF8002070BD10B55748006840F400703A
:1002300055490860032000F0C1F80F20FFF7E1FFE7
:1002400008F066FD002010BD704710B54FF0FF307C
:100250004E49086000200860401E091D086000200B
:100260000860401E49491039086000200860401E9F
:10027000091D086000200860401E091D086000205C
:10028000086008F046FD002010BD41480068401C91
:100290003F49086070473E480068704731B5002408
:1002A0000DF070FA044600BF0DF06CFA001B0099C7
:1002B0008842F9D338BD4FF0E020006920F00200F9
:1002C0004FF0E021086170474FF0E020006940F0F6
:1002D00002004FF0E021086170474FF001207047A5
:1002E0002C480068000C70472A480068C0F30B00D7
:1002F00070472848406840F0010026494860704730
:100300002448406820F00100224948607047214895
:10031000406840F002001F49486070471D4840682F
:1003200020F002001B49486070471A48406840F0BE
:1003300004001849486070471648406820F00400DF
:100340001449486070471448006840F001001249A1
:10035000086070471048006820F001000E490860EE
:1003600070470D482038006840F480600A49203901
:100370000860704708482038006820F4406006494B
:100380002039086070470000003C024020380240DD
:1003900000000120002004E02038014010B50028B2
:1003A00007DA0A07140EBF4A00F00F031B1FD454CC
:1003B00003E00A07130EBC4A135410BD00BF00F03F
:1003C0000702B84B0C3B19684FF6FF031940B74BB7
:1003D0000B4343EA0221B34B0C3B196000BF70474B
:1003E0002DE9F05F80460D461646002700F054F9CF
:1003F000074639462A46334601F00700C0F1070A8E
:10040000BAF1040F02D94FF0040A01E0C0F1070A63
:10041000D14600F1040ABAF1070F02D24FF0000AE8
:1004200001E0A0F1030AD4464FF0010A0AFA09FAE2
:10043000AAF1010A0AEA020A0AFA0CFA4FF0010BC1
:100440000BFA0CFBABF1010B0BEA030B4AEA0B04B2
:1004500021464046FFF7A2FFBDE8F09F00BF00F035
:100460001F02012191404209920002F1E022C2F8EC
:10047000001100BF704700BF00F01F020121914032
:100480008B4A430942F8231000BF704700BF00BFEA
:1004900000BF00BF00BFBFF34F8F00BF00BF00BF52
:1004A00080480C38006800F4E06080490843001D73
:1004B0007C490C39086000BF00BF00BFBFF34F8FFD
:1004C00000BF00BF00BF00E000BFFDE770B50446FD
:1004D0002546681EB0F1807F01D301200FE0681E21
:1004E0004FF0E02148610F214FF0FF30FFF756FF3A
:1004F00000204FF0E021886107200861002070BDD6
:100500004178684A803211600178F9B1121D416862
:100510001160017B0907C27A41EA0261827A41EAED
:10052000C241427B41EA8241827B41EA4241C27B35
:1005300041EA0241427A41EA0221027A41EA420159
:1005400002781143574A8832116005E00021554A6C
:1005500084321160121D1160704710B500F09CF8D4
:1005600010BD2DE9F04304462046002808DA4D4F1F
:1005700000F00F0CACF1040C17F80C703F0902E00E
:10058000494F3F5C3F093D460E4606F00700C0F16B
:100590000708B8F1040F02D94FF0040801E0C0F1D8
:1005A0000708C44600F10408B8F1070F02D24FF063
:1005B000000801E0A0F10308474625FA07F84FF0CC
:1005C000010909FA0CF9A9F1010908EA0908C2F8B8
:1005D00000804FF0010808FA07F8A8F1010808EABE
:1005E0000508C3F8008000BFBDE8F08300BF00F03D
:1005F0001F02012191402E4A8032430942F8231004
:1006000000BF704710B501460846294A80324309A9
:1006100052F8232000F01F040123A3401A400AB11E
:10062000012200E00022104610BD00BF00F01F02B2
:10063000012191401F4A430942F8231000BF70472F
:1006400010B5014608461B4A8032430952F8232060
:1006500000F01F040123A3401A400AB1012200E068
:100660000022104610BD042808D14FF0E02109698E
:1006700041F004014FF0E022116107E04FF0E0216A
:10068000096921F004014FF0E022116170477047C1
:1006900010B5FFF7FCFF10BD02480C380068C0F32E
:1006A0000220704718ED00E000E400E00000FA05C9
:1006B00080E100E080E200E030B50468246824F4C2
:1006C000802405682C60046863608468402C04D131
:1006D0000468A2600468E16003E00468A160046843
:1006E000E26030BD0146002209B901207047486A26
:1006F00000B100BF022081F8350008680268FA489E
:100700000240D1E901031843CB6818430B69184331
:100710004B6918438B691843CB6918430B6A18431C
:100720000243486A042803D1D1E90B03184302436A
:10073000086802600868426922F00702486A0243BA
:10074000486A042801D1886A02430868426100208F
:10075000C864012081F835000020C7E7014609B9C7
:100760000120704791F83500022801D10120F8E7F7
:100770000868006820F001000A68106000200A681C
:1007800010600A6850600A6890600A68D0600A6861
:10079000106121200A685061D44A086890425CD9EF
:1007A000D34A0868904201D1D24852E0CF4A483A31
:1007B0000868904201D1CF484BE0CD4A60320868CA
:1007C000904201D1CB4844E0C84A183208689042B0
:1007D00001D1C8483DE0C64A18320868904201D1AC
:1007E000801536E0C14A303A0868904201D1801540
:1007F0002FE0BF4A78320868904201D1801528E086
:10080000BA4A30320868904201D1801521E0B84AD6
:1008100030320868904202D14FF4802019E0B34A88
:10082000183A0868904202D14FF4802011E0B04A93
:1008300090320868904202D14FF4802009E0AB4A20
:1008400048320868904202D14FF4802001E04FF016
:100850008070A64A4C3A10601FE1A54AA832086889
:1008600090425CD9A24A0868904201D1A14852E066
:100870009E4A483A0868904201D19E484BE09C4A03
:1008800060320868904201D19A4844E0974A183291
:100890000868904201D197483DE0954A18320868AF
:1008A000904201D1801536E0904A303A0868904273
:1008B00001D180152FE08E4A78320868904201D12C
:1008C000801528E0894A30320868904201D18015AD
:1008D00021E0874A30320868904202D14FF48020EC
:1008E00019E0824A183A0868904202D14FF48020F9
:1008F00011E07F4A90320868904202D14FF4802084
:1009000009E07A4A48320868904202D14FF48020C8
:1009100001E04FF08070754A503A1060BDE0744AB3
:100920004832086890425CD9714A0868904201D107
:10093000704852E06D4A483A0868904201D16D48CB
:100940004BE06B4A60320868904201D1694844E04C
:10095000664A18320868904201D166483DE0644A10
:1009600018320868904201D1801536E05F4A303A6B
:100970000868904201D180152FE05D4A78320868FE
:10098000904201D1801528E0584A303208689042E0
:1009900001D1801521E0564A30320868904202D1D8
:1009A0004FF4802019E0514A183A0868904202D169
:1009B0004FF4802011E04E4A90320868904202D1F4
:1009C0004FF4802009E0494A48320868904202D139
:1009D0004FF4802001E04FF08070454A103AD0601B
:1009E0005BE0434A0868904201D1424852E03F4AE6
:1009F000483A0868904201D13E484BE03C4A603298
:100A00000868904201D13B4844E0384A18320868EF
:100A1000904201D137483DE0354A1832086890428B
:100A200001D1801536E0314A303A0868904201D150
:100A300080152FE02E4A78320868904201D1801547
:100A400028E02A4A30320868904201D1801521E01E
:100A5000274A30320868904202D14FF4802019E0D2
:100A6000224A183A0868904202D14FF4802011E0DF
:100A70001F4A90320868904202D14FF4802009E06A
:100A80001A4A48320868904202D14FF4802001E0AF
:100A90004FF08070164A103A9060144A08689042ED
:100AA00063D9134A0868904201D1202059E00F4AC7
:100AB000483A0868904201D1202052E00C4A603246
:100AC0000868904201D120204BE0084A183208689B
:100AD000904201D1202044E0054A18320868904233
:100AE0000AD1C0143DE000003F8010F0586402407D
:100AF0001060024004008000F84A0868904201D16A
:100B0000C0142EE0F64A0868904201D1C01428E0D3
:100B1000F24A60320868904201D1C01421E0F04AE4
:100B2000483A0868904202D14FF4001019E0EB4AAD
:100B300018320868904202D14FF4001011E0E84AE0
:100B400018320868904202D14FF4001009E0E34ADD
:100B500078320868904202D14FF4001001E04FF063
:100B60000060DE4A1C3A10601CE1DD4A3032086841
:100B700090425BD9DA4A783A0868904201D1202045
:100B800050E0D64A183A0868904201D1202049E046
:100B9000D34A183A0868904201D1202042E0CF4A57
:100BA00048320868904201D120203BE0CC4A603AAC
:100BB0000868904201D1C01434E0C84A08689042E5
:100BC00001D1C0142EE0C64A0868904201D1C01479
:100BD00028E0C24A60320868904201D1C01421E086
:100BE000BF4A483A0868904202D14FF4001019E019
:100BF000BA4A18320868904202D14FF4001011E04E
:100C0000B74A18320868904202D14FF4001009E048
:100C1000B24A78320868904202D14FF4001001E0E5
:100C20004FF00060AD4A203A1060BBE0AC4A303A69
:100C3000086890425BD9AA4A783A0868904201D184
:100C4000202050E0A54A183A0868904201D120209F
:100C500049E0A34A183A0868904201D1202042E0B6
:100C60009E4A48320868904201D120203BE09C4ACD
:100C7000603A0868904201D1C01434E0974A08688D
:100C8000904201D1C0142EE0954A0868904201D1EB
:100C9000C01428E0914A60320868904201D1C01423
:100CA00021E08F4A483A0868904202D14FF4001080
:100CB00019E08A4A18320868904202D14FF40010B5
:100CC00011E0874A18320868904202D14FF40010B0
:100CD00009E0824A78320868904202D14FF400104D
:100CE00001E04FF000607E4A883AD0605AE07C4ACA
:100CF000783A0868904201D1202050E0774A183AAB
:100D00000868904201D1202049E0754A183A0868E5
:100D1000904201D1202042E0704A48320868904257
:100D200001D120203BE06E4A603A0868904201D130
:100D3000C01434E0694A0868904201D1C0142EE022
:100D4000674A0868904201D1C01428E0634A6032C3
:100D50000868904201D1C01421E0614A483A08680D
:100D6000904202D14FF4001019E05C4A1832086832
:100D7000904202D14FF4001011E0594A183208682D
:100D8000904202D14FF4001009E0544A78320868CA
:100D9000904202D14FF4001001E04FF00060504A41
:100DA000883A90604D4A3032086890425BD94C4A8C
:100DB000783A0868904201D1082050E0474A183A32
:100DC0000868904201D1082049E0454A183A08686D
:100DD000904201D1082042E0404A483208689042DF
:100DE00001D108203BE03E4A603A0868904201D1B8
:100DF000401534E0394A0868904201D140152EE090
:100E0000374A0868904201D1401528E0334A6032E1
:100E10000868904201D1401521E0314A483A0868FB
:100E2000904202D14FF4002019E02C4A1832086891
:100E3000904202D14FF4002011E0294A183208688C
:100E4000904202D14FF4002009E0244A7832086829
:100E5000904202D14FF4002001E04FF000701F4A91
:100E60001C3A10601EE11E4A3032086890425DD97B
:100E70001B4A783A0868904201D1082052E0174A8C
:100E8000183A0868904201D108204BE0144A183AF9
:100E90000868904201D1082044E0104A48320868AE
:100EA000904201D108203DE00D4A603A0868904226
:100EB00001D1401536E0094A0868904201D1401539
:100EC00030E0074A0868904201D140152AE0034A01
:100ED00060320868904205D1401523E02864024042
:100EE00088600240FA4A0868904202D14FF400201C
:100EF00018E0F84A0868904202D14FF4002011E04F
:100F0000F34A60320868904202D14FF4002009E0B1
:100F1000F04A60320868904202D14FF4002001E0AC
:100F20004FF00070EB4A383A1060BBE0E84A1832E4
:100F3000086890425BD9E64A303A0868904201D18D
:100F4000082050E0E34A303A0868904201D1082076
:100F500049E0DF4A30320868904201D1082042E07F
:100F6000DC4A30320868904201D108203BE0D84A80
:100F7000183A0868904201D1401534E0D54A183A31
:100F80000868904201D140152DE0D14A48320868E6
:100F9000904201D1401526E0CE4A4832086890427E
:100FA00001D140151FE0CA4A0868904202D14FF4AF
:100FB000002018E0C74A0868904202D14FF4002090
:100FC00011E0C34A60320868904202D14FF4002019
:100FD00009E0C04A60320868904202D14FF4002014
:100FE00001E04FF00070BA4A403AD0605AE0B84A87
:100FF000303A0868904201D1082050E0B54A303AB2
:101000000868904201D1082049E0B14A30320868AE
:10101000904201D1082042E0AE4A30320868904246
:1010200001D108203BE0AA4A183A0868904201D151
:10103000401534E0A74A183A0868904201D140159B
:101040002DE0A34A48320868904201D1401526E0BD
:10105000A04A48320868904201D140151FE09C4ADE
:101060000868904202D14FF4002018E0994A0868BD
:10107000904202D14FF4002011E0954A6032086896
:10108000904202D14FF4002009E0924A6032086891
:10109000904202D14FF4002001E04FF000708C4AE2
:1010A000403A90608B4A1832086890425BD9884A6F
:1010B000303A0868904201D1874850E0854A303A7A
:1010C0000868904201D1844849E0814A303208687A
:1010D000904201D1804842E07E4A30320868904216
:1010E00001D17D483BE07A4A183A0868904201D124
:1010F000402034E0774A183A0868904201D14020F5
:101100002DE0734A48320868904201D1402026E021
:10111000704A48320868904201D140201FE06C4A72
:101120000868904202D14FF4803018E0694A08689C
:10113000904202D14FF4803011E0654A6032086875
:10114000904202D14FF4803009E0624A6032086870
:10115000904202D14FF4803001E04FF480005D4AAC
:10116000343A106021E15A4A7832086890425BD9DB
:10117000574A303A0868904201D1574850E0554AE2
:10118000303A0868904201D1534849E0504A303221
:101190000868904201D1504842E04E4A3032086817
:1011A000904201D14C483BE0494A183A08689042C5
:1011B00001D1402034E0474A183A0868904201D1F2
:1011C00040202DE0424A48320868904201D1402038
:1011D00026E0404A48320868904201D140201FE092
:1011E0003B4A0868904202D14FF4803018E0394AF7
:1011F0000868904202D14FF4803011E0344A6032E6
:101200000868904202D14FF4803009E0314A6032E0
:101210000868904202D14FF4803001E04FF4800022
:101220002C4A383A1060C0E0294A183208689042C7
:1012300060D9274A303A0868904201D1264856E0E2
:10124000244A303A0868904201D123484FE0204AAE
:1012500030320868904201D11F4848E01D4A3032C0
:101260000868904201D11C4841E0194A183A0868C0
:10127000904201D140203AE0164A183A086890425C
:1012800001D1402033E0124A48320868904201D12F
:1012900040202CE00F4A48320868904201D140209B
:1012A00025E00B4A0868904202D14FF480301EE0DE
:1012B000084A0868904202D14FF4803017E0044A8F
:1012C00060320868904209D14FF480300FE000008E
:1012D000406002404064024001008000F84A086813
:1012E000904202D14FF4803001E04FF48000F54A83
:1012F000D0605AE0F34A10320868904201D1F248B7
:1013000051E0EF4A903A0868904201D1EE484AE035
:10131000EC4A70320868904201D1EB4843E0E84A59
:10132000303A0868904201D1E7483CE0E54A28326B
:101330000868904201D1402035E0E14A783A0868D7
:10134000904201D140202EE0DE4A88320868904267
:1013500001D1402027E0DA4A183A0868904201D1CA
:10136000402020E0D74A40320868904202D14FF432
:10137000803018E0D24A603A0868904202D14FF4B7
:10138000803010E0CF4AA0320868904202D14FF47A
:10139000803008E0CA4A0868904202D14FF4803099
:1013A00001E04FF48000C74A9060C54A483A086897
:1013B00090425CD9C34A10320868904201D1102093
:1013C00051E0BF4A903A0868904201D110204AE0AB
:1013D000BC4A70320868904201D1102043E0B84AFC
:1013E000303A0868904201D110203CE0B54A2832DA
:1013F0000868904201D1001535E0B14A783A086892
:10140000904201D100152EE0AE4A88320868904221
:1014100001D1001527E0AA4A183A0868904201D184
:10142000001520E0A74A40320868904202D14FF4EC
:10143000801018E0A24A603A0868904202D14FF446
:10144000801010E09F4AA0320868904202D14FF409
:10145000801008E09A4A0868904202D14FF4801048
:1014600001E04FF08060964A943A10601DE1954A81
:10147000B832086890425CD9924A103208689042AB
:1014800001D1102051E08E4A903A0868904201D173
:1014900010204AE08B4A70320868904201D1102037
:1014A00043E0874A303A0868904201D110203CE07E
:1014B000844A28320868904201D1001535E0804AFC
:1014C000783A0868904201D100152EE07D4A8832B2
:1014D0000868904201D1001527E0794A183A086857
:1014E000904201D1001520E0764A403208689042CF
:1014F00002D14FF4801018E0714A603A08689042B7
:1015000002D14FF4801010E06E4AA0320868904279
:1015100002D14FF4801008E0694A0868904202D175
:101520004FF4801001E04FF08060654A983A1060F7
:10153000BBE0644A5832086890425BD9614A103275
:101540000868904201D1102051E05D4A903A086845
:10155000904201D110204AE05A4A70320868904205
:1015600001D1102043E0564A303A0868904201D138
:1015700010203CE0534A28320868904201D10015FF
:1015800035E04F4A783A0868904201D100152EE0C4
:101590004C4A88320868904201D1001527E0484A39
:1015A000183A0868904201D1001520E0454A4032BF
:1015B0000868904202D14FF4801018E0404A603A27
:1015C0000868904202D14FF4801010E03D4AA032EA
:1015D0000868904202D14FF4801008E0384A086849
:1015E000904202D14FF4801001E04FF08060354A04
:1015F000D0605AE0334A10320868904201D110207E
:1016000051E02F4A903A0868904201D110204AE0F8
:101610002C4A70320868904201D1102043E0284AD9
:10162000303A0868904201D110203CE0254A283227
:101630000868904201D1001535E0214A783A0868DF
:10164000904201D100152EE01E4A8832086890426F
:1016500001D1001527E01A4A183A0868904201D1D2
:10166000001520E0174A40320868904202D14FF43A
:10167000801018E0124A603A0868904202D14FF494
:10168000801010E00F4AA0320868904202D14FF457
:10169000801008E00A4A0868904202D14FF4801096
:1016A00001E04FF08060074A90600020C86481F834
:1016B000350000BF81F8340000BF00BFFFF751B80C
:1016C000A064024000600240010080002DE9F0416A
:1016D00004460D4616461F4600BF94F83400012804
:1016E00002D10220BDE8F081012084F8340000BF5F
:1016F000022084F835002068006820F0010021688D
:1017000008603B46324629462046FEF7D5FF206852
:10171000006840F00100216808600020E2E72DE940
:10172000F04104460D4616461F4600BF94F83400AB
:10173000012802D10220BDE8F081012084F83400A4
:1017400000BF022084F835002068006820F0010006
:10175000216808603B46324629462046FEF7ACFF2A
:101760002068006840F01000216808602068006868
:1017700040F00800216808602068006840F004001C
:10178000216808602068406940F080002168486155
:101790002068006840F00200216808602068006846
:1017A00040F00100216808600020C4E770B50446DD
:1017B00000252068006820F00100216808600BF017
:1017C000E1FF054612E00BF0DDFF401BB0F57A7F2C
:1017D0000CD9E06C40F02000E06400BF002084F8E9
:1017E000340000BF032084F8350070BD2068006815
:1017F00000F001000028E6D100BF84F8340000BFEB
:10180000012084F835000020EFE72DE9F05F044661
:101810000F4615464FF0000B002F59D1F9492068AB
:10182000884201D1202051E0F7492068884201D147
:1018300020204BE0F34960312068884201D120200C
:1018400044E0F14960312068884201D120203DE028
:10185000EC4918312068884201D1C01436E0EA49C9
:1018600018312068884201D1C0142FE0E549783151
:101870002068884201D1C01428E0E349783120680B
:10188000884201D1C01421E0DE493031206888420D
:1018900002D14FF4001019E0DB4930312068884252
:1018A00002D14FF4001011E0D649903120688842EF
:1018B00002D14FF4001009E0D349903120688842EA
:1018C00002D14FF4001001E04FF00060064658E0EE
:1018D000CC492068884201D1102051E0CA492068D3
:1018E000884201D110204BE0C6496031206888420F
:1018F00001D1102044E0C44960312068884201D100
:1019000010203DE0BF4918312068884201D1001500
:1019100036E0BD4918312068884201D100152FE01A
:10192000B84978312068884201D1001528E0B649CD
:1019300078312068884201D1001521E0B149303169
:101940002068884202D14FF4801019E0AE4930314E
:101950002068884202D14FF4801011E0A9499031EB
:101960002068884202D14FF4801009E0A6499031E6
:101970002068884202D14FF4801001E04FF080606F
:1019800006460BF0FFFE834601F071B99E494831CF
:10199000206888425CD99C480C380068994A2168C4
:1019A000914201D1082151E0974A2168914201D129
:1019B00008214BE0934A60322168914201D108210D
:1019C00044E0914A60322168914201D108213DE012
:1019D0008C4A18322168914201D1491536E08A4A71
:1019E00018322168914201D149152FE0854A783299
:1019F0002168914201D1491528E0834A7832216853
:101A0000914201D1491521E07E4A3032216891424C
:101A100002D14FF4002119E07B4A30322168914213
:101A200002D14FF4002111E0764A903221689142B0
:101A300002D14FF4002109E0734A903221689142AB
:101A400002D14FF4002101E04FF00071084021E184
:101A50006C49A831206888425CD96B48103800680E
:101A6000684A2168914201D1082151E0664A216803
:101A7000914201D108214BE0624A603221689142D3
:101A800001D1082144E0604A60322168914201D1CD
:101A900008213DE05B4A18322168914201D1491585
:101AA00036E0594A18322168914201D149152FE098
:101AB000544A78322168914201D1491528E0524AAE
:101AC00078322168914201D1491521E04D4A3032E6
:101AD0002168914202D14FF4002119E04A4A303284
:101AE0002168914202D14FF4002111E0454A903221
:101AF0002168914202D14FF4002109E0424A90321C
:101B00002168914202D14FF4002101E04FF00071B1
:101B10000840BFE03B494831206888425CD93948D9
:101B200010384068374A2168914201D1082151E0BC
:101B3000354A2168914201D108214BE0314A603297
:101B40002168914201D1082144E02F4A6032216886
:101B5000914201D108213DE02A4A18322168914280
:101B600001D1491536E0284A18322168914201D145
:101B700049152FE0234A78322168914201D1491555
:101B800028E0214A78322168914201D1491521E0AB
:101B90001C4A30322168914202D14FF4002119E0F1
:101BA000194A30322168914202D14FF4002111E0EC
:101BB000144A90322168914202D14FF4002109E089
:101BC000114A90322168914202D14FF4002101E084
:101BD0004FF0007108405DE00A4810380068094A7B
:101BE0002168914201D1082153E0074A21689142BE
:101BF00001D108214DE0034A60322168914205D1AC
:101C0000082146E01060024010640240F74A216853
:101C1000914201D108213CE0F54A2168914201D16D
:101C2000491536E0F14A483A2168914201D14915F7
:101C30002FE0EF4A60322168914201D1491528E036
:101C4000EA4A18322168914201D1491521E0E84A57
:101C500018322168914202D14FF4002119E0E34A81
:101C6000303A2168914202D14FF4002111E0E04A5C
:101C700078322168914202D14FF4002109E0DB4A19
:101C800030322168914202D14FF4002101E04FF03F
:101C9000007108408046D5491839206888425CD9CF
:101CA000D2486C380068D24A183A2168914201D172
:101CB000D04950E0CD4A603A2168914201D1CD49E6
:101CC00049E0CB4A48322168914201D1C94942E0FA
:101CD000C64A2168914201D1C6493CE0C44A216804
:101CE000914201D1402136E0C04A483A21689142F0
:101CF00001D140212FE0BE4A60322168914201D1DA
:101D0000402128E0B94A18322168914201D140218E
:101D100021E0B74A18322168914202D14FF4803154
:101D200019E0B24A303A2168914202D14FF4803131
:101D300011E0AF4A78322168914202D14FF48031EC
:101D400009E0AA4A30322168914202D14FF4803131
:101D500001E04FF4800108401FE1A549903120685F
:101D600088425CD9A14870380068A14A183A2168B5
:101D7000914201D19F4950E09C4A603A21689142CA
:101D800001D19C4949E09A4A48322168914201D1E7
:101D9000984942E0954A2168914201D195493CE039
:101DA000934A2168914201D1402136E08F4A483A56
:101DB0002168914201D140212FE08D4A6032216893
:101DC000914201D1402128E0884A1832216891428D
:101DD00001D1402121E0864A18322168914202D186
:101DE0004FF4803119E0814A303A2168914202D1A2
:101DF0004FF4803111E07E4A78322168914202D15D
:101E00004FF4803109E0794A30322168914202D1A1
:101E10004FF4803101E04FF480010840BDE0744987
:101E20003031206888425CD9714828384068704A4F
:101E3000183A2168914201D16E4950E06B4A603AEC
:101E40002168914201D16B4949E0694A48322168D1
:101E5000914201D1674942E0644A2168914201D12F
:101E600064493CE0624A2168914201D1402136E058
:101E70005E4A483A2168914201D140212FE05C4AF4
:101E800060322168914201D1402128E0574A18323E
:101E90002168914201D1402121E0554A1832216840
:101EA000914202D14FF4803119E0504A303A216812
:101EB000914202D14FF4803111E04D4A78322168CD
:101EC000914202D14FF4803109E0484A3032216812
:101ED000914202D14FF4803101E04FF4800108407B
:101EE0005BE0434828380068414A183A216891422B
:101EF00001D1404950E03D4A603A2168914201D108
:101F00003C4949E03A4A48322168914201D1394975
:101F100042E0364A2168914201D136493CE0344AD8
:101F20002168914201D1402136E0304A483A216887
:101F3000914201D140212FE02D4A60322168914227
:101F400001D1402128E0294A18322168914201D16B
:101F5000402121E0264A18322168914202D14FF4F3
:101F6000803119E0214A303A2168914202D14FF480
:101F7000803111E01E4A78322168914202D14FF43B
:101F8000803109E0194A30322168914202D14FF480
:101F9000803101E04FF4800108408146134918392F
:101FA0002068884266D911486C380068104A183A8F
:101FB0002168914202D10F49C91C59E00B4A603A8D
:101FC0002168914202D10B49C91C51E0084A4832AC
:101FD0002168914202D10749C91C49E0034A21689E
:101FE000914209D10349C91C42E0000070640240DB
:101FF0002860024001008000F84A2168914201D126
:10200000891535E0F64A2168914201D189152FE002
:10201000F24A60322168914201D1891528E0F04AE4
:1020200060322168914201D1891521E0EB4A1832D2
:102030002168914202D14FF4802119E0E84A183218
:102040002168914202D14FF4802111E0E34A7832B5
:102050002168914202D14FF4802109E0E04A7832B0
:102060002168914202D14FF4802101E04FF080714C
:1020700008401FE1D9499031206888425CD9D8488E
:1020800028380068D54A183A2168914201D1D549CB
:1020900050E0D34A183A2168914201D1D14949E030
:1020A000CE4A48322168914201D1CE4942E0CC4A21
:1020B00048322168914201D1CA493BE0C74A2168B0
:1020C000914201D1891535E0C54A2168914201D17B
:1020D00089152FE0C14A60322168914201D18915EA
:1020E00028E0BF4A60322168914201D1891521E080
:1020F000BA4A18322168914202D14FF4802119E086
:10210000B74A18322168914202D14FF4802111E080
:10211000B24A78322168914202D14FF4802109E01D
:10212000AF4A78322168914202D14FF4802101E018
:102130004FF080710840BDE0A849303120688842E6
:102140005CD9A64828384068A44A183A21689142C8
:1021500001D1A44950E0A24A183A2168914201D124
:10216000A04949E09D4A48322168914201D19D49E8
:1021700042E09B4A48322168914201D199493BE0B3
:10218000964A2168914201D1891535E0944A216827
:10219000914201D189152FE0904A60322168914225
:1021A00001D1891528E08E4A60322168914201D11F
:1021B000891521E0894A18322168914202D14FF4F1
:1021C000802119E0864A18322168914202D14FF4E9
:1021D000802111E0814A78322168914202D14FF486
:1021E000802109E07E4A78322168914202D14FF481
:1021F000802101E04FF0807108405BE0774828388B
:102200000068764A183A2168914201D1754950E038
:10221000734A183A2168914201D1724949E06F4AE4
:1022200048322168914201D16E4942E06C4A4832FD
:102230002168914201D16B493BE0684A2168914293
:1022400001D1891535E0664A2168914201D189158D
:102250002FE0624A60322168914201D1891528E05D
:102260005F4A60322168914201D1891521E05B4AC1
:1022700018322168914202D14FF4802119E0584A66
:1022800018322168914202D14FF4802111E0534A63
:1022900078322168914202D14FF4802109E0504AFE
:1022A00078322168914202D14FF4802101E04FF051
:1022B000807108408246B8F1000F05D1B9F1000FD6
:1022C00002D1BAF1000F73D0B8F1000F63D0E06C07
:1022D00040F00100E06442493031206888425BD917
:1022E0003E4918392068884201D1082050E03C4915
:1022F00018392068884201D1082049E0374948311F
:102300002068884201D1082042E0354948312068E0
:10231000884201D108203BE030492068884201D141
:10232000401535E02E492068884201D140152FE044
:102330002A4960312068884201D1401528E02849A7
:1023400060312068884201D1401521E023491831CD
:102350002068884202D14FF4002019E0204918314A
:102360002068884202D14FF4002011E01B497831E7
:102370002068884202D14FF4002009E018497831E2
:102380002068884202D14FF4002001E04FF0007035
:1023900013491C39086023E11049903120688842B4
:1023A00062D90E4918392068884202D1082057E0C6
:1023B000F5E30B4918392068884201D108204FE025
:1023C000064948312068884201D1082048E0044984
:1023D00048312068884207D1082041E02860024047
:1023E0002864024004008000F8492068884201D136
:1023F000401535E0F6492068884201D140152FE0AC
:10240000F24960312068884201D1401528E0F04946
:1024100060312068884201D1401521E0EB49183134
:102420002068884202D14FF4002019E0E8491831B1
:102430002068884202D14FF4002011E0E34978314E
:102440002068884202D14FF4002009E0E049783149
:102450002068884202D14FF4002001E04FF0007064
:10246000DB4920390860BBE0D84930312068884218
:102470005BD9D64918392068884201D1082050E03C
:10248000D34918392068884201D1082049E0CF4952
:1024900048312068884201D1082042E0CC494831C7
:1024A0002068884201D108203BE0C8492068884262
:1024B00001D1401535E0C6492068884201D1401558
:1024C0002FE0C24960312068884201D1401528E0E0
:1024D000BF4960312068884201D1401521E0BB49E5
:1024E00018312068884202D14FF4002019E0B84921
:1024F00018312068884202D14FF4002011E0B3491E
:1025000078312068884202D14FF4002009E0B049B8
:1025100078312068884202D14FF4002001E04FF06A
:102520000070AA492839C8605AE0A84918392068BB
:10253000884201D1082050E0A54918392068884216
:1025400001D1082049E0A14948312068884201D1E1
:10255000082042E09E4948312068884201D1082085
:102560003BE09A492068884201D1401535E09849FE
:102570002068884201D140152FE0944960312068DD
:10258000884201D1401528E0914960312068884295
:1025900001D1401521E08D4918312068884202D1CF
:1025A0004FF4002019E08A4918312068884202D18E
:1025B0004FF4002011E0854978312068884202D12B
:1025C0004FF4002009E0824978312068884202D126
:1025D0004FF4002001E04FF000707C4928398860FA
:1025E000B9F1000F63D0E06C40F00200E06478497C
:1025F0003031206888425BD9744918392068884294
:1026000001D1744850E0724918392068884201D1DC
:10261000704849E06D4948312068884201D16D48D1
:1026200042E06B4948312068884201D169483BE06B
:1026300066492068884201D1402035E0644920681D
:10264000884201D140202FE06049603120688842F3
:1026500001D1402028E05E4960312068884201D1E4
:10266000402021E0594918312068884202D14FF4B6
:10267000803019E0564918312068884202D14FF461
:10268000803011E0514978312068884202D14FF4FE
:10269000803009E04E4978312068884202D14FF4F9
:1026A000803001E04FF4800049491C39086020E186
:1026B00046499031206888425BD9444918392068DE
:1026C000884201D1434850E0414918392068884286
:1026D00001D1404849E03D4948312068884201D154
:1026E0003C4842E03A4948312068884201D13948A3
:1026F0003BE036492068884201D1402035E034492A
:102700002068884201D140202FE0304960312068A4
:10271000884201D1402028E02D496031206888425C
:1027200001D1402021E0294918312068884202D196
:102730004FF4803019E0264918312068884202D1D0
:102740004FF4803011E0214978312068884202D16D
:102750004FF4803009E01E4978312068884202D168
:102760004FF4803001E04FF48000194920390860AF
:10277000BFE016493031206888425FD913491839C3
:102780002068884201D1134854E011491839206863
:10279000884201D10F484DE00C49483120688842F9
:1027A00001D10C4846E00A4948312068884201D1ED
:1027B00008483FE005492068884201D1402039E0BF
:1027C00003492068884207D1402033E02860024056
:1027D0002864024001008000F8492068884201D145
:1027E000402027E0F6492068884201D1402021E0BE
:1027F000F24948392068884202D14FF4803019E00C
:10280000EF4948392068884202D14FF4803011E006
:10281000EA4918312068884202D14FF4803009E03B
:10282000E74918312068884202D14FF4803001E036
:102830004FF48000E1498839C8605AE0DF497839AF
:102840002068884201D1DF4850E0DD4978392068AE
:10285000884201D1DB4849E0D849183920688842CC
:1028600001D1D84842E0D64918392068884201D1C0
:10287000D4483BE0D14960392068884201D14020EA
:1028800034E0CF4960392068884201D140202DE0F2
:10289000CA492068884201D1402027E0C849206801
:1028A000884201D1402021E0C4494839206888424B
:1028B00002D14FF4803019E0C1494839206888427C
:1028C00002D14FF4803011E0BC49183120688842B1
:1028D00002D14FF4803009E0B949183120688842AC
:1028E00002D14FF4803001E04FF48000B3498839C1
:1028F0008860BAF1000F67D0E06C40F00400E0643B
:10290000AF493039206888425FD9AC4978392068AE
:10291000884202D1AB48C01C53E0A94978392068ED
:10292000884202D1A748C01C4BE0A449183920684E
:10293000884202D1A348C01C43E0A149183920684D
:10294000884202D19F48C01C3BE09C496039206806
:10295000884201D1801534E0994960392068884265
:1029600001D180152DE095492068884201D180155C
:1029700027E093492068884201D1801521E08F49E2
:1029800048392068884202D14FF4802019E08C49F0
:1029900048392068884202D14FF4802011E08749ED
:1029A00018312068884202D14FF4802009E0844920
:1029B00018312068884202D14FF4802001E04FF0A6
:1029C00080707F497C3908602FE17C493031206874
:1029D00088425FD9794978392068884202D179489C
:1029E000C01C53E0764978392068884202D1754886
:1029F000C01C4BE0714918392068884202D17148E7
:102A0000C01C43E06E4918392068884202D16D48E5
:102A1000C01C3BE0694960392068884201D18015BB
:102A200034E0674960392068884201D180152DE083
:102A300062492068884201D1801527E060492068FA
:102A4000884201D1801521E05C49483920688842DC
:102A500002D14FF4802019E0594948392068884252
:102A600002D14FF4802011E0544918312068884287
:102A700002D14FF4802009E0514918312068884282
:102A800002D14FF4802001E04FF080704C49803932
:102A90000860CAE049493039206888425FD947490F
:102AA00078392068884202D14648C01C53E0444926
:102AB00078392068884202D14248C01C4BE03F4927
:102AC00018392068884202D13E48C01C43E03C4986
:102AD00018392068884202D13A48C01C3BE0374987
:102AE00060392068884201D1801534E0344960396A
:102AF0002068884201D180152DE030492068884245
:102B000001D1801527E02E492068884201D1801527
:102B100021E02A4948392068884202D14FF48020B8
:102B200019E0274948392068884202D14FF48020B3
:102B300011E0224918312068884202D14FF48020E8
:102B400009E01F4918312068884202D14FF48020E3
:102B500001E04FF0807019498839C86065E0174975
:102B600078392068884202D11648C01C5AE01449BE
:102B700078392068884202D11248C01C52E00F49BF
:102B800018392068884202D10E48C01C4AE00C491E
:102B900018392068884203D10A48C01C42E04FE03F
:102BA000064960392068884201D180153AE004491D
:102BB00060392068884207D1801533E08860024080
:102BC0008864024001008000F9492068884201D1F0
:102BD000801527E0F7492068884201D1801521E05F
:102BE000F34948392068884202D14FF4802019E027
:102BF000F04948392068884202D14FF4802011E022
:102C0000EB4918312068884202D14FF4802009E056
:102C1000E84918312068884202D14FF4802001E051
:102C20004FF08070E24988398860042084F83500CC
:102C300000BF002084F8340000BF0120BDE8F09FF1
:102C4000681CA0B12DB10AF09DFDA0EB0B00A842BD
:102C50000DD9E06C40F02000E064032084F83500DA
:102C600000BF002084F8340000BF0320E6E7D1490C
:102C700030392068884204D9CE4884380068304012
:102C800017E0CB4930312068884204D9C9488838D8
:102C9000006830400DE0C64930392068884204D9C8
:102CA000C34888384068304003E0C148883800682D
:102CB000304000283EF46AAE002F72D120680068D0
:102CC00000F4802000286DD0BA493039206888424D
:102CD0005BD9B74978392068884201D1102050E08B
:102CE000B44978392068884201D1102049E0B049C0
:102CF00018392068884201D1102042E0AD491839C6
:102D00002068884201D110203BE0A9496039206841
:102D1000884201D1001534E0A64960392068884214
:102D200001D100152DE0A2492068884201D100158B
:102D300027E0A0492068884201D1001521E09C4984
:102D400048392068884202D14FF4801019E099492F
:102D500048392068884202D14FF4801011E094492C
:102D600018312068884202D14FF4801009E091495F
:102D700018312068884202D14FF4801001E04FF0F2
:102D800080608C497C39086021E1894930312068B4
:102D900088425DD9864978392068884203D110205D
:102DA00052E0F4E3A5E2834978392068884201D1F2
:102DB000102049E07E4918392068884201D110204E
:102DC00042E07C4918392068884201D110203BE05C
:102DD000774960392068884201D1001534E075498F
:102DE00060392068884201D100152DE070492068C3
:102DF000884201D1001527E06E492068884201D140
:102E0000001521E06A4948392068884202D14FF410
:102E1000801019E0674948392068884202D14FF490
:102E2000801011E0624918312068884202D14FF4C5
:102E3000801009E05F4918312068884202D14FF4C0
:102E4000801001E04FF080605A4980390860BEE090
:102E500057493039206888425BD95549783920680C
:102E6000884201D1102050E05249783920688842C8
:102E700001D1102049E04E4918392068884201D11B
:102E8000102042E04B4918392068884201D11020B7
:102E90003BE0474960392068884201D1001534E0A1
:102EA000444960392068884201D100152DE040492D
:102EB0002068884201D1001527E03E4920688842F9
:102EC00001D1001521E03A4948392068884202D1F1
:102ED0004FF4801019E0374948392068884202D100
:102EE0004FF4801011E0324918312068884202D135
:102EF0004FF4801009E02F4918312068884202D130
:102F00004FF4801001E04FF0806029498839C86093
:102F10005DE0274978392068884201D1102054E0CB
:102F2000244978392068884201D110204DE0204999
:102F300018392068884201D1102046E01D4918390F
:102F40002068884201D110203FE01949603920688B
:102F5000884201D1001538E016496039206888425E
:102F600001D1001531E012492068884201D10015D5
:102F70002BE010492068884201D1001525E00C495A
:102F800048392068884202D14FF480101DE0094979
:102F900048392068884202D14FF4801015E0044976
:102FA00018312068884207D14FF480100DE00000EE
:102FB0008860024088640240F9492068884202D152
:102FC0004FF4801001E04FF08060F6498860F449CA
:102FD0004839206888425CD9F2491031206888421B
:102FE00001D1202051E0EE4990392068884201D17A
:102FF00020204AE0EB4970312068884201D120202E
:1030000043E0E74930392068884201D120203CE084
:10301000E44928312068884201D1C01435E0E049F4
:1030200078392068884201D1C0142EE0DD4988310A
:103030002068884201D1C01427E0D9491839206896
:10304000884201D1C01420E0D6494031206888422E
:1030500002D14FF4001018E0D1496039206888424D
:1030600002D14FF4001010E0CE49A0312068884210
:1030700002D14FF4001008E0C9492068884202D10B
:103080004FF4001001E04FF00060C549943908602A
:103090001DE1C449B831206888425CD9C14910316A
:1030A0002068884201D1202051E0BD499039206834
:1030B000884201D120204AE0BA4970312068884214
:1030C00001D1202043E0B64930392068884201D13F
:1030D00020203CE0B34928312068884201D1C01447
:1030E00035E0AF4978392068884201D1C0142EE01C
:1030F000AC4988312068884201D1C01427E0A84932
:1031000018392068884201D1C01420E0A549403117
:103110002068884202D14FF4001018E0A0496039BD
:103120002068884202D14FF4001010E09D49A03180
:103130002068884202D14FF4001008E098492068C6
:10314000884202D14FF4001001E04FF00060944932
:1031500098390860BBE093495831206888425BD9B0
:10316000904910312068884201D1202051E08C49DB
:1031700090392068884201D120204AE08949703185
:103180002068884201D1202043E0854930392068F9
:10319000884201D120203CE08249283120688842C1
:1031A00001D1C01435E07E4978392068884201D1C8
:1031B000C0142EE07B4988312068884201D1C014B8
:1031C00027E0774918392068884201D1C01420E0EF
:1031D000744940312068884202D14FF4001018E051
:1031E0006F4960392068884202D14FF4001010E026
:1031F0006C49A0312068884202D14FF4001008E0E9
:1032000067492068884202D14FF4001001E04FF076
:1032100000606449C8605AE0624910312068884201
:1032200001D1202051E05E4990392068884201D1C7
:1032300020204AE05B4970312068884201D120207B
:1032400043E0574930392068884201D120203CE0D2
:10325000544928312068884201D1C01435E05049D2
:1032600078392068884201D1C0142EE04D49883158
:103270002068884201D1C01427E0494918392068E4
:10328000884201D1C01420E046494031206888427C
:1032900002D14FF4001018E041496039206888429B
:1032A00002D14FF4001010E03E49A031206888425E
:1032B00002D14FF4001008E039492068884202D159
:1032C0004FF4001001E04FF000603649886020683C
:1032D000006800F4002018B9112084F8350017E3C5
:1032E0002068006800F4002090B3212084F83500A5
:1032F0000EE32B4948392068884262D929491031A8
:103300002068884201D1102057E025499039206873
:10331000884201D1102050E0224970312068884253
:1033200001D1102049E01E4930392068884201D17E
:10333000102042E01B4928312068884201D1001545
:103340003BE0174978392068884202D1001534E003
:10335000DEE2144988312068884201D100152CE052
:103360000F4918392068884201D1001525E00D4920
:1033700040312068884202D14FF480101DE0084996
:1033800060392068884202D14FF4801015E0054969
:10339000A0312068884207D14FF480100DE0000072
:1033A000A064024000600240F7492068884202D1D0
:1033B0004FF4801001E04FF08060F34994390860C9
:1033C0001FE1F249206888425CD9F049A839206899
:1033D000884201D1102051E0EB49903920688842A1
:1033E00001D110204AE0E94948392068884201D1DA
:1033F000102043E0E44930392068884201D1102090
:103400003CE0E24990392068884201D1001535E05E
:10341000DD4978392068884201D100152EE0DB496A
:1034200030392068884201D1001527E0D649183983
:103430002068884201D1001520E0D44978392068FD
:10344000884202D14FF4801018E0CF4960392068DB
:10345000884202D14FF4801010E0CC49183920681E
:10346000884202D14FF4801008E0C74920688842A2
:1034700002D14FF4801001E04FF08060C2499839CA
:103480000860BEE0C1496039206888425CD9BF4904
:10349000A8392068884201D1102051E0BA499039FA
:1034A0002068884201D110204AE0B8494839206894
:1034B000884201D1102043E0B34930392068884266
:1034C00001D110203CE0B14990392068884201D1F7
:1034D000001535E0AC4978392068884201D10015E3
:1034E0002EE0AA4930392068884201D1001527E032
:1034F000A54918392068884201D1001520E0A34968
:1035000078392068884202D14FF4801018E09E4933
:1035100060392068884202D14FF4801010E09B4946
:1035200018392068884202D14FF4801008E096498B
:103530002068884202D14FF4801001E04FF0806093
:103540009249B839C8605CE09049A839206888423F
:1035500001D1102052E08C4990392068884201D175
:1035600010204BE0894948392068884201D1102059
:1035700044E0854930392068884201D110203DE07F
:10358000824990392068884202D1001536E0C4E1B2
:103590007D4978392068884201D100152EE07B49A9
:1035A00030392068884201D1001527E07649183962
:1035B0002068884201D1001520E0744978392068DC
:1035C000884202D14FF4801018E06F4960392068BA
:1035D000884202D14FF4801010E06C4918392068FD
:1035E000884202D14FF4801008E067492068884281
:1035F00002D14FF4801001E04FF080606349B83988
:10360000886061494839206888425CD95F49A83997
:103610002068884201D1202051E05B499039206820
:10362000884201D120204AE0584948392068884220
:1036300001D1202043E0544930392068884201D12B
:1036400020203CE0514990392068884201D1C014C3
:1036500035E04D4978392068884201D1C0142EE008
:103660004A4930392068884201D1C01427E04649D0
:1036700018392068884201D1C01420E043497839C4
:103680002068884202D14FF4001018E03E496039AA
:103690002068884202D14FF4001010E03B491839ED
:1036A0002068884202D14FF4001008E036492068B3
:1036B000884202D14FF4001001E04FF0006032491F
:1036C0009439086021E131492068884260D92F4946
:1036D000A8392068884201D1202051E02A49903938
:1036E0002068884201D120204AE0284948392068D2
:1036F000884201D1202043E02349303920688842A4
:1037000001D120203CE0214990392068884201D134
:10371000C01435E01C4978392068884201D1C014B2
:103720002EE01A4930392068884201D1C01427E0C0
:10373000154918392068884201D1C01420E0134986
:1037400078392068884202D14FF4001018E00E4901
:1037500060392068884202D14FF4001010E00B4914
:1037600018392068884202D14FF4001008E0064959
:103770002068884202D14FF4001001E04FF0006051
:10378000014998390860C0E0A0640240B860024076
:10379000F749206888425CD9F54948392068884251
:1037A00001D1202051E0F3492068884201D1202036
:1037B0004BE0EF4918312068884201D1202044E0D5
:1037C000EC4960312068884201D120203DE0E84981
:1037D00030392068884201D1C01436E0E5491831FB
:1037E0002068884201D1C0142FE0E14930312068BF
:1037F000884201D1C01428E0DE497831206888422F
:1038000001D1C01421E0DA4918392068884202D178
:103810004FF4001019E0D74930312068884202D1B6
:103820004FF4001011E0D24948312068884202D19B
:103830004FF4001009E0CF4990312068884202D14E
:103840004FF4001001E04FF00060C9495839C860DA
:103850005BE0C74948392068884201D1202051E007
:10386000C4492068884201D120204BE0C04918316A
:103870002068884201D1202044E0BE4960312068A0
:10388000884201D120203DE0B94930392068884282
:1038900001D1C01436E0B74918312068884201D1FF
:1038A000C0142FE0B24930312068884201D1C014E1
:1038B00028E0B04978312068884201D1C01421E065
:1038C000AB4918392068884202D14FF4001019E042
:1038D000A84930312068884202D14FF4001011E02D
:1038E000A34948312068884202D14FF4001009E012
:1038F000A04990312068884202D14FF4001001E0C5
:103900004FF000609A4958398860112084F83500DA
:1039100000BF002084F834001DE32068006800F434
:103920008020A0B393494831206888425DD99049EE
:1039300048392068884201D1102052E08D49206822
:10394000884201D110204CE0894918312068884212
:1039500001D1102045E0874960312068884201D1BB
:1039600010203EE0824930392068884201D100159C
:1039700037E0804918312068884201D1001530E0D5
:103980007B4930312068884202D1001529E060E18E
:10399000784978312068884201D1001521E07449C6
:1039A00018392068884202D14FF4801019E071491B
:1039B00030312068884202D14FF4801011E06C4908
:1039C00048312068884202D14FF4801009E06949EB
:1039D00090312068884202D14FF4801001E04FF00E
:1039E00080606449091F086021E1614960312068F5
:1039F00088425CD95E4948392068884201D110204C
:103A000051E05C492068884201D110204BE05849C0
:103A100018312068884201D1102044E055496031B6
:103A20002068884201D110203DE05149303920689A
:103A3000884201D1001536E04E491831206888428D
:103A400001D100152FE04A4930312068884201D168
:103A5000001528E0474978312068884201D10015D7
:103A600021E0434918392068884202D14FF4801080
:103A700019E0404930312068884202D14FF480106B
:103A800011E03B4948312068884202D14FF4801050
:103A900009E0384990312068884202D14FF4801003
:103AA00001E04FF08060334908390860BFE03049D9
:103AB0002068884260D92E4948392068884201D15F
:103AC000102051E02B492068884201D110204BE0A2
:103AD000274918312068884201D1102044E0254947
:103AE00060312068884201D110203DE02049303902
:103AF0002068884201D1001536E01E49183120683F
:103B0000884201D100152FE01949303120688842E0
:103B100001D1001528E0174978312068884201D189
:103B2000001521E0124918392068884202D14FF46B
:103B3000801019E00F4930312068884202D14FF4DB
:103B4000801011E00A4948312068884202D14FF4C0
:103B5000801009E0074990312068884202D14FF473
:103B6000801001E04FF0806001495839C8605EE084
:103B70005860024010640240F8492068884201D130
:103B8000102051E0F6492068884201D110204BE016
:103B9000F24960312068884201D1102044E0F049A8
:103BA00060312068884201D110203DE0EB49183196
:103BB0002068884201D1001536E0E94918312068B3
:103BC000884201D100152FE0E4497831206888420D
:103BD00001D1001528E0E24978312068884201D1FE
:103BE000001521E0DD4930312068884202D14FF4D0
:103BF000801019E0DA4930312068884202D14FF450
:103C0000801011E0D54990312068884202D14FF4EC
:103C1000801009E0D24990312068884202D14FF4E7
:103C2000801001E04FF08060CC4910398860206836
:103C3000006800F4002018B9312084F835008AE1CA
:103C40002068006800F4002080B3412084F835002B
:103C500081E1C3494831206888425CD9BF49206866
:103C6000884201D1102052E0BD492068884201D12C
:103C700010204CE0B94960312068884201D1102001
:103C800045E0B74960312068884201D110203EE00C
:103C9000B24918312068884201D1001537E0B04997
:103CA00018312068884202D1001530E053E1AB4959
:103CB00078312068884201D1001528E0A849783180
:103CC0002068884201D1001521E0A44930312068E4
:103CD000884202D14FF4801019E0A14930312068A8
:103CE000884202D14FF4801011E09C499031206845
:103CF000884202D14FF4801009E099499031206840
:103D0000884202D14FF4801001E04FF08060944966
:103D1000091F08601CE19149A831206888425BD9DD
:103D20008E492068884201D1102051E08C492068DA
:103D3000884201D110204BE08849603120688842D8
:103D400001D1102044E0864960312068884201D1C9
:103D500010203DE0814918312068884201D10015CA
:103D600036E07F4918312068884201D100152FE0E4
:103D70007A4978312068884201D1001528E07849D5
:103D800078312068884201D1001521E07349303133
:103D90002068884202D14FF4801019E07049303118
:103DA0002068884202D14FF4801011E06B499031B5
:103DB0002068884202D14FF4801009E068499031B0
:103DC0002068884202D14FF4801001E04FF08060FB
:103DD000634908390860BBE060494831206888427F
:103DE0005BD95E492068884201D1102051E05C49CE
:103DF0002068884201D110204BE05849603120688A
:103E0000884201D1102044E0554960312068884241
:103E100001D110203DE0514918312068884201D17C
:103E2000001536E04E4918312068884201D100154E
:103E30002FE04A4978312068884201D1001528E0F6
:103E4000474978312068884201D1001521E0434973
:103E500030312068884202D14FF4801019E0404987
:103E600030312068884202D14FF4801011E03B4984
:103E700090312068884202D14FF4801009E038491F
:103E800090312068884202D14FF4801001E04FF059
:103E9000806032491039C8605AE030492068884251
:103EA00001D1102051E02E492068884201D1102014
:103EB0004BE02A4960312068884201D1102044E05B
:103EC000274960312068884201D110203DE0234914
:103ED00018312068884201D1001536E02049183198
:103EE0002068884201D100152FE01C4978312068F4
:103EF000884201D1001528E01949783120688842AC
:103F000001D1001521E0154930312068884202D1E5
:103F10004FF4801019E0124930312068884202D1F4
:103F20004FF4801011E00D4990312068884202D191
:103F30004FF4801009E00A4990312068884202D18C
:103F40004FF4801001E04FF0806004491039886020
:103F5000312084F835000020FEF770BE106002406A
:103F60001064024010B50446F949206888425DD9C2
:103F7000F74854380068F74A2168914201D1082176
:103F800052E0F34A483A2168914201D108214BE0BE
:103F9000F04A60322168914201D1082144E0EC4AA4
:103FA00018322168914201D108213DE0E94A1832D6
:103FB0002168914201D1491536E0E54A303A21683D
:103FC000914201D149152FE0E24A783221689142AD
:103FD00001D1491528E0DE4A30322168914201D1F1
:103FE000491521E0DB4A30322168914202D14FF479
:103FF000002119E0D64A183A2168914202D14FF4C3
:10400000002111E0D34A90322168914202D14FF44D
:10401000002109E0CE4A48322168914202D14FF492
:10402000002101E04FF00071084022E1C949A831A8
:10403000206888425DD9C64858380068C54A21685A
:10404000914201D1082152E0C14A483A2168914287
:1040500001D108214BE0BF4A60322168914201D171
:10406000082144E0BA4A18322168914201D108215E
:104070003DE0B84A18322168914201D1491536E035
:10408000B34A303A2168914201D149152FE0B14A33
:1040900078322168914201D1491528E0AC4A30328A
:1040A0002168914201D1491521E0AA4A30322168A4
:1040B000914202D14FF4002119E0A54A183A216833
:1040C000914202D14FF4002111E0A24A90322168BE
:1040D000914202D14FF4002109E09D4A4832216803
:1040E000914202D14FF4002101E04FF000710840ED
:1040F000BFE098494831206888425DD9954810381A
:104100004068944A2168914201D1082152E0904AC6
:10411000483A2168914201D108214BE08D4A603232
:104120002168914201D1082144E0894A183221686E
:10413000914201D108213DE0864A1832216891421E
:1041400001D1491536E0824A303A2168914201D1C5
:1041500049152FE07F4A78322168914201D14915F3
:1041600028E07B4A30322168914201D1491521E093
:10417000784A30322168914202D14FF4002119E08F
:10418000734A183A2168914202D14FF4002111E09C
:10419000704A90322168914202D14FF4002109E027
:1041A0006B4A48322168914202D14FF4002101E06C
:1041B0004FF0007108405CE0664810380068654ABE
:1041C0002168914201D1082152E0614A483A2168B0
:1041D000914201D108214BE05E4A60322168914250
:1041E00001D1082144E05A4A18322168914201D194
:1041F00008213DE0574A18322168914201D1491502
:1042000036E0534A303A2168914201D149152FE0F6
:10421000504A78322168914201D1491528E04C4A30
:1042200030322168914201D1491521E0494A3032AA
:104230002168914202D14FF4002119E0444A183A12
:104240002168914202D14FF4002111E0414A90329D
:104250002168914202D14FF4002109E03C4A4832E2
:104260002168914202D14FF4002101E04FF000712A
:104270000840002870D02068006800F00400002882
:10428000F8D02068006820F00400216808603049F8
:104290002068884261D92F492068884201D10820CE
:1042A00052E02B4948392068884201D108204BE070
:1042B000284960312068884201D1082044E024491F
:1042C00018312068884201D108203DE02149183189
:1042D0002068884201D1401536E01D4930392068F8
:1042E000884201D140152FE01A4978312068884270
:1042F00001D1401528E0164930312068884201D1AB
:10430000401521E0134930312068884202D14FF432
:10431000002019E00E4918392068884202D14FF474
:10432000002011E00B4990312068884202D14FF4FF
:10433000002009E0064948312068884202D14FF444
:10434000002001E04FF0007001494C39086023E182
:1043500058640240106002402FE1F849206888420A
:104360005CD9F649A8392068884201D1082051E07B
:10437000F3492068884201D108204BE0EF494839D1
:104380002068884201D1082044E0ED49603120686E
:10439000884201D108203DE0E849903920688842F0
:1043A00001D1401536E0E64918312068884201D134
:1043B00040152FE0E14930392068884201D140158D
:1043C00028E0DF4978312068884201D1401521E09A
:1043D000DA4978392068884202D14FF4002019E088
:1043E000D74930312068884202D14FF4002011E0D3
:1043F000D24918392068884202D14FF4002009E0E0
:10440000CF4990312068884202D14FF4002001E06A
:104410004FF00070CA4908390860BDE0C7496039EB
:10442000206888425CD9C549A8392068884201D1F2
:10443000082051E0C2492068884201D108204BE0A1
:10444000BE4948392068884201D1082044E0BC496F
:1044500060312068884201D108203DE0B749903999
:104460002068884201D1401536E0B54918312068EE
:10447000884201D140152FE0B04930392068884288
:1044800001D1401528E0AE4978312068884201D139
:10449000401521E0A94978392068884202D14FF4BB
:1044A000002019E0A64930312068884202D14FF43B
:1044B000002011E0A14918392068884202D14FF448
:1044C000002009E09E4990312068884202D14FF4D3
:1044D000002001E04FF000709849B839C8605BE0F7
:1044E0009649A8392068884201D1082051E09449B2
:1044F0002068884201D108204BE090494839206863
:10450000884201D1082044E08D496031206888420A
:1045100001D108203DE0894990392068884201D1C5
:10452000401536E0864918312068884201D140158F
:104530002FE0824930392068884201D1401528E0B7
:104540007F4978312068884201D1401521E07B49BC
:1045500078392068884202D14FF4002019E0784968
:1045600030312068884202D14FF4002011E07349B5
:1045700018392068884202D14FF4002009E07049C0
:1045800090312068884202D14FF4002001E04FF0C2
:1045900000706A49B8398860E06C40F00100E0645E
:1045A000042084F8350000BF002084F8340000BFE8
:1045B000A06C10B12046A16C884761494831206841
:1045C00088425DD95E480C3800685C4AA83A216888
:1045D000914201D15B4951E0594A2168914201D190
:1045E00058494BE0554A483A2168914201D1554912
:1045F00044E0534A60322168914201D151493DE083
:104600004E4A903A2168914201D1402136E04C4A0D
:1046100018322168914201D140212FE0474A303AB7
:104620002168914201D1402128E0454A7832216831
:10463000914201D1402121E0404A783A21689142DB
:1046400002D14FF4803119E03D4A30322168914265
:1046500002D14FF4803111E0384A183A2168914272
:1046600002D14FF4803109E0354A903221689142FD
:1046700002D14FF4803101E04FF48001084026E17F
:104680002E492068884263D92D48103800682B4A8B
:10469000A83A2168914201D12A4957E0284A216865
:1046A000914201D1274951E0244A483A2168914278
:1046B00001D124494AE0224A60322168914201D165
:1046C000204943E01D4A903A2168914201D140219E
:1046D0003CE01B4A18322168914201D1402135E06B
:1046E000164A303A2168914201D140212EE0144A05
:1046F00078322168914201D1402127E00F4A783A6F
:104700002168914202D14FF480311FE00C4A3032CF
:104710002168914202D14FF4803117E0074A183ADC
:104720002168914202D14FF480310FE0044A903267
:104730002168914208D14FF4803107E0B86002400F
:1047400010640240010080004FF480010840BEE088
:10475000F949206888425DD9F74858384068F64AD8
:10476000483A2168914201D1F44951E0F44A216864
:10477000914201D1F1494BE0EF4A18322168914250
:1047800001D1EE4944E0EE4A60322168914201D104
:10479000EA493DE0E84A303A2168914201D140219E
:1047A00036E0E74A18322168914201D140212FE0DA
:1047B000E14A30322168914201D1402128E0E04AAB
:1047C00078322168914201D1402121E0DA4A183A39
:1047D0002168914202D14FF4803119E0D84A303239
:1047E0002168914202D14FF4803111E0D24A48321F
:1047F0002168914202D14FF4803109E0D04A9032D1
:104800002168914202D14FF4803101E04FF48001E0
:1048100008405CE0C84858380068C74A483A2168F0
:10482000914201D1C54951E0C54A2168914201D167
:10483000C2494BE0C04A18322168914201D1BF49B8
:1048400044E0BF4A60322168914201D1BB493DE05A
:10485000B94A303A2168914201D1402136E0B84A44
:1048600018322168914201D140212FE0B24A303202
:104870002168914201D1402128E0B14A7832216873
:10488000914201D1402121E0AB4A183A216891427E
:1048900002D14FF4803119E0A94A303221689142A7
:1048A00002D14FF4803111E0A34A4832216891428D
:1048B00002D14FF4803109E0A14A9032216891423F
:1048C00002D14FF4803101E04FF48001084000280C
:1048D00079D02068406900F08000002873D02068FB
:1048E000406920F08000216848619549483120687E
:1048F00088425CD9904948392068884201D18F4864
:1049000051E08F492068884201D18C484BE08A49A8
:1049100018312068884201D1884844E088496031D4
:104920002068884201D185483DE0834930392068BC
:10493000884201D1402036E0814918312068884200
:1049400001D140202FE07C4930312068884201D1DC
:10495000402028E07A4978312068884201D14020FF
:1049600021E0754918392068884202D14FF480301F
:1049700019E0734930312068884202D14FF4803009
:1049800011E06D4948312068884202D14FF48030EF
:1049900009E06B4990312068884202D14FF48030A1
:1049A00001E04FF480006649091F086025E1624973
:1049B0006031206888425DD95F4948392068884263
:1049C00002D15E4852E029E15D492068884201D168
:1049D0005A484BE0584918312068884201D157485D
:1049E00044E0574960312068884201D153483DE096
:1049F000514930392068884201D1402036E0504981
:104A000018312068884201D140202FE04A493031D6
:104A10002068884201D1402028E049497831206847
:104A2000884201D1402021E043491839206888425A
:104A300002D14FF4803019E041493031206888427A
:104A400002D14FF4803011E03B4948312068884260
:104A500002D14FF4803009E0394990312068884212
:104A600002D14FF4803001E04FF48000344908391E
:104A70000860C2E030492068884263D92E4948392D
:104A80002068884201D12D4851E02D492068884294
:104A900001D12A484BE0284918312068884201D1C9
:104AA000264844E0264960312068884201D12348E5
:104AB0003DE0214930392068884201D1402036E06C
:104AC0001F4918312068884201D140202FE01A493F
:104AD00030312068884201D1402028E018497831DF
:104AE0002068884201D1402021E01349183920680C
:104AF000884202D14FF4803019E0114930312068EA
:104B0000884202D14FF4803011E00B4948312068CF
:104B1000884202D14FF4803009E009499031206881
:104B2000884202D14FF4803001E04FF48000024906
:104B30005839C86061E005E058600240010080001B
:104B400010640240F9492068884201D1F84851E0D8
:104B5000F8492068884201D1F5484BE0F3496031BB
:104B60002068884201D1F24844E0F249603120686F
:104B7000884201D1EE483DE0EC4918312068884276
:104B800001D1402036E0EB4918312068884201D13C
:104B900040202FE0E54978312068884201D140204B
:104BA00028E0E44978312068884201D1402021E0A2
:104BB000DE4930312068884202D14FF4803019E05C
:104BC000DC4930312068884202D14FF4803011E056
:104BD000D64990312068884202D14FF4803009E0F4
:104BE000D44990312068884202D14FF4803001E0EE
:104BF0004FF48000CD4910398860E06C40F002002D
:104C0000E064042084F8350000BF002084F83400FC
:104C100000BFA06C10B12046A16C8847C54948313F
:104C20002068884260D9C3480C380068BF4A2168B0
:104C3000914202D1BE49C91C54E0BE4A216891424A
:104C400002D1BB49C91C4DE0B84A6032216891428B
:104C500002D1B749C91C45E0B64A60322168914289
:104C600002D1B349C91C3DE0B04A183221689142D3
:104C700001D1891536E0AF4A18322168914201D13D
:104C800089152FE0A94A78322168914201D189150E
:104C900028E0A84A78322168914201D1891521E0A3
:104CA000A24A30322168914202D14FF4802119E0AA
:104CB000A04A30322168914202D14FF4802111E0A4
:104CC0009A4A90322168914202D14FF4802109E042
:104CD000984A90322168914202D14FF4802101E03C
:104CE0004FF08071084031E19049A8312068884236
:104CF00060D99048103800688C4A2168914202D1EE
:104D00008B49C91C54E08B4A2168914202D18849E1
:104D1000C91C4DE0854A60322168914202D1844924
:104D2000C91C45E0834A60322168914202D1804922
:104D3000C91C3DE07D4A18322168914201D1891594
:104D400036E07C4A18322168914201D189152FE062
:104D5000764A78322168914201D1891528E0754A56
:104D600078322168914201D1891521E06F4A3032B1
:104D70002168914202D14FF4802119E06D4A30320E
:104D80002168914202D14FF4802111E0674A9032AC
:104D90002168914202D14FF4802109E0654A9032A6
:104DA0002168914202D14FF4802101E04FF08071DF
:104DB0000840CBE05D4948312068884260D95B48B3
:104DC00010384068594A2168914202D15849C91C9B
:104DD00054E0584A2168914202D15549C91C4DE01E
:104DE000524A60322168914202D15149C91C45E0C2
:104DF000504A60322168914202D14D49C91C3DE0C0
:104E00004A4A18322168914201D1891536E0494A4F
:104E100018322168914201D189152FE0434A783236
:104E20002168914201D1891528E0424A78322168EF
:104E3000914201D1891521E03C4A303221689142EA
:104E400002D14FF4802119E03A4A30322168914270
:104E500002D14FF4802111E0344A9032216891420E
:104E600002D14FF4802109E0324A90322168914208
:104E700002D14FF4802101E04FF08071084065E0DD
:104E80002A4810380068294A2168914202D12849ED
:104E9000C91C5AE0274A2168914202D12449C91C01
:104EA00053E0224A60322168914202D12049C91C54
:104EB0004BE0204A60322168914202D11C49C91C52
:104EC00043E01A4A18322168914201D189153CE029
:104ED000184A18322168914201D1891535E0134AE8
:104EE00078322168914201D189152EE0114A783239
:104EF0002168914201D1891527E00C4A303221689E
:104F0000914202D14FF480211FE00A4A30322168D9
:104F1000914202D14FF4802117E0044A9032216877
:104F2000914209D14FF480210FE00000106002404F
:104F30000100800010640240FA4A2168914202D1C7
:104F40004FF4802101E04FF08071084088B3206861
:104F5000006800F0020060B32068006820F00200E2
:104F600021680860EF494839206888425CD9EE49D9
:104F70002068884201D1ED4852E0EA499039206822
:104F8000884201D1E9484BE0E74960312068884216
:104F900001D1E64844E0E34930392068884201D134
:104FA000E2483DE0E04918312068884202D180158E
:104FB00036E067E1DB4978392068884201D1801505
:104FC0002EE0D94978312068884201D1801527E048
:104FD000D44918392068884201D1801520E0D2498F
:104FE00030312068884202D14FF4802018E0CD494A
:104FF00060392068884202D14FF4802010E0CA490D
:1050000090312068884202D14FF4802008E0C549E1
:105010002068884202D14FF4802001E04FF0807078
:10502000C049943908601CE1BF49A8312068884212
:105030005BD9BD492068884201D1BC4851E0B949DB
:1050400090392068884201D1B8484AE0B6496031B9
:105050002068884201D1B54843E0B2493039206820
:10506000884201D1B1483CE0AF49183120688842FC
:1050700001D1801535E0AB4978392068884201D1EB
:1050800080152EE0A84978312068884201D180152A
:1050900027E0A44918392068884201D1801520E012
:1050A000A14930312068884202D14FF4802018E0B5
:1050B0009C4960392068884202D14FF4802010E07A
:1050C000994990312068884202D14FF4802008E04D
:1050D00094492068884202D14FF4802001E04FF0CB
:1050E0008070904998390860BBE08F49483120684A
:1050F00088425BD98C492068884201D18B4851E0B5
:10510000884990392068884201D188484AE0864918
:1051100060312068884201D1844843E081493039B8
:105120002068884201D181483CE07F4918312068DD
:10513000884201D1801535E07A4978392068884263
:1051400001D180152EE0784978312068884201D15C
:10515000801527E0734918392068884201D18015ED
:1051600020E0714930312068884202D14FF480201C
:1051700018E06C4960392068884202D14FF48020E1
:1051800010E0694990312068884202D14FF48020B4
:1051900008E064492068884202D14FF4802001E091
:1051A0004FF0807060491039C8605AE05E4920684D
:1051B000884201D15D4851E05A49903920688842BF
:1051C00001D15A484AE0584960312068884201D1EB
:1051D000564843E0534930392068884201D153484A
:1051E0003CE0514918312068884201D1801535E0F2
:1051F0004C4978392068884201D180152EE04A490F
:1052000078312068884201D1801527E04549183956
:105210002068884201D1801520E043493031206860
:10522000884202D14FF4802018E03E49603920685E
:10523000884202D14FF4802010E03B499031206831
:10524000884202D14FF4802008E036492068884225
:1052500002D14FF4802001E04FF0807032491039C4
:105260008860E06C40F00400E064042084F83500BD
:1052700000BF002084F8340000BFA06C10B12046AD
:10528000A16C8847274948392068884262D9254857
:105290009C380068244A2168914201D1102157E0CE
:1052A000204A903A2168914201D1102150E01E4AD3
:1052B00060322168914201D1102149E0194A303A07
:1052C0002168914201D1102142E0174A1832216829
:1052D000914201D109153BE0124A783A2168914286
:1052E00001D1091534E0104A78322168914201D188
:1052F00009152DE00B4A183A2168914201D1091590
:1053000026E0094A30322168914202D14FF48011DF
:105310001EE0044A603A2168914209D14FF480119D
:1053200016E00000A064024010600240040080000B
:10533000F74A2168914202D14FF4801108E0F54A02
:105340002168914202D14FF4801101E04FF0806159
:1053500008401FE1EE491831206888425CD9ED48C9
:10536000A0380068EA4A903A2168914201D11021A0
:1053700050E0E84A903A2168914201D1102149E079
:10538000E34A303A2168914201D1102142E0E14ADA
:10539000303A2168914201D110213BE0DC4A783A51
:1053A0002168914201D1091534E0DA4A783A21683E
:1053B000914201D109152DE0D54A183A2168914250
:1053C00001D1091526E0D34A183A2168914201D14A
:1053D00009151FE0CE4A603A2168914202D14FF48C
:1053E000801117E0CB4A603A2168914202D14FF414
:1053F00080110FE0C64A2168914202D14FF480111A
:1054000008E0C44A2168914202D14FF4801101E0C2
:105410004FF080610840BDE0BD49483920688842AE
:105420005CD9BB48A0384068B94A903A216891429B
:1054300001D1102150E0B74A903A2168914201D140
:10544000102149E0B24A303A2168914201D110213D
:1054500042E0B04A303A2168914201D110213BE04C
:10546000AB4A783A2168914201D1091534E0A94A42
:10547000783A2168914201D109152DE0A44A183AE1
:105480002168914201D1091526E0A24A183A216803
:10549000914201D109151FE09D4A603A216891426D
:1054A00002D14FF4801117E09A4A603A2168914284
:1054B00002D14FF480110FE0954A2168914202D148
:1054C0004FF4801108E0934A2168914202D14FF4D1
:1054D000801101E04FF0806108405BE08C48A0380B
:1054E00000688B4A903A2168914201D1102150E026
:1054F000884A903A2168914201D1102149E0844ABA
:10550000303A2168914201D1102142E0814A303A7B
:105510002168914201D110213BE07D4A783A21680F
:10552000914201D1091534E07A4A783A21689142D2
:1055300001D109152DE0764A183A2168914201D12E
:10554000091526E0734A183A2168914201D10915DC
:105550001FE06F4A603A2168914202D14FF48011F6
:1055600017E06C4A603A2168914202D14FF48011F1
:105570000FE0674A2168914202D14FF4801108E0A0
:10558000644A2168914202D14FF4801101E04FF04A
:1055900080610840002878D02068006800F008008A
:1055A000002872D02068006800F48020A8B3594910
:1055B0004839206888425CD955499039206888422A
:1055C00001D1102051E0534990392068884201D11F
:1055D00010204AE04E4930392068884201D110201D
:1055E00043E04C4930392068884201D110203CE02A
:1055F000474978392068884201D1001535E045498E
:1056000078392068884201D100152EE040491839C8
:105610002068884202D1001527E05FE13D49183932
:105620002068884201D100151FE03949603920689F
:10563000884202D14FF4801017E036496039206863
:10564000884202D14FF480100FE03149206888422F
:1056500002D14FF4801008E02E492068884202D120
:105660004FF4801001E04FF080602A4994390860BF
:1056700022E1274918312068884261D924499039AC
:105680002068884202D1102056E0BEE221499039BC
:105690002068884201D110204EE01D493039206831
:1056A000884201D1102047E01A49303920688842E9
:1056B00001D1102040E0164978392068884201D194
:1056C000001539E0134978392068884201D1001566
:1056D00032E00F4918392068884201D100152BE0CB
:1056E0000C4918392068884201D1001524E0084986
:1056F00060392068884202D14FF480101CE00549CF
:1057000060392068884207D14FF4801014E000000F
:10571000A0600240A0640240FA492068884202D199
:105720004FF4801008E0F8492068884202D14FF415
:10573000801001E04FF08060F34998390860BBE0C9
:10574000F0494839206888425BD9EE499039206891
:10575000884201D1102050E0EB49903920688842FE
:1057600001D1102049E0E74930392068884201D151
:10577000102042E0E44930392068884201D11020ED
:105780003BE0E04978392068884201D1001534E0D7
:10579000DD4978392068884201D100152DE0D949CA
:1057A00018392068884201D1001526E0D6491839F9
:1057B0002068884201D100151FE0D2496039206875
:1057C000884202D14FF4801017E0CF496039206839
:1057D000884202D14FF480100FE0CA492068884205
:1057E00002D14FF4801008E0C7492068884202D1F6
:1057F0004FF4801001E04FF08060C249A039C860CA
:105800005AE0C04990392068884201D1102050E008
:10581000BD4990392068884201D1102049E0B9493A
:1058200030392068884201D1102042E0B649303931
:105830002068884201D110203BE0B24978392068C5
:10584000884201D1001534E0AF4978392068884298
:1058500001D100152DE0AB4918392068884201D1EB
:10586000001526E0A84918392068884201D10015A2
:105870001FE0A44960392068884202D14FF48010AB
:1058800017E0A14960392068884202D14FF48010A6
:105890000FE09C492068884202D14FF4801008E054
:1058A00099492068884202D14FF4801001E04FF0FE
:1058B00080609449A03988602068006800F4002066
:1058C00018B9312084F835009AE12068006800F4A6
:1058D000002078B3412084F8350091E12068006809
:1058E00000F4807028B92068006820F00800216862
:1058F000086085494839206888425CD981499039D7
:105900002068884201D1102051E07F4990392068F9
:10591000884201D110204AE07A4930392068884213
:1059200001D1102043E0784930392068884202D103
:1059300010203CE064E1734978392068884201D145
:10594000001534E0704978392068884201D100158B
:105950002DE06C4918392068884201D1001526E0F5
:10596000694918392068884201D100151FE065494E
:1059700060392068884202D14FF4801017E06249F4
:1059800060392068884202D14FF480100FE05D49F1
:105990002068884202D14FF4801008E05A492068FC
:1059A000884202D14FF4801001E04FF080605649E8
:1059B0009439086021E153491831206888425BD945
:1059C000504990392068884201D1102050E04E495A
:1059D00090392068884201D1102049E04949303986
:1059E0002068884201D1102042E0474930392068C0
:1059F000884201D110203BE0424978392068884232
:105A000001D1001534E0404978392068884201D13D
:105A100000152DE03B4918392068884201D1001556
:105A200026E0394918392068884201D100151FE065
:105A3000344960392068884202D14FF4801017E061
:105A4000314960392068884202D14FF480100FE05C
:105A50002C492068884202D14FF4801008E02A497E
:105A60002068884202D14FF4801001E04FF080603E
:105A7000254998390860C0E02249483920688842A1
:105A800060D9204990392068884201D1102055E022
:105A90001D4990392068884201D110204EE01949F3
:105AA00030392068884201D1102047E0164930394A
:105AB0002068884201D1102040E0124978392068DE
:105AC000884201D1001539E00F49783920688842B1
:105AD00001D1001532E00B4918392068884201D104
