:020000040800F2
:1000000018190020C10100087D4900087F49000837
:1000100083490008874900088B4900080000000058
:100020000000000000000000000000008F490008F0
:100030009149000800000000934900089749000812
:10004000DB010008DB010008DB010008C1470008F4
:10005000DB010008DB010008DB010008DB01000810
:10006000DB010008DB010008DB010008DB01000800
:10007000DB010008DB010008DB010008DB010008F0
:10008000DB010008DB010008DB010008DB010008E0
:10009000DB010008DB010008DB010008DB010008D0
:1000A000DB010008DB010008DB010008DB010008C0
:1000B000DB010008DB010008DB010008DB010008B0
:1000C000DB010008DB010008DB010008DB010008A0
:1000D000DB010008DB010008DB010008DB01000890
:1000E000DB010008F1470008DB010008DB01000824
:1000F000DB010008DB010008DB010008DB01000870
:10010000DB010008DB010008DB010008DB0100085F
:10011000DB010008DB010008DB010008DB0100084F
:10012000DB010008DB010008DB010008DB0100083F
:10013000DB010008DB010008DB010008DB0100082F
:10014000DB010008DB010008DB010008DB0100081F
:10015000DB010008DB010008DB010008DB0100080F
:10016000DB010008DB010008DB010008DB010008FF
:10017000DB010008DB010008DB01000800000000D3
:10018000DB010008DB010008DB010008DB010008DF
:10019000DB010008DB010008DB010008DB010008CF
:1001A000DB010008DB010008DB010008DFF80CD0F0
:1001B00004F09CFC0048004755480008181900202E
:1001C0000648804706480047FEE7FEE7FEE7FEE7F1
:1001D000FEE7FEE7FEE7FEE7FEE7FEE7A1490008CF
:1001E000AD010008704770B5044601F037FB4FF4CD
:1001F0007A71B0FBF1F5284600F070F90022214633
:10020000501E00F0F5F8002070BD10B56148006880
:1002100040F400705F4908600846006840F4806060
:1002200008600846006840F480700860032000F011
:10023000CDF80F20FFF7D7FF00F006FC002010BD1F
:10024000704710B54FF0FF30534908600020086038
:10025000401E091D086000200860401E4E491039EC
:10026000086000200860401E091D0860002008602A
:10027000401E091D08600020086000F0E6FB002019
:1002800010BD46480068401C444908607047434818
:100290000068704731B5002403F06EFD044600BFCE
:1002A00003F06AFD001B00998842F9D338BD4FF076
:1002B000E020006920F002004FF0E0210861704763
:1002C0004FF0E020006940F002004FF0E0210861AB
:1002D00070473348704733480068000C7047314816
:1002E0000068C0F30B0070472E48406840F00100E2
:1002F0002C49486070472B48406820F0010029498C
:10030000486070472748406840F00200254948602F
:1003100070472448406820F0020022494860704736
:100320002048406840F004001E49486070471D485E
:10033000406820F004001B4948607047012090FA93
:10034000A0F1B1FA81F1184A02EB8101C1F8000471
:1003500070470020012191FAA1F1B1FA81F1124A0E
:1003600002EB8101C1F8000470470120010291FAFB
:10037000A1F1B1FA81F10C4A42F821007047002046
:100380004FF4807191FAA1F1B1FA81F1064A42F875
:1003900021007047003C024020380240000000204D
:1003A00000020301002004E00000274210B50028ED
:1003B00007DA0A07140EA94A00F00F031B1FD454D2
:1003C00003E00A07130EA64A135410BD00BF00F045
:1003D0000702A24B0C3B19684FF6FF031940A14BD3
:1003E0000B4343EA02219D4B0C3B196000BF704751
:1003F0002DE9F05F80460D461646002700F027F9EC
:10040000074639462A46334601F00700C0F1070A7D
:10041000BAF1040F02D94FF0040A01E0C0F1070A53
:10042000D14600F1040ABAF1070F02D24FF0000AD8
:1004300001E0A0F1030AD4464FF0010A0AFA09FAD2
:10044000AAF1010A0AEA020A0AFA0CFA4FF0010BB1
:100450000BFA0CFBABF1010B0BEA030B4AEA0B04A2
:1004600021464046FFF7A2FFBDE8F09F00BF00F025
:100470001F02012191404209920002F1E022C2F8DC
:10048000001100BF704700BF00F01F020121914022
:10049000754A430942F8231000BF704700BF00BFF0
:1004A00000BF00BF00BFBFF34F8F00BF00BF00BF42
:1004B0006A480C38006800F4E0606A490843001D8F
:1004C00066490C39086000BF00BF00BFBFF34F8F03
:1004D00000BF00BF00BF00E000BFFDE770B50446ED
:1004E0002546681EB0F1807F01D301200FE0681E11
:1004F0004FF0E02148610F214FF0FF30FFF756FF2A
:1005000000204FF0E021886107200861002070BDC5
:1005100010B500F09CF810BD2DE9F04304462046CC
:10052000002808DA4D4F00F00F0CACF1040C17F85E
:100530000C703F0902E04A4F3F5C3F093D460E46C2
:1005400006F00700C0F10708B8F1040F02D94FF018
:10055000040801E0C0F10708C44600F10408B8F13E
:10056000070F02D24FF0000801E0A0F10308474650
:1005700025FA07F84FF0010909FA0CF9A9F1010968
:1005800008EA0908C2F800804FF0010808FA07F8E5
:10059000A8F1010808EA0508C3F8008000BFBDE81B
:1005A000F08300BF00F01F02012191402E4A8032EB
:1005B000430942F8231000BF704710B501460846B2
:1005C000294A8032430952F8232000F01F040123F6
:1005D000A3401A400AB1012200E00022104610BDDB
:1005E00000BF00F01F0201219140204A430942F858
:1005F000231000BF704710B5014608461B4A8032E1
:10060000430952F8232000F01F040123A3401A409D
:100610000AB1012200E00022104610BD042808D1D2
:100620004FF0E021096941F004014FF0E02211612F
:1006300007E04FF0E021096921F004014FF0E022CA
:1006400011617047704710B5FFF7FCFF10BD0348FC
:100650000C380068C0F302207047000018ED00E07D
:1006600000E400E00000FA0580E100E080E200E044
:10067000F8B502460B460025002400200021E4E0E6
:10068000012606FA01F51E6806EA0504AC4271D19E
:100690005E68022E02D05E68122E13D1CF0802F1DE
:1006A000200656F827004E07F70E0F26BE40B0432F
:1006B0004F07FF0E1E69BE403043CF0802F12006EF
:1006C00046F8270010684F000326BE40B0431E794D
:1006D00006F003064F00BE40304310605E68012EF6
:1006E00008D05E68022E05D05E68112E02D05E68CA
:1006F000122E13D190684F000326BE40B0434F0026
:10070000DE68BE4030439060506801268E40B043A2
:100710001E79C6F300168E4030435060D0684F00FB
:100720000326BE40B0434F009E68BE403043D060B9
:100730005E6806F08056B6F1805FA8D100BFB54E66
:10074000366846F48046B34F3E603E46366806F44F
:100750008046009600BF00BFAF4E8F0856F82700B6
:100760008E07370F0F26BE40B043AC4EB24202D1C7
:1007700000262EE068E0AA4EB24201D1012628E010
:10078000A84EB24201D1022623E0A74EB24201D1C7
:1007900003261EE0A54EB24201D1042619E0A44E64
:1007A000B24201D1052614E0A24EB24201D1062682
:1007B0000FE0A14EB24201D107260AE09F4EB2429D
:1007C00001D1082605E09E4EB24201D1092600E083
:1007D0000A268F073F0FBE4030438F4E8F0846F8E2
:1007E0002700984E3068A0435E6806F48036B6F560
:1007F000803F00D12043934E3060361D3068A043C7
:100800005E6806F40036B6F5003F00D120438D4EF9
:10081000361D3060361D3068A0435E6806F48016D1
:10082000B6F5801F00D12043864E08363060361D55
:100830003068A0435E6806F40016B6F5001F00D1CC
:100840002043804E0C363060491C1029FFF418AF4D
:10085000F8BDF0B50C4600250022002300219CE0E5
:10086000012606FA01F504EA0502AA427DD10668CE
:100870004FEA410C032707FA0CF7BE430660CF0886
:1008800000F1200656F827604F074FEAD76C0F2774
:1008900007FA0CF7BE434FEAD10C00F1200747F8E6
:1008A0002C6086684FEA410C032707FA0CF7BE4319
:1008B0008660476801268E40B7434760C6684FEAA6
:1008C000410C032707FA0CF7BE43C660524E8F084F
:1008D00056F827308E07370F0F26BE4033404F4E55
:1008E000B04201D100262DE04D4EB04201D101268B
:1008F00028E04C4EB04201D1022623E04A4EB042DD
:1009000001D103261EE0494EB04201D1042619E070
:10091000474EB04201D1052614E0464EB04201D107
:1009200006260FE0444EB04201D107260AE0434EAE
:10093000B04201D1082605E0414EB04201D109265E
:1009400000E00A268F073F0FBE409E4224D18E074B
:10095000370F0F2606FA07F32F4E8F0856F8276039
:100960009E432D4F4FEA910C00E015E047F82C60B4
:10097000344E36689643334F3E603E1D366896438C
:100980003F1D3E603E1D366896433F1D3E603E1D46
:10099000366896433F1D3E60491C1029FFF460AF46
:1009A000F0BD024613690B400BB1012000E00020AE
:1009B00070470AB1816101E00B04836170474269AD
:1009C0004A404261704708B502464FF480300090BB
:1009D0000098084300900098D061D1610098D061E0
:1009E000D0690090D06900F4803008B1002008BDC3
:1009F0000120FCE7704710B5044612481430006827
:100A0000204028B10F48143004602046FFF7F2FF61
:100A100010BD000044380240083801400000024088
:100A20000004024000080240000C02400010024096
:100A30000014024000180240001C02400020024046
:100A400000240240003C01407047704770477047E7
:100A50007D48006840F080507B4908600846006887
:100A600020F08050086070470120010291FAA1F146
:100A7000B1FA81F1754A42F82100704700204FF425
:100A8000807191FAA1F1B1FA81F1704A42F8210026
:100A900070476F49096821F0E001026811436C4A10
:100AA00011606C49096821F480316A4A1160111F94
:100AB000096821F48031121F11606649091D096817
:100AC00021F48031634A121D1160111D096821F45F
:100AD0008031121D1160416801F48031B1F5803F11
:100AE00007D15C49091F096841F48031594A121F36
:100AF0001160416801F40031B1F5003F05D155495D
:100B0000096841F48031534A1160017901F0010113
:100B100039B15049091D096841F480314D4A121D0F
:100B20001160017901F00201022907D14949083118
:100B3000096841F48031474A08321160704701204A
:100B4000102191FAA1F1B1FA81F1404A42F8210055
:100B500070470020102191FAA1F1B1FA81F13B4ACE
:100B600042F8210070473A4949680143384A5160C8
:100B70007047374949688143354A51607047364A62
:100B8000126822F00402344B1A60012901D130BFEF
:100B900002E040BF20BF20BF70472D4A126822F0FC
:100BA000030202432A4B1A602B4A126842F00402E5
:100BB000294B1A60012901D130BF02E040BF20BF9C
:100BC00020BF254A126822F00402234B1A607047A6
:100BD0001F48006840F002001D4908601E48006878
:100BE00040F004001C49086000BF00BF30BF7047E0
:100BF000704710B517481030006800F4803030B1ED
:100C0000FFF7F6FF4FF4803012491031086010BD35
:100C10001148006840F002000F49086070470E4814
:100C2000006820F002000C49086070470A4800681C
:100C300040F010000849086070470748006820F03D
:100C400010000549086070472038024000000E423D
:100C500000700040043C014010ED00E010B500249D
:100C60000120410291FAA1F1B1FA81F1CF4A02EBE0
:100C70008101C1F8800003F07FF8044607E003F02B
:100C80007BF8001BB0F57A7F01D9032010BDC8485E
:100C90004068C0F3C0000028F1D00020F6E710B58E
:100CA000002400204FF4007191FAA1F1B1FA81F112
:100CB000BE4A02EB8101C1F8800003F05DF80446F2
:100CC00007E003F059F8001BB0F57A7F01D9032043
:100CD00010BDB7484068C0F3C0000028F1D100BF84
:100CE000F6E70120410291FAA1F1B1FA81F1AF4A90
:100CF00042F82100704700204FF4007191FAA1F1F1
:100D0000B1FA81F1A94A42F821007047A848006869
:100D100000F44040704738B50546002400BFA548A0
:100D2000006840F08050A34908600846006800F061
:100D30008050009000BF00BF9E483838006800F027
:100D40000C0008284BD000209B49086603F014F8DB
:100D5000044606E003F010F8001B642801D90320C4
:100D600038BD944840380068C0F340600028F1D195
:100D700000BF8F48006820F4404028438C49086039
:100D80000846006800F44040009000BF00BF01200A
:100D90008949086602F0F0FF044606E002F0ECFF25
:100DA000001B642801D90320DAE782484038006834
:100DB000C0F340600028F1D002F0DEFF044607E0F7
:100DC00002F0DAFF001BB0F57A7F01D90320C7E7F4
:100DD00077484068C0F380300028F1D001E001205E
:100DE000BEE70020BCE738B5002400BF71480068AA
:100DF00040F080506F4908600846006800F080505D
:100E0000009000BF00BF0120010491FAA1F1B1FAE6
:100E100081F1664A42F8210002F0AEFF044607E085
:100E200002F0AAFF001BB0F57A7F01D9032038BD7C
:100E30005F48406800F48030B0F5803FF0D1012079
:100E4000410491FAA1F1B1FA81F1584A42F8210026
:100E500002F092FF044607E002F08EFF001BB0F59F
:100E60007A7F01D90320E2E75148406800F400305E
:100E7000B0F5003FF0D10020D9E738B5002400BF1D
:100E80004C48006840F080504A49086008460068B5
:100E900000F08050009000BF00BF00204FF40031F0
:100EA00091FAA1F1B1FA81F1404A42F8210002F031
:100EB00063FF044607E002F05FFF001BB0F57A7F96
:100EC00001D9032038BD3A48406800F40030B0F53D
:100ED000003FF0D000204FF4803191FAA1F1B1FA37
:100EE00081F1324A42F8210002F046FF044607E051
:100EF00002F042FF001BB0F57A7F01D90320E1E741
:100F00002B48406800F48030B0F5803FF0D00020DE
:100F1000D8E7F8B505460E460024002700BF25484F
:100F2000006840F08050234908600846006800F0DF
:100F30008050009000BF00BF1D48406840F4402032
:100F40001B4948600846006840F44020086002F0F1
:100F500013FF074607E002F00FFFC01BB0F57A7FD2
:100F600001D90320F8BD1248406800F44020B0F5D4
:100F7000402FF0D00E48046840F6034084432C43D1
:100F80000B4804600D48006840F004000B490860FD
:100F9000012E01D130BF00E020BF0848006820F0DA
:100FA0000400064908600020DCE7000000000E4253
:100FB00000700040403802400000474210ED00E061
:100FC000FC48006840F08100FA4908600020F949B7
:100FD00008310860F7480068F7490840F54908609B
:100FE0000020091D086008460068F4490843F149DB
:100FF000091D08600020EF49843108600846006838
:10100000EF490843EB4984310860EA48006820F45E
:101010008020E84908600020E6490C3108607047EC
:1010200038B504460025207800F00100002864D07F
:10103000E0480830006800F00C0004280ED0DD48BD
:101040000830006800F00C00082812D1D948001DB3
:10105000006800F48000B0F5800F0AD1D548006820
:10106000C0F34040002848D06068002845D10120E6
:1010700038BD0020CF49891C087002F07DFE05466E
:1010800008E002F079FE401B41F28831884201D924
:101090000320EDE7C7480068C0F340400028F0D1C6
:1010A0002079C449891C0870606898B102F064FE18
:1010B000054608E002F060FE401B41F2883188429C
:1010C00001D90320D4E7BB480068C0F340400028A2
:1010D000F0D012E002F050FE054608E002F04CFEAF
:1010E000401B41F28831884201D90320C0E7B14852
:1010F0000068C0F340400028F0D1207800F00200E2
:10110000022864D1AB480830006800F00C0060B1E0
:10111000A8480830006800F00C0008281ED1A54837
:10112000001D006800F48000C0B9A2480068C0F348
:10113000400020B1E068012801D0012098E79D48D7
:10114000006820F0F800F82292FAA2F2B2FA82F2D5
:101150002169914008439749086038E0E06810B37E
:1011600001209849086002F007FE054606E002F0FB
:1011700003FE401B642801D9032079E78D480068ED
:10118000C0F340000028F2D08A48006820F0F80040
:10119000F82292FAA2F2B2FA82F22169914008434F
:1011A0008449086013E000208649086002F0E4FDED
:1011B000054606E002F0E0FD401B642801D903204B
:1011C00056E77C480068C0F340000028F2D1207840
:1011D00000F0080008282CD16069A8B101207A49E4
:1011E000086002F0C9FD054606E002F0C5FD401B9F
:1011F000642801D903203BE76E4874300068C0F3CF
:1012000040000028F1D014E000206F49086002F08F
:10121000B3FD054606E002F0AFFD401B642801D98E
:10122000032025E7634874300068C0F340000028BD
:10123000F1D1207800F0040004286DD100BF5D4892
:101240004030006840F080505A49403108600846FC
:10125000006800F08050009000BF00BF5B4800684D
:1012600040F480705949086002F086FD054606E0AA
:1012700002F082FD401B642801D90320F8E65348A0
:10128000006800F480700028F2D0002049497031D5
:10129000087002F071FD054608E002F06DFD401B8C
:1012A00041F28831884201D90320E1E6414870309B
:1012B0000068C0F340000028EFD1207A3D4970312A
:1012C0000870A068A0B102F057FD054608E002F0E2
:1012D00053FD401B41F28831884201D90320C7E603
:1012E000344870300068C0F340000028EFD013E0AD
:1012F00002F042FD054608E002F03EFD401B41F2CF
:101300008831884201D90320B2E62A48703000684B
:10131000C0F340000028EFD1A069E8B325480830A9
:10132000006800F00C00082876D0A06902285DD182
:1013300000202449086602F01FFD054606E002F081
:101340001BFD401B642801D9032091E61948006861
:10135000C0F340600028F2D1D4E90701084347F602
:10136000C07292FAA2F2B2FA82F2616A9140084324
:101370000122A16AC2EB51014FF4403292FAA2F26B
:10138000B2FA82F2914008434FF0706292FAA2F2F0
:10139000B2FA82F2E16A00E040E091400843054978
:1013A000091D086001200749086602F0E5FC0546B2
:1013B00015E0000000380240FFFFF6FA103000048C
:1013C0000030002000004742800E4742007000407D
:1013D00002F0D2FC401B642801D9032048E6FA48F9
:1013E0000068C0F340600028F2D017E00020F74901
:1013F000086602F0C1FC054606E002F0BDFC401B99
:10140000642801D9032033E6EF480068C0F3406048
:101410000028F2D102E0FFE7012029E6002027E6BC
:1014200070B504460E460025E948006800F00F003C
:10143000B04272D2E6490E700846006800F00F0014
:10144000B04201D0012070BD207800F002000228D7
:1014500009D1DD480830006820F0F000A168084399
:10146000D94908310860207800F0010000283ED0FA
:101470006068012806D1D4480068C0F34040A8B98C
:101480000120E0E76068022802D06068032806D1E6
:10149000CD480068C0F3406040B90120D3E7CA4896
:1014A0000068C0F3400008B90120CCE7C648083006
:1014B000006820F0030061680843C34908310860F0
:1014C00002F05AFC05466068012811D108E002F0DC
:1014D00053FC401B41F28831884201D90320B2E716
:1014E000B9480830006800F00C000428EFD1D5E0BE
:1014F0006068022812D108E002F03EFC401B41F275
:101500008831884201D903209DE7AF480830006840
:1015100000F00C000828EFD1C0E026E06068032846
:1015200011D108E002F028FC401B41F288318842CA
:1015300001D9032087E7A4480830006800F00C00B8
:101540000328EFD1AAE008E002F016FC401B41F2AC
:101550008831884201D9032075E79B48083000682C
:1015600000F00C000028EFD198E0207800F0020095
:10157000022809D194480830006820F0F000A168E2
:101580000843914908310860207800F001000028E4
:101590007AD06068012806D18B480068C0F34040CB
:1015A000A8B901204FE76068022802D060680328CC
:1015B00006D185480068C0F3406040B9012042E789
:1015C00081480068C0F3400008B901203BE77E482D
:1015D0000830006820F00300616808437A49083148
:1015E000086002F0C9FB05466068012811D108E0D7
:1015F00002F0C2FB401B41F28831884201D903202E
:1016000021E771480830006800F00C000428EFD191
:101610003AE06068022811D108E002F0ADFB401BFF
:1016200041F28831884201D903200CE7664808302E
:10163000006800F00C000828EFD125E0606803285E
:1016400011D108E002F098FB401B41F2883188423A
:1016500001D90320F7E65C480830006800F00C0070
:101660000328EFD110E008E002F086FB401B41F2B6
:101670008831884201D90320E5E6534808300068E4
:1016800000F00C000028EFD151490E7008460068A8
:1016900000F00F00B04201D00120D4E6207800F025
:1016A0000400042809D148480830006820F4E050BC
:1016B000E1680843444908310860207800F00800D8
:1016C00008280AD140480830006820F460402169A9
:1016D00040EAC1003C49083108600F20FEF783FD55
:1016E0000020B0E670B586B006460C46154646BBEF
:1016F00000BF35483030006840F0010032493031D9
:1017000008600846006800F00100009000BF00BFBC
:10171000881501900220029003200490002003907D
:10172000059001A92B48FEF7A3FF27480830006861
:1017300020F0EC6044EA05010843234908310860C1
:1017400027E000BF20483030006840F004001E4908
:10175000303108600846006800F00400009000BFC7
:1017600000BF481501900220029003200490002041
:101770000390059001A91848FEF77AFF1248083037
:10178000006820F0784044EAC50108430E4908315A
:10179000086006B070BD01200C49C8647047002085
:1017A0000A49C864704770B5002100220023002058
:1017B000054C0834246804F00C047CB1042C0FD0D0
:1017C000082C47D10EE000000038024000004742DC
:1017D000003C024000000240000802409D483BE0FF
:1017E0009D4839E09D4C246804F03F019B4C2468DF
:1017F00004F480047CB1984CB4FBF1F5974C246858
:1018000047F6C076344096FAA6F6B6FA86F6F44065
:1018100005FB04F20EE08F4CB4FBF1F58F4C24680D
:1018200047F6C076344096FAA6F6B6FA86F6F44045
:1018300005FB04F2894C246804F440344FF440352D
:1018400095FAA5F5B5FA85F5EC40641C6300B2FB8A
:10185000F3F001E07F4800BF00BF70BD10B5FFF797
:10186000A2FF7E49091D096801F0F001F02292FAF9
:10187000A2F2B2FA82F2D140794A515CC840794969
:1018800008600846006810BD10B5FFF7E7FF734910
:10189000091D096801F4E0514FF4E05292FAA2F2F6
:1018A000B2FA82F2D1406E4A515CC84010BD10B508
:1018B000FFF7D4FF6949091D096801F460414FF43D
:1018C000604292FAA2F2B2FA82F2D140644A515CCA
:1018D000C84010BD0F2101606049091F096801F46B
:1018E0008021B1F5802F02D1052141600CE05B49D8
:1018F000091F096801F48031B1F5803F02D101214F
:10190000416001E0002141605449091F096801F06C
:10191000010111B10121C16001E00021C1604F4905
:10192000091F096801F0F801F82292FAA2F2B2FA4E
:1019300082F2D140016149496C31096801F004012A
:10194000042902D1052181600AE044496C3109680B
:1019500001F0010111B10121816001E000218160EC
:101960003E497031096801F0010111B10121416165
:1019700001E0002141613949091F096801F08071C6
:10198000B1F1807F02D10221816101E001218161F9
:101990003249096801F48002C2613049096801F0E6
:1019A0003F0202622D49096847F6C072114092FA5F
:1019B000A2F2B2FA82F2D14041622849096801F4E8
:1019C000403101F5803149004FF4403292FAA2F2E1
:1019D000B2FA82F2D14081622049096801F0706157
:1019E0004FF0706292FAA2F2B2FA82F2D140C16272
:1019F00070470F220260194A121D126802F003029A
:101A00004260164A121D126802F0F0028260134A08
:101A1000121D126802F4E052C260104A121D1268D0
:101A200002F46042D20802610F4A126802F00F020B
:101A30000A607047704710B508480830006800F029
:101A40008000802805D1FFF7F5FF802003490A3187
:101A5000087010BD0024F40000127A00043802401F
:101A6000604F000830000020003C0240F8B50446FA
:101A700000250026207800F0010020B9207800F031
:101A80000200022866D10020FE49886602F074F93F
:101A9000054606E002F070F9401B642801D90320D6
:101AA000F8BDF9480068C0F3C0600028F2D1207882
:101AB00000F0010098B147F6C07191FAA1F1B1FAB6
:101AC00081F1606888404FF0E04292FAA2F2B2FAE7
:101AD00082F2A16891400843EB4984310860207884
:101AE00000F00200022821D1E7488430006800F0AD
:101AF000E0404FF0E04191FAA1F1B1FA81F120FA12
:101B000001F660688101207B41EA006040EA0670CE
:101B1000DD4984310860DC488C30006820F01F000B
:101B2000E169491E0843D8498C3108600120D54934
:101B3000886602F021F9054606E002F01DF9401B17
:101B4000642801D90320ABE7CF480068C0F3C06028
:101B50000028F2D0207800F00400042804D0207877
:101B600000F0080008287DD10020C649086702F06F
:101B700003F9054606E002F0FFF8401B642801D98E
:101B800003208DE7C0480068C0F340700028F2D100
:101B9000207800F00400042834D1BB488830006865
:101BA00000F0E0404FF0E04191FAA1F1B1FA81F18B
:101BB00020FA01F647F6C07191FAA1F1B1FA81F16C
:101BC000206988404FF0706292FAA2F2B2FA82F273
:101BD0006169914008434FF0E04191FAA1F1B1FAF7
:101BE00081F106FA01F10843A74988310860081D10
:101BF000006820F4F851206A401E41EA0020A24902
:101C00008C310860207800F00800082834D19E4804
:101C10008830006800F070604FF0706191FAA1F1B7
:101C2000B1FA81F120FA01F647F6C07191FAA1F1FB
:101C3000B1FA81F1206988404FF0706191FAA1F109
:101C4000B1FA81F106FA01F108434FF0E04292FA4D
:101C5000A2F2B2FA82F2A169914008438A4988311E
:101C6000086000E01CE0081D006820F44030616A54
:101C7000084385498C31086001208249086702F0D9
:101C80007BF8054606E002F077F8401B642801D98E
:101C9000032005E77C480068C0F340700028F2D0BC
:101CA000207800F0200020287BD100BF764840300B
:101CB000006840F080507449403108600846006870
:101CC00000F08050009000BF00BF7048006840F4F2
:101CD00080706E49086002F04FF8054606E002F099
:101CE0004BF8401B642801D90320D9E667480068F7
:101CF00000F480700028F2D063487030006800F46F
:101D00004070218D01F4407188424AD05E487030A5
:101D1000006820F4407601205D49086000200860DA
:101D200059487030066006F0020098B102F024F8BD
:101D3000054608E002F020F8401B41F28831884255
:101D400001D90320ACE6504870300068C0F3400071
:101D50000028EFD000BF208D00F44070B0F5407F28
:101D60000CD149480830006820F4F810494AA16AAB
:101D70001140084344490831086007E042480830F0
:101D8000006820F4F8104049083108603E4870307F
:101D90000068218DC1F30B0108433B497031086095
:101DA00000BF207800F01000102803D194F82C0018
:101DB00039490860002073E63F220260324A8432CB
:101DC000126847F6C0731A4093FAA3F3B3FA83F389
:101DD000DA4042602C4A8432126802F0E0424FF04E
:101DE000E04393FAA3F3B3FA83F3DA408260264A1E
:101DF0008432126802F070624FF0706393FAA3F3BA
:101E0000B3FA83F3DA40C2601F4A8832126847F699
:101E1000C0731A4093FAA3F3B3FA83F3DA40026172
:101E2000194A8832126802F0E0424FF0E04393FA18
:101E3000A3F3B3FA83F3DA408261134A883212685B
:101E400002F070624FF0706393FAA3F3B3FA83F376
:101E5000DA4042610C4A8C32126802F01F021F23E2
:101E600093FAA3F3B3FA83F3DA40C261064A8C32E1
:101E7000126802F4F8524FF4F85393FAA3F3B3FA4A
:101E800083F30BE00000474200380240007000403E
:101E9000400E4742FFFCFF0FE0114742DA4002626A
:101EA0000E4A126802F4403242620C4A843A1268C6
:101EB00002F4F811094A1C3A126802F440720A430B
:101EC0008262064A126802F080721AB9002280F813
:101ED0002C2002E0012280F82C2070478C38024030
:101EE00070B5044600252068C06800F04000A0B925
:101EF000681E2168C86001F03FFF054607E001F059
:101F00003BFF401BB0F57A7F01D9032070BD2068EC
:101F1000C06800F040000028F1D00020F6E77047CC
:101F200010B504460CB9012010BD607F20B9002017
:101F300020772046FFF7F3FF0220607700BFCA201A
:101F40002168486253202168486200BF2046FFF79D
:101F5000C7FF40B100BFFF202168486200BF0420D6
:101F600060770120E0E720688068FE49084021682A
:101F7000886021696068084361690843216889684D
:101F80000843216888602168E06808612068016969
:101F9000208941EA0040216808612068C06820F07B
:101FA00080002168C8602068006C20F480202168CF
:101FB00008642068006CA16908432168086400BFB8
:101FC000FF202168486200BF012060770020ABE756
:101FD000704770B5044600252068C06820F0A00056
:101FE0002168C86001F0C8FE054607E001F0C4FEA4
:101FF000401BB0F57A7F01D9032070BD2068C0680E
:1020000000F020000028F1D00020F6E770B504466B
:1020100000250220607700BFCA2021684862532053
:102020002168486200BF2046FFF75AFF40B100BF59
:10203000FF202168486200BF04206077012070BD46
:1020400000202168086042F2011021684860206881
:10205000806800F007002168886001F08DFE054669
:102060000DE001F089FE401BB0F57A7F07D900BF73
:10207000FF202168486200BF03206077DFE7206807
:10208000C06800F004000028EBD0206880680020C1
:10209000216888604FF6FF7021684861B248216866
:1020A00008610020216888612168C8612168086290
:1020B0002168C8622168C86321684864216888640F
:1020C0002168C860216808642068806800F02000EA
:1020D00060B92046FFF77DFF40B100BFFF202168B7
:1020E000486200BF042060770120A8E700BFFF20FE
:1020F0002168486200BF2046FFF76AFF0020607732
:1021000000BF207700BF00BF99E7014600BF080964
:1021100000EB8000420001F00F001044C0B2704795
:102120000146002203E0521CA1F10A00C1B20A29B3
:10213000F9DA100741EA106070472DE9F0410446D2
:102140000D461646002700BF207F012802D102203D
:10215000BDE8F0810120207700BF02206077CEB972
:102160002068806800F0400000B102E00020E870C4
:1021700000BF2878FFF7D4FF03046878FFF7D0FF8B
:1021800043EA0023A878FFF7CBFF0343E87843EA4C
:10219000004716E02068806800F0400020B12878F1
:1021A000FFF7B3FF074602E00020E87000BF287881
:1021B0000004697840EA0120A9780843E97840EAF8
:1021C000014700BFCA202168486253202168486245
:1021D00000BF2046FFF784FE60B100BFFF202168EA
:1021E000486200BF0420607700BF0020207700BF56
:1021F0000120ADE75D4838402168086020688068AC
:1022000020F4802021688860D5E903010843216813
:1022100089680843216888602068C06820F08000D1
:102220002168C8602068806800F0200080B92046DE
:10223000FFF7CFFE60B100BFFF202168486200BFFA
:102240000420607700BF0020207700BF01207FE7D7
:1022500000BFFF202168486200BF0120607700BFF7
:102260000020207700BF00BF72E770B504460B4620
:10227000164600252068806A586020680069C0F30F
:102280000E00986020680068384900EA0105C5F32F
:1022900005401870C5F30620587005F07F0098704F
:1022A00005F48000000CD8705EB91878FFF72DFF98
:1022B00018705878FFF729FF58709878FFF725FFB6
:1022C0009870002070BD2DE9F04104460D46164679
:1022D000002700BF207F012802D10220BDE8F08145
:1022E0000120207700BF022060774EB9687800F0A7
:1022F0001000102804D1687800F0EF000A306870F0
:1023000086B9E878FFF70CFF03046878FFF708FF49
:1023100043EA0023A878FFF703FF0343287843EA42
:10232000403711E06878FFF7F0FE0746A878FFF71E
:10233000ECFE0746E8780004697840EA0120A978B5
:102340000843297840EA413700BFCA202168486223
:1023500053202168486200BF2046FFF7C1FD98B1B5
:1023600000BF05E0BFFF8FFFFF007F007F7F7F0082
:10237000FF202168486200BF0420607700BF002072
:10238000207700BF0120A9E7FE4838402168486057
:102390002068C06820F080002168C86020688068DC
:1023A00000F0200080B92046FFF713FE60B100BFA7
:1023B000FF202168486200BF0420607700BF002032
:1023C000207700BF012089E700BFFF202168486215
:1023D00000BF0120607700BF0020207700BF00BF52
:1023E0007CE770B505460B46164600242868406811
:1023F000E44900EA0104200CD870C4F304205870AA
:1024000004F03F009870C4F3423018705EB9D87879
:10241000FFF77BFED8705878FFF777FE58709878F2
:10242000FFF773FE9870002070BD2DE9F047044659
:102430000D4616460027B846B94600BF207F012842
:1024400002D10220BDE8F0870120207700BF0220E2
:10245000607746BB2068806800F0400000B102E071
:102460000020E87000BFE86900B900E000BF2878EC
:10247000FFF756FE03046878FFF752FE43EA002395
:10248000A878FFF74DFE0343E87843EA004395F848
:102490002000FFF745FE43EA0060E96908436969E7
:1024A00040EA01082DE02068806800F0400020B17B
:1024B0002878FFF72AFE804602E00020E87000BF7F
:1024C000E86928B995F82000FFF71FFE804605E06F
:1024D00095F82000FFF719FE804600BF2878000419
:1024E000697840EA0120A9780843E97840EA014088
:1024F00095F8201040EA0160E9690843696940EAFB
:102500000108A969686840EA010900BFCA2021687A
:10251000486253202168486200BF686AB0F5807F36
:1025200035D12068806820F4807021688860206838
:10253000806820F480502168886001F01DFC074607
:1025400012E001F019FCC01BB0F57A7F0CD900BF76
:10255000FF202168486200BF0320607700BF002091
:10256000207700BF03206DE72068C06800F00100FD
:102570000028E6D02068C0F81C802068C0F844908D
:102580002068806840F480702168886034E02068AA
:10259000806820F40070216888602068806820F4DA
:1025A00000502168886001F0E7FB074612E001F067
:1025B000E3FBC01BB0F57A7F0CD900BFFF20216878
:1025C000486200BF0320607700BF0020207700BF73
:1025D000032037E72068C068C0F340000028E6D039
:1025E0002068C0F820802068C0F848902068806883
:1025F00040F400702168886000BFFF2021684862B5
:1026000000BF0120607700BF0020207700BF00BF1F
:1026100018E72DE9F04704460D4616460027B84650
:10262000B94600BF207F012802D10220BDE8F08713
:102630000120207700BF0220607746BB20688068B9
:1026400000F0400000B102E00020E87000BFE8693F
:1026500000B900E000BF2878FFF762FD0304687846
:10266000FFF75EFD43EA0023A878FFF759FD034317
:10267000E87843EA004395F82000FFF751FD43EA6C
:102680000060E9690843696940EA01082DE02068B3
:10269000806800F0400020B12878FFF736FD8046C2
:1026A00002E00020E87000BFE86928B995F8200032
:1026B000FFF72BFD804605E095F82000FFF725FD8C
:1026C000804600BF28780004697840EA0120A97894
:1026D0000843E97840EA014095F8201040EA01609B
:1026E000E9690843696940EA0108A969686840EA3C
:1026F000010900BFCA20216848625320216848624E
:1027000000BF686AB0F5807F40D12068806820F4FF
:102710008070216888602068C06800F0800060F4E4
:10272000C0702168C86001F027FB074612E001F085
:1027300023FBC01BB0F57A7F0CD900BFFF202168B6
:10274000486200BF0320607700BF0020207700BFF1
:1027500003206BE72068C06800F001000028E6D085
:102760002068C0F81C802068C0F844902068806809
:1027700040F48070216888602068806840F4805050
:10278000216801E03FFFFF0088603CE0206880682E
:1027900020F40070216888602068C06800F0800024
:1027A00060F420702168C86001F0E6FA074612E084
:1027B00001F0E2FAC01BB0F57A7F0CD900BFFF2010
:1027C0002168486200BF0320607700BF00202077A7
:1027D00000BF03202AE72068C068C0F3400000283B
:1027E000E6D02068C0F820802068C0F848902068B3
:1027F000806840F40070216888602068806840F438
:102800000050216888609F48006840F400309D496E
:1028100008609C480830006840F40030994908314D
:10282000086000BFFF202168486200BF0120607778
:1028300000BF0020207700BF00BFF7E670B5044658
:102840000D46002600BF207F012801D1022070BD67
:102850000120207700BF0220607700BFCA202168D6
:10286000486253202168486200BFB5F5807F29D1B6
:102870002068806820F48070216888602068806803
:1028800020F480502168886001F076FA064612E054
:1028900001F072FA801BB0F57A7F0CD900BFFF20DF
:1028A0002168486200BF0320607700BF00202077C6
:1028B00000BF0320CBE72068C06800F001000028BB
:1028C000E6D028E02068806820F4007021688860E5
:1028D0002068806820F400502168886001F04CFA7C
:1028E000064612E001F048FA801BB0F57A7F0CD959
:1028F00000BFFF202168486200BF0320607700BF4F
:102900000020207700BF0320A1E72068C068C0F343
:1029100040000028E6D000BFFF202168486200BFC9
:102920000120607700BF0020207700BF00BF8EE746
:102930002DE9F04105460C4616461F4600239846F1
:10294000B6F5807F09D14FF4807060622868C36952
:102950002868406CC0F30E0808E04FF40070606215
:102960002868036A2868806CC0F30E08C3F305402A
:102970002070C3F30620607003F07F00A07003F4A2
:102980008000000CE070C4F80480C3F3056084F894
:10299000200003F08040E06103F0803060618FB977
:1029A0002078FFF7B2FB20706078FFF7AEFB607015
:1029B000A078FFF7AAFBA07094F82000FFF7A5FB12
:1029C00084F820000020BDE8F081704710B504466F
:1029D0002068C068C0F3002078B12068806800F4E7
:1029E000805050B12046FFF7F0FF2068C06800F02B
:1029F000800060F4C0702168C8602068C068C0F3BF
:102A0000402078B12068806800F4005050B1204622
:102A100000F09FFE2068C06800F0800060F4207025
:102A20002168C8604FF40030164914310860012055
:102A3000607710BD70B504460D46002601F09CF984
:102A400006460AE0681C40B125B101F095F9801BEB
:102A5000A84202D90320607770BD2068C068C0F327
:102A600000200028EED02068C06800F0800060F4EC
:102A7000C0702168C860012060770020ECE7014643
:102A8000487F7047003C014030B50346002400BF3A
:102A9000187F012801D1022030BD0120187700BF26
:102AA000022058771868806840F6080520EA050477
:102AB0000C4300BFCA201D68686253201D6868620D
:102AC00000BF1868006C20F400301D682864186886
:102AD000006C10431D68286418688460186880685A
:102AE00040F400601D68A86000BFFF201D68686298
:102AF00000BF0120587700BF0020187700BF00BF3B
:102B0000CAE730B50346002400BF187F012801D171
:102B1000022030BD0120187700BF022058771868C6
:102B2000806840F6080520EA05040C4300BFCA206F
:102B30001D68686253201D68686200BF1868846061
:102B40001868006C20F400301D6828641868006C58
:102B500010431D6828641868806840F400601D6890
:102B6000A8601868806840F400401D68A860FB48B1
:102B7000006840F40010F94D2860F84808300068FB
:102B800040F40010F54D0835286000BFFF201D6897
:102B9000686200BF0120587700BF0020187700BF8F
:102BA00000BFB6E70146002200BF087F012801D11F
:102BB000022070470120087700BF0220487700BF3D
:102BC000CA200B68586253200B68586200BF08681F
:102BD000806820F400400B6898600868806840F6C0
:102BE000080320EA03020868826000BFFF200B6828
:102BF000586200BF0120487700BF0020087700BF5F
:102C000000BFD6E72DE9F04706460C461546994623
:102C10000027B8463068006BD14900EA01073068E8
:102C2000406BD04900EA0108C7F305402070C7F3A4
:102C30000620607007F07F00A07007F48000000C91
:102C4000E0703068806B60600020E870C8F304209A
:102C5000687008F03F00A870C8F342302870B9F1DE
:102C6000000F17D12078FFF750FA20706078FFF737
:102C70004CFA6070A078FFF748FAA0706878FFF708
:102C800044FA6870A878FFF740FAA8702878FFF730
:102C90003CFA28703068C06800F0800060F408607A
:102CA0003168C8600020BDE8F08710B502460023F7
:102CB00000BF107F012801D1022010BD0120107734
:102CC00000BF02205077886810B108684000886013
:102CD000D1E9000420438C682043CC6820430C6970
:102CE00020434C6920438C692043CC6940EA0403AB
:102CF000086840EA400040F4FF4040F4C03040F033
:102D000004041068006CA043146820641068006C10
:102D10001843146820640120507700BF002010770A
:102D200000BF00BFC9E710B50246002300BF107FF7
:102D3000012801D1022010BD0120107700BF022020
:102D40005077886810B1086840008860D1E90004B5
:102D500020438C682043CC6820430C6920434C6995
:102D600020438C692043CC6940EA0403086840EAA8
:102D7000400040F4FF4040F4C0341068006CA043B1
:102D8000146820641068006C18431468206410688C
:102D9000006C40F00400146820647048006840F43F
:102DA00000106E4C20606D480830006840F4001040
:102DB0006A4C083420600120507700BF0020107753
:102DC00000BF00BFB7E7024600BF107F012801D156
:102DD000022070470120107700BF02205077106852
:102DE000006C8843136818640120507700BF0020EE
:102DF000107700BF00BFECE770477047704710B511
:102E000004462068C068C0F3C02078B1206880689C
:102E100000F4004050B12046FFF7F0FF2068C06882
:102E200000F0800060F408602168C8602068C06815
:102E3000C0F3403078B12068006C00F0040050B15D
:102E40002046FFF7DAFF2068C06800F0800060F4D9
:102E500002502168C8602068C068C0F3803078B133
:102E60002068006C00F0040050B12046FFF7C4FF5A
:102E70002068C06800F0800060F481402168C8606C
:102E80004FF400103549143108600120607710BDFF
:102E900070B504460D46002600F06EFF06461BE0A6
:102EA0002068C068C0F3003058B12068C06800F0E6
:102EB000800060F484502168C8600420607701209D
:102EC00070BD681C40B125B100F056FF801BA842C0
:102ED00002D903206077F3E72068C068C0F3C02000
:102EE0000028DDD0012060770020E9E770B50446B6
:102EF0000D46002600F040FF06460AE0681C40B17F
:102F000025B100F039FF801BA84202D90320607769
:102F100070BD2068C068C0F340300028EED0206843
:102F2000C06800F0800060F402502168C860012091
:102F300060770020ECE770B504460D46002600F0EF
:102F40001BFF064610E0681C70B125B100F014FFAD
:102F5000801BA84208D90320607770BD003C014067
:102F60007F7F7F003FFFFF002068C068C0F3803094
:102F70000028E8D02068C06800F0800060F481403C
:102F80002168C860012060770020E6E72DE9F04164
:102F900004460D461646002700BF207F012802D1B7
:102FA0000220BDE8F0810120207700BF0220607779
:102FB00000BFCA202168486253202168486200BFD0
:102FC0002068806820F480602168886000F0D4FE6A
:102FD000074612E000F0D0FEC01BB0F57A7F0CD996
:102FE00000BFFF202168486200BF0320607700BF58
:102FF0000020207700BF0320D3E72068C068C0F31B
:1030000080000028E6D02068806820F00700216852
:103010008860206880683043216888602068456146
:103020002068806840F480602168886000BFFF20CD
:103030002168486200BF0120607700BF0020207730
:1030400000BF00BFADE72DE9F04104460D4616462E
:10305000002700BF207F012802D10220BDE8F081B7
:103060000120207700BF0220607700BFCA202168BE
:10307000486253202168486200BF2068806820F4BD
:1030800080602168886000F077FE074612E000F05B
:1030900073FEC01BB0F57A7F0CD900BFFF202168FA
:1030A000486200BF0320607700BF0020207700BF88
:1030B0000320D3E72068C068C0F380000028E6D072
:1030C000206845612068806820F0070021688860DA
:1030D00020688068304321688860FD48006840F4BB
:1030E0008000FB490860FA480830006840F480001E
:1030F000F749083108602068806840F48040216802
:1031000088602068806840F480602168886000BF23
:10311000FF202168486200BF0120607700BF0020C7
:10312000207700BF00BF99E770B50446002500BFB7
:10313000207F012801D1022070BD0120207700BF2F
:103140000220607700BFCA202168486253202168AE
:10315000486200BF2068806820F480602168886031
:103160002068806820F480402168886000F004FEB8
:10317000054612E000F000FE401BB0F57A7F0CD946
:1031800000BFFF202168486200BF0320607700BFB6
:103190000020207700BF0320CEE72068C068C0F37E
:1031A00080000028E6D000BFFF202168486200BFF1
:1031B0000120607700BF0020207700BF00BFBBE781
:1031C00001460868406980B27047704710B50446F0
:1031D0002068C068C0F3802078B12068806800F45F
:1031E000804050B12046FFF7F0FF2068C06800F033
:1031F000800060F490602168C8604FF48000B4499A
:10320000143108600120607710BD70B504460D468A
:10321000002600F0B1FD06460AE0681C40B125B169
:1032200000F0AAFD801BA84202D90320607770BD80
:103230002068C068C0F380200028EED02068C068F5
:1032400000F0800060F490602168C8600120607721
:103250000020ECE710B50023046804F1500303EBF1
:1032600081031A6010BD02460023106800F150036C
:1032700003EB81031868704770B504460E46154687
:1032800000BF207F012801D1022070BD01202077DE
:1032900000BF0220607700BFCA2021684862532027
:1032A0002168486200BF2046FEF71AFE60B100BFE9
:1032B000FF202168486200BF0420607700BF002023
:1032C000207700BF0120E0E72068806840F08000A0
:1032D0002168886046EA0500216888612068C06826
:1032E00020F080002168C86000BFFF20216848628C
:1032F00000BF0120607700BF0020207700BF00BF23
:10330000C3E710B5044600BF207F012801D1022089
:1033100010BD0120207700BF0220607700BFCA20C7
:103320002168486253202168486200BF2046FEF7AA
:10333000D7FD60B100BFFF202168486200BF0420B4
:10334000607700BF0020207700BF0120E0E7206801
:10335000806820F08000216888602068C06820F0C4
:1033600080002168C86000BFFF202168486200BF5C
:103370000120607700BF0020207700BF00BFC7E7B3
:103380002DE9F04104460D4616461F464FF0000851
:1033900000BF207F012802D10220BDE8F08101207A
:1033A000207700BF0220607700BFCA2021684862F2
:1033B00053202168486200BF2068C06800F4803054
:1033C000E8B100F0D9FC804613E000F0D5FCA0EB9A
:1033D0000800B0F57A7F0CD900BFFF202168486251
:1033E00000BF0320607700BF0020207700BF0320CC
:1033F000D3E72068C06800F480300028E5D145EAB2
:10340000060038432168C86300BFFF202168486276
:1034100000BF0120607700BF0020207700BF00BF01
:10342000BBE72DE9F04104460D461646002700BFD4
:10343000207F012802D10220BDE8F0810120207701
:1034400000BF0220607700BFCA2021684862532075
:103450002168486200BF00F08FFC074612E000F0D0
:103460008BFCC01BB0F57A7F0CD900BFFF20216810
:10347000486200BF0320607700BF0020207700BFB4
:103480000320D9E72068C06800F008000028E6D1D2
:103490002068806800F01000E0B946EA0500216865
:1034A000C8622068806800F0200000BB2046FEF75C
:1034B00090FDE0B100BFFF202168486200BF0420FA
:1034C000607700BF0020207700BF0120B4E7000034
:1034D000003C014000BFFF202168486200BF04207B
:1034E000607700BF0020207700BF0120A4E700BF65
:1034F000FF202168486200BF0120607700BF0020E4
:10350000207700BF00BF97E7024600BF107F012869
:1035100001D1022070470120107700BF02205077B0
:1035200000BFCA201368586253201368586200BF56
:103530001068806820F40020136898601068806824
:103540000843136898601068806840F400001368AE
:10355000986000BFFF201368586200BF01205077B9
:1035600000BF0020107700BF00BFD3E7014600BFB7
:10357000087F012801D1022070470120087700BF91
:103580000220487700BFCA200A68506253200A68A8
:10359000506200BF0868806820F400000A689060EC
:1035A00000BFFF200A68506200BF0120487700BFBB
:1035B0000020087700BF00BFDEE710B5044600BF5B
:1035C000207F012801D1022010BD0120207700BFFB
:1035D0000220607700BFCA2021684862532021681A
:1035E000486200BF2046FEF77BFC60B100BFFF20B1
:1035F0002168486200BF0420607700BF0020207768
:1036000000BF0120E0E72068806840F010002168DA
:1036100088602068C06820F080002168C86000BF12
:10362000FF202168486200BF0120607700BF0020B2
:10363000207700BF00BFC7E710B5044600BF207F5A
:10364000012801D1022010BD0120207700BF0220F7
:10365000607700BFCA202168486253202168486211
:1036600000BF2046FEF73CFC60B100BFFF20216890
:10367000486200BF0420607700BF0020207700BFB1
:103680000120E0E72068806820F010002168886051
:103690002068C06820F080002168C86000BFFF205B
:1036A0002168486200BF0120607700BF00202077BA
:1036B00000BF00BFC7E7014600BF087F012801D156
:1036C000022070470120087700BF0220487700BF22
:1036D000CA200A68506253200A68506200BF086816
:1036E000806840F020000A68906000BFFF200A68F0
:1036F000506200BF0120487700BF0020087700BF5C
:1037000000BFDEE7014600BF087F012801D102208B
:1037100070470120087700BF0220487700BFCA2009
:103720000A68506253200A68506200BF08688068C7
:1037300000F0DF000A68906000BFFF200A68506256
:1037400000BF0120487700BF0020087700BF00BFFE
:10375000DEE7704770B504460D46002600F00CFB0E
:1037600006460AE0681C40B125B100F005FB801B4D
:10377000A84202D90320607770BD2068C068C0F3FA
:1037800040200028EED02068C06800F0800060F47F
:1037900020702168C860012060770020ECE70000FD
:1037A00000B593B000BF2948006840F08050274919
:1037B00008600846006800F08050019000BF00BF1C
:1037C00000BF2348006840F4404021490860084693
:1037D000006800F44040019000BF00BF012002904B
:1037E0000390002005904FF4800109910220089079
:1037F00008210A914FF4B4710B9102210C91072119
:103800000D9102A8FDF70CFC10B1012013B000BD12
:10381000FDF7E9FA08B10120F8E702200F90002037
:10382000109007200E900E9840F008000E904FF474
:10383000A05011904FF48050129006210EA8FDF771
:10384000EFFD08B10120E1E70020DFE7403802404A
:103850000070004001464FF40030081AC0F38F207A
:1038600070472DE9F04304460E461546DDE9078909
:103870002046FFF7EFFFC7B2002243E0012090404F
:10388000304000B93CE0B14830F8170001219140C8
:103890000843AE4921F81700E0684FEA420C0321C3
:1038A00001FA0CF18843510008FA01F10843E06085
:1038B00020684FEA420C032101FA0CF188435100C1
:1038C00005FA01F108432060012D01D0022D16D127
:1038D00061680120904080B221EA000003FA02F101
:1038E00089B208436060A0684FEA420C032101FAE4
:1038F0000CF18843510009FA01F10843A06000BFB0
:10390000501CC2B2102AB9DBBDE8F08300B50246F4
:103910001046FFF79FFF012101FA00F08C4909686A
:1039200008438B49086000BD2DE9FC4305460C4661
:1039300016461F46DDE909890CB9BDE8FC83284617
:10394000FFF7E4FF3B46324621462846CDE9008991
:10395000FFF787FF00BFF0E72DE9FC4705460E465D
:1039600017469846DDE90A9A0EB9BDE8FC87284655
:10397000FFF7CCFF00241AE00120A040304000B93E
:1039800014E0E10805F1200050F821006107CA0E9B
:103990000F21914088436107C90E0AFA01F10843DB
:1039A000E20805F1200141F8220000BF641C102C40
:1039B000E2D33B46022231462846CDE90089FFF793
:1039C00050FF00BFD1E770B503460C461846FFF71D
:1039D00041FFC5B2002214E001209040204070B1A8
:1039E000186856000321B14008431860574830F862
:1039F0001500012191408843544921F81500501CBD
:103A0000C2B2102AE8DB70BD30B5024600200BE0E0
:103A1000012383400B402BB1136845000324AC40C5
:103A2000A3431360431CD8B21028F1DB30BD30B57E
:103A3000024600200FE0012383400B404BB1136886
:103A400045000324AC40A34345000124AC4023437C
:103A50001360431CD8B21028EDDB30BD30B50246F0
:103A600000200BE0012383400B402BB1136845007D
:103A70000324AC4023431360431CD8B21028F1DB6D
:103A800030BD30B50246002011E0012383400B40D9
:103A900003B90AE0136845000324AC40A343450082
:103AA0000224AC402343136000BF431CD8B210284B
:103AB000EBDB30BD70B50346002011E001248440EB
:103AC0000C4004B90AE0DC6846000325B540AC436D
:103AD000450002FA05F52C43DC6000BF441CE0B24F
:103AE0001028EBDB70BD41F48032C261C161C2615C
:103AF000C369C36970470146002002E0421C90B2CE
:103B000049100129FADC704700B502461046FFF75C
:103B1000A1FE012181400E48006888430C490860DD
:103B200000BD00B502461046FFF794FE074931F884
:103B3000100000BD00B502461046FFF78BFE03499A
:103B400031F81000C04380B200BD00003C000020EE
:103B5000303802409748006820F08070954A106025
:103B60001046006840F0807010609348006820F0B4
:103B70000100914A10601046006840F0010010609A
:103B8000002050601046416800BF00BF8A4840686E
:103B9000401A70472DE9F04705460E4617469846ED
:103BA000DDF8209085480078052802DB0020BDE87C
:103BB000F087142001F09EF904460CB90020F6E7C6
:103BC00065606068A060207866F30000207020784F
:103BD00067F341002070C4F80C80C4F81090774857
:103BE00001780078401C754A1070101D40F8214083
:103BF0002046DCE72DE9F0410646002408E06F4846
:103C0000001D50F82400B04200D105E0601CC4B291
:103C10006A480078A042F2DC00BF68480078A04201
:103C200001D1BDE8F0816548001D50F8247000BF47
:103C3000EFF31080054672B608E06048001D611C75
:103C400050F8211040F82410601CC4B25B48007882
:103C5000401EA042F1DC59480078401E57490870C8
:103C6000384601F01FF905B962B600BFD9E70178FF
:103C700021F0020101707047017821F00201891CD6
:103C80000170704741688160704709B1012200E00E
:103C90000022037862F300030370704741607047AD
:103CA000704710B546480068401C454908604548C3
:103CB000006820B143480068401E42490860002463
:103CC00053E03E48001D50F8240000284BD03B48EC
:103CD000001D50F824000078C0F34000F0B33748CE
:103CE000001D50F82400806850B13448001D50F881
:103CF00024008068401E3149091D51F82410886055
:103D00002E48001D50F82400806838BB2B4B1B1D2B
:103D100053F824301969294B1B1D53F8240053F81C
:103D20002430DA6890472548001D50F82400416887
:103D30002248001D50F8240081602048001D50F8E2
:103D40002400007800F0010040B91C48001D50F824
:103D50002400007820F00201184800E003E0001D74
:103D600050F824000170601CC4B214480078A042CE
:103D7000A7DCFFF795FF10BD11480068704700B53C
:103D8000014600BFEFF3058048B9FFF7F5FF024693
:103D900000BFFFF7F1FF801A8842FAD309E006E07E
:103DA0004FF0E020006900F4803000B1491E002986
:103DB000F6D100BDFCED00E0001000E0580000204E
:103DC00008000020040000201CB5032000210B4641
:103DD0000122CDE9001041031D48FFF7A5FD4FF07A
:103DE000C0401B49183108601CBD1CB500200221D1
:103DF00003460246CDE9001001211648FFF794FD65
:103E00001CBD1448006900F0010080F0010030B9C9
:103E10001148007830B901200F4908707047002020
:103E20000D4908700020F9E70A48006900F0010018
:103E300080F0010038B10848007838B10020064908
:103E40000870012070470120034908700020F9E73D
:103E500000180240000002400C00002010B598B08D
:103E600004460020129034B908200C9001201190D3
:103E700040020A9005E004200C9001200E90000200
:103E80000A900CA8FDF7CCF86846FDF7EFFD01207D
:103E9000F949086018B010BDF0B5034600240025AC
:103EA000587A00F5FA6240F2B270824201DA0020DC
:103EB000F0BD40F2B2711CE00846CE1701EB9676D9
:103EC000B610A1EB86062EB9642691FBF6F706FB29
:103ED000171636B94FF4C87691FBF6F706FB17169E
:103EE00016B94FF4B77601E040F26D163444481C21
:103EF00081B29142E0DB012121E01046D61702EBAE
:103F00009676B610A2EB86062EB9642692FBF6F7DB
:103F100006FB172636B94FF4C87692FBF6F706FB78
:103F200017260EB9012600E0002606EB4606D34F01
:103F300007EB86074E1EBE5D3444481C81B2187ADA
:103F40008842DADCD879401E0444CD4804FB00F5F1
:103F50005879C0EB4016C6EB002005EB0015187928
:103F6000C0EB001005EB80051878054428469FE754
:103F700070B504460D462DB90022C249C248FEF76D
:103F800074F904E00122BF49BF48FEF76EF9BD484D
:103F900000786071BB4840782071BA488078207002
:103FA000BA48006860802DB90022B949B648FEF7CA
:103FB00018FA04E00122B649B348FEF712FAB448F1
:103FC000C0786072B24840782072B1488078E07161
:103FD000AF480078A0712046FFF75EFF0646E66016
:103FE000002070BD30B585B00546A8482838A649E0
:103FF00008601F21A448816040F2FF31C1600020A9
:10400000A14948600021A04801614FF480218161ED
:104010000021416100BF9F48006840F080509D49E9
:1040200008600846006800F08050009000BF00BFA4
:10403000FCF71AFD13219448FFF715F9044644F2E2
:104040002130844215D115B90020FFF707FF8E48B3
:10405000FDF7BFFF002101A8FFF78AFF8D4834302C
:10406000006840F080708B4934310860012005B051
:1040700030BD2846FFF7F2FE00208549C8700120B8
:10408000487088700220087000227F48FEF71BF9F4
:1040900000207C49087048708870C870C86008614A
:1040A00001227948FEF749F87748FDF739FF44F2D5
:1040B000213213217448FFF7CDF80020D7E77FB5F0
:1040C00004460D46012D54D1E07900F00F00E1794E
:1040D000090901EB810100EB4100C0B28DF8070036
:1040E000207A00F00F00217A090901EB810100EB31
:1040F0004100C0B28DF80800607A00F00F00617ACC
:10410000090901EB810100EB4100C0B28DF8090003
:10411000607900F00F006179090901EB810100EB82
:104120004100C0B28DF80500207900F00F00217920
:10413000090901EB810100EB4100C0B28DF80400D8
:10414000207800F00F002178090901EB810100EBD4
:104150004100C0B28DF80000A07900F00F00A179F5
:10416000090901EB810100EB4100C0B28DF80600A6
:1041700014E0E0798DF80700207A8DF80800607A65
:104180008DF8090060798DF8050020798DF804001C
:1041900020788DF80000A0798DF806009DF80910B0
:1041A00063294EDC9DF80810F1B39DF808100C2926
:1041B00047DC9DF80710B9B39DF8091001F5FA60C6
:1041C000C11700EB91718910A0EB810149B99DF8ED
:1041D000091001F5FA61642291FBF2F302FB13115D
:1041E00051B99DF8091001F5FA614FF4C87291FBBD
:1041F000F2F302FB131109B9012100E0002101EBE8
:1042000041011E4A02EB81029DF80810491E515CD3
:104210009DF80720914214DB9DF80510172910DC4A
:104220009DF804103B2900E00BE00ADC9DF800102B
:104230003B2906DC9DF8061019B19DF806100729E8
:1042400002DD012004B070BD60790E49087020794C
:10425000487020788870E0790D498870207A48701D
:10426000607AC870A0790870012D15D10122054926
:104270000548FDF762FF14E03C0E474211000020A4
:10428000805101009000002070000020282800408C
:104290000D000020403802400022F749F748FDF7A2
:1042A0004CFF012D05D10122F549F448FEF70BF82A
:1042B00004E00022F249F148FEF705F8EF48FDF767
:1042C0002FFE0020BEE77FB50546002400208DF8B4
:1042D00007000CE0285D30389DF8071001EB8101E4
:1042E00000EB4100C0B28DF80700601CC4B2285D2D
:1042F000302802DB285D3928ECDD601CC4B20020C8
:104300008DF808000CE0285D30389DF8081001EBAE
:10431000810100EB4100C0B28DF80800601CC4B2FE
:10432000285D302802DB285D3928ECDD601CC4B232
:1043300000208DF809000CE0285D30389DF8091048
:1043400001EB810100EB4100C0B28DF80900601C57
:10435000C4B2285D302802DB285D3928ECDD601C02
:10436000C4B200208DF806000CE0285D30389DF8BE
:10437000061001EB810100EB4100C0B28DF8060090
:10438000601CC4B2285D302802DB285D3928ECDDD2
:10439000601CC4B200208DF805000CE0285D3038A8
:1043A0009DF8051001EB810100EB4100C0B28DF8D2
:1043B0000500601CC4B2285D302802DB285D392866
:1043C000ECDD601CC4B200208DF804000CE0285D18
:1043D00030389DF8041001EB810100EB4100C0B2C0
:1043E0008DF80400601CC4B2285D302802DB285D13
:1043F0003928ECDD601CC4B200208DF800000CE010
:10440000285D30389DF8001001EB810100EB410080
:10441000C0B28DF80000601CC4B2285D302802DBF9
:10442000285D3928ECDD601CC4B200216846FFF726
:1044300046FE04B070BD30B502460AB10C2A01DD5B
:10444000002030BD01F5FA63D81703EB907080109F
:10445000A3EB800030B91846642490FBF4F504FB0C
:10446000150040B901F5FA604FF4C87490FBF4F5FB
:1044700004FB150008B9012000E0002000EB40001B
:10448000804C04EB8004501E205CDAE710B5014636
:1044900001F5FA62D01702EB90708010A2EB800059
:1044A00038B901F5FA60642390FBF3F403FB1400C0
:1044B00040B901F5FA604FF4C87390FBF3F403FBC5
:1044C000140010B94FF4B77010BD40F26D10FBE747
:1044D00070B5044669480068806820F480606749C8
:1044E0000968886065480068806820F480406349F6
:1044F000096888604FF48000634908605F4800687D
:10450000C06800F0800060F490605C490968C86091
:10451000002C3BD0012C01D15C4D2AE0022C01D1B2
:104520005B4D26E0032C02D14EF6FF7521E0042CF2
:1045300002D149F6FF751CE0052C02D144F6FF7547
:1045400017E0062C02D141F6FF7512E0072C02D1CC
:1045500040F6FF750DE0082C02D140F2FF7508E02F
:10456000092C02D140F2FF3503E00A2C01D140F2C0
:10457000FF15012229464148FEF765FD002204216E
:104580000320FBF735FF0320FBF770FF002070BD11
:1045900030B50246D1603C20B1FBF0F400FB1410B2
:1045A00010703C20B1FBF0F1B1FBF0F400FB1410F3
:1045B00010713C20B1FBF0F11820B1FBF0F400FBCE
:1045C000141050711820B1FBF0F1C81C0724B0FB87
:1045D000F4F504FB1500401C907140F2B27323E027
:1045E000DC1703EB9474A410A3EB84042CB96424AB
:1045F00093FBF4F504FB153434B94FF4C87493FB02
:10460000F4F504FB153434B9B1F5B77F02D3A1F545
:10461000B77107E009E0B1F5B67F02D9A1F26D11DB
:1046200000E002E0581C83B2DAE700BFA3F5FA60AD
:104630005072002010723AE0DC1703EB9474A4105F
:10464000A3EB84042CB9642493FBF4F504FB153428
:1046500034B94FF4C87493FBF4F504FB1534CCB9AA
:10466000157A084C0C34645D8C4213D8147A0548D2
:104670000C30005D091A17E0900000207000002047
:104680000D00002011000020143C0140FFBF03007A
:10469000FFDF0100107A6B4C205C884203D8107A4F
:1046A000205C091A00E005E0107A401C1072107AB4
:1046B0000C28C1DB00BF107A401C1072481CD0715E
:1046C000002030BD70B58AB005460C4616462078ED
:1046D00098B94FF080400790207918B901208DF8E3
:1046E00020001CE02079072803DD07208DF820003A
:1046F00015E020798DF8200011E000200790207946
:1047000018B901208DF8200009E020791F2803DD69
:104710001F208DF8200002E020798DF820001DB9BF
:104720004FF48070099002E04FF4007009904FF050
:10473000004005904FF07060069000208DF8030057
:10474000E0788DF80000A0788DF8010060788DF891
:104750000200002001902EB9002269463A48FDF778
:1047600058FF04E0012269463748FDF752FF012255
:1047700004212920FBF73CFE2920FBF777FE0020CF
:104780000AB070BD10B504462CB94FF480712E48A4
:10479000FEF754F804E04FF400712B48FEF74EF892
:1047A000002010BD294A830042F8231070470146BB
:1047B00026488A0050F822007047704770477047BB
:1047C00010B521480068C068C0F3802058B100F0DF
:1047D000A4F81D480068C06800F0800060F4906094
:1047E00019490968C8604FF480001949086010BD74
:1047F00010B515480068C068C0F3002058B11248D1
:104800000068C06800F0800060F4C0700E4909685C
:10481000C86000F089F80C480068C068C0F3402008
:1048200058B109480068C06800F0800060F420704A
:1048300005490968C860FFF7C2FF4FF4003004491A
:10484000086010BD110000207000002050280040BA
:10485000143C014008B5FEF7A3FFFBF7D6FCFFF7B9
:10486000B3FAFFF7C2FA0120FFF7BCFB0720FFF7FE
:104870002FFE51E000212F48FFF77AFB2D480078EA
:104880002D490978884219D02A4800782A490870A9
:104890002848407A00F5FA6000902648037AC279E9
:1048A00026A12C4800F034F92248007800902148D5
:1048B0000379427928A1274800F02AF92C48006999
:1048C00000F0010080F0010030BB04201949C871DC
:1048D000052008720F204872052088711720487142
:1048E0003B2008713220087000211248FFF7E7FBD7
:1048F0000020204908700F484079C8700D480079A1
:1049000088700C480078401D48700A48C0790871CA
:1049100000221046FFF7D6FEACE71748006880F487
:10492000C04015490860704710B50020FFF72AFF06
:1049300010BD0000A40000202E000020446174651A
:104940003A20253032642E253032642E25303464EE
:1049500000000000B400002054696D653A20253045
:1049600032642E253032642E25303264000000007F
:10497000000002402900002014180240704700BFC8
:10498000FEE700BFFEE700BFFEE700BFFEE770479F
:1049900070477047704710B5FFF783F910BD0000EE
:1049A0003F48006840F470003D4908603D48006899
:1049B00040F001003B49086000203A490831086096
:1049C0003848006838490840364908603748091DAA
:1049D0000860081F006820F48020091F086000207C
:1049E00030490C3108604FF000602D498039086073
:1049F000704770B500200022022300240221294DB7
:104A000008352D6805F00C0020B1042806D00828D0
:104A100034D107E0264D274E356033E0264D254E34
:104A200035602FE01F4D2D1D2D68C5F380541D4DA1
:104A30002D1D2D6805F03F0154B11F4DB5FBF1F55B
:104A4000184E361D3668C6F3881605FB06F209E0D7
:104A5000174DB5FBF1F5134E361D3668C6F38816B3
:104A600005FB06F20F4D2D1D2D68C5F301456D1C8C
:104A70006B00B2FBF3F50F4E356003E00C4D0D4EAD
:104A8000356000BF00BF074D08352D68C5F303151D
:104A90000A4E705D074D2D68C540064E356070BDED
:104AA00088ED00E000380240FFFFF6FE10300024E1
:104AB0000024F4003000002000127A00704F00083B
:104AC00030B50B46014600202022012409E021FADE
:104AD00002F59D4205D303FA02F5491B04FA02F5DB
:104AE0002844151EA2F10102F1DC30BD064C074D31
:104AF00006E0E06840F0010394E8070098471034AE
:104B0000AC42F6D3FBF756FB804F0008A04F0008DD
:104B10000FB4084B10B504A902AA039800F01CF8C2
:104B2000044602A9002000F0B8F9204610BC5DF848
:104B300014FB00009B4E000802E008C8121F08C1C9
:104B4000002AFAD170477047002001E001C1121F0E
:104B5000002AFBD1704700002DE9FF4F8BB088463B
:104B60000546002606E025280BD0DDE90D1290470A
:104B70006D1C761C28780028F5D10FB03046BDE8B2
:104B8000F08F0024A146A2460122AE4900E0044372
:104B900015F8013F203B02FA03F00842F7D12878CC
:104BA0002A2810D06FF02F022878A0F130010929AF
:104BB00015D809EB890102EB410144F0020400EB36
:104BC00001096D1CF0E758F8041B5FEA010903D5E1
:104BD00044F40054C9F1000944F002046D1C287823
:104BE0002E2817D115F8010F44F004042A280ED0FE
:104BF0006FF02F022878A0F1300109290AD80AEBBA
:104C00008A0102EB410100EB010A6D1CF2E758F842
:104C100004AB6D1C28786C280FD006DC4C2817D00C
:104C200068280DD06A2814D104E0742810D07A289E
:104C30000FD10DE044F400140AE044F4801401E0C4
:104C400044F440146978814202D104F580146D1C4B
:104C50006D1C2878692865D006DC00288DD0632873
:104C600027D0642806D15DE06E2808D073282AD0AA
:104C7000752877D0DDE90D129047761CE0E0C4F38B
:104C80000250022809D003280DD0D8F800100428BB
:104C90000DD00E6008F10408D2E0D8F80010F21729
:104CA000C1E90062F6E7D8F800100E80F2E70E7056
:104CB000F0E718F8041B8DF8001000208DF80100B3
:104CC000EB46012003E058F804BB4FF0FF306107CA
:104CD0004FF0000701D40AE07F1C57450DDA8742E8
:104CE000FADB1BF807100029F6D106E07F1C87428B
:104CF000FCDB1BF807100029F8D1DDE90D23A9EB37
:104D000007008146214600F0B1F83044C61904E09E
:104D1000DDE90D121BF8010B90477F1EF8D22146EA
:104D2000484688E058F8040BC4F302514FF00A0BD0
:104D3000032900D100B2042900D140B2002802DAD0
:104D400040422D2102E0210505D52B218DF82410AC
:104D5000012104E006E0E10710D02021F6E708AFCA
:104D6000089113E058F8040BC4F302514FF00A0BFA
:104D7000032900D180B2042900D1C0B20021EEE79E
:104D80005946FFF79DFE303107F8011D0028F7D185
:104D9000ADEB070000F1200B600702D524F480344E
:104DA00001E04FF0010ADA4502DDAAEB0B0000E05A
:104DB0000020824600EB0B0108980144A9EB01009A
:104DC0000A90E00306D4DDE90D2321460A9800F09D
:104DD0004DF806444FF0000908E009A911F8090050
:104DE000DDE90D12904709F10109761C0899894502
:104DF000F3DBE0030CD5DDE90D2321460A9800F032
:104E000035F8064404E0DDE90D1230209047761CA9
:104E1000BAF10001AAF1010AF5DC05E0DDE90D12A5
:104E200017F8010B9047761CBBF10001ABF1010BA9
:104E3000F4DC0A982146DDE90D2300F005F806446C
:104E40006D1C97E6092801002DE9F0410446002574
:104E50001E461746880404D405E039462020B04792
:104E60006D1C641EF9D52846BDE8F0812DE9F0419E
:104E7000044600251E469046C80301D5302700E0B1
:104E80002027880404D505E041463846B0476D1C0C
:104E9000641EF9D52846BDE8F0810A68531C0B60F2
:104EA0001070704710B5002821D0114B0022001F50
:104EB000196803E0814203D80A4649680029F9D1FC
:104EC00052B11368841A9C4204D1006818441060DF
:104ED000104602E0506000E0186039B102680B1A19
:104EE000934203D10B681A4402604968416010BDC7
:104EF00034000020F0B50B30154D20F007010024E0
:104F0000144A0FE003688B420BD38B4205D95E1A1B
:104F100043184768C3E9006700E04368136002C0B4
:104F200004E0021D10680028ECD12046002802D1C0
:104F3000286808B10020F0BD064A07481060074AFB
:104F4000121A22F00702C0E9002401202860D7E7E6
:104F500038000020340000201C010020181100201F
:104F6000000000000102030401020304060708090F
:104F70000000000000000000010203040607080909
:104F8000A04F0008000000203C000000384B000843
:104F9000DC4F00083C000020DC180000484B0008F3
:104FA0000000000000000000000000000000000001
:104FB000001F1C1F1E1F1E1F1F1E1F1E1F1F1D1F29
:104FC0001E1F1E1F1F1E1F1E1F00000000000000CE
:0C4FD0000024F4000000000000000000BD
:04000005080001AD41
:00000001FF
