:020000040800F2
:1000000030230120DD010008495600084B56000846
:100010004F560008535600085756000800000000CD
:100020000000000000000000000000005B56000817
:100030005D560008000000005F5600086356000887
:10004000F7010008F7010008F7010008F7010008B0
:10005000F7010008F7010008F7010008F7010008A0
:10006000F7010008F7010008F7010008F701000890
:10007000F7010008F7010008F7010008F701000880
:10008000F7010008F7010008F7010008F701000870
:10009000F7010008F7010008F7010008F701000860
:1000A000F7010008F7010008F7010008F701000850
:1000B000F7010008F7010008F7010008F701000840
:1000C000F7010008F7010008F7010008F701000830
:1000D000F7010008F7010008F7010008F701000820
:1000E000F7010008F7010008F7010008F701000810
:1000F000F7010008F7010008F7010008F701000800
:10010000F7010008F7010008F7010008F7010008EF
:10011000F7010008F7010008F7010008F7010008DF
:10012000F7010008F7010008F7010008F7010008CF
:10013000F7010008F7010008F7010008F7010008BF
:10014000F7010008F7010008F7010008DD4E00087C
:10015000F7010008F7010008F7010008F70100089F
:10016000F7010008F7010008F7010008F70100088F
:10017000F7010008E74E0008F70100080000000042
:10018000F7010008F7010008F7010008F70100086F
:10019000F7010008F7010008F7010008F70100085F
:1001A000F7010008F7010008F7010008F70100084F
:1001B000F7010008F7010008F7010008F70100083F
:1001C000F7010008F7010008DFF80CD006F014FC76
:1001D0000048004791550008302301200648804719
:1001E00006480047FEE7FEE7FEE7FEE7FEE7FEE71C
:1001F000FEE7FEE7FEE7FEE76D560008C9010008CE
:10020000704770B5044602F02FF94FF47A71B0FBD5
:10021000F1F5284600F05AF900222146501E00F060
:10022000DFF8002070BD10B55748006840F400703A
:1002300055490860032000F0C1F80F20FFF7E1FFE7
:1002400000F026FC002010BD704710B54FF0FF30C5
:100250004E49086000200860401E091D086000200B
:100260000860401E49491039086000200860401E9F
:10027000091D086000200860401E091D086000205C
:10028000086000F006FC002010BD41480068401CDA
:100290003F49086070473E480068704731B5002408
:1002A00004F0E2FC044600BF04F0DEFC001B0099F1
:1002B0008842F9D338BD4FF0E020006920F00200F9
:1002C0004FF0E021086170474FF0E020006940F0F6
:1002D00002004FF0E021086170474FF001207047A5
:1002E0002C480068000C70472A480068C0F30B00D7
:1002F00070472848406840F0010026494860704730
:100300002448406820F00100224948607047214895
:10031000406840F002001F49486070471D4840682F
:1003200020F002001B49486070471A48406840F0BE
:1003300004001849486070471648406820F00400DF
:100340001449486070471448006840F001001249A1
:10035000086070471048006820F001000E490860EE
:1003600070470D482038006840F480600A49203901
:100370000860704708482038006820F4406006494B
:100380002039086070470000003C024020380240DD
:1003900000000120002004E02038014010B50028B2
:1003A00007DA0A07140EBF4A00F00F031B1FD454CC
:1003B00003E00A07130EBC4A135410BD00BF00F03F
:1003C0000702B84B0C3B19684FF6FF031940B74BB7
:1003D0000B4343EA0221B34B0C3B196000BF70474B
:1003E0002DE9F05F80460D461646002700F054F9CF
:1003F000074639462A46334601F00700C0F1070A8E
:10040000BAF1040F02D94FF0040A01E0C0F1070A63
:10041000D14600F1040ABAF1070F02D24FF0000AE8
:1004200001E0A0F1030AD4464FF0010A0AFA09FAE2
:10043000AAF1010A0AEA020A0AFA0CFA4FF0010BC1
:100440000BFA0CFBABF1010B0BEA030B4AEA0B04B2
:1004500021464046FFF7A2FFBDE8F09F00BF00F035
:100460001F02012191404209920002F1E022C2F8EC
:10047000001100BF704700BF00F01F020121914032
:100480008B4A430942F8231000BF704700BF00BFEA
:1004900000BF00BF00BFBFF34F8F00BF00BF00BF52
:1004A00080480C38006800F4E06080490843001D73
:1004B0007C490C39086000BF00BF00BFBFF34F8FFD
:1004C00000BF00BF00BF00E000BFFDE770B50446FD
:1004D0002546681EB0F1807F01D301200FE0681E21
:1004E0004FF0E02148610F214FF0FF30FFF756FF3A
:1004F00000204FF0E021886107200861002070BDD6
:100500004178684A803211600178F9B1121D416862
:100510001160017B0907C27A41EA0261827A41EAED
:10052000C241427B41EA8241827B41EA4241C27B35
:1005300041EA0241427A41EA0221027A41EA420159
:1005400002781143574A8832116005E00021554A6C
:1005500084321160121D1160704710B500F09CF8D4
:1005600010BD2DE9F04304462046002808DA4D4F1F
:1005700000F00F0CACF1040C17F80C703F0902E00E
:10058000494F3F5C3F093D460E4606F00700C0F16B
:100590000708B8F1040F02D94FF0040801E0C0F1D8
:1005A0000708C44600F10408B8F1070F02D24FF063
:1005B000000801E0A0F10308474625FA07F84FF0CC
:1005C000010909FA0CF9A9F1010908EA0908C2F8B8
:1005D00000804FF0010808FA07F8A8F1010808EABE
:1005E0000508C3F8008000BFBDE8F08300BF00F03D
:1005F0001F02012191402E4A8032430942F8231004
:1006000000BF704710B501460846294A80324309A9
:1006100052F8232000F01F040123A3401A400AB11E
:10062000012200E00022104610BD00BF00F01F02B2
:10063000012191401F4A430942F8231000BF70472F
:1006400010B5014608461B4A8032430952F8232060
:1006500000F01F040123A3401A400AB1012200E068
:100660000022104610BD042808D14FF0E02109698E
:1006700041F004014FF0E022116107E04FF0E0216A
:10068000096921F004014FF0E022116170477047C1
:1006900010B5FFF7FCFF10BD02480C380068C0F32E
:1006A0000220704718ED00E000E400E00000FA05C9
:1006B00080E100E080E200E0F8B502460B46002150
:1006C00000250024002000BFE4E0012606FA01F521
:1006D0001E6806EA0504AC4271D15E68022E02D0A3
:1006E0005E68122E13D1CF0802F1200656F82700BB
:1006F0004E07F70E0F26BE40B0434F07FF0E1E6990
:10070000BE403043CF0802F1200646F827001068AB
:100710004F000326BE40B0431E7906F003064F008B
:10072000BE40304310605E68012E08D05E68022E25
:1007300005D05E68112E02D05E68122E13D190682B
:100740004F000326BE40B0434F00DE68BE4030433A
:100750009060506801268E40B0431E79C6F30016A3
:100760008E4030435060D0684F000326BE40B043F7
:100770004F009E68BE403043D0605E6806F08056F1
:10078000B6F1805FA8D100BFB44E366846F480460B
:10079000B24F3E603E46366806F48046009600BF83
:1007A00000BFAF4E8F0856F827008E07370F0F2671
:1007B000BE40B043AB4EB24202D100262EE068E00C
:1007C000A94EB24201D1012628E0A84EB24201D181
:1007D000022623E0A64EB24201D103261EE0A54E1A
:1007E000B24201D1042619E0A34EB24201D105263E
:1007F00014E0A24EB24201D106260FE0A04EB24252
:1008000001D107260AE09F4EB24201D1082605E039
:100810009D4EB24201D1092600E00A268F073F0F04
:10082000BE4030438E4E8F0846F82700974E306802
:10083000A0435E6806F48036B6F5803F00D12043C1
:10084000924E3060361D3068A0435E6806F4003674
:10085000B6F5003F00D120438C4E361D3060361D6A
:100860003068A0435E6806F48016B6F5801F00D19C
:100870002043864E08363060361D3068A0435E68DF
:1008800006F40016B6F5001F00D120437F4E0C364B
:100890003060491C1029FFF418AFF8BDF0B50C46C4
:1008A00000250022002300219CE0012606FA01F524
:1008B00004EA0502AA427DD106684FEA410C0327EB
:1008C00007FA0CF7BE430660CF0800F1200656F881
:1008D00027604F074FEAD76C0F2707FA0CF7BE4384
:1008E0004FEAD10C00F1200747F82C6086684FEAE8
:1008F000410C032707FA0CF7BE43866047680126C0
:100900008E40B7434760C6684FEA410C032707FA99
:100910000CF7BE43C660524E8F0856F827308E073C
:10092000370F0F26BE4033404E4EB04201D1002655
:100930002DE04D4EB04201D1012628E04B4EB04291
:1009400001D1022623E04A4EB04201D103261EE027
:10095000484EB04201D1042619E0474EB04201D1C1
:10096000052614E0454EB04201D106260FE0444E64
:10097000B04201D107260AE0424EB04201D108261A
:1009800005E0414EB04201D1092600E00A268F075A
:100990003F0FBE409E4224D18E07370F0F2606FA26
:1009A00007F32F4E8F0856F827609E432C4F4FEACF
:1009B000910C00E015E047F82C60344E3668964301
:1009C000324F3E603E1D366896433F1D3E603E1DE1
:1009D000366896433F1D3E603E1D366896433F1D78
:1009E0003E60491C1029FFF460AFF0BD0246136958
:1009F0000B400BB1012000E0002070470AB181617B
:100A000001E00B048361704742694A4042617047CC
:100A100008B502464FF480300090009808430090DB
:100A20000098D061D1610098D061D0690090D06900
:100A300000F4803008B1002008BD0120FCE77047B9
:100A400010B50446114814300068204028B10F4802
:100A5000143004602046FFF7F2FF10BD4438024016
:100A60000838014000000240000402400008024033
:100A7000000C024000100240001402400018024026
:100A8000001C02400020024000240240003C0140C3
:100A90007047704770477047704730B589B004465B
:100AA000002514B9012009B030BD032084F87D036E
:100AB000204604F06BFE206802F0B4FB242204F10F
:100AC0001001684605F07EFF94E80F0002F06DFB10
:100AD0000021206802F0ADFB002530E00121C5EBCC
:100AE000C50204F1340000EB82004170C5EBC50281
:100AF00004F1340000F82250C5EBC50200EB82007F
:100B0000C5800021C5EBC50204F1340000EB820072
:100B1000C170C5EBC50204F1340000EB82008160B6
:100B2000C5EBC50204F1340000EB8200C160C5EBE7
:100B3000C50204F1340000EB820041616D1C0F2DF1
:100B4000CCD3002536E00021C5EBC50204F5EC70DE
:100B500000EB82004170C5EBC50204F5EC7000F8B3
:100B60002250C5EBC50204F1340000EB8200C580C1
:100B7000C5EBC50204F5EC7000EB8200C170C5EB5B
:100B8000C50204F5EC7000EB82008160C5EBC50284
:100B900004F5EC7000EB8200C160C5EBC50204F502
:100BA000EC7000EB82004161206800F5827040F833
:100BB00025106D1C0F2DC6D3242204F110016846A8
:100BC00005F000FF94E80F0002F07CFB012084F8A0
:100BD0007D03606A012802D1204600F0A3FD206851
:100BE00003F02BF900205EE7704710B5044600BF04
:100BF00094F87C03012801D1022010BD012084F863
:100C00007C0300BF206802F00DFB206803F0C9F8E8
:100C1000206803F012F900BF002084F87C0300BFB5
:100C200000BFEAE710B504460CB9012010BD03204F
:100C300084F87D032046FFF7D8FF204604F0B5FD79
:100C4000002084F87D0300BFF0E710B5044600BF24
:100C500094F87C03012801D1022010BD012084F802
:100C60007C0300BF206803F0D9F8206802F0D3FAB3
:100C700000BF002084F87C0300BF00BFEDE7704791
:100C800070477047704770477047704770472DE94D
:100C9000F84F07460E46D7F800800025AA46C6EB57
:100CA000C60107F1340000EB8104D4E90501451ABF
:100CB000A068A84200D2A568E81CC11700EB91719A
:100CC0004FEAA1091AE0D4E90501451AA068A84233
:100CD00000D2A568E81CC11700EB91714FEAA10989
:100CE000387CABB2F2B200904046E16802F05BFDA6
:100CF000E0682844E060A0692844A06108F510601D
:100D000000EB4610806980B2484506D9D4E9051049
:100D1000884202D260690028D5D1002D0CDC012068
:100D200000FA06FA40F6340050F8080020EA0A00FB
:100D300040F6340141F808000020BDE8F88F704704
:100D4000704770472DE9F84F044626684FF0000AB7
:100D5000D346D0460025002000900027206803F0ED
:100D6000B8F8002867D1206803F076F808B9BDE824
:100D7000F88F206803F070F800F00200022801D11B
:100D800021684861206803F067F800F40020B0F59E
:100D9000002F7CD10025206803F064F8834673E0BF
:100DA0000BF0010000286CD0E9B2206803F06CF869
:100DB000804608F00100E8B3012106F5306000EB41
:100DC00045108160206901282BD1C5EBC50104F5D0
:100DD000EC7000EB8100816806F5306000EB451097
:100DE0000069C0F31200091AC5EBC50204F5EC70E6
:100DF00000EB82008161C5EBC50104F5EC7000EBEE
:100E00008100C5EBC502C16804F5EC7000EB8200FF
:100E100080680144C5EBC50204F5EC7000EB82006C
:100E2000C160E9B2204604F0F7FC2069012811D125
:100E300005B901E00EE049E2C5EBC50104F5EC702F
:100E400000EB8100406928B904F560720121206837
:100E500003F066F808F00800082808D1204604F0DE
:100E6000D2FC082106F5306000EB4510816008F0E7
:100E70001000102805D1102106F5306000EB451058
:100E800081606D1C4FEA5B0BBBF1000F88D12068BD
:100E900002F0E2FF00F48020B0F5802F7ED12068C0
:100EA00002F0E9FF8346002583E00BF001000028F3
:100EB0007CD0E9B2206802F0F2FF804608F0010021
:100EC000F0B30120A840009040F63400805900990A
:100ED000884340F634018851012106F5106000EB8B
:100EE000451081602069012815D1C5EBC50104F1C9
:100EF000340000EB8100C5EBC502C16804F1340089
:100F000000EB820080680144C5EBC50204F13400A7
:100F100000EB8200C160E9B2204604F08DFC20693C
:100F2000012810D165B9C5EBC50104F1340000EB0F
:100F30008100406920B904F560720121206800E059
:100F400001E002F0EDFF08F00800082805D10821B3
:100F500006F5106000EB4510816008F010001028C5
:100F600005D1102106F5106000EB4510816008F0F6
:100F70004000402805D1402106F5106000EB4510E7
:100F8000816008F00200022805D1022106F51060F8
:100F900000EB4510816008F0800001E00DE005E005
:100FA000802803D129462046FFF771FE6D1C4FEAC9
:100FB0005B0BBBF1000F7FF478AF206802F04CFFB1
:100FC00000F00040B0F1004F1AD140F60400805903
:100FD00020F0010140F60400815194F8B00301288B
:100FE00007D1002084F8B0030021204600F0BCFBAC
:100FF00002E0204604F057FC4FF0004021684861B1
:10100000206802F029FF00F40060B0F5006F0CD1F9
:1010100040F60800805900F0010010B1204604F0AD
:101020003BFC4FF4006021684861206802F014FF27
:1010300000F00060B0F1006F17D14FF00060216840
:10104000486194F8B00368B9012084F8B0032068BF
:10105000406DC0F38300C4F8B4030121204600F0C2
:1010600083FB02E0204604F017FC206802F0F4FE47
:1010700000F48050B0F5805F5AD140F604008059EA
:1010800020F0010140F6040081510021206802F0A7
:10109000FBF84FF0000A0CE0FF2106F5106000EBB2
:1010A0004A10816006F5306000EB4A1081600AF159
:1010B000010A60685045EFD84FF0FF3140F6180044
:1010C0008151001D805940F0011140F61C008151F2
:1010D000E06A70B1D6F8840840F00B01C6F88418B5
:1010E00040F64400805940F00B0140F64400815125
:1010F0000EE040F61400805940F00B0140F6140059
:101100008151001F805940F00B014FF40160815163
:10111000D6F8000820F4FE60C6F80008217C04F52B
:101120006072206802F0FCFE4FF480502168486134
:10113000206802F091FE00F40050B0F5005F29D164
:10114000206802F0CBFE2068C06820F4705021684F
:10115000C860206802F084F958B90021E1604FF4BA
:10116000007161612068C06840F410502168C86057
:1011700009E00321E160402161612068C06840F41A
:10118000A0502168C860204604F06DFB4FF4005069
:1011900021684861206802F05FFE00F0100010280E
:1011A00043D12068806920F0100021688861376A87
:1011B00007F00F00C0EBC00104F5EC7000EB8109F3
:1011C000C7F34340022819D147F6F070384030B3D6
:1011D000C7F30A123046D9F80C1002F044FDC7F3E9
:1011E0000A11D9F80C000844C9F80C00C7F30A1119
:1011F000D9F818000844C9F8180010E0C7F34340B4
:1012000006280CD1082204F56071304602F02BFD4F
:10121000C7F30A11D9F818000844C9F81800206863
:10122000806940F0100021688861206802F014FE97
:1012300000F00800082805D1204604F00DFB082026
:1012400021684861206802F007FE00F48010B0F5C4
:10125000801F07D1E9B2204604F035FB4FF480101F
:1012600021684861206802F0F7FD00F40010B0F535
:10127000001F07D1E9B2204604F01CFB4FF4001018
:1012800021684861206802F0E7FD00F08040B0F17D
:10129000804F06D1204604F01FFB4FF080402168AC
:1012A0004861206802F0D8FD00F0040004280DD148
:1012B0002068476807F00400042802D1204604F0A3
:1012C00012FB2068406838432168486000BF4EE543
:1012D00010B5044600BF94F87C03012801D1022018
:1012E00010BD012084F87C0300BF206802F096FD49
:1012F00000BF002084F87C0300BF00BFF0E710B5FA
:10130000044600BF94F87C03012801D1022010BDDF
:10131000012084F87C0300BF206802F08EFD00BF2E
:10132000002084F87C0300BF00BFF0E770B50446DE
:101330000D4600BF94F87C03012801D1022070BD46
:10134000012084F87C0300BF2946206802F054FD88
:1013500000BF002084F87C0300BF00BFEFE72DE949
:10136000F04705460E4690461F464FF0000906F02E
:101370008000802808D106F07F00C0EBC00105F195
:10138000340000EB810407E006F07F00C0EBC001F1
:1013900005F5EC7000EB810406F07F00207006F08C
:1013A0008000C0096070C4F80880E770607808B1F8
:1013B0002078E080022F01D10020207100BF95F835
:1013C0007C03012802D10220BDE8F087012085F8C6
:1013D0007C0300BF2146286802F064F800BF0020AB
:1013E00085F87C0300BF4846EEE770B504460D461D
:1013F00005F08000802808D105F07F00C0EBC00117
:1014000004F1340000EB810607E005F07F00C0EB3B
:10141000C00104F5EC7000EB810605F07F00307030
:1014200005F08000C009707000BF94F87C030128AB
:1014300001D1022070BD012084F87C0300BF314639
:10144000206802F027F900BF002084F87C0300BF69
:1014500000BFEFE72DE9F04104460E4617469846D7
:1014600006F07F00C0EBC00104F5EC7000EB8105D5
:10147000EF60C5F814800020A861687006F07F0056
:1014800028702069012800D12F6100BF94F87C03E7
:10149000012802D10220BDE8F081012084F87C03FC
:1014A00000BF06F07F0028B9227C2946206802F0A0
:1014B00002FB04E0227C2946206802F091F900BF7B
:1014C000002084F87C0300BF00BFE4E7024601F07F
:1014D0007F00C0EBC00302F5EC7000EB8300008BD3
:1014E00080B270472DE9F04104460E4617469846F3
:1014F00006F07F00C0EBC00104F1340000EB810571
:10150000EF60C5F814800020A8610120687006F023
:101510007F0028702069012800D12F6100BF94F856
:101520007C03012802D10220BDE8F081012084F86B
:101530007C0300BF06F07F0028B9227C2946206882
:1015400002F0B9FA04E0227C2946206802F048F94A
:1015500000BF002084F87C0300BF00BFE4E770B543
:1015600004460D4605F08000802808D105F07F0074
:10157000C0EBC00104F1340000EB810605E0C5EBCF
:10158000C50104F5EC7000EB81060120B07005F098
:101590007F003070C5F3C010707000BF94F87C03FA
:1015A000012801D1022070BD012084F87C0300BF16
:1015B0003146206802F06BFB05F07F0028B9217CE2
:1015C00004F56072206802F0ABFC00BF002084F8D4
:1015D0007C0300BF00BFE6E770B504460D4605F08A
:1015E0008000802808D105F07F00C0EBC00104F125
:1015F000340000EB810605E0C5EBC50104F5EC7095
:1016000000EB81060020B07005F07F003070C5F35C
:10161000C010707000BF94F87C03012801D1022033
:1016200070BD012084F87C0300BF3146206802F0C1
:1016300074FB00BF002084F87C0300BF00BFEFE70D
:1016400070B504460D4600BF94F87C03012801D113
:10165000022070BD012084F87C0300BF05F08000EB
:10166000802805D105F07F01206801F00DFE02E021
:10167000206801F0F6FD00BF002084F87C0300BF65
:1016800000BFE6E70246116840F60800405800F047
:10169000010038B140F60400405840F0010340F624
:1016A000040043500020704701460A6840F60400D9
:1016B000805820F0010340F604008350002070475A
:1016C000014691F87D037047F0B5034614460025A6
:1016D00000221868426A21B942EA04401E68B062DA
:1016E00019E01868806A02EB1042002508E01868CB
:1016F00000F5827050F8250002EB1042681CC5B25C
:10170000481EA842F3DC42EA0447186800F58270DC
:101710004E1E40F826700020F0BD0246106841625F
:101720000020704701460A680120C1F8B803002074
:1017300081F8B003906940F000609061506D0B4BF0
:101740001843506500207047024611680020C2F817
:10175000B803886920F000608861486D034BDB4363
:1017600018404865002070477047000003000010D3
:1017700010B50024D548406840F40070D349486053
:1017800003F072FA044607E003F06EFA001BB0F5AE
:101790007A7F01D9032010BDCC484068C0F3C00057
:1017A0000028F1D00020F6E710B50024C7484068B3
:1017B00020F40070C549486003F056FA044607E07B
:1017C00003F052FA001BB0F57A7F01D9032010BD57
:1017D000BE484068C0F3C0000028F1D100BFF6E762
:1017E000BA48006840F40070B84908607047B748CC
:1017F000006820F40070B54908607047B34800687D
:1018000040F40060B14908607047B048006820F4B7
:101810000060AE4908607047AC48006840F48060E2
:10182000AA4908607047A948006820F48060A74969
:101830000860704738B5002400BFA548006840F034
:101840008050A34908600846006800F0805000906E
:1018500000BF00BF9D48006840F480309B4908608D
:1018600003F002FA044607E003F0FEF9001BB0F5AE
:101870007A7F01D9032038BD9448406800F4803055
:10188000B0F5803FF0D19148006840F400308F49B6
:10189000086003F0E9F9044607E003F0E5F9001BEE
:1018A000B0F57A7F01D90320E5E78848406800F465
:1018B0000030B0F5003FF0D10020DCE738B500245F
:1018C00000BF8348006840F08050814908600846A6
:1018D000006800F08050009000BF00BF7B480068A7
:1018E00020F400307949086003F0BEF9044607E0AF
:1018F00003F0BAF9001BB0F57A7F01D9032038BD97
:101900007248406800F40030B0F5003FF0D06F48F6
:10191000006820F480306D49086003F0A5F90446A2
:1019200007E003F0A1F9001BB0F57A7F01D903208D
:10193000E5E76648406800F48030B0F5803FF0D0BD
:101940000020DCE7F8B505460E460024002700BF5E
:101950005F48006840F080505D49086008460068B4
:1019600000F08050009000BF00BF5848406840F42D
:101970004020564948600846006840F4402008600E
:1019800003F072F9074607E003F06EF9C01BB0F5EB
:101990007A7F01D90320F8BD4C48406800F440200C
:1019A000B0F5402FF0D04948046840F60340844326
:1019B0002C43464804604748006840F0040045490D
:1019C0000860012E01D130BF00E020BF414800680F
:1019D00020F004003F4908600020DCE73B48006835
:1019E00000F44040704738B50546002400BF384831
:1019F000006840F08050364908600846006800F0F2
:101A00008050009000BF00BF31483838006800F0B7
:101A10000C00082855D02E484038006820F080700F
:101A20002B494039086003F01FF9044606E003F033
:101A30001BF9001B642801D9032038BD2448403815
:101A40000068C0F340600028F1D100BF1F48006863
:101A500020F4404028431D4908600846006800F40F
:101A60004040009000BF00BF19484038006840F077
:101A7000807017494039086003F0F6F8044606E024
:101A800003F0F2F8001B642801D90320D5E71048C1
:101A900040380068C0F340600028F1D003F0E4F85B
:101AA000044607E003F0E0F8001BB0F57A7F01D9A7
:101AB0000320C2E705484068C0F380300028F1D019
:101AC00001E00120B9E70020B7E700000070004006
:101AD0004038024010ED00E0F848006840F0810016
:101AE000F64908600020F54908310860F3480068AD
:101AF000F3490840F14908600020091D08600846C4
:101B00000068F0490843ED49091D08600020EB49D1
:101B10008431086008460068EB490843E74984318E
:101B20000860E648006820F48020E449086000204E
:101B3000E2490C310860704738B50446002520782A
:101B400000F0010000287DD0DC480830006800F07B
:101B50000C0004280ED0D9480830006800F00C00B2
:101B6000082812D1D548001D006800F48000B0F5A7
:101B7000800F0AD1D1480068C0F340400028E2D06D
:101B8000606800285ED1012038BD00BFCB480068E6
:101B900020F48030C94908600846006820F480209D
:101BA00008600846006820F48030086000BF03F039
:101BB0005BF8054608E003F057F8401B41F2883116
:101BC000884201D90320DFE7BC480068C0F34040E9
:101BD0000028F0D100BFB948006820F48030B74930
:101BE00008606068B0F5803F0AD10846006820F4BC
:101BF000802008600846006840F4803008601AE0E1
:101C00006068B0F5A02F0BD1AC48006840F480208C
:101C1000AA4908600846006840F4803008600AE07D
:101C2000A648006820F48020A4490860084600689F
:101C300020F48030086000BF6068A0B103F014F8A1
:101C4000054609E022E003F00FF8401B41F288311D
:101C5000884201D9032097E798480068C0F34040C4
:101C60000028F0D012E002F0FFFF054608E002F085
:101C7000FBFF401B41F28831884201D9032083E7F2
:101C80008E480068C0F340400028F0D1207800F072
:101C9000020002286AD189480830006800F00C0070
:101CA00060B186480830006800F00C0008281ED19A
:101CB0008248001D006800F48000C0B97F480068B9
:101CC000C0F3400020B1E068012801D001205BE7AB
:101CD0007A48006820F0F800F82292FAA2F2B2FAEC
:101CE00082F2216991400843744908603EE0E0684F
:101CF00028B37248006840F001007049086002F0A3
:101D0000B3FF054606E002F0AFFF401B642801D98F
:101D1000032039E769480068C0F340000028F2D08A
:101D20006648006820F0F800F82292FAA2F2B2FAAF
:101D300082F22169914008436049086016E05F48DB
:101D4000006820F001005D49086002F08DFF054643
:101D500006E002F089FF401B642801D9032013E745
:101D600056480068C0F340000028F2D1207800F007
:101D70000800082836D16069D0B150487430006836
:101D800040F001004D497431086002F06DFF0546D6
:101D900006E002F069FF401B642801D90320F3E646
:101DA000464874300068C0F340000028F1D019E0C4
:101DB00042487430006820F00100404974310860E6
:101DC00002F052FF054606E002F04EFF401B642879
:101DD00001D90320D8E6394874300068C0F34000C8
:101DE0000028F1D1207800F00400042865D100BF5C
:101DF00032484030006840F080503049403108603F
:101E00000846006800F08050009000BF00BF2F48D7
:101E1000006840F480702D49086002F025FF0546F7
:101E200006E002F021FF401B642801D90320ABE645
:101E30002648006800F480700028F2D000BF1F48D8
:101E40007030006820F001001C49703108600846BD
:101E5000006820F0040008600846006820F00100D7
:101E6000086000BF02F000FF054608E002F0FCFE3B
:101E7000401B41F28831884201D9032084E60F4893
:101E800070300068C0F340000028EFD100BF0B485D
:101E90007030006820F00100084970310860A068C7
:101EA000012815D10846006820F0040008600846A3
:101EB000006840F00100086024E04DE00038024076
:101EC000FFFFF6FA103000040030002000700040E0
:101ED000A06805280BD1FE48006840F00400FC49CA
:101EE00008600846006840F0010008600AE0F84811
:101EF000006820F00400F64908600846006820F0F9
:101F00000100086000BFA06898B102F0ADFE054670
:101F100008E002F0A9FE401B41F28831884201D955
:101F2000032031E6EA480068C0F340000028F0D002
:101F300012E002F099FE054608E002F095FE401B13
:101F400041F28831884201D903201DE6E04800684B
:101F5000C0F340000028F0D1A069E8B3DC4868383D
:101F6000006800F00C00082879D0A06902285AD136
:101F7000D7487038006820F08070D5497039086003
:101F800002F072FE054606E002F06EFE401B642879
:101F900001D90320F8E5CE4870380068C0F34060EE
:101FA0000028F1D1206A40F0005047F6C07292FA42
:101FB000A2F2B2FA82F2616A914008430122A16A58
:101FC000C2EB51014FF4403292FAA2F2B2FA82F21D
:101FD00091400843E16900E043E008434FF070623C
:101FE00092FAA2F2B2FA82F2E16A91400843B84949
:101FF0006C390860081F006840F08070091F086095
:1020000002F032FE054606E002F02EFE401B642878
:1020100001D90320B8E5AE4870380068C0F34060CD
:102020000028F1D01DE0AA487038006820F08070C8
:10203000A7497039086002F017FE054607E002F074
:1020400013FE401B642802D903209DE507E0A04849
:1020500070380068C0F340600028F0D101E0012032
:1020600092E5002090E570B504460D46002699489B
:10207000006800F00F00A8426FD29648006820F078
:102080000F002843934908600846006800F00F00DD
:10209000A84201D0012070BD207800F00200022883
:1020A00009D18B486838006820F0F000A168084327
:1020B000874968390860207800F0010000283ED088
:1020C0006068012807D1824870380068C0F340403A
:1020D000A0B90120DFE76068022807D17C4870388A
:1020E0000068C0F3406048B90120D4E778487038F0
:1020F0000068C0F3400008B90120CCE77448683894
:10210000006820F00300616808437149683908607D
:1021100002F0AAFD06466068012811D108E002F02D
:10212000A3FD801B41F28831884201D90320B2E728
:1021300067486838006800F00C000428EFD1B0E070
:102140006068022812D109E002F08EFD801B41F286
:102150008831884202D903209DE719E05C4868383D
:10216000006800F00C000828EED19AE008E002F0C8
:102170007BFD801B41F28831884201D903208AE728
:1021800053486838006800F00C000028EFD188E060
:10219000207800F00200022809D14D486838006814
:1021A00020F0F000A16808434949683908602078A8
:1021B00000F00100002865D06068012807D144487C
:1021C00070380068C0F34040A0B9012063E7606840
:1021D000022807D13E4870380068C0F3406048B913
:1021E000012058E73A4870380068C0F3400008B949
:1021F000012050E736486838006820F00300616825
:10220000084333496839086002F02EFD06466068CD
:10221000012811D108E002F027FD801B41F288312E
:10222000884201D9032036E729486838006800F061
:102230000C000428EFD125E06068022811D108E0E5
:1022400002F012FD801B41F28831884201D903203F
:1022500021E71F486838006800F00C000828EFD11B
:1022600010E008E002F000FD801B41F28831884256
:1022700001D903200FE716486838006800F00C0009
:102280000028EFD11348006820F00F0028431149BF
:1022900008600846006800F00F00A84201D0012045
:1022A000F9E6207800F00400042809D108486838CD
:1022B000006820F4E050E168084305496839086087
:1022C000207800F0080008280ED10148683803E0A3
:1022D00070380240003C0240006820F460402169F0
:1022E00040EAC100DE4908600F20FDF78AFF0020A8
:1022F000D1E670B586B006460C46154636BB00BF23
:10230000D7482830006840F00100D54928310860DE
:102310000846006800F00100009000BF00BF88156B
:102320000190022002900320049000200390059069
:1023300001A9CC48FEF7C0F9C948006820F0EC605C
:1023400044EA05010843C649086025E000BFC448C7
:102350002830006840F00400C14928310860084670
:10236000006800F00400009000BF00BF4815019015
:10237000022002900320049000200390059001A900
:10238000B948FEF799F9B648006820F0784044EA69
:10239000C5010843B249086006B070BDB0480838AE
:1023A000006840F40020AE49083908607047AC4826
:1023B0000838006820F40020A949083908607047EF
:1023C00070B50021002200230020A54C246804F0F1
:1023D0000C0424B1042C04D0082C41D103E0A34800
:1023E00040E0A3483EE09E4C241F246804F03F01D7
:1023F0009B4C241F246804F4800484B19C4CB4FBDF
:10240000F1F5974C241F246847F6C076344096FABD
:10241000A6F6B6FA86F6F44005FB04F20FE0934CFC
:10242000B4FBF1F58E4C241F246847F6C076344087
:1024300096FAA6F6B6FA86F6F44005FB04F2884C46
:10244000241F246804F440344FF4403595FAA5F570
:10245000B5FA85F5EC40641C6300B2FBF3F001E0D3
:10246000824800BF00BF70BD00B5FFF7A9FF7C49DF
:10247000096801F0F001F02292FAA2F2B2FA82F2B7
:10248000D1407C4A515CC8407B49086008460068DE
:1024900000BD00B5FFF7E8FF7149096801F4E0519C
:1024A0004FF4E05292FAA2F2B2FA82F2D140714AAB
:1024B000515CC84000BD00B5FFF7D6FF6849096808
:1024C00001F460414FF4604292FAA2F2B2FA82F251
:1024D000D140684A515CC84000BD0F21016060498D
:1024E0000839096801F48021B1F5802F03D14FF438
:1024F000A02141600DE05A490839096801F4803192
:10250000B1F5803F03D14FF48031416001E00021FB
:10251000416053490839096801F0010111B10121F5
:10252000C16001E00021C1604D490839096801F02E
:10253000F801F82292FAA2F2B2FA82F2D1400161D5
:1025400047496831096801F00401042902D10521D5
:1025500081600AE042496831096801F0010111B166
:102560000121816001E0002181603D496C310968F1
:1025700001F0010111B10121416101E0002141613E
:1025800037490839096801F08071B1F1807F02D1C3
:102590000221816101E0012181613149091F09683E
:1025A00001F48002C2612E49091F096801F03F024F
:1025B00002622B49091F096847F6C072114092FA5E
:1025C000A2F2B2FA82F2D14041622549091F09689C
:1025D00001F4403101F5803149004FF4403292FA64
:1025E000A2F2B2FA82F2D14081621D49091F096844
:1025F00001F070614FF0706292FAA2F2B2FA82F2C8
:10260000D140C16270470F220260154A126802F081
:1026100003024260124A126802F0F0028260104A1D
:10262000126802F4E052C2600D4A126802F460427D
:10263000D2080261114A126802F00F020A60704764
:10264000704710B50648001D006800F08000802823
:1026500005D1FFF7F5FF80200149891D087010BDE5
:102660000838024000000240000802400024F40044
:1026700040787D01946B00087C000120003C024002
:102680002DE9F8430446002600250027A846A94660
:10269000207800F0010088B100BFFE48006820F4F7
:1026A0000000FC49086008460068616B0843F9496E
:1026B000086000BF606B08B94FF00108206800F4A3
:1026C0000020B0F5002F13D1F2488430006820F4C8
:1026D0004010E16B0843EF4984310860E06BB0F5CE
:1026E000801F01D14FF00108E06B08B94FF00109DC
:1026F000206800F48010B0F5801F13D1E5488430C5
:10270000006820F44000216C0843E24984310860ED
:10271000206CB0F5800F01D14FF00108206C08B992
:102720004FF00109206800F08070B0F1807F01D186
:102730004FF00108207800F0200020287ED1D548F5
:102740006830006800F44070218E01F440718842C6
:1027500077D000BFCF483830006840F08050CD4976
:10276000383108600846006800F08050009000BFD3
:1027700000BFC948006840F48070C749086002F093
:1027800073FA064607E002F06FFA801B642802D94C
:102790000320BDE8F883C048006800F4807000287A
:1027A000F1D0BC486830006820F44075B948683002
:1027B000006840F48030B749683108600846006816
:1027C00020F4803008600846056005F0020098B1EA
:1027D00002F04AFA064608E002F046FA801B41F28F
:1027E0008831884201D90320D3E7AA4868300068BD
:1027F000C0F340000028EFD000BF208E00F44070EE
:10280000B0F5407F0AD1A348006820F4F810A34A2D
:10281000216B114008439F49086005E09D4800680E
:1028200020F4F8109B4908609A4868300068218EAF
:10283000C1F30B0108439749683100E001E00860EB
:1028400000BF207800F01000102810D100BF914880
:102850008430006820F080708E498431086008461A
:102860000068A16B08438B498431086000BF208851
:1028700000F48040B0F5804F09D186488830006868
:1028800020F44030616E0843824988310860208816
:1028900000F40040B0F5004F09D17E488830006850
:1028A00020F44020A16E08437A49883108602068EE
:1028B00000F48030B0F5803F09D176488830006858
:1028C00020F44010E16E08437249883108602068A6
:1028D00000F40030B0F5003F09D16E488830006840
:1028E00020F44000216F08436A498831086020784D
:1028F00000F04000402809D166488830006820F088
:102900000300616C0843634988310860207800F057
:102910008000802809D15F488830006820F00C00D2
:10292000A16C08435B4988310860208800F48070FE
:10293000B0F5807F09D157488830006820F030001A
:10294000E16C0843534988310860208800F4007026
:10295000B0F5007F09D14F488830006820F0C000F2
:10296000216D08434B4988310860208800F480605D
:10297000B0F5806F09D147488830006820F4407076
:10298000616D0843434988310860208800F4006085
:10299000B0F5006F09D13F488830006820F44060EE
:1029A000A16D08433B4988310860208800F48050BD
:1029B000B0F5805F09D137488830006820F4405076
:1029C000E16D0843334988310860208800F40050E5
:1029D000B0F5005F09D12F488830006820F44040EE
:1029E000216E08432B4988310860206800F480007C
:1029F000B0F5800F09D127488830006820F080604A
:102A0000A16F0843234988310860206800F4001052
:102A1000B0F5001F0FD11F488830006820F000601B
:102A2000E16F08431B4988310860E06FB0F1006F27
:102A300001D14FF00109207800F00800082801D1E9
:102A40004FF00109206800F48020B0F5802F09D1F3
:102A500010488830006820F04070616F08430D49CD
:102A600088310860206800F40000B0F5000F0AD13A
:102A700008488830006820F08050D4F8801008435F
:102A8000044988310860B8F1010F0AD02068B0F11C
:102A9000007F05E00838024000700040FFFCFF0F97
:102AA0007ED1FE48006820F08060FC49086002F09A
:102AB000DBF8064606E002F0D7F8801B642801D94F
:102AC000032066E6F5480068C0F3C0600028F2D134
:102AD000207800F0010038B3606B28BBEF488430E9
:102AE000006800F440304FF4403191FAA1F1B1FA9E
:102AF00081F120FA01F5E9488430006800F0706047
:102B00004FF0706191FAA1F1B1FA81F120FA01F769
:102B10006068800140EA054040EA0761207A41EAA6
:102B20000070DE4984310860206800F40020B0F5B0
:102B3000002F03D1E06BB0F5801F09D0206800F4AE
:102B40008010B0F5801F36D1206CB0F5800F32D1E7
:102B5000D2488430006800F440304FF4403191FA9C
:102B6000A1F1B1FA81F120FA01F5CC488430006876
:102B700000F0E0404FF0E04191FAA1F1B1FA81F1AB
:102B800020FA01F76068800140EA0541207B41EAB4
:102B9000006040EA0770C14984310860BF4800E026
:102BA00060E08C30006820F01F00616A491E084315
:102BB000BA498C310860206800F08070B0F1807FE5
:102BC00025D1B6488430006800F070604FF0706125
:102BD00091FAA1F1B1FA81F120FA01F5AF48843000
:102BE000006800F0E0404FF0E04191FAA1F1B1FA45
:102BF00081F120FA01F760688101208A41EA0040F2
:102C000040EA056040EA0770A44984310860206802
:102C100000F00070B0F1007F0DD160688101208A62
:102C200041EA0041207B41EA0061207A41EA0070DC
:102C30009A49843108609948006840F0806097495B
:102C4000086002F011F8064606E002F00DF8801B5D
:102C5000642801D903209CE590480068C0F3C06057
:102C60000028F2D0B9F1010F7ED18C48006820F025
:102C700080508A49086001F0F7FF064606E001F03F
:102C8000F3FF801B642801D9032082E58348006894
:102C9000C0F340700028F2D1206800F40020B0F5A5
:102CA000002F01D1E06B38B1206800F48010B0F53E
:102CB000801F32D1206C80BB78488830006800F4D7
:102CC00040304FF4403191FAA1F1B1FA81F120FA8C
:102CD00001F572488830006800F0E0404FF0E041B4
:102CE00091FAA1F1B1FA81F120FA01F7606980014E
:102CF00040EA0541207E41EA006040EA07706749EA
:102D000088310860081D006820F4F851A06A401E50
:102D100041EA002061498C310860206800F400100D
:102D2000B0F5001F2BD1E06FB0F1006F27D15B48E9
:102D30008830006800F070604FF0706191FAA1F186
:102D4000B1FA81F120FA01F554488830006800F0AA
:102D5000E0404FF0E04191FAA1F1B1FA81F120FA9F
:102D600001F76069810100E054E0208C41EA0040F5
:102D700040EA056040EA07704849883108602078D9
:102D800000F0080008282ED144488830006800F080
:102D900070604FF0706191FAA1F1B1FA81F120FAFF
:102DA00001F53E488830006800F440304FF440316F
:102DB00091FAA1F1B1FA81F120FA01F7606980017D
:102DC00040EA074040EA0561207F41EA007033494C
:102DD00088310860081D006820F44030E16A08432B
:102DE0002E498C3108602D48006840F080502B49F6
:102DF000086001F039FF064606E001F035FF801B50
:102E0000642801D90320C4E424480068C0F340705A
:102E10000028F2D00020BCE40021214A02601F4AB1
:102E20008432126847F6C0731A4093FAA3F3B3FAD8
:102E300083F3DA404260194A8432126802F4403265
:102E40004FF4403393FAA3F3B3FA83F3DA40026109
:102E5000124A8432126802F070624FF0706393FA83
:102E6000A3F3B3FA83F3DA40C2600C4A84321268E7
:102E700002F0E0424FF0E04393FAA3F3B3FA83F396
:102E8000DA408260054A8832126847F6C0731A40F9
:102E900093FAA3F3B3FA83F3DA4003E00038024075
:102EA000F1FFFF004261AB4A126802F440324FF476
:102EB000403393FAA3F3B3FA83F3DA400262A54AEC
:102EC000126802F070624FF0706393FAA3F3B3FAE2
:102ED00083F3DA4082619F4A126802F0E0424FF0C9
:102EE000E04393FAA3F3B3FA83F3DA40C261994A59
:102EF000121D126802F01F021F2393FAA3F3B3FA04
:102F000083F3DA404262934A121D126802F4F852C7
:102F10004FF4F85393FAA3F3B3FA83F3DA408262DF
:102F20008C4A121D126802F440324FF4403393FA77
:102F3000A3F3B3FA83F3DA40C262864A121D126821
:102F400002F44012C263834A121D126802F4400266
:102F50000264804A803A126802F4000242637D4AA9
:102F60000832126802F4403242667A4A0832126825
:102F700002F440228266774A0832126802F4401254
:102F8000C266744A0832126802F440020267714A4B
:102F90000832126802F0030242646E4A0832126874
:102FA00002F00C0282646B4A0832126802F03002AE
:102FB000C264684A0832126802F0C0020265654ABB
:102FC0000832126802F440724265624A083212689E
:102FD00002F4406282655F4A0832126802F440528D
:102FE000C2655C4A0832126802F440420266594ADD
:102FF0000832126802F040724267564A083212687C
:1030000002F080628267534A0832126802F000625E
:10301000C267504A0832126802F08052C0F880201D
:103020004C4A803A126802F4F8114A4A183A126877
:1030300002F440720A430263464A121D126802F00B
:10304000807212B90022826302E04FF080728263C4
:10305000704770B502460021002000230024B2F51D
:10306000002F02D0B2F5801F73D13A4D2D1D2C6870
:1030700004F47004B4F5001F65D004DC54B1B4F559
:10308000801F64D131E0B4F5800F2FD0B4F5000F6C
:103090005DD159E02F4D843D2D6805F4800545B97B
:1030A0002C4D843D2D6805F03F052B4EB6FBF5F306
:1030B00007E0284D843D2D6805F03F05274EB6FBFF
:1030C000F5F3244D2D68C5F30361224D2D68C5F33A
:1030D00088155D43B5FBF1F01E4D2D1D2D68C5F320
:1030E0000425691CB0FBF1F032E000BF194D843DAE
:1030F0002D6805F4800545B9164D843D2D6805F011
:103100003F05154EB6FBF5F307E0124D843D2D68E3
:1031100005F03F05114EB6FBF5F30E4D2D1F2D6842
:10312000C5F303610B4D2D1F2D68C5F388155D4355
:10313000B5FBF1F0074D2D1D2D6805F01F05691C2D
:10314000B0FBF1F004E000BF054801E001E000BF82
:1031500000BF70BD883802400024F40040787D0133
:103160000080BB000146002200BF501C0246FD4B00
:10317000984201D903207047086900F000400028F8
:10318000F3D00022086940F00100086100BF501C24
:103190000246F44B984201D90320ECE7086900F09D
:1031A00001000028F3D100BFE5E70FB410B50446D5
:1031B0000898012816D1A06B20F48030A063E06845
:1031C000E9490840E060E06820F44010E0600E98B3
:1031D000012803D1E06840F48010E0602046FFF74A
:1031E000C1FF09E0E06840F04000E0602046FFF7E2
:1031F000B9FF4FF48030A0630698012807D1A0687A
:1032000040F00C00A060A06840F02000A06000200A
:1032100010BC5DF814FB0146886840F0010088602E
:10322000002070470146886820F001008860002077
:10323000704770B504460D46E06820F0C040E0607D
:10324000012D04D1E06840F00050E06004E01DB9B9
:10325000E06840F08040E060322001F008FD00208E
:1032600070BD014600221020086100BF501C0246BC
:10327000BC4B984201D903207047086900F0100048
:103280001028F3D00020F7E710B5024600232020D5
:1032900040EA8110106100BF581C0346B14CA042A7
:1032A00001D9032010BD106900F020002028F3D0C0
:1032B0000020F7E70246D2F800080843C2F80008E9
:1032C000002070470FB430B504460025A06B40F4D1
:1032D0000010A0630D9858B9A06B20F40010A063F3
:1032E000206840F040002060206840F080002060AE
:1032F0000020C4F8000ED4F80008C4F800080998AB
:1033000001280BD1069820B900212046FFF7D2FFF3
:1033100008E001212046FFF7CDFF03E0032120460E
:10332000FFF7C8FF10212046FFF7AEFF2046FFF74A
:1033300098FF00214FF401600151001D0151491E09
:10334000001D01510021001D0151002524E004F55C
:10335000106000EB4510006800F00040B0F1004F35
:1033600007D14FF0904104F5106000EB451001606B
:1033700005E0002104F5106000EB4510016000211C
:1033800004F5106000EB45100161FF2104F51060A9
:1033900000EB451081606D1C0498A842D7D8002529
:1033A00024E004F5306000EB4510006800F00040B8
:1033B000B0F1004F07D14FF0904104F5306000EBC1
:1033C0004510016005E0002104F5306000EB451078
:1033D0000160002104F5306000EB45100161FF2120
:1033E00004F5306000EB451081606D1C0498A84224
:1033F000D7D84FF40160005920F480714FF4016078
:103400000151079801280BD158494FF4036001512D
:103410000059574908434FF40361085108460559BC
:103420000020A0616FF080406061079818B9A06922
:1034300040F01000A061A0694E490843A0610A98BD
:1034400018B1A06940F00800A0610D98012803D1CF
:10345000A06949490843A061002030BC5DF814FB15
:103460000146002040F60802525802F0060202B956
:1034700017E040F60802525802F00602022A06D06F
:1034800040F60802525802F00602062A01D1032033
:1034900007E040F60802525802F00602042A00D162
:1034A0000220704710B50246487801282BD140F61B
:1034B0001C0080580C780123A3409BB2184340F6AF
:1034C0001C039850087802F5106303EB4010006865
:1034D00000F40040F0BB0889C0F30A00CB7840EA52
:1034E00083400B7840EA835040F0805040F4004025
:1034F00002F5106404EB43131B6818430B7804EBCC
:10350000431318602CE040F61C0080580C7801230F
:10351000A3401A4C04EA0343184340F61C03985096
:10352000087802F5306303EB4010006800F40040B7
:1035300080B90889C0F30A00CB7840EA834040F0A4
:10354000805040F400400B7802F5306404EB4313E4
:103550001B6800E004E018430B7804EB4313186089
:10356000002010BD400D0300BFFFBDFF0001800023
:103570000300010000383C80040000400000FFFF11
:1035800010B50246487801283DD1087802F510634D
:1035900003EB4010006800F40040B0B90889C0F3A4
:1035A0000A00CB7840EA83400B7840EA835040F031
:1035B000805040F4004002F5106404EB43131B6894
:1035C00018430B7804EB431318600889C0F30A0012
:1035D000CB7840EA83400B7840EA835040F080503B
:1035E00040F40040FE4B1B681843FD4B186040F64A
:1035F0003C0080580C780123A3409BB2184340F64E
:103600003C03985044E0087802F5306303EB401027
:10361000006800F4004070BB0889C0F30A00CB7852
:1036200040EA83400B7840EA835040F40043087836
:1036300002F5306404EB4010006818430B7804EB8B
:10364000431318602046E64B18600878234603EBC6
:103650004010E34B18600889C0F30A00CB7840EAB9
:1036600083400B7840EA835040F40040DC4B1B68F9
:103670001843DB4B186040F63C0080580C7801235F
:10368000A340D84C04EA0343184340F63C03985047
:10369000002010BD10B502464878012822D140F61E
:1036A0003C0080580C780123A3409BB2984340F61D
:1036B0003C03985040F61C0080580C780123A3402E
:1036C0009BB2984340F61C039850087802F51063AB
:1036D00003EB4010006820F40044087803EB40102E
:1036E000046026E040F63C0080580C780123A3409B
:1036F000BC4C04EA0343984340F63C03985040F620
:103700001C0083580C780120A040B64C04EA00400D
:1037100023EA000040F61C039850087802F5306355
:1037200003EB4010006820F40044087803EB4010DD
:103730000460002010BD10B502464878012817D15A
:10374000087802F5106303EB4010006820F4004491
:10375000087803EB4010046040F61C0083580C7896
:103760000120A04080B2834340F61C00835018E043
:10377000087802F5306303EB4010006820F4004441
:10378000087803EB4010046040F61C0080580C7869
:103790000123A340934C04EA0343984340F61C03DF
:1037A0009850002010BDF0B50446059E0027002566
:1037B000A6B9D81C4FEAE07C00EB9C7C4FEAAC0732
:1037C00000BF09E0D1F800C004F5805000EB0230E2
:1037D000C0F800C06D1C091DBD42F3D30020F0BD30
:1037E000F8B505460C4616460027607801287DD1BD
:1037F000606918BB207805F5106101EB4010006985
:1038000079490840217805F5106202EB4111086101
:103810002078114601EB4010006940F40022207826
:1038200001EB40100261207801EB40100069C20CEE
:10383000D204207801EB401002614FE0207805F5BA
:10384000106101EB40100069C20CD204207801EB3A
:1038500040100261207801EB401000696249084085
:10386000217805F5106202EB41110861A1686069D9
:103870000844401EB0FBF1F05B49C94301EAC04077
:10388000217802EB411109690843217802EB4111CB
:1038900008612078114601EB401001696069C0F3AE
:1038A00012000143207802EB40100161E07801280A
:1038B00014D12078114601EB4010006920F0C0427D
:1038C000207801EB40100261207801EB4010006984
:1038D00040F00052207801EB40100261012E09D126
:1038E000207805F5106101EB401000E04BE0226903
:1038F00042610EE0E07801280BD0606948B140F6E3
:1039000034004059227801219140084340F63401A7
:103910004851E07801281ED140F60800405900F4D3
:10392000807060B9207805F5106101EB40100068E7
:1039300040F00052207801EB401002600BE020784C
:1039400005F5106101EB4010006840F080522078CE
:1039500001EB40100260207805F5106101EB40108A
:10396000006840F00442207801EB40100260E078EB
:10397000012807D10096A08A83B222782846E16800
:10398000FFF711FF95E0207805F5306101EB40105D
:103990000069C20CD204207801EB4010026120784B
:1039A00001EB4010016910480140207805F53062B4
:1039B00002EB401001616069F8B92078114601EB13
:1039C00040100069A168C1F312010843217802EB9D
:1039D000411108612078114601EB4010006905E0B3
:1039E000040001200000FFFFFFFF07E040F4002279
:1039F000207801EB4010026124E0A168606908446E
:103A0000401EB0FBF1F087B2207805F5306101EB84
:103A100040100069F74901EAC7410843217805F5DC
:103A2000306202EB411108612078114601EB401031
:103A30000169A0687843C0F312000843217802EBC3
:103A400041110861012E06D1207805F5306101EBA6
:103A50004010E2684261E07801281ED140F608007B
:103A6000405900F4807060B9207805F5306101EBB1
:103A70004010006840F00052207801EB40100260D6
:103A80000BE0207805F5306101EB4010006840F054
:103A90008052207801EB40100260207805F53061FB
:103AA00001EB4010006840F00442207801EB401028
:103AB00002600020F8BD30B50346487801287CD16B
:103AC000486920BB087803F5106404EB40100069D6
:103AD000C84CE44320400C7803F5106505EB441412
:103AE000206108782C4604EB4010006940F4002562
:103AF000087804EB40100561087804EB4010006979
:103B0000C50CED04087804EB4010056138E0087836
:103B100003F5106404EB40100069C50CED0408784F
:103B200004EB40100561087804EB40100469B148CB
:103B3000C0430440087803F5106505EB40100461AC
:103B40008C684869A04201D988684861087803F503
:103B5000106404EB4010006940F40025087804EB81
:103B600040100561087804EB401004694869C0F30F
:103B700012000443087803F5106505EB401004615A
:103B8000012A07D1087803F5106404EB40100D6991
:103B900045610BE0486948B140F63400C0580D78E3
:103BA0000124AC40204340F63404E050087803F58B
:103BB000106404EB4010006800E006E040F00445AB
:103BC000087804EB401005604BE0087803F530649A
:103BD00004EB40100069C50CED04087804EB4010BC
:103BE0000561087804EB40100069824CE4432040F2
:103BF0000C7803F5306505EB44142061486908B181
:103C000088684861087803F5306404EB4010006967
:103C100040F40025087804EB40100561087804EBB7
:103C2000401000698C68C4F3120420430C7803F53B
:103C3000306505EB44142061012A06D1087803F5AC
:103C4000306404EB4010CD684561087803F53064BA
:103C500004EB4010006840F00445087804EB401085
:103C60000560002030BD70B503460024D01CC61787
:103C700000EB9676B51000BF05E04FF48050C058B9
:103C80000860641C091DAC42F7D3084670BD10B52E
:103C90000246487801281FD1087802F5106303EB2B
:103CA0004010006800F0004048B9087803EB40106D
:103CB000006820F08044087803EB40100460087826
:103CC00002F5106303EB4010006840F4001408781C
:103CD00003EB401004601EE0087802F5306303EB4C
:103CE0004010006800F0004048B9087803EB40102D
:103CF000006820F08044087803EB401004600878E6
:103D000002F5306303EB4010006840F400140878BB
:103D100003EB40100460002010BD10B50246487847
:103D200001281ED1087802F5106303EB40100068EB
:103D300020F40014087803EB40100460C8780328CE
:103D400002D0C87802282AD1087802F5106303EB64
:103D50004010006840F08054087803EB4010046085
:103D60001DE0087802F5306303EB4010006820F492
:103D70000014087803EB40100460C878032802D0D0
:103D8000C87802280BD1087802F5306303EB4010A5
:103D9000006840F08054087803EB40100460002075
:103DA00010BD30B5044600250BE0FF2104F510607E
:103DB00000EB4510816004F5306000EB4510816038
:103DC0006D1C0F2DF1D34FF0FF3140F6180001515B
:103DD00000214FF401600151001D015140F61C000B
:103DE00001512046FFF73DFA10212046FFF74CFA1B
:103DF000002030BD0000F81F0246D2F8000820F471
:103E0000FE60C2F80008D2F800084FF4FE6303EA2F
:103E100001131843C2F800080020704710B504468B
:103E200040F60400005920F0020140F60400015160
:103E3000032000F01CFF002010BD10B5044640F622
:103E40000400005940F0020140F604000151032033
:103E500000F00DFF002010BD0146002048698A696E
:103E600010407047014640F618004258001D405867
:103E70000240100C7047014640F618004258001DE1
:103E80004058024090B27047024602F5306303EB9F
:103E90004113986840F614039B581840704730B59A
:103EA00002464FF40165AB5840F63405AC5824FA8D
:103EB00001F505F0010543EAC51302F5106505EBB0
:103EC0004115AD6805EA030030BD42690A4342610D
:103ED00070470146486900F00100704701464FF401
:103EE00010604058C20AD2024FF41060425040F6AF
:103EF0000800405800F00600042807D14FF4106075
:103F0000405840F003024FF41060425040F6040065
:103F1000405840F4807240F6040042500020704740
:103F200010B503460024C3F8104BD3F8100B40F42F
:103F30000024C3F8104BD3F8100B40F01804C3F85A
:103F4000104BD3F8100B40F0C044C3F8104B0129BC
:103F500006D1C3F8142B4FF080244FF43060C450C6
:103F6000002010BD08B50246D2F840040090009829
:103F700020F02E000090009800F4805030B9012904
:103F800004D1009840F48050C2F84004009800F436
:103F90008050B0F5805F05D121B9009820F48050A1
:103FA000C2F84004002008BD0FB470B504460020DC
:103FB000C4F8000EA06B40F40010A063079803281B
:103FC00009D1B4F1A04F06D0D4F8000440F00400A9
:103FD000C4F8000405E0D4F8000420F00400C4F89C
:103FE000000410212046FFF74FF92046FFF739F96A
:103FF00000250DE04FF0FF3104F5A06000EB451007
:104000008160002104F5A06000EB4510C1606D1CCB
:104010000698A842EED801212046FFF7A3FFC8204A
:1040200000F025FE0020A061401E6061B4F1A04FA9
:1040300007D180206062FC48A062FC48C4F80001FF
:1040400007E04FF400706062F948A062F948C4F8D4
:104050000001089818B9A06940F01000A061A0699B
:10406000F5490843A061002070BC5DF814FB0246CE
:10407000D2F8000420F00300C2F80004D2F80004D3
:1040800001F003031843C2F80004012905D14BF6DF
:10409000803340F20440835006E0022904D141F20B
:1040A000707340F2044083500020704738B50446D6
:1040B000D4F840040090009820F02E000090009862
:1040C00040F48070C4F840040A2000F0D0FD00984D
:1040D00020F48070C4F84004002038BD08B50146C3
:1040E000D1F8400400900098C0F3414008BD01465B
:1040F0004FF48160405880B270472DE9F04104468A
:10410000DDE90757069E4FF0FF3C04F5A06000EB89
:104110004110C0F808C035B1012D48D0022D03D0A0
:10412000032D5DD12AE000BF40F29D4C04F5A06054
:1041300000EB4110C0F80CC002F0800068B104F53B
:10414000A06000EB4110C06840F4807C04F5A060E2
:1041500000EB4110C0F80CC00FE0B4F1A04F0CD040
:1041600004F5A06000EB4110C06840F0600C04F55D
:10417000A06000EB4110C0F80CC031E040F29D6C33
:1041800004F5A06000EB4110C0F80CC002F0800004
:1041900060B104F5A06000EB4110C06840F4807C81
:1041A00004F5A06000EB4110C0F80CC018E040F22C
:1041B000252C04F5A06000EB4110C0F80CC002F003
:1041C000800060B104F5A06000EB4110C06840F4CD
:1041D000C07C04F5A06000EB4110C0F80CC000BF2B
:1041E00000BF4FF4836000594FF0010C0CFA01FC42
:1041F00040EA0C00C4F81804A06940F00070A06107
:104200004FF0FE5000EA83504FF4F04C0CEAC22C01
:1042100040EA0C00C2F3C01C4FF4004808EACC3C52
:1042200040EA0C00022E02D14FF0010C01E04FF0E9
:10423000000C4FF4003808EA4C4C40EA0C004FF4F4
:10424000402C0CEA854C40EA0C00C7F30A0C40EA0B
:104250000C0004F5A06C0CEB411CCCF80000032D05
:104260000CD104F5A06000EB4110006840F0005C48
:1042700004F5A06000EB4110C0F800C00020BDE8CC
:10428000F08130B50246012400236C4800EAC440A6
:1042900040F0004502F5A06000EB4110056102F519
:1042A000A06000EB4110036823F0804343F000431B
:1042B00002F5A06000EB41100360002030BD2DE945
:1042C000F84F05460C4616464FF0000BDA4600271D
:1042D0004FF48078B946B5F1A04F1CD02079D0B901
:1042E0004EB96079012806D161782846FFF7C9FFE9
:1042F0000020BDE8F88F012E0DD1607805F5A06192
:1043000001EB4010C06820F06002607801EB4010C3
:10431000C26000206071206968B121892069084469
:10432000401EB0FBF1F087B2474505DD47462089C6
:104330007843206100E00127E07810B120897843BC
:1043400020612069C0F312003C4901EAC7410843DB
:10435000A17A4FF0C04202EA41710843617805F545
:10436000A06202EB4111086136B1607805F5A061E9
:1043700001EB4010E26842614FF48160405900F067
:10438000010080F0010B607805F5A06101EB4010A1
:10439000006820F00052607801EB40100260607805
:1043A00001EB4010006840EA4B72607801EB40106E
:1043B0000260607801EB4010D0F8009029F080494D
:1043C00049F00049607801EB4010C0F8009056BBFE
:1043D000E07840BB206930B3E07930B1012813D0D8
:1043E000022803D003282BD10DE000BF2069C01C98
:1043F000C0F38F0AE86A80B2504503D2A86940F042
:104400002000A8611DE000BF2069C01CC0F38F0A16
:104410004FF48260405980B2504503D2A86940F001
:104420008060A8610DE016E080006000E0004000C0
:10443000000200010003E000080020A30000F81FB4
:1044400000BF00BF00200090208A83B26278284617
:10445000E168FFF7A8F900204BE7014640F214405D
:10446000405880B2704710B50246002302F5A060A4
:1044700000EB41100068002038B902F5A06000EBA5
:104480004110006800F40020C8B302F5A06000EB02
:104490004110006840F0804402F5A06000EB41103C
:1044A0000460D06A80B258BB02F5A06000EB4110F6
:1044B000006820F0004402F5A06000EB41100460A9
:1044C00002F5A06000EB4110006840F0004402F5E6
:1044D000A06000EB4110046002F5A06000EB411009
:1044E000006820F4004402F5A06000EB4110046075
:1044F00000BF581C0346B0F57A7F02D90BE018E0E4
:104500000AE002F5A06000EB4110006800F00040F6
:10451000B0F1004FEDD060E002F5A06000EB41107B
:10452000006840F0004402F5A06000EB4110046018
:1045300053E002F5A06000EB4110006840F08044B9
:1045400002F5A06000EB411004604FF482608058D7
:1045500080B2A8BB02F5A06000EB4110006820F01B
:10456000004402F5A06000EB4110046002F5A06079
:1045700000EB4110006840F0004402F5A06000EB41
:104580004110046002F5A06000EB4110006820F4C7
:10459000004402F5A06000EB4110046000BF581C0D
:1045A0000346B0F57A7F00D909E002F5A06000EB80
:1045B0004110006800F00040B0F1004FEFD00CE077
:1045C000FFE702F5A06000EB4110006840F00044F6
:1045D00002F5A06000EB41100460002010BDF0B5B2
:1045E000054600272846FEF71DFE10212846FEF747
:1045F0004BFE2846FEF735FE002411E005F5A060CD
:1046000000EB4410066846F0804626F0004626F48B
:10461000004605F5A06000EB44100660601CC4B2C3
:104620000F2CEBDD002423E005F5A06000EB441027
:10463000066846F0804646F0004626F4004605F53A
:10464000A06000EB4410066000BF781C0746B0F580
:104650007A7F00D909E005F5A06000EB44100068FE
:1046600000F00040B0F1004FEFD000BF601CC4B2BA
:104670000F2CD9DD4FF0FF3140F214404151084674
:1046800068612846FEF7C7FD0020F0BD00B593B075
:1046900000BF2A48006840F080502849086008465A
:1046A000006800F08050019000BF00BF00BF2448A8
:1046B000006840F44040224908600846006800F461
:1046C0004040019000BF00BF012002900004039011
:1046D000002005904FF480010991022008901921D3
:1046E0000A914FF4D8710B9102210C9108210D9180
:1046F00002A8FDF721FA10B1012013B000BDFDF7AB
:1047000099F808B10120F8E702200F9000201090DE
:1047100007200E900E9840F008000E904FF4A05025
:1047200011904FF48050129006210EA8FDF79BFCCB
:1047300008B10120E1E70020DFE700004038024037
:104740000070004001464FF40030081AC0F38F207B
:1047500070472DE9F04304460E461546DDE907890A
:104760002046FFF7EFFFC7B2002243E00120904050
:10477000304000B93CE0B14830F8170001219140C9
:104780000843AE4921F81700E0684FEA420C0321C4
:1047900001FA0CF18843510008FA01F10843E06086
:1047A00020684FEA420C032101FA0CF188435100C2
:1047B00005FA01F108432060012D01D0022D16D128
:1047C00061680120904080B221EA000003FA02F102
:1047D00089B208436060A0684FEA420C032101FAE5
:1047E0000CF18843510009FA01F10843A06000BFB1
:1047F000501CC2B2102AB9DBBDE8F08300B50246F6
:104800001046FFF79FFF012101FA00F08C4909686B
:1048100008438B49086000BD2DE9FC4305460C4662
:1048200016461F46DDE909890CB9BDE8FC83284618
:10483000FFF7E4FF3B46324621462846CDE9008992
:10484000FFF787FF00BFF0E72DE9FC4705460E465E
:1048500017469846DDE90A9A0EB9BDE8FC87284656
:10486000FFF7CCFF00241AE00120A040304000B93F
:1048700014E0E10805F1200050F821006107CA0E9C
:104880000F21914088436107C90E0AFA01F10843DC
:10489000E20805F1200141F8220000BF641C102C41
:1048A000E2D33B46022231462846CDE90089FFF794
:1048B00050FF00BFD1E770B503460C461846FFF71E
:1048C00041FFC5B2002214E001209040204070B1A9
:1048D000186856000321B14008431860574830F863
:1048E0001500012191408843544921F81500501CBE
:1048F000C2B2102AE8DB70BD30B5024600200BE0E2
:10490000012383400B402BB1136845000324AC40C6
:10491000A3431360431CD8B21028F1DB30BD30B57F
:10492000024600200FE0012383400B404BB1136887
:1049300045000324AC40A34345000124AC4023437D
:104940001360431CD8B21028EDDB30BD30B50246F1
:1049500000200BE0012383400B402BB1136845007E
:104960000324AC4023431360431CD8B21028F1DB6E
:1049700030BD30B50246002011E0012383400B40DA
:1049800003B90AE0136845000324AC40A343450083
:104990000224AC402343136000BF431CD8B210284C
:1049A000EBDB30BD70B50346002011E001248440EC
:1049B0000C4004B90AE0DC6846000325B540AC436E
:1049C000450002FA05F52C43DC6000BF441CE0B250
:1049D0001028EBDB70BD41F48032C261C161C2615D
:1049E000C369C36970470146002002E0421C90B2CF
:1049F00049100129FADC704700B502461046FFF75E
:104A0000A1FE012181400E48006888430C490860DE
:104A100000BD00B502461046FFF794FE074931F885
:104A2000100000BD00B502461046FFF78BFE03499B
:104A300031F81000C04380B200BD0000D001012059
:104A4000303802409748006820F08070954A106026
:104A50001046006840F0807010609348006820F0B5
:104A60000100914A10601046006840F0010010609B
:104A7000002050601046416800BF00BF8A4840686F
:104A8000401A70472DE9F04705460E4617469846EE
:104A9000DDF8209085480078052802DB0020BDE87D
:104AA000F087142002F040F804460CB90020F6E725
:104AB00065606068A060207866F300002070207850
:104AC00067F341002070C4F80C80C4F81090774858
:104AD00001780078401C754A1070101D40F8214084
:104AE0002046DCE72DE9F0410646002408E06F4847
:104AF000001D50F82400B04200D105E0601CC4B293
:104B00006A480078A042F2DC00BF68480078A04202
:104B100001D1BDE8F0816548001D50F8247000BF48
:104B2000EFF31080054672B608E06048001D611C76
:104B300050F8211040F82410601CC4B25B48007883
:104B4000401EA042F1DC59480078401E57490870C9
:104B5000384601F0C1FF05B962B600BFD9E7017858
:104B600021F0020101707047017821F00201891CD7
:104B70000170704741688160704709B1012200E00F
:104B80000022037862F300030370704741607047AE
:104B9000704710B546480068401C454908604548C4
:104BA000006820B143480068401E42490860002464
:104BB00053E03E48001D50F8240000284BD03B48ED
:104BC000001D50F824000078C0F34000F0B33748CF
:104BD000001D50F82400806850B13448001D50F882
:104BE00024008068401E3149091D51F82410886056
:104BF0002E48001D50F82400806838BB2B4B1B1D2D
:104C000053F824301969294B1B1D53F8240053F81D
:104C10002430DA6890472548001D50F82400416888
:104C20002248001D50F8240081602048001D50F8E3
:104C30002400007800F0010040B91C48001D50F825
:104C40002400007820F00201184800E003E0001D75
:104C500050F824000170601CC4B214480078A042CF
:104C6000A7DCFFF795FF10BD11480068704700B53D
:104C7000014600BFEFF3058048B9FFF7F5FF024694
:104C800000BFFFF7F1FF801A8842FAD309E006E07F
:104C90004FF0E020006900F4803000B1491E002987
:104CA000F6D100BDFCED00E0001000E0EC010120B9
:104CB0000C000120080001201CB5032000210B4638
:104CC0000122CDE9001002211D48FFF7A5FD4FF498
:104CD00000301B4988611CBD1CB500200221034621
:104CE0000246CDE9001089021548FFF795FD1CBD6D
:104CF00013480069C0F3C02080F0010030B91148AA
:104D0000007830B901200F490870704700200D4924
:104D100008700020F9E70A480069C0F3C02080F05D
:104D2000010038B10748007838B100200549087003
:104D3000012070470120034908700020F9E70000B6
:104D4000002002401000012000B5A1B04FF4001077
:104D5000009080011F90C020059004210691012140
:104D600008916846FDF78CFC10B1012021B000BD10
:104D70000020FBE71CB50A20032100231A46CDE9D9
:104D800000104FF4D0515A48FFF75EFD0A2003216E
:104D900001231A46CDE9001099025548FFF754FD4A
:104DA0000320012100230A46CDE9001020215148AB
:104DB000FFF732FD20204F491831086000BF4E48F0
:104DC000006840F080004C4908600846006800F028
:104DD0008000019000BF00BF47481030006840F4D9
:104DE00080404549103108600846006800F4804062
:104DF000009000BF00BF00BF002206214320FBF748
:104E0000EFFA4320FBF72AFB00201CBD1CB50A204B
:104E1000032100231A46CDE9001028213448FFF76A
:104E200013FD0A20032100231A46CDE9001043F6A2
:104E300023413248FFF708FD0A20032100231A46C8
:104E4000CDE9001001212E48FFF7FEFC0A200321C6
:104E500000231A46CDE9001010212A48FFF7F4FC80
:104E60000A20032100231A46CDE90010042124481A
:104E7000FFF7EAFC00BF2048001F006840F08040B8
:104E80001D49091F08600846006800F08040019035
:104E900000BF00BF00BF0846006840F00050086037
:104EA0000846006800F00050019000BF00BF0022DB
:104EB00006214D20FBF794FA4D20FBF7CFFA002096
:104EC0001CBD50B921B920220A4B18331A6004E0E6
:104ED0004FF40012074B18331A60704710B50A4898
:104EE000FBF730FF10BD10B50848FBF72BFF10BDD6
:104EF00000000240000C024034380240000402402E
:104F000000080240001C0240AC0D01206C11012081
:104F100010B504460CB1022C02D1184800F03FFE37
:104F2000012C01D0022C02D1154800F038FE0020DF
:104F300010BD10B504460CB1022C02D10F4800F090
:104F400035FE012C01D0022C02D10D4800F02EFEBE
:104F5000002010BD01460B4850F82100704700B5F5
:104F600003461846FFF7F6FF02462AB192F8FC0105
:104F7000032801D1002000BD0120FCE7040201202C
:104F800028040120140001200146002001B9DA485C
:104F9000012900D1D948704710B504460CB1022C44
:104FA0001AD10022D649D74800F0B0FDD649D548DD
:104FB00000F0E1FDD549D34801F00CFC0023D44AB0
:104FC0004FF48071D34800F0FDF90023D24A4FF42A
:104FD0008071C94800F0F6F9012C01D0022C1BD1D8
:104FE0000122C749CD4800F091FDC749CB4800F0E8
:104FF000C2FDC6491031C94801F0ECFB0023C84A84
:105000004FF48071C74800F0DDF90023C64A4FF421
:105010008071BA4800F0D6F9002010BD2DE9F041AA
:1050200004460CB1022C19D10020FFF793FF05466E
:10503000D5F81872D7F8140278B94FF48072BB49CA
:10504000AD4800F01AFA06463EB13246B749284646
:1050500001F0C7FB284601F0D5FB00BF012C01D0B1
:10506000022C19D10120FFF775FF0546D5F81872FB
:10507000D7F8140278B94FF48072AD499F4800F018
:10508000FCF906463EB13246A949284601F0A9FB83
:10509000284601F0B7FB00BFBDE8F08173B50446B8
:1050A0002046FFF771FF0546012201A900F0BFF974
:1050B00020B12046FFF7B2FF01207CBD0020FCE7B5
:1050C0002DE9F04106460C46204601F08DFC87B2E2
:1050D0003046FFF759FF80463A46214600F0A7F9CF
:1050E000054615B13046FFF799FF2846BDE8F08127
:1050F0002DE9F04105460E4617462846FFF744FFC6
:1051000080463A46314600F092F9044614B12846EA
:10511000FFF784FF2046BDE8F08170B504460D46D8
:105120002046FFF731FF06460122294600F0A5F987
:1051300008B1012070BD0020FCE72DE9F0410446D4
:105140000D4616462046FFF71FFF07463246294602
:1051500000F0EAF9BDE8F0812DE9F04104460D4682
:1051600016462046FFF710FF07463246294600F054
:1051700084F9BDE8F08110B5024602B96D48012AF4
:1051800001D16C480830D0B10B680468A3420BD140
:105190004B798479A34207D18B794479A34203D117
:1051A0000B790479A3420AD003680B6083794B71B1
:1051B00043798B7103790B710123CB7101E00023DB
:1051C000CB7110BD70B504460D461646207820B947
:1051D000324629464F4800F02AF92078012804D1A8
:1051E000324629464F4800F022F970BD024612208F
:1051F0000880514870470246042008804F48704795
:1052000070B505460C462DB922464D494DA001F01A
:105210004BF904E022464A4953A001F045F94848B9
:1052200070BD70B505460C462246454957A001F0B1
:105230003BF9434870BD30B50B46002100BF16E076
:105240000A24B4EB107F05D9302404EB107403F862
:10525000114005E0412404EB10740A3C03F81140AE
:10526000000100254C00641C1D554C1CE1B291420C
:10527000E6DB30BD70B54A480468001D0568001DB6
:105280000668344454B1082246492046FFF7D3FF4C
:105290000422444910312846FFF7CDFF70BD70B598
:1052A00005460C461A202080FFF7E4FF3D48801E8B
:1052B00070BD70B505460C462DB9224620493AA06E
:1052C00001F0F2F804E022461D4937A001F0ECF8A5
:1052D0001B4870BD70B505460C462DB922461849CD
:1052E00034A001F0E1F804E02246154931A001F0B4
:1052F000DBF8134870BD00005C0701207C09012029
:1053000020000120040201209000012094010120CE
:105310006C0701204C0701206C08012028040120A3
:105320008C0901206C0901208C0A01208C0B0120C2
:105330008C0C0120B40101203C0001205000012010
:105340004C06012053544D333220566972747561F6
:105350006C20436F6D506F727420696E204853202B
:105360004D6F64650000000053544D333220566980
:10537000727475616C20436F6D506F727420696E2A
:10538000204653204D6F64650000000053544D6962
:1053900063726F656C656374726F6E69637300002E
:1053A000107AFF1F5600012056435020436F6E664F
:1053B0006967000056435020496E746572666163E8
:1053C000650000002DE9F04104460D4616461F46D3
:1053D00000206080A080E08025802073A6600A20E5
:1053E000607377B1284601F09FFBA060A06820B9E8
:1053F000002020800120BDE8F081207B40F00200E9
:105400002073207B40F0010020730020F3E710B5EB
:10541000044604B910BD207B00F0020010B1A06862
:1054200001F05AFB00202073208000BFF2E770B526
:1054300003460C460BB9002070BD002118E0D88847
:105440001D88A84211DA58881D88A84201DB002077
:10545000588014F8010B5E889D68A8555888401C38
:105460005880D888401CD88000E003E0481C81B2F6
:105470009142E4DB00BF0846DEE730B503460C4648
:105480000BB9002030BD002117E0D888002811DDBD
:1054900098881D88A84201DB002098809D88986824
:1054A000405D04F8010B9888401C9880D888401E05
:1054B000D88000E003E0481C81B29142E5DB00BFE8
:1054C0000846DFE7014609B9002070470888CA8806
:1054D000801A80B2F9E7014609B900207047C888F0
:1054E000FCE700B97047002141808180C18000BF86
:1054F000F8E710B502460C460AB9002010BDD38863
:1055000091880DE01088884200D100219068405CAD
:10551000A04201D10120F1E7481C81B2581E83B29C
:10552000002BEFDC0020E9E7F8B504460E461746ED
:1055300000250CB90020F8BDE08858B10A212046AA
:10554000FFF7D7FF40B9E0882188884204D0E0887F
:10555000B84201DA0020EEE70EE00122694620465B
:10556000FFF78BFF9DF800007055705D617B8842EE
:1055700000D104E0681C85B2781EA842EDDC00BFB3
:105580000021681C80B2054631542846D3E700004C
:10559000FFF77CF8FAF747FEFFF78EFBFFF752FAAA
:1055A000FFF7D2FB0020FFF7F7FC0120FFF7F4FC28
:1055B0000020FFF7ADFC0120FFF7AAFC2DE0022040
:1055C000FFF72CFD0020FFF7CAFC18B90220134991
:1055D000886103E04FF400301049886110490020D1
:1055E000FFF7C9FD0E48C07918B10EA10020FFF7E2
:1055F00067FD13490020FFF790FD20B110480178A6
:105600000020FFF74BFD1E220E490120FFF795FDFC
:1056100018B10C490120FFF753FDD0E700200240EC
:1056200070000120555342204653207365747469FD
:105630006E6773206368616E676564210A0000000D
:10564000780001208C0D0120704700BFFEE700BFED
:10565000FEE700BFFEE700BFFEE7704770477047F8
:10566000704710B5FFF795FA10BD00003F4800687D
:1056700040F470003D4908603D48006840F001007A
:105680003B49086000203A49083108603848006802
:1056900038490840364908603748091D0860081F26
:1056A000006820F48020091F0860002030490C3178
:1056B00008604FF000602D4980390860704770B570
:1056C00000200022022300240221294D08352D68E4
:1056D00005F00C0020B1042806D0082834D107E0DA
:1056E000264D274E356033E0264D254E35602FE0A0
:1056F0001F4D2D1D2D68C5F380541D4D2D1D2D688A
:1057000005F03F0154B11F4DB5FBF1F5184E361DA4
:105710003668C6F3881605FB06F209E0174DB5FB9F
:10572000F1F5134E361D3668C6F3881605FB06F2F2
:105730000F4D2D1D2D68C5F301456D1C6B00B2FB8F
:10574000F3F50F4E356003E00C4D0D4E356000BF94
:1057500000BF074D08352D68C5F303150A4E705D6F
:10576000074D2D68C540064E356070BD88ED00E0E0
:1057700000380240FFFFF6FE103000240024F40041
:105780007C00012040787D01A46B000810B5044620
:105790002068B0F1A04F01D1FFF7ECFAD74920689B
:1057A000884201D1FFF732FB10BD0168B1F1A04F73
:1057B00014D100BFD249096821F08001D04A11609C
:1057C000CF491031096821F48041CD4A103211606F
:1057D00000BF1146096821F480411160C74A016881
:1057E00091420FD1C649091F096821F00051C44AEE
:1057F000121F1160C2491031096821F48041C04A6A
:1058000010321160704710B5044604F56071D4F889
:10581000BC0300F0F7F910BD70B504460D46C5EBAA
:10582000C50304F5EC7101EB8301CA682946D4F87D
:10583000BC0300F01EFA70BD70B504460D46C5EB02
:10584000C50304F1340101EB8301CA682946D4F889
:10585000BC0300F051FA70BD10B50446D4F8BC0387
:1058600000F0EEFA10BD70B504460125E06810B1F5
:10587000022804D101E0002503E0012501E0012513
:1058800000BF00BFD4F8BC0300F0A3FA2946D4F847
:10589000BC0300F0C0FA70BD10B50446D4F8BC03D8
:1058A00000F0BDFA10BD10B50446D4F8BC0300F0FA
:1058B000C0FA10BD70B504460D462946D4F8BC03A5
:1058C00000F0D2FA70BD70B504460D462946D4F8F2
:1058D000BC0300F0C6FA70BD10B50446D4F8BC0392
:1058E00000F0C5FA10BD10B50446D4F8BC0300F0B2
:1058F000C1FA10BD10B50446207800282AD14FF017
:10590000A040804908600420486000217D48C162B1
:105910004021416100210161016202218161002178
:10592000C1610221C160002181624162C0F8BC43B3
:10593000C4F82002FBF7B1F880217248FBF7EDFEB6
:10594000402200216F48FBF7BFFE802201216D48F5
:10595000FBF7BAFE2078012829D168486A49086017
:105960000620486000216848C16240214161002151
:10597000016101624162012181610021C160C16157
:105980008162C0F8BC43C4F82002FBF786F84FF4EC
:1059900000715D48FBF7C1FE802200215A48FBF7E9
:1059A00093FE4FF4BA7201215748FBF78DFE002099
:1059B00010BD10B50446D4F82002FBF733F90020DF
:1059C00010BD10B50446D4F82002FBF73EF90020C4
:1059D00010BD10B50446D4F82002FBF706F90020EC
:1059E00010BD2DE9F04104460F4615461E462B46D4
:1059F00032463946D4F82002FBF7B1FC0020BDE85E
:105A0000F08170B504460D462946D4F82002FBF714
:105A1000ECFC002070BD70B504460D462946D4F854
:105A20002002FBF70DFE002070BD70B504460D4648
:105A30002946D4F82002FBF792FD002070BD70B516
:105A400004460D462946D4F82002FBF7C5FD002088
:105A500070BD10B50246D2F8203201F080008028D7
:105A600009D101F07F00C0EBC00403F1340000EB6A
:105A70008400807810BD01F07F00C0EBC00403F506
:105A8000EC7000EB84008078F4E770B504460D46B6
:105A90002946D4F82002FBF749FC002070BD2DE90F
:105AA000F04104460D4616461F463B4632462946FF
:105AB000D4F82002FBF716FD0020BDE8F0812DE9A7
:105AC000F04104460D4616461F463B4632462946DF
:105AD000D4F82002FBF7BEFC0020BDE8F08170B5D1
