:020000040800F2
:1000000020150020AD010008554D0008574D00088F
:100010005B4D00085F4D0008634D000800000000C4
:10002000000000000000000000000000674D000814
:10003000694D0008000000006B4D00086F4D00087E
:10004000C7010008C7010008C7010008C701000870
:10005000C7010008C7010008C7010008C701000860
:10006000C7010008C7010008C7010008C701000850
:10007000C7010008C7010008C7010008C701000840
:10008000C7010008C7010008C70100080000000000
:10009000000000000000000000000000C701000890
:1000A000C7010008C7010008C7010008C701000810
:1000B000C7010008C7010008C7010008C701000800
:1000C000C7010008C7010008C7010008C7010008F0
:1000D000C7010008C7010008C701000800000000B0
:1000E000C7010008C7010008C701000800000000A0
:1000F000000000000000000000000000C701000830
:1001000000000000C7010008C7010008C70100087F
:1001100000000000000000000000000000000000DF
:10012000C7010008C7010008C7010008C70100088F
:10013000C7010008000000000000000000000000EF
:10014000000000000000000000000000C7010008DF
:10015000C7010008C7010008C7010008C70100085F
:10016000C7010008C70100080000000000000000EF
:10017000000000000000000000000000000000007F
:1001800000000000C701000800000000000000009F
:10019000C7010008C7010008DFF80CD004F07CFE9E
:1001A00000480047114D00082015002006488047F0
:1001B00006480047FEE7FEE7FEE7FEE7FEE7FEE74C
:1001C000FEE7FEE7FEE7FEE7794D0008990100082B
:1001D000704770B5044603F0D1FC4FF47A71B0FB60
:1001E000F1F5284600F05AF900222146501E00F091
:1001F000DFF8002070BD10B55748006840F400706B
:10020000554908600846006840F480600860084668
:10021000006840F480700860032000F0B7F80F20F9
:10022000FFF7D7FFFFF7D4FF002010BD704710B5D0
:100230004FF0FF304949086000200860401E091D4A
:10024000086000200860401E444910390860002002
:100250000860401E091D086000200860401E091D3E
:10026000086000200860FFF7E1FF002010BD3C4857
:100270000068401C3A490860704739480068704778
:1002800031B5002404F064F8044600BF04F060F8BF
:10029000001B00998842F9D338BD4FF0E020006977
:1002A00020F002004FF0E021086170474FF0E0209D
:1002B000006940F002004FF0E021086170474FF004
:1002C0008270704727480068000C70472548006816
:1002D000C0F30B0070472348406840F001002149FB
:1002E000486070471F48406820F001001D49486081
:1002F00070471C48406840F002001A494860704747
:100300001848406820F002001649486070471548B8
:10031000406840F004001349486070471148406845
:1003200020F004000F4948607047012090FAA0F1C6
:10033000B1FA81F10C4A02EB8101C1F80004704767
:100340000020012191FAA1F1B1FA81F1064A02EBF4
:100350008101C1F800047047003C0240203802408F
:1003600000000020002004E00000274210B5002813
:1003700007DA0A07140EBF4A00F00F031B1FD454FC
:1003800003E00A07130EBC4A135410BD00BF00F06F
:100390000702B84B0C3B19684FF6FF031940B74BE7
:1003A0000B4343EA0221B34B0C3B196000BF70477B
:1003B0002DE9F05F80460D461646002700F054F9FF
:1003C000074639462A46334601F00700C0F1070ABE
:1003D000BAF1040F02D94FF0040A01E0C0F1070A94
:1003E000D14600F1040ABAF1070F02D24FF0000A19
:1003F00001E0A0F1030AD4464FF0010A0AFA09FA13
:10040000AAF1010A0AEA020A0AFA0CFA4FF0010BF1
:100410000BFA0CFBABF1010B0BEA030B4AEA0B04E2
:1004200021464046FFF7A2FFBDE8F09F00BF00F065
:100430001F02012191404209920002F1E022C2F81C
:10044000001100BF704700BF00F01F020121914062
:100450008B4A430942F8231000BF704700BF00BF1A
:1004600000BF00BF00BFBFF34F8F00BF00BF00BF82
:1004700080480C38006800F4E06080490843001DA3
:100480007C490C39086000BF00BF00BFBFF34F8F2D
:1004900000BF00BF00BF00E000BFFDE770B504462D
:1004A0002546681EB0F1807F01D301200FE0681E51
:1004B0004FF0E02148610F214FF0FF30FFF756FF6A
:1004C00000204FF0E021886107200861002070BD06
:1004D0004178684A803211600178F9B1121D416893
:1004E0001160017B0907C27A41EA0261827A41EA1E
:1004F000C241427B41EA8241827B41EA4241C27B66
:1005000041EA0241427A41EA0221027A41EA420189
:1005100002781143574A8832116005E00021554A9C
:1005200084321160121D1160704710B500F09CF804
:1005300010BD2DE9F04304462046002808DA4D4F4F
:1005400000F00F0CACF1040C17F80C703F0902E03E
:10055000494F3F5C3F093D460E4606F00700C0F19B
:100560000708B8F1040F02D94FF0040801E0C0F108
:100570000708C44600F10408B8F1070F02D24FF093
:10058000000801E0A0F10308474625FA07F84FF0FC
:10059000010909FA0CF9A9F1010908EA0908C2F8E8
:1005A00000804FF0010808FA07F8A8F1010808EAEE
:1005B0000508C3F8008000BFBDE8F08300BF00F06D
:1005C0001F02012191402E4A8032430942F8231034
:1005D00000BF704710B501460846294A80324309DA
:1005E00052F8232000F01F040123A3401A400AB14F
:1005F000012200E00022104610BD00BF00F01F02E3
:10060000012191401F4A430942F8231000BF70475F
:1006100010B5014608461B4A8032430952F8232090
:1006200000F01F040123A3401A400AB1012200E098
:100630000022104610BD042808D14FF0E0210969BE
:1006400041F004014FF0E022116107E04FF0E0219A
:10065000096921F004014FF0E022116170477047F1
:1006600010B5FFF7FCFF10BD02480C380068C0F35E
:100670000220704718ED00E000E400E00000FA05F9
:1006800080E100E080E200E001460878103818239D
:10069000B0FBF3F2F648805C4865032A05D9086888
:1006A0006FF30900001D086503E008686FF3090097
:1006B0000865086D704770B5044600250CB9012027
:1006C00070BD606A00B100BF022084F83500206868
:1006D0000568E8480540D4E901010843E16808439A
:1006E0002169084361690843A1690843E169084336
:1006F000216A08430543606A042803D1D4E90B0149
:1007000008430543206805602068456925F0070512
:10071000606A0543606A042801D1A06A0543206825
:1007200045612046FFF7B0FF0020E064012084F817
:1007300035000020C4E770B504460CB9012070BD37
:1007400094F83500022801D10120F8E720680068FC
:1007500020F00100216808600020216808602168FD
:100760004860216888602168C8602168086121208C
:10077000216848612046FFF787FF054694F854102A
:100780003F208840A8600020E06484F8350000BF66
:1007900084F8340000BF00BFD1E730B50468246896
:1007A00024F4802405682C60046863608468402C0D
:1007B00004D10468A2600468E16003E00468A160F9
:1007C0000468E26030BD2DE9F04104460D4616464E
:1007D0001F4600BF94F83400012802D10220BDE872
:1007E000F081012084F8340000BF022084F8350035
:1007F0002068006820F00100216808603B4632460E
:1008000029462046FFF7C9FF2068006840F0010034
:10081000216808600020E2E72DE9F04104460D461A
:1008200016461F4600BF94F83400012802D102206A
:10083000BDE8F081012084F8340000BF022084F874
:1008400035002068006820F00100216808603B4600
:10085000324629462046FFF7A0FF2068006840F096
:100860001E00216808602068406940F0800021680F
:1008700048612068006840F001002168086000209D
:10088000D6E770B5044600252068006820F0010016
:100890002168086003F05CFD054612E003F058FD96
:1008A000401BB0F57A7F0CD9E06C40F02000E0648A
:1008B00000BF002084F8340000BF032084F8350016
:1008C00070BD2068006800F001000028E6D100BF7C
:1008D00084F8340000BF012084F835000020EFE7E1
:1008E0002DE9F84F04460F46164600200090256D6E
:1008F0002FB994F85410202000FA01F804E094F87D
:100900005410102000FA01F803F022FD009064E07A
:10091000286814F8542F0821914000EA010928683A
:1009200022785549914000EA010A286814F85429B0
:100930005149C91C914000EA010BB9F1000F05D1E2
:10094000BAF1000F02D1BBF1000F2FD0B9F1000FA7
:1009500008D0E06C40F00100E06494F854100820E6
:100960008840A860BAF1000F08D0E06C40F00200A7
:10097000E06494F8541040488840A860BBF1000F30
:1009800009D0E06C40F00400E06494F854103A4858
:10099000C01C8840A860042084F8350000BF0020F7
:1009A00084F8340000BF0120BDE8F88F701CA0B1AE
:1009B0002EB103F0CDFC0099401AB0420DD9E06C85
:1009C00040F02000E064032084F8350000BF0020E0
:1009D00084F8340000BF0320E6E7286800EA080036
:1009E000002895D01FBB94F8541030208840A86090
:1009F0002068006800F4802088B12068006800F456
:100A0000002018B9112084F835000BE02068006838
:100A100000F4002030B1212084F8350002E01120DC
:100A200084F8350000BF002084F834001EE094F8FC
:100A3000541010208840A8602068006800F48020CE
:100A400088B12068006800F4002018B9312084F8CB
:100A500035000BE02068006800F4002030B1412030
:100A600084F8350002E0312084F8350000209BE74F
:100A7000984F00083F8010F00100800070B50446D8
:100A8000256D286894F8542008219140084000B34F
:100A90002068006800F00400D8B12068006820F0E9
:100AA00004002168086094F8541008208840A86069
:100AB000E06C40F00100E064042084F8350000BFE1
:100AC000002084F8340000BFA06C10B12046A16C57
:100AD0008847286894F8542070499140084000B332
:100AE0002068406900F08000D8B12068406920F09B
:100AF00080002168486194F8541068488840A860D4
:100B0000E06C40F00200E064042084F8350000BF8F
:100B1000002084F8340000BFA06C10B12046A16C06
:100B20008847286894F854205C49C91C91400840C3
:100B300008B32068006800F00200E0B12068006897
:100B400020F002002168086094F854105348C01C3B
:100B50008840A860E06C40F00400E064042084F861
:100B6000350000BF002084F8340000BFA06C10B135
:100B70002046A16C8847286894F8542010219140A1
:100B80000840C0B32068006800F0080098B32068EF
:100B9000006800F48020B0B194F854101020884010
:100BA000A8602068006800F4002018B9312084F89B
:100BB00035001BE02068006800F40020B0B141203F
:100BC00084F8350012E02068006800F4807028B9CD
:100BD0002068006820F008002168086094F854102C
:100BE00010208840A860312084F83500206C10B1B6
:100BF0002046216C8847286894F854202021914091
:100C0000084018B32068006800F01000F0B12068B8
:100C1000006800F48020D0B194F85410202088405F
:100C2000A8602068006800F4002028B9606C68B1F2
:100C30002046616C884729E02068006800F40020A5
:100C400020B1E06B10B12046E16B88471EE02068C0
:100C5000006800F4807028B92068006820F0100057
:100C60002168086094F8541020208840A860E06C47
:100C7000E064112084F8350000BF002084F83400BF
:100C800000BFE06B10B12046E16B884770BD0146A4
:100C900091F8350070470146C86C7047010080002C
:100CA000F8B503460A460025002400200021CBE0C9
:100CB000012606FA01F5166806EA0504AC4271D170
:100CC0005668022E02D05668122E13D1CF0803F1B7
:100CD000200656F827004E07F70E0F26BE40B043F9
:100CE0004F07FF0E1669BE403043CF0803F12006C0
:100CF00046F8270018684F000326BE40B043167917
:100D000006F003064F00BE40304318605668012EBF
:100D100008D05668022E05D05668112E02D05668AB
:100D2000122E13D198684F000326BE40B0434F00E7
:100D3000D668BE4030439860586801268E40B04364
:100D40001679C6F300168E4030435860D8684F00BD
:100D50000326BE40B0434F009668BE403043D86083
:100D6000566806F08056B6F1805F6CD100BF9B4E8E
:100D7000366846F48046994F3E603E46366806F433
:100D80008046009600BF00BF954E8F0856F827009A
:100D90008E07370F0F26BE40B043924EB34202D1AA
:100DA000002615E04FE0904EB34201D101260FE03E
:100DB0008E4EB34201D102260AE08D4EB34201D1DC
:100DC000032605E08B4EB34201D1042600E0052640
:100DD0008F073F0FBE403043814E8F0846F82700F3
:100DE000854E3068A043566806F48036B6F5803FDD
:100DF00000D12043804E3060361D3068A0435668D5
:100E000006F40036B6F5003F00D120437A4E361D79
:100E10003060361D3068A043566806F48016B6F57B
:100E2000801F00D12043744E08363060361D306874
:100E3000A043566806F40016B6F5001F00D1204303
:100E40006D4E0C363060491C1029FFF431AFF8BDEF
:100E5000F0B50C46002500220023002181E0012688
:100E600006FA01F504EA0502AA4279D106684FEABA
:100E7000410C032707FA0CF7BE430660CF0800F1C8
:100E8000200656F827604F074FEAD76C0F2707FA5E
:100E90000CF7BE434FEAD10C00F1200747F82C6055
:100EA00086684FEA410C032707FA0CF7BE438660B9
:100EB000476801268E40B7434760C6684FEA410C39
:100EC000032707FA0CF7BE43C660454E8F0856F855
:100ED00027308E07370F0F26BE403340414EB042B9
:100EE00001D1002614E0404EB04201D101260FE0AE
:100EF0003E4EB04201D102260AE03D4EB04201D141
:100F0000032605E03B4EB04201D1042600E0052651
:100F10008F073F0FBE409E4222D18E07370F0F260C
:100F200006FA07F32E4E8F0856F827609E432C4F83
:100F30004FEA910C47F82C602F4E366896432E4F9F
:100F40003E603E1D366896433F1D3E603E1D36683E
:100F500096433F1D3E603E1D366896433F1D3E60F2
:100F6000491C1029FFF47BAFF0BD024613690B400A
:100F70000BB1012000E0002070470AB1816101E05F
:100F80000B048361704742694A404261704708B56B
:100F900002464FF48030009000980843009000987B
:100FA000D061D1610098D061D0690090D06900F41F
:100FB000803008B1002008BD0120FCE7704710B563
:100FC00004460D4814300068204028B10A48143007
:100FD00004602046FFF7F2FF10BD000044380240D5
:100FE00008380140000002400004024000080240AE
:100FF000000C024000100240003C0140704770B5F8
:101000000446002600250CB9012070BD94F8350077
:1010100028B9002084F834002046FFF7EFFF0220B3
:1010200084F835002068006820F00100216808601D
:1010300002F0B9FD0546F748B5FBF0F620684660BA
:10104000F5496068884201D8701C07E04FF496703B
:1010500070434FF47A71B0FBF1F0401C21680862D4
:10106000ED49606888420ED860684000B5FBF0F03A
:10107000C0F30B00042801D204202DE0606840007A
:10108000B5FBF0F028E0A06828B9606800EB4000EC
:10109000B5FBF0F008E0606800EBC00101EB001068
:1010A000B5FBF0F040F48040C0F30B0008B901201C
:1010B00012E0A06828B9606800EB4000B5FBF0F0D2
:1010C00008E0606800EBC00101EB0010B5FBF0F038
:1010D00040F4804040F400402168C861D4E9070131
:1010E000084321680860D4E9031008432168886038
:1010F000D4E9050108432168C8602068006840F011
:101100000100216808600020A063012084F83500F8
:1011100000207AE7704710B504460CB9012010BDD5
:10112000022084F835002068006820F00100216862
:1011300008602046FFF7EEFF0020A06384F835002A
:1011400000BF84F8340000BF00BFE8E72DE9F0419C
:1011500005460C4617461E464FF0000803F0F8F807
:10116000804687BB13E0701C88B12EB103F0F0F805
:10117000A0EB0800B0420AD9012085F8350000BF75
:10118000002085F8340000BF0320BDE8F081C4F3DF
:10119000074001280AD128684069A1B20840A1B2DD
:1011A000884201D101200BE0002009E02868806915
:1011B000A1B20840A1B2884201D1012000E0002084
:1011C0000028D0D02FE0FFE712E0701C80B12EB1D4
:1011D00003F0BEF8A0EB0800B04209D9012085F861
:1011E000350000BF002085F8340000BF0320CCE7A5
:1011F000C4F3074001280AD128684069A1B2084019
:10120000A1B2884201D101200BE0002009E028684A
:101210008069A1B20840A1B2884201D1012000E05A
:1012200000200028D1D10020AFE72DE9F04104468D
:101230000D461646002703F08BF807462DE0206880
:101240004069C0F38020B0B12068006840F40070AD
:10125000216808606FF48060216848610420A06301
:10126000012084F8350000BF002084F8340000BF5E
:101270000120BDE8F081701C78B126B103F068F858
:10128000C01BB04209D9012084F8350000BF0020FE
:1012900084F8340000BF0320EBE7C5F307400128C2
:1012A0000AD120684069A9B20840A9B2884201D198
:1012B00001200BE0002009E020688069A9B2084005
:1012C000A9B2884201D1012000E000200028B6D058
:1012D0000020CEE770B504460D461646206800682B
:1012E00040F4807021680860334600224FF00111FD
:1012F0002046FFF72BFF08B1032070BD2069B0F531
:10130000804F04D105F0FE002168086116E005F465
:101310004070F02141EAE0102168086132463F49FF
:101320002046FFF782FF30B1A06B042801D10120D5
:10133000E3E70320E1E7E8B2216808613246374974
:10134000891F2046FFF771FF30B1A06B042801D13F
:101350000120D2E70320D0E70020CEE72DE9F843B3
:101360000446884615461E46089F94F83500012815
:1013700075D105B116B90120BDE8F88342F21073AA
:10138000012227492046FFF7E1FE08B10220F3E7DA
:1013900000BF94F83400012801D10220ECE70120BD
:1013A00084F8340000BF2068006820F400602168E1
:1013B0000860122084F835000020A0633A464146B8
:1013C0002046FFF787FF80B1A06B042806D100BF3D
:1013D000002084F8340000BF0120CDE700BF0020CA
:1013E00084F8340000BF0320C6E700BF20684069CE
:1013F000009020688069009000BF00BF24E03B4659
:101400000022064978312046FFF7A0FE50B10320A4
:10141000B2E7000040420F00A08601000800010072
:101420000200100015F8010B21680861701E86B2D9
:1014300020684069C0F3800030B12EB115F8010B6F
:1014400021680861701E86B2002ED8DC3B4600225F
:10145000FE492046FFF77AFE10B103208CE70EE02C
:101460002068006840F4007021680860012084F85A
:10147000350000BF002084F8340000BF7CE7022064
:101480007AE7F8B504460D4616462068006840F431
:101490008060216808602068006840F480702168DE
:1014A0000860334600224FF001112046FFF74EFE40
:1014B00008B10320F8BD2069B0F5804F05D1E8B22E
:1014C00040F001002168086145E005F44070F0211A
:1014D00041EAE010216808613246DC49783920464B
:1014E000FFF7A3FE30B1A06B042801D10120E1E792
:1014F0000320DFE7E8B2216808613246D3497E392C
:101500002046FFF792FE30B1A06B042801D10120E4
:10151000D0E70320CEE700BF206840690090206834
:101520008069009000BF00BF2068006840F48070B0
:1015300021680860334600224FF001112046FFF772
:1015400005FE08B10320B5E705F44070F12141EA3A
:10155000E010216808613246BC497E392046FFF719
:1015600064FE30B1A06B042801D10120A2E7032062
:10157000A0E700209EE72DE9F8430446884615467B
:101580001E46089F94F8350001287AD105B116B996
:101590000120BDE8F88342F210730122AC492046D5
:1015A000FFF7D4FD08B10220F3E700BF94F8340040
:1015B000012801D10220ECE7012084F8340000BFAB
:1015C0002068006820F4006021680860222084F808
:1015D00035000020A0633A4641462046FFF751FF00
:1015E00080B1A06B042806D100BF002084F834002D
:1015F00000BF0120CDE700BF002084F8340000BF09
:101600000320C6E7012E15D12068006820F4806011
:101610002168086000BF20684069009020688069E8
:10162000009000BF00BF2068006840F4007021688F
:10163000086025E0022E14D12068006820F4806044
:10164000216808602068006840F400602168086034
:1016500000BF20684069009020688069009000BF4A
:101660000EE02068006840F480602168086000BFD8
:1016700020684069009020688069009000BF00BF2A
:1016800082E08DE0032E64DC012E10D13B46002267
:101690006E4940392046FFF759FD08B1032078E72D
:1016A0002068006905F8010B701E86B26CE0022EFE
:1016B0001CD13B46002265497C392046FFF746FD98
:1016C00008B1032065E72068006840F400702168D5
:1016D00008602068006905F8010B701E86B220685A
:1016E000006905F8010B701E86B24DE03B460022F2
:1016F00056497C392046FFF729FD08B1032048E709
:101700002068006820F48060216808602068006913
:1017100005F8010B701E86B23B4600224B497C390E
:101720002046FFF713FD08B1032032E72068006868
:1017300040F40070216808602068006905F8010B1A
:10174000701E86B22068006905F8010B701E86B213
:101750001AE03B4600223D4940392046FFF7F6FC9F
:1017600008B1032015E72068006905F8010B701E19
:1017700086B220684069C0F3800028B12068006903
:1017800005F8010B701E86B2002E3FF77BAF0120DB
:1017900084F8350000BF002084F8340000BFF8E66C
:1017A0000220F6E6F8B504460D4616461F4694F8A4
:1017B000350001287ED105B10EB90120F8BD42F2F5
:1017C0001073012222492046FFF7C0FC08B1022015
:1017D000F4E700BF94F83400012801D10220EDE7BE
:1017E000012084F8340000BF2068006820F4006005
:1017F00021680860122084F835000020A06320686A
:10180000006840F48060216808603B4600220F4970
:101810007E392046FFF79AFC08B10320CEE700BFCF
:1018200020684069009020688069009000BF00BF78
:101830002069B0F5404F16D13B46002203497E395E
:101840002046FFF783FC28B10320B7E780000100A2
:101850000200100000BF2068406900902068806985
:10186000009000BF00BF1AE03B460022FE49204620
:10187000FFF76CFC08B10320A0E715F8010B216805
:101880000861701E86B220684069C0F3800030B1E4
:101890002EB115F8010B21680861701E86B2002E6A
:1018A000E2DC3B4600224FF482312046FFF74EFC3B
:1018B00018B100E014E0032080E76FF48060216835
:1018C00048612068006820F4806021680860012079
:1018D00084F8350000BF002084F8340000BF6DE7B5
:1018E00002206BE7F8B504460D4616461F4694F8ED
:1018F000350001287DD105B10EB90120F8BD42F2B5
:1019000010730122D9492046FFF720FC08B10220BC
:10191000F4E700BF94F83400012801D10220EDE77C
:10192000012084F8340000BF2068006820F40060C3
:1019300021680860222084F835000020A063206818
:10194000006840F48060216808603B460022C64978
:101950007E392046FFF7FAFB08B10320CEE700BF2F
:1019600020684069009020688069009000BF00BF37
:101970001BE03B460022BC4940392046FFF7E6FB0E
:1019800008B10320BAE72068006905F8010B701E52
:1019900086B220684069C0F3800030B12EB1206863
:1019A000006905F8010B701E86B2002EE1DC3B4693
:1019B0000022AD4970392046FFF7C8FB08B103206B
:1019C0009CE700BF2068406900902068006840F0F4
:1019D00001002168086000BF00BF2068006820F493
:1019E000806021680860012084F8350000BF002075
:1019F00000E003E084F8340000BF7FE702207DE7C9
:101A0000F8B504460F4616461D4694F835000128E1
:101A100053D106B10DB90120F8BD42F21073012275
:101A200092492046FFF792FB08B10220F4E700BF7D
:101A300094F83400012801D10220EDE7012084F858
:101A4000340000BF2068006820F40060216808604E
:101A5000122084F835000020A06366622585658524
:101A6000232239462046FFF735FC80B1A06B0428BD
:101A700006D100BF002084F8340000BF0120CBE76E
:101A800000BF002084F8340000BF0320C4E700BF7B
:101A900020684069009020688069009000BF00BF06
:101AA00000BF002084F8340000BF2068406840F484
:101AB000E060216848600020AEE70220ACE7F8B59E
:101AC00004460F4616461D4694F8350001286ED18F
:101AD00006B10DB90120F8BD42F21073012263492D
:101AE0002046FFF733FB08B10220F4E700BF94F86B
:101AF0003400012801D10220EDE7012084F83400F0
:101B000000BF2068006820F400602168086022207F
:101B100084F835000020A063666225856585232250
:101B200039462046FFF7ADFC80B1A06B042806D1F2
:101B300000BF002084F8340000BF0120CBE700BFC5
:101B4000002084F8340000BF0320C4E7608D012822
:101B500015D12068006820F480602168086000BF0B
:101B600020684069009020688069009000BF00BF35
:101B70002068006840F400702168086027E0608DEC
:101B8000022815D12068006820F480602168086070
:101B90002068006840F400602168086000BF206889
:101BA0004069009020688069009000BF0FE01BE052
:101BB0002068006840F480602168086000BF2068E9
:101BC0004069009020688069009000BF00BF00BF9E
:101BD000002084F8340000BF2068406840F4E060D2
:101BE00021684860002076E7022074E770B504465B
:101BF0000E46154694F8350001283FD106B10DB9BF
:101C0000012070BD42F21073012218492046FFF7EF
:101C10009DFA08B10220F4E700BF94F834000128CF
:101C200001D10220EDE7012084F8340000BF2068D4
:101C3000006820F4006021680860122084F83500F4
:101C40000020A0636662258565852068006840F4F1
:101C500080602168086000BF002084F8340000BF65
:101C60002068406804E000008000010002001000CD
:101C700040F4E060216848600020C2E70220C0E72D
:101C800070B504460E46154694F83500012839D142
:101C900006B10DB9012070BD42F210730122FE4958
:101CA0002046FFF753FA08B10220F4E700BF94F88A
:101CB0003400012801D10220EDE7012084F834002E
:101CC00000BF2068006820F40060216808602220BE
:101CD00084F835000020A06366622585658520684C
:101CE000006840F480602168086000BF002084F82C
:101CF000340000BF2068406840F4E060216848601C
:101D00000020C8E70220C6E7704770B50546AC6BF7
:101D10002068006820F480602168086000206085E9
:101D2000012084F83500A06B40F01000A06320462D
:101D3000FFF7EAFF70BD704770B50546AC6B232313
:101D40000022D6492046FFF701FA18B1A06B40F0F7
:101D50002000A0632068006840F4007021680860DB
:101D60002068406820F40060216848600020608599
:101D7000012084F83500A06B18B12046FFF7C4FF9E
:101D800002E02046FFF7D7FF70BDF8B504460F46C6
:101D900015461E4694F83500012860D105B10EB9EC
:101DA0000120F8BD42F210730122BB492046FFF723
:101DB000CDF908B10220F4E700BF94F834000128FF
:101DC00001D10220EDE7012084F8340000BF206833
:101DD000006820F4006021680860122084F8350053
:101DE0000020A063656226856685AD48E16AC86308
:101DF000AC48E16A8864216801F110023346294643
:101E0000E06AFEF709FD232239462046FFF762FA11
:101E100080B1A06B042806D100BF002084F83400F4
:101E200000BF0120BDE700BF002084F8340000BFE0
:101E30000320B6E72068406840F4006021684860ED
:101E400000BF20684069009020688069009000BF52
:101E500000BF00BF002084F8340000BFA1E70220CB
:101E60009FE7704770B50546AC6B2068006820F4AA
:101E70008060216808602068006840F40070216874
:101E800008602068406820F480502168486020681D
:101E9000406820F4006021684860002060850120CF
:101EA00084F83500A06B18B12046FFF72DFF02E043
:101EB0002046FFF7D6FF70BDF8B504460F4616461C
:101EC0001D4694F83500012870D106B10DB90120E6
:101ED000F8BD42F2107301226F492046FFF736F930
:101EE00008B10220F4E700BF94F83400012801D1C2
:101EF0000220EDE7012084F8340000BF206800686C
:101F000020F4006021680860222084F83500002059
:101F1000A0636662258565856348216BC863614857
:101F2000216B8864226802F110012B463246206B37
:101F3000FEF772FC232239462046FFF7A2FA80B151
:101F4000A06B042806D100BF002084F8340000BF35
:101F50000120BDE700BF002084F8340000BF03204B
:101F6000B6E7012D06D12068006820F48060216862
:101F7000086005E02068406840F4805021684860AF
:101F80002068406840F400602168486000BF206815
:101F90004069009020688069009000BF00BF00BFCA
:101FA000002084F8340000BF92E7FFE702208FE7AB
:101FB000704770B50546AC6B232300224FF4823185
:101FC0002046FFF7C3F818B1A06B40F02000A063D3
:101FD0006FF48060216848612068006820F48060A8
:101FE000216808602068406820F40060216848602B
:101FF00000206085012084F83500A06B18B12046D0
:10200000FFF782FE02E02046FFF7D2FF70BDF8B571
:1020100004460E46154694F83500012877D106B1DE
:102020000DB90120F8BD42F2107301221A49204671
:10203000FFF78CF808B10220F4E700BF94F83400F1
:10204000012801D10220EDE7012084F8340000BF0F
:102050002068006820F4006021680860122084F87D
:1020600035000020A0636662258565850F48E16A1A
:10207000C8630C48E16A8864216801F110022B46AC
:102080003146E06AFEF7C8FB2068406840F4006013
:102090002168486020680BE0020010000400010085
:1020A000391D00080B1D0008651E0008B31F00083D
:1020B000006840F480602168086042F210730022DA
:1020C000F8492046FFF742F808B10320AAE7206943
:1020D000B0F5804F08D100BF2068406900902068AB
:1020E0008069009000BF1CE000BF2068406900903C
:1020F00020688069009000BF00BF42F21073002288
:10210000E8492046FFF722F810B103208AE70EE0E5
:1021100000BF20684069009020688069009000BF7F
:1021200000BF00BF002084F8340000BF7AE702201F
:1021300078E7704738B50546AC6B23230022D949B0
:102140000E312046FFF702F818B1A06B40F02000D6
:10215000A06300BF2068406900902068006840F0DC
:1021600001002168086000BF00BF2068006820F4FB
:102170008060216808602068406820F40060216861
:10218000486000206085012084F83500A06B18B1FC
:102190002046FFF7B9FD02E02046FFF7CAFF38BD31
:1021A000F8B504460E46154694F83500012859D175
:1021B00006B10DB90120F8BD42F210730122BA49EF
:1021C0002046FEF7C3FF08B10220F4E700BF94F8F1
:1021D0003400012801D10220EDE7012084F8340009
:1021E00000BF2068006820F4006021680860222099
:1021F00084F835000020A063666225856585AB48BC
:10220000216BC863AA48216B8864226802F110011F
:102210002B463246206BFEF7FFFA2068406840F4F8
:102220000060216848602068006840F48060216890
:10223000086042F2107300229A492046FEF786FF9A
:1022400008B10320B7E700BF20684069009020680C
:102250008069009000BF00BF00BF002084F83400F8
:1022600000BFA8E70220A6E72DE9F84304460E4682
:1022700015461F46DDF820802068006840F4807015
:1022800021680860434600224FF001112046FEF706
:102290005DFF10B10320BDE8F88306F0FE00216861
:1022A000086142467F492046FEF7BFFF30B1A06B70
:1022B000042801D10120EEE70320ECE700BF2068ED
:1022C0004069009020688069009000BF00BF4346CD
:1022D000002274497E312046FEF738FF08B1032002
:1022E000D9E7012F03D1E8B22168086110E0C5F3F6
:1022F000072021680861434600226A497E31204652
:10230000FEF724FF08B10320C5E7E8B221680861A1
:102310000020C0E72DE9F84F0446884691469A46CA
:102320000AADE0CD94F83500012876D105B116B993
:102330000120BDE8F88F42F2107301225A4920466D
:10234000FEF704FF08B10220F3E700BF94F8340061
:10235000012801D10220ECE7012084F8340000BFFD
:102360002068006820F4006021680860322084F84A
:1023700035000020A06353464A4641462046009758
:10238000FFF772FF80B1A06B042806D100BF0020C8
:1023900084F8340000BF0120CBE700BF002084F8A0
:1023A000340000BF0320C4E71BE03B4600223D4948
:1023B0007E312046FEF7CAFE08B10320B9E715F8C2
:1023C000010B21680861701E86B220684069C0F365
:1023D000800030B12EB115F8010B21680861701E24
:1023E00086B2002EE1DC3B4600222E497E3120469B
:1023F000FEF7ACFE08B103209BE72068006840F4BC
:10240000007021680860012084F8350000BF0020BA
:1024100084F8340000BF8CE7FFE7022089E72DE94C
:10242000F84304460E4615461F46DDF82080206816
:10243000006840F48060216808602068006840F40B
:10244000807021680860434600224FF00111204649
:10245000FEF77CFE10B10320BDE8F88306F0FE0015
:102460002168086142460F492046FEF7DEFE30B182
:10247000A06B042801D10120EEE70320ECE700BFA8
:1024800020684069009020688069009000BF00BF0C
:102490004346002203497E312046FEF757FE48B1ED
:1024A0000320D9E7020001000200100035210008D6
:1024B0000B1D0008012F03D1E8B2216808610FE06D
:1024C000C5F307202168086143460022F7492046EA
:1024D000FEF73CFE08B10320BEE7E8B221680861C0
:1024E00043460022F1492046FEF730FE08B10320A2
:1024F000B2E72068006840F48070216808604346B5
:1025000000224FF001112046FEF720FE08B1032003
:10251000A2E7F0B240F00100216808614246E349B9
:102520007E392046FEF781FE30B1A06B042801D130
:10253000012091E703208FE700208DE72DE9F84F78
:102540000446884691469A460AADE0CD94F8350097
:10255000012876D105B116B90120BDE8F88F42F205
:1025600010730122D2492046FEF7F0FD08B1022087
:10257000F3E700BF94F83400012801D10220ECE712
:10258000012084F8340000BF2068006820F4006057
:1025900021680860422084F835000020A06353467B
:1025A0004A46414620460097FFF739FF80B1A06BAD
:1025B000042806D100BF002084F8340000BF0120A9
:1025C000CBE700BF002084F8340000BF0320C4E73D
:1025D000012E15D12068006820F480602168086011
:1025E00000BF20684069009020688069009000BFAB
:1025F00000BF2068006840F40070216808601FE098
:10260000022E14D12068006820F4806021680860E0
:102610002068006840F400602168086000BF2068FE
:102620004069009020688069009000BF08E000BF0A
:1026300020684069009020688069009000BF00BF5A
:1026400082E08DE0032E64DC012E10D13B46002297
:10265000964940392046FEF779FD08B103207CE712
:102660002068006905F8010B701E86B26CE0022E2E
:102670001CD13B4600228D497C392046FEF766FD81
:1026800008B1032069E72068006840F40070216801
:1026900008602068006905F8010B701E86B220688A
:1026A000006905F8010B701E86B24DE03B46002222
:1026B0007E497C392046FEF749FD08B103204CE7EE
:1026C0002068006820F48060216808602068006944
:1026D00005F8010B701E86B23B46002273497C3917
:1026E0002046FEF733FD08B1032036E72068006876
:1026F00040F40070216808602068006905F8010B4B
:10270000701E86B22068006905F8010B701E86B243
:102710001AE03B460022654940392046FEF716FD87
:1027200008B1032019E72068006905F8010B701E45
:1027300086B220684069C0F3800028B12068006933
:1027400005F8010B701E86B2002E3FF77BAF01200B
:1027500084F8350000BF002084F8340000BFFCE698
:102760000220FAE62DE9F84304460F4690469946C2
:10277000DDE9086594F8350001284ED106B115B998
:102780000120BDE8F88342F2107301224849204637
:10279000FEF7DCFC08B10220F3E700BF94F8340038
:1027A000012801D10220ECE7012084F8340000BFA9
:1027B0002068006820F4006021680860322084F8F6
:1027C00035000020A06366622585658523204B4681
:1027D0004246394600902046FFF746FD80B1A06B87
:1027E000042806D100BF002084F8340000BF012077
:1027F000C7E700BF002084F8340000BF0320C0E713
:1028000000BF002084F8340000BF2068406840F416
:10281000E060216848600020B3E70220B1E72DE9BD
:10282000F84304460F4690469946DDE9086594F85A
:102830003500012876D106B115B90120BDE8F8832D
:1028400042F2107301221A492046FEF77FFC08B1BC
:102850000220F3E700BF94F83400012801D10220E0
:10286000ECE7012084F8340000BF2068006820F401
:10287000006021680860422084F835000020A063D1
:1028800066622585658523204B4642463946009081
:102890002046FFF7C4FDA0B1A06B04280AD100BFF9
:1028A000002084F8340000BF0120C7E78000010049
:1028B0000200100000BF002084F8340000BF032095
:1028C000BCE7608D012815D12068006820F4806085
:1028D0002168086000BF2068406900902068806916
:1028E000009000BF00BF2068006840F400702168BD
:1028F000086027E0608D022815D12068006820F468
:102900008060216808602068006840F400602168E9
:10291000086000BF206840690090206880690090CE
:1029200000BF0FE01BE02068006840F48060216871
:10293000086000BF206840690090206880690090AE
:1029400000BF00BF00BF002084F8340000BF206833
:10295000406840F4E0602168486000206EE7022093
:102960006CE7704770B50546AC6B23230022F7492E
:102970002046FEF7EBFB18B1A06B40F02000A063EF
:102980002068006840F40070216808602068406892
:1029900020F400602168486000206085012084F8F0
:1029A0003500A06B18B12046FFF7AEF902E02046D3
:1029B000FFF7D7FF70BD2DE9F84304460F46904658
:1029C0009946DDE9086594F8350001285BD106B128
:1029D00015B90120BDE8F88342F210730122DC49E9
:1029E0002046FEF7B3FB08B10220F3E700BF94F8DE
:1029F0003400012801D10220ECE7012084F83400E2
:102A000000BF2068006820F4006021680860322060
:102A100084F835000020A063666225856585CD4871
:102A2000E16AC863CC48E16A8864216801F1100258
:102A30002B463146E06AFDF7EFFE23204B46424627
:102A4000394600902046FFF70FFC80B1A06B0428A8
:102A500006D100BF002084F8340000BF0120B9E790
:102A600000BF002084F8340000BF0320B2E72068D4
:102A7000406840F400602168486000BF002084F88E
:102A8000340000BFA6E70220A4E7704770B50546F2
:102A9000AC6B2068006820F48060216808602068C2
:102AA000006840F40070216808602068406820F4E5
:102AB0008050216848602068406820F400602168E8
:102AC000486000206085012084F83500A06B18B1B3
:102AD0002046FFF719F902E02046FFF7D6FF70BD48
:102AE0002DE9F84304460F4690469946DDE908650E
:102AF00094F83500012874D106B115B90120BDE85C
:102B0000F88342F21073012291492046FEF71EFB22
:102B100008B10220F3E700BF94F83400012801D186
:102B20000220ECE7012084F8340000BF2068006830
:102B300020F4006021680860422084F835000020FD
:102B4000A0636662258565858448216BC8638248D9
:102B5000216B8864226802F110012B463246206BFB
:102B6000FDF75AFE23204B46424639460090204648
:102B7000FFF755FC80B1A06B042806D100BF0020F0
:102B800084F8340000BF0120B9E700BF002084F8BA
:102B9000340000BF0320B2E7012D06D12068006891
:102BA00020F480602168086005E02068406840F4F7
:102BB0008050216848602068406840F400602168C7
:102BC000486000BF206840690090206880690090DC
:102BD00000BF00BF00BF002084F8340000BF8EE7B4
:102BE000FFE702208BE72DE9FC5F04460E461746FF
:102BF0001D464FF00008C146C246C3460120019061
:102C000094F8350001287DD142F210730122504919
:102C10002046FEF79BFA10B10220BDE8FC9F00BFE2
:102C200094F83400012801D10220F6E7012084F84D
:102C3000340000BF2068006820F40060216808604C
:102C4000022084F835000020A06300BF20680068DF
:102C500040F48070216808602B4600224FF001117B
:102C60002046FEF773FA08B10320D6E706F0FE000F
:102C70002168086101F06CFB804620684069C0F360
:102C8000400920684069C0F3802A94F835B013E009
:102C90002DB101F05DFBA0EB0800A84202D9032092
:102CA00084F8350020684069C0F340092068406915
:102CB000C0F3802A94F835B0B9F1000F05D1BAF10C
:102CC000000F02D1BBF1030FE2D1012084F83500DF
:102CD00020684069C0F3400018B32068006840F4E1
:102CE00000702168086000BF20684069009020687B
:102CF0008069009000BF00BF42F2107301221449A6
:102D0000204600E03CE0FEF721FA08B1032084E70A
:102D1000012084F8350000BF002084F8340000BF93
:102D20007BE72068006840F40070216808606FF459
:102D300080602168486142F21073012204492046F4
:102D4000FEF704FA60B1032067E700000400010009
:102D500002001000652900080B1D00088D2A0008DC
:102D60000198411C0191B842FFF470AF012084F832
:102D7000350000BF002084F8340000BF01204CE77C
:102D800002204AE70146488D48B108680069C2B28E
:102D90004B6A581C48621A70488D401E48850020B6
:102DA00070470146488D48B108680069C2B24B6A55
:102DB000581C48621A70488D401E48850020704794
:102DC0000146488D40B14A6A501C486210780A6832
:102DD0001061488D401E4885002070470146488D8F
:102DE00040B14A6A501C486210780A681061488DE8
:102DF000401E48850020704738B50446206840686A
:102E000020F4E0602168486000BF206840690090BD
:102E10002068006840F001002168086000BF00BF22
:102E20002068006820F4806021680860012084F830
:102E300035002046FFF77DF9002038BD08B5014672
:102E400000BF08684069009008688069009000BF72
:102E500000BF002008BD10B50446608D032810D1C6
:102E60002068006820F4806021680860206800699C
:102E7000C1B2626A501C60621170608D401E608534
:102E80003EE0608D022831D12068006840F4007077
:102E90002168086020680069C1B2626A501C6062E3
:102EA0001170608D401E608520680069C1B2626A41
:102EB000501C60621170608D401E60852068406803
:102EC00020F440702168486094F83500422806D10B
:102ED000012084F835002046FFF7D7FD10E00120DF
:102EE00084F835002046FEF7BCFF09E02068006941
:102EF000C1B2626A501C60621170608D401E6085B4
:102F0000002010BD70B504460025658D032D0AD93B
:102F100020680069C1B2626A501C60621170608DE5
:102F2000401E60852BE0022D01D0032D06D12068C4
:102F3000406820F480602168486020E02068406894
:102F400020F4E0602168486020680069C1B2626ACC
:102F5000501C60621170608D401E608594F83500D1
:102F6000422806D1012084F835002046FFF78DFD68
:102F700005E0012084F835002046FEF772FF0020AE
:102F800070BD10B50446608D48B1616A481C60622E
:102F9000087821680861608D401E60851CE020680B
:102FA000406820F4E060216848602068006840F4D0
:102FB00000702168086094F83500322806D101209D
:102FC00084F835002046FFF7CCFC05E0012084F8AA
:102FD00035002046FEF7AFFE002010BD01464A6ACC
:102FE000501C486210780A681061488D401E488560
:102FF000488D28B90868406820F480600A685060ED
:10300000002070472DE9F0410446002700260025E6
:10301000A8462068806900F00100002846D020689A
:103020008069C0F3800000B320684069C0F3C01716
:1030300020684068C0F3802620684069C0F380059E
:1030400020684068C0F3402837B1012E04D11DB973
:103050002046FFF7C3FF8CE0012DFCD1B8F1010F32
:10306000F9D12046FFF78DFF83E020684069C0F367
:10307000801720684068C0F3802620684069C0F34C
:10308000800520684068C0F3402837B1012E04D184
:103090001DB92046FFF736FF6BE0012D69D1B8F16D
:1030A000010F66D12046FFF7D6FE62E02068406936
:1030B000C0F3400720684068C0F34026206840699C
:1030C000C0F3001520688069C0F380082FB1012E7D
:1030D00003D12046FFF7B2FE4BE0012D05D1012EB2
:1030E00003D12046FFF788FE43E0B8F1010F20D15D
:1030F00020684069C0F3C01720684068C0F380268C
:1031000020684069C0F3800520684068C0F340280B
:1031100037B1012E04D11DB92046FFF75FFE28E02C
:10312000012D26D1B8F1010F23D12046FFF748FE2B
:103130001FE020684069C0F3801720684068C0F332
:10314000802620684069C0F3800520684068C0F38D
:10315000402837B1012E04D11DB92046FFF721FECA
:1031600007E0012D05D1B8F1010F02D12046FFF78C
:1031700009FEBDE8F08110B504462068406820F4DF
:10318000E060216848606FF48060216848612068D1
:10319000006820F4806021680860012084F8350010
:1031A0002046FEF705FF002010BD2DE9F041044642
:1031B00000250026002720684069C0F3002520680C
:1031C0004068C0F300264DB1012E07D1A06B40F03E
:1031D0000100A0636FF48070216848612068406935
:1031E000C0F3402520684068C0F300264DB1012E91
:1031F00007D1A06B40F00200A0636FF4007021685B
:10320000486120684069C0F3802520684068C0F3A9
:103210000026C5B1012E16D12068806900F0010595
:10322000668D94F8357035B92EB9122F03D120462A
:10323000FFF7A1FF07E0A06B40F00400A0636FF46C
:1032400080602168486120684069C0F3C02520681B
:103250004068C0F300264DB1012E07D1A06B40F0AD
:103260000800A0636FF4006021684861A06B58B14A
:10327000012084F835002068006820F4006021688F
:1032800008602046FEF740FDBDE8F081014691F858
:10329000350070470146886B704710B502460B46F3
:1032A000002192F83510022903D0122901D02229D9
:1032B00001D1022010BD022082F83500106800689C
:1032C00020F00100146820601068406A20F01000AF
:1032D000146860621068406A18431468606210687D
:1032E000006840F0010014682060012082F8350079
:1032F0000020DFE730B502460C460021002392F89B
:103300003530022B03D0122B01D0222B01D1022009
:1033100030BD022082F835001068006820F00100FE
:10332000156828601068406A81B221F00F0141EAF7
:10333000040081B2106841621068006840F001002A
:1033400015682860012082F835000020E0E70000C1
:10335000704738B504460025207800F001000028A9
:1033600066D0F648006800F00C0004280DD0F34841
:10337000006800F00C00082813D1F048001F006816
:1033800000F48000B0F5800F0BD1EC4808380068DD
:10339000C0F3404000284BD06068002848D101208D
:1033A00038BD0020E549891F087000F0D1FF0546AF
:1033B00008E000F0CDFF401B41F28831884201D97E
:1033C0000320EDE7DD4808380068C0F340400028DE
:1033D000EFD12079D949891F08706068A0B100F049
:1033E000B7FF054608E000F0B3FF401B41F288310B
:1033F000884201D90320D3E7D04808380068C0F3D9
:1034000040400028EFD013E000F0A2FF054608E09E
:1034100000F09EFF401B41F28831884201D9032011
:10342000BEE7C64808380068C0F340400028EFD126
:10343000207800F00200022869D1C048006800F03E
:103440000C0058B1BD48006800F00C00082821D1DC
:10345000BA48001F006800F48000D8B9B74808389F
:103460000068C0F3400020B1E068012801D00120CD
:1034700096E7B2480838006820F0F800F82292FA7F
:10348000A2F2B2FA82F2216991400843AB490839AD
:1034900008603CE0E06828B30120A949086000F01A
:1034A00057FF054606E000F053FF401B642801D992
:1034B000032075E7A14808380068C0F340000028E1
:1034C000F1D09E480838006820F0F800F82292FAFF
:1034D000A2F2B2FA82F22169914008439749083971
:1034E000086014E000209649086000F031FF0546AE
:1034F00006E000F02DFF401B642801D903204FE7B0
:103500008E4808380068C0F340000028F1D12078C8
:1035100000F0080008282CD16069A8B10120894971
:10352000086000F015FF054606E000F011FF401BA3
:10353000642801D9032033E780486C300068C0F369
:1035400040000028F1D014E000207E49086000F01F
:10355000FFFE054606E000F0FBFE401B642801D993
:1035600003201DE775486C300068C0F34000002858
:10357000F1D1207800F0040004286DD100BF6F481D
:103580003830006840F080506C4938310860084697
:10359000006800F08050009000BF00BF6A480068DB
:1035A00040F480706849086000F0D2FE054606E0ED
:1035B00000F0CEFE401B642801D90320F0E66248EB
:1035C000006800F480700028F2D000205B49683168
:1035D000087000F0BDFE054608E000F0B9FE401B93
:1035E00041F28831884201D90320D9E65348683036
:1035F0000068C0F340000028EFD1207A4F496831BD
:103600000870A068A0B100F0A3FE054608E000F035
:103610009FFE401B41F28831884201D90320BFE65A
:10362000464868300068C0F340000028EFD013E03F
:1036300000F08EFE054608E000F08AFE401B41F2D5
:103640008831884201D90320AAE63C4868300068E6
:10365000C0F340000028EFD1A069E8B33748006804
:1036600000F00C00082872D0A069022850D1002078
:103670003349086600F06CFE054606E000F068FE7F
:10368000401B642801D903208AE62C4808380068CA
:10369000C0F340600028F1D1D4E90701084347F6A0
:1036A000C07292FAA2F2B2FA82F2616A91400843C1
:1036B0000122A16AC2EB51014FF4403292FAA2F208
:1036C000B2FA82F2914008434FF0706292FAA2F28D
:1036D000B2FA82F2E16A00E03BE091400843174908
:1036E000091F086001201649086600F031FE0546F2
:1036F00006E000F02DFE401B642801D903204FE6B0
:103700000E4808380068C0F340600028F1D020E07F
:1037100000200B49086600F01BFE054606E000F09D
:1037200017FE401B642801D9032039E603480838F6
:103730000068C0F340600028F1D10AE00838024078
:1037400000004742800E474200700040FFE7012022
:1037500026E6002024E670B504460E460025FE4805
:10376000006800F00F00B0426FD2FB490E700846AF
:10377000006800F00F00B04201D0012070BD207839
:1037800000F00200022807D1F448006820F0F000A1
:10379000A1680843F1490860207800F00100002882
:1037A0003ED06068012807D1EC4808380068C0F3B3
:1037B0004040B8B90120E1E76068022802D06068A3
:1037C000032807D1E54808380068C0F3406048B9CD
:1037D0000120D3E7E14808380068C0F3400008B989
:1037E0000120CBE7DD48006820F003006168084352
:1037F000DA49086000F0ACFD05466068012810D188
:1038000008E000F0A5FD401B41F28831884201D953
:103810000320B3E7D148006800F00C000428F0D181
:10382000CDE06068022811D108E000F091FD401B56
:1038300041F28831884201D903209FE7C7480068D8
:1038400000F00C000828F0D1B9E024E060680328FB
:1038500010D108E000F07CFD401B41F28831884225
:1038600001D903208AE7BD48006800F00C00032856
:10387000F0D1A4E008E000F06BFD401B41F288317C
:10388000884201D9032079E7B448006800F00C00B1
:103890000028F0D193E0207800F00200022807D140
:1038A000AE48006820F0F000A1680843AB4908600A
:1038B000207800F00100002877D06068012807D147
:1038C000A64808380068C0F34040B8B9012055E761
:1038D0006068022802D06068032807D19F48083832
:1038E0000068C0F3406048B9012047E79B480838AA
:1038F0000068C0F3400008B901203FE7974800681E
:1039000020F00300616808439449086000F020FD3E
:1039100005466068012810D108E000F019FD401B41
:1039200041F28831884201D9032027E78B4800689B
:1039300000F00C000428F0D137E06068022810D1B4
:1039400008E000F005FD401B41F28831884201D9B2
:10395000032013E78148006800F00C000828F0D12C
:1039600023E06068032810D108E000F0F1FC401B60
:1039700041F28831884201D90320FFE67748006888
:1039800000F00C000328F0D10FE008E000F0E0FCAC
:10399000401B41F28831884201D90320EEE66F488E
:1039A000006800F00C000028F0D16B490E7008464A
:1039B000006800F00F00B04201D00120DEE6207860
:1039C00000F00400042807D16448006820F4E050A7
:1039D000E168084361490860207800F00800082881
:1039E00008D15E48006820F46040216940EAC100C7
:1039F0005A4908600F20FCF7ECFB0020BEE670B5CA
:103A000086B006460C46154636BB00BF53482830E4
:103A1000006840F0010051492831086008460068FC
:103A200000F00100009000BF00BF88150190022047
:103A300002900320049000200390059001A94848BB
:103A4000FDF72EF94548006820F0EC6044EA0501D6
:103A500008434249086025E000BF4048283000681C
:103A600040F004003D49283108600846006800F035
:103A70000400009000BF00BF481501900220029092
:103A80000320049000200390059001A93548FDF71C
:103A900007F93248006820F0784044EAC50108433D
:103AA0002E49086006B070BD01202F49C8647047D8
:103AB00000202D49C864704770B500210022002302
:103AC0000020264C246804F00C0424B1042C04D0FB
:103AD000082C4FD103E025484EE025484CE01F4C10
:103AE000241F246804F03F011C4C241F246804F4A4
:103AF000800484B11E4CB4FBF1F5184C241F2468DB
:103B000047F6C076344096FAA6F6B6FA86F6F44042
:103B100005FB04F20FE0154CB4FBF1F50F4C241F2C
:103B2000246847F6C076344096FAA6F6B6FA86F6CA
:103B3000F44005FB04F2094C241F246804F44034CB
:103B40004FF4403595FAA5F5B5FA85F5EC40641CBF
:103B50006300B2FBF3F00FE0003C02400838024083
:103B60000000024000080240000047420024F40028
:103B700000127A007E4800BF00BF70BD10B5FFF78D
:103B80009BFF7C49096801F0F001F02292FAA2F251
:103B9000B2FA82F2D140784A515CC8407749086055
:103BA0000846006810BD10B5FFF7E8FF71490968C5
:103BB00001F4E0514FF4E05292FAA2F2B2FA82F22A
:103BC000D1406D4A515CC84010BD10B5FFF7D6FF1B
:103BD0006849096801F460414FF4604292FAA2F228
:103BE000B2FA82F2D140644A515CC84010BD0F2144
:103BF000016060490839096801F48021B1F5802F1E
:103C000002D1052141600CE05A490839096801F4E4
:103C10008031B1F5803F02D10121416001E00021F6
:103C2000416054490839096801F0010111B10121CD
:103C3000C16001E00021C1604E490839096801F006
:103C4000F801F82292FAA2F2B2FA82F2D1400161AE
:103C500048496831096801F00401042902D10521AD
:103C600081600AE043496831096801F0010111B13E
:103C70000121816001E0002181603E496C310968C9
:103C800001F0010111B10121416101E00021416117
:103C900038490839096801F08071B1F1807F02D19B
:103CA0000221816101E0012181613249091F096816
:103CB00001F48002C2612F49091F096801F03F0227
:103CC00002622C49091F096847F6C072114092FA36
:103CD000A2F2B2FA82F2D14041622649091F096874
:103CE00001F4403101F5803149004FF4403292FA3D
:103CF000A2F2B2FA82F2D14081621E49091F09681C
:103D000001F070614FF0706292FAA2F2B2FA82F2A0
:103D1000D140C16270470F220260164A126802F059
:103D200003024260134A126802F0F0028260114AF4
:103D3000126802F4E052C2600E4A126802F4604255
:103D4000D20802610E4A126802F00F020A60704740
:103D5000704710B50748001D006800F080008028FB
:103D600005D1FFF7F5FF80200249891D087010BDBD
:103D70000024F40008380240A04F0008C4000020CE
:103D8000003C024000B593B000BF2648006840F0F8
:103D90008050244908600846006800F08050019077
:103DA00000BF00BF00BF2048006840F440401E49EB
:103DB00008600846006800F44040019000BF00BF62
:103DC000012002900390002005904FF4800109919A
:103DD0000220089008210A914FF4C8710B91042128
:103DE0000C9107210D9102A8FFF7B3FA10B1012041
:103DF00013B000BD02200F900020109007200E90FD
:103E00000E9840F008000E904FF480501190002062
:103E1000129006210EA8FFF79EFC08B10120E7E7EB
:103E20000020E5E7403802400070004001464FF4B2
:103E30000030081AC0F38F2070472DE9F043044684
:103E40000E461546DDE907892046FFF7EFFFC7B2AA
:103E5000002243E001209040304000B93CE0B148EE
:103E600030F81700012191400843AE4921F81700AE
:103E7000E0684FEA420C032101FA0CF1884351003B
:103E800008FA01F10843E06020684FEA420C032180
:103E900001FA0CF18843510005FA01F10843206052
:103EA000012D01D0022D16D161680120904080B211
:103EB00021EA000003FA02F189B208436060A068B9
:103EC0004FEA420C032101FA0CF18843510009FA30
:103ED00001F10843A06000BF501CC2B2102AB9DB38
:103EE000BDE8F08300B502461046FFF79FFF0121B1
:103EF00001FA00F08C49096808438B49086000BD4D
:103F00002DE9FC4305460C4616461F46DDE90989A6
:103F10000CB9BDE8FC832846FFF7E4FF3B46324678
:103F200021462846CDE90089FFF787FF00BFF0E76B
:103F30002DE9FC4705460E4617469846DDE90A9AE4
:103F40000EB9BDE8FC872846FFF7CCFF00241AE035
:103F50000120A040304000B914E0E10805F1200044
:103F600050F821006107CA0E0F2191408843610774
:103F7000C90E0AFA01F10843E20805F1200141F8EF
:103F8000220000BF641C102CE2D33B4602223146C3
:103F90002846CDE90089FFF750FF00BFD1E770B593
:103FA00003460C461846FFF741FFC5B2002214E055
:103FB00001209040204070B1186856000321B140A4
:103FC00008431860574830F8150001219140884394
:103FD000544921F81500501CC2B2102AE8DB70BD0C
:103FE00030B5024600200BE0012383400B402BB18B
:103FF000136845000324AC40A3431360431CD8B2AC
:104000001028F1DB30BD30B5024600200FE001235F
:1040100083400B404BB1136845000324AC40A343DD
:1040200045000124AC4023431360431CD8B2102840
:10403000EDDB30BD30B5024600200BE001238340AC
:104040000B402BB1136845000324AC40234313609D
:10405000431CD8B21028F1DB30BD30B50246002039
:1040600011E0012383400B4003B90AE013684500C7
:104070000324AC40A34345000224AC402343136017
:1040800000BF431CD8B21028EBDB30BD70B503462F
:10409000002011E0012484400C4004B90AE0DC68EF
:1040A00046000325B540AC43450002FA05F52C4314
:1040B000DC6000BF441CE0B21028EBDB70BD41F4B3
:1040C0008032C261C161C261C369C3697047014680
:1040D000002002E0421C90B249100129FADC70472E
:1040E00000B502461046FFF7A1FE012181400E48AF
:1040F000006888430C49086000BD00B502461046C0
:10410000FFF794FE074931F8100000BD00B50246E4
:104110001046FFF78BFE034931F81000C04380B210
:1041200000BD0000D00000203038024097480068F1
:1041300020F08070954A10601046006840F0807052
:1041400010609348006820F00100914A106010460A
:10415000006840F001001060002050601046416887
:1041600000BF00BF8A484068401A70472DE9F047F9
:1041700005460E4617469846DDF82090854800789B
:10418000052802DB0020BDE8F087142000F0CEFEF9
:1041900004460CB90020F6E765606068A0602078EE
:1041A00066F300002070207867F341002070C4F8A7
:1041B0000C80C4F81090774801780078401C754A4C
:1041C0001070101D40F821402046DCE72DE9F04139
:1041D0000646002408E06F48001D50F82400B04255
:1041E00000D105E0601CC4B26A480078A042F2DC4D
:1041F00000BF68480078A04201D1BDE8F081654861
:10420000001D50F8247000BFEFF31080054672B611
:1042100008E06048001D611C50F8211040F824108F
:10422000601CC4B25B480078401EA042F1DC5948D3
:104230000078401E57490870384600F04FFE05B917
:1042400062B600BFD9E7017821F002010170704722
:10425000017821F00201891C01707047416881607A
:10426000704709B1012200E00022037862F30003E5
:104270000370704741607047704710B5464800684A
:10428000401C454908604548006820B14348006823
:10429000401E42490860002453E03E48001D50F88B
:1042A000240000284BD03B48001D50F82400007823
:1042B000C0F34000F0B33748001D50F82400806878
:1042C00050B13448001D50F824008068401E314928
:1042D000091D51F8241088602E48001D50F8240054
:1042E000806838BB2B4B1B1D53F824301969294BB0
:1042F0001B1D53F8240053F82430DA6890472548F2
:10430000001D50F8240041682248001D50F8240088
:1043100081602048001D50F82400007800F0010062
:1043200040B91C48001D50F82400007820F002011C
:10433000184800E003E0001D50F824000170601CE4
:10434000C4B214480078A042A7DCFFF795FF10BD67
:1043500011480068704700B5014600BFEFF30580C3
:1043600048B9FFF7F5FF024600BFFFF7F1FF801ADB
:104370008842FAD309E006E04FF0E020006900F43B
:10438000803000B1491E0029F6D100BDFCED00E0EF
:10439000001000E0EC0000200800002004000020D5
:1043A0001CB5032000210B460122CDE900104FF47B
:1043B00070411E48FFF7A4FD4FF070401B491831B3
:1043C00008601CBD1CB50020022103460246CDE951
:1043D000001001211648FFF793FD1CBD1448006929
:1043E00000F0010080F0010030B91248007830B9C7
:1043F000012010490870704700200E490870002005
:10440000F9E70B48006900F0010080F0010038B1C5
:104410000848007838B1002006490870012070472C
:104420000120044908700020F9E70000000C024058
:10443000000002400C0000200146F848814201D1F2
:10444000F7487047F748814201D1F748F9E7F74844
:10445000814201D1F648F4E70020F2E700238361AE
:10446000C3604FF48043036100234361C36103626F
:1044700041608360704770471CB504469CB90420B6
:1044800001210B460A46CDE900108101E948FFF7FA
:104490004FFD042001210B460A46CDE90010C10161
:1044A000E548FFF745FD012C0AD1042001210B4608
:1044B0000A46CDE900104FF4C071E048FFF738FD1F
:1044C000042C03D10421D948FFF7D5FF1CBD1CB52E
:1044D000044654B9042001210B460A46CDE90010D8
:1044E0004FF44061D648FFF723FD022C09D1042088
:1044F00001210B460A46CDE900103021CF48FFF7D5
:1045000017FD042C03D10421C648FFF7B4FF1CBDDE
:104510001CB504464CB9042001210B460A46CDE9DE
:104520000010C021C648FFF703FD012C0AD104206A
:1045300001210B460A46CDE900104FF44071C048F6
:10454000FFF7F6FC022C0AD1042001210B460A4693
:10455000CDE900104FF41071B948FFF7E9FC042CC5
:1045600003D10421AD48FFF786FF1CBDF8B5044612
:104570000D4616462046FFF75FFF07463C60A748FA
:10458000844210D100BFAF48006840F40010AD492C
:1045900008600846006800F40010009000BF00BFEB
:1045A0002846FFF7B5FF9F48844210D100BFA548B9
:1045B000006840F48000A34908600846006800F4E1
:1045C0008000009000BF00BF2846FFF780FF97489B
:1045D000844210D100BF9B48006840F40000994914
:1045E00008600846006800F40000009000BF00BFAB
:1045F0002846FFF741FF31463846FFF72FFF384680
:10460000FCF7FDFC00213846FEF747FE0020F8BD10
:10461000FFB581B005460E461C462846FFF70CFF45
:1046200007464FF47A70012303AA314600903846BA
:10463000FCF794FE28B13846FEF72CFE012005B0A9
:10464000F0BD4FF47A70012322463146009038467F
:10465000FCF791FF20B13846FEF71CFE0120EEE783
:104660000020ECE72DE9FF4182B005460E461C46CE
:104670000C9F2846FFF7E0FE80464FF47A70012336
:1046800004AA314600904046FCF768FE30B140462F
:10469000FEF700FE012006B0BDE8F0814FF47A700D
:1046A0003B462246314600904046FCF764FF20B16D
:1046B0004046FEF7EFFD0120EDE70020EBE7F8B5FF
:1046C00004460D4616462046FFF7B6FE07464FF451
:1046D0007A7001233246294600903846FCF74BFF9A
:1046E00020B13846FEF7D6FD0120F8BD0020FCE7DA
:1046F0002DE9F84304460D4616461F462046FFF7AF
:104700009BFE80464FF47A703B4632462946009025
:104710004046FCF730FF28B14046FEF7BBFD0120C4
:10472000BDE8F8830020FBE72DE9FC4106460F4673
:1047300014461D463046FFF77FFE80468DF8044044
:104740008DF805504FF47A70022301AA3946009083
:104750004046FCF703FE28B14046FEF79BFD0120D2
:10476000BDE8FC810020FBE72DE9FE4306460F462D
:1047700014461D46DDF828803046FFF75DFE814671
:104780004FF47A70CDE900580290FF2C01DD102023
:1047900000E001200346224639464846FDF7BAFDAF
:1047A00028B14846FEF776FD0120BDE8FE830020D3
:1047B000FBE777B581B004460D462046FFF73CFE87
:1047C00006464FF47A70012303AA2946009030462A
:1047D000FCF7C4FD28B13046FEF75CFD012004B0B3
:1047E00070BD0020FBE72DE9F84304460D46164650
:1047F0001F462046FFF720FE80464FF47A703B4666
:104800003246294600904046FCF7A8FDE0B14046FC
:10481000FEF740FD0120BDE8F88300000054004091
:1048200010000020005800404C000020005C0040B8
:10483000880000200000024000080240001C0240E6
:1048400000040240403802400020BDE8F8832DE912
:10485000FC4106460F4614461D463046FFF7ECFD68
:104860008046200A8DF80400E0B28DF805008DF82E
:1048700006504FF47A70032301AA3946009040464F
:10488000FCF76CFD28B14046FEF704FD0120BDE8B1
:10489000FC810020FBE72DE9FC4106460F4614464B
:1048A0001D463046FFF7C8FD8046200A8DF80400FB
:1048B000E0B28DF805004FF47A70022301AA394660
:1048C00000904046FCF74AFD28B14046FEF7E2FC66
:1048D0000120BDE8FC814FF47A7001232A46394655
:1048E00000904046FCF747FE20B14046FEF7D2FC60
:1048F0000120EEE70020ECE770B504460D462046A7
:10490000FFF79AFD06460523022229463046FEF7A8
:104910006AF908B1012070BD0020FCE72DE9FF5FB6
:1049200005460E4617461C46DDE910ABDDE90E894B
:104930002846FFF781FD03904FF47A7001233A4631
:104940003146CDE9004802900398FDF7E3FC18B129
:10495000012004B0BDE8F09F4FF47A7001234A466D
:104960003146CDE900AB02900398FDF7E7FD08B1B1
:104970000120EEE70020ECE738B504460D4621782B
:104980006B461B22D648FFF743FE9DF8000000F05F
:10499000E70040EAC500C0B2009021789DF80030E1
:1049A0001B22CF48FFF7C0FE35B1012D09D0022DE3
:1049B0000CD0032D14D10EE09FEDCA0A84ED010A3C
:1049C0000FE09FEDC90A84ED010A0AE09FEDC70AD6
:1049D00084ED010A05E09FEDC60A84ED010A00BFDF
:1049E00000BF00BF002038BD38B504460D46217811
:1049F0006B461C22BA48FFF70BFE9DF8000000F042
:104A0000E70040EAC500C0B2009021789DF8003070
:104A10001C22B348FFF788FE35B1012D09D0022DC5
:104A20000CD0032D14D10EE09FEDB20A84ED020AE2
:104A30000FE09FEDB10A84ED020A0AE09FEDAF0A94
:104A400084ED020A05E09FEDAE0A84ED020A00BF84
:104A500000BF00BF002038BD70B504460D46217868
:104A60002B4619229E48FFF75FFE08B1012070BD5A
:104A70000020FCE7F8B504460D4616461F4645F0F3
:104A8000D00020709F4A00219548FFF76FFD2178E4
:104A90009348FFF731FF08B10220F8BD21786B463B
:104AA00075228F48FFF7B4FD9DF80000682801D0FB
:104AB0000320F2E7217800236B228948FFF734FEB8
:104AC00007212046FFF7C8FF31462046FFF78CFF3D
:104AD00039462046FFF750FF0020DEE738B5044690
:104AE0002178212338227E48FFF71EFE21786B466D
:104AF00037227B48FFF78CFD9DF8000040F0100046
:104B0000009021789DF8003037227548FFF70CFEA1
:104B1000002038BD10B504462178002338227048A3
:104B2000FFF702FE08B1012010BD0020FCE738B5F8
:104B300005460C460020207029786B463A226848CA
:104B4000FFF766FD08B1012038BD9DF80000207018
:104B50000020F9E73EB5044606200090217801AB1D
:104B60003B225F48FFF77EFD9DF805009DF804108D
:104B700040EA012000B2A0819DF807009DF80610D0
:104B800040EA012000B2E0819DF809009DF808107C
:104B900040EA012000B2208200203EBD3EB504461E
:104BA00006200090217801AB43224D48FFF75AFDC3
:104BB0009DF805009DF8041040EA012000B26082D3
:104BC0009DF807009DF8061040EA012000B2A0827F
:104BD0009DF809009DF8081040EA012000B2E0822B
:104BE00000203EBD10B52DED028B82B004460220A0
:104BF0000090217801AB41223948FFF733FD9DF841
:104C000005009DF8041040EA012000B208EE100AE9
:104C1000B8EEC80A9FED3C1AC0EE010A9FED3B0AB0
:104C200030EE800A84ED060A002002B0BDEC028B53
:104C300010BD10B52DED028B86B004460E200090FD
:104C4000217802AB3B222648FFF70CFD9DF80900B6
:104C50009DF8081040EA012000B2A0819DF80B00E9
:104C60009DF80A1040EA012000B2E0819DF80D0095
:104C70009DF80C1040EA012000B220829DF80F0040
:104C80009DF80E1040EA012000B208EE100AB8EEBE
:104C9000C80ADFED1D0A80EE201A9FED1C0A31EED6
:104CA000000A84ED060A9DF811009DF8101040EAF4
:104CB000012000B260829DF813009DF8121040EAB6
:104CC000012000B2A0829DF815009DF8141040EA62
:104CD000012000B2E082002006B0BDEC028B10BDC6
:104CE000005400402D23FA3B2D237A3C90C1F93C1F
:104CF00090C1793D00008038000000390000803903
:104D00000000003A801A06000000AA43B81E1242B2
:104D1000FFF738F8FBF76FFAFFF742FBFFF752FB9C
:104D20000023022219460948FFF7A4FE18B94FF4E0
:104D300080500749086008E00448FFF77AFF012423
:104D40002046FFF708FB00BF00BFF5E70401002085
:104D5000180C0240704700BFFEE700BFFEE700BF2F
:104D6000FEE700BFFEE7704770477047704710B519
:104D7000FFF783FA10BD00003F48006840F4700060
:104D80003D4908603D48006840F001003B4908602B
:104D900000203A490831086038480068384908401E
:104DA000364908603748091D0860081F006820F46C
:104DB0008020091F0860002030490C3108604FF046
:104DC00000602D4980390860704770B500200022CE
:104DD000022300240221294D08352D6805F00C001E
:104DE00020B1042806D0082834D107E0264D274EEC
:104DF000356033E0264D254E35602FE01F4D2D1DCB
:104E00002D68C5F380541D4D2D1D2D6805F03F0103
:104E100054B11F4DB5FBF1F5184E361D3668C6F37B
:104E2000881605FB06F209E0174DB5FBF1F5134EA8
:104E3000361D3668C6F3881605FB06F20F4D2D1D8C
:104E40002D68C5F301456D1C6B00B2FBF3F50F4EE9
:104E5000356003E00C4D0D4E356000BF00BF074DBF
:104E600008352D68C5F303150A4E705D074D2D6892
:104E7000C540064E356070BD88ED00E00038024048
:104E8000FFFFF6FE103000240024F400C4000020D0
:104E900000127A00B04F0008064C074D06E0E068AB
:104EA00040F0010394E8070098471034AC42F6D371
:104EB000FBF776F9C04F0008E04F000802E008C891
:104EC000121F08C1002AFAD170477047002001E084
:104ED00001C1121F002AFBD17047000010B5002845
:104EE00021D0114B0022001F196803E0814203D832
:104EF0000A4649680029F9D152B11368841A9C42C4
:104F000004D1006818441060104602E0506000E0D0
:104F1000186039B102680B1A934203D10B681A4426
:104F200002604968416010BDC8000020F0B50B3038
:104F3000154D20F007010024144A0FE003688B424E
:104F40000BD38B4205D95E1A43184768C3E9006743
:104F500000E04368136002C004E0021D10680028EE
:104F6000ECD12046002802D1286808B10020F0BD0D
:104F7000064A07481060074A121A22F00702C0E9E1
:104F8000002401202860D7E7CC000020C8000020C2
:104F90002401002020110020000610160006101623
:104FA00000000000010203040102030406070809CF
:104FB00000000000000000000102030406070809C9
:104FC000E04F000800000020D0000000BC4E0008A8
:104FD000B0500008D000002050140000CC4E000853
:104FE00000000000000000000000000000000000C1
:104FF000005400400000000000000000000000001D
:1050000000000000000000000000000000000000A0
:105010000000000000000000000000000000000090
:1050200000000000000000000000000000580040E8
:105030000000000000000000000000000000000070
:105040000000000000000000000000000000000060
:105050000000000000000000000000000000000050
:105060000000000000000000005C004000000000A4
:105070000000000000000000000000000000000030
:105080000000000000000000000000000000000020
:105090000000000000000000000000000000000010
:1050A000000000000024F4000000000000000000E8
:040000050800019955
:00000001FF
